{
	"data": {
		"bytecode": {
			"linkReferences": {},
			"object": "60a060405234801561000f575f5ffd5b5060405161191638038061191683398181016040528101906100319190610272565b80335f73ffffffffffffffffffffffffffffffffffffffff168173ffffffffffffffffffffffffffffffffffffffff16036100a3575f6040517f1e4fbdf700000000000000000000000000000000000000000000000000000000815260040161009a91906102ac565b60405180910390fd5b6100b28161015360201b60201c565b505f73ffffffffffffffffffffffffffffffffffffffff168173ffffffffffffffffffffffffffffffffffffffff1603610118576040517f5008268300000000000000000000000000000000000000000000000000000000815260040160405180910390fd5b8073ffffffffffffffffffffffffffffffffffffffff1660808173ffffffffffffffffffffffffffffffffffffffff168152505050506102c5565b5f5f5f9054906101000a900473ffffffffffffffffffffffffffffffffffffffff169050815f5f6101000a81548173ffffffffffffffffffffffffffffffffffffffff021916908373ffffffffffffffffffffffffffffffffffffffff1602179055508173ffffffffffffffffffffffffffffffffffffffff168173ffffffffffffffffffffffffffffffffffffffff167f8be0079c531659141344cd1fd0a4f28419497f9722a3daafe3b4186f6b6457e060405160405180910390a35050565b5f5ffd5b5f73ffffffffffffffffffffffffffffffffffffffff82169050919050565b5f61024182610218565b9050919050565b61025181610237565b811461025b575f5ffd5b50565b5f8151905061026c81610248565b92915050565b5f6020828403121561028757610286610214565b5b5f6102948482850161025e565b91505092915050565b6102a681610237565b82525050565b5f6020820190506102bf5f83018461029d565b92915050565b60805161162b6102eb5f395f818161028801528181610405015261088c015261162b5ff3fe60806040526004361061007a575f3560e01c80638da5cb5b1161004d5780638da5cb5b14610114578063be4f3e8f1461013e578063cf0af8791461017b578063f2fde38b146101975761007a565b806359a1aae11461007e57806367ebb6b2146100a6578063715018a6146100e2578063879d182d146100f8575b5f5ffd5b348015610089575f5ffd5b506100a4600480360381019061009f9190610d60565b6101bf565b005b3480156100b1575f5ffd5b506100cc60048036038101906100c79190610dd6565b6101d5565b6040516100d99190610e3d565b60405180910390f35b3480156100ed575f5ffd5b506100f6610273565b005b610112600480360381019061010d9190610ed2565b610286565b005b34801561011f575f5ffd5b50610128610396565b6040516101359190610f70565b60405180910390f35b348015610149575f5ffd5b50610164600480360381019061015f9190610dd6565b6103bd565b604051610172929190610f98565b60405180910390f35b61019560048036038101906101909190611014565b6103dd565b005b3480156101a2575f5ffd5b506101bd60048036038101906101b8919061109b565b6104eb565b005b6101c761056f565b6101d182826105f6565b5050565b6101dd610a70565b5f60015f8481526020019081526020015f206040518060400160405290815f820154815260200160018201548152505090505f5f1b815f015114801561022857505f5f1b8160200151145b1561026a57826040517f78d0dbfc00000000000000000000000000000000000000000000000000000000815260040161026191906110d5565b60405180910390fd5b80915050919050565b61027b61056f565b6102845f6106b2565b565b7f000000000000000000000000000000000000000000000000000000000000000073ffffffffffffffffffffffffffffffffffffffff163373ffffffffffffffffffffffffffffffffffffffff161461031657336040517fd7f7333400000000000000000000000000000000000000000000000000000000815260040161030d9190610f70565b60405180910390fd5b5f60015f856020013581526020019081526020015f206040518060400160405290815f82015481526020016001820154815250509050836040015f0135815f015114158061036f57508360400160200135816020015114155b156103845761037f848484610773565b610390565b61038f8484846107a5565b5b50505050565b5f5f5f9054906101000a900473ffffffffffffffffffffffffffffffffffffffff16905090565b6001602052805f5260405f205f91509050805f0154908060010154905082565b5f82826040516020016103f1929190611182565b60405160208183030381529060405290505f7f000000000000000000000000000000000000000000000000000000000000000073ffffffffffffffffffffffffffffffffffffffff1663dc20313734610449886101d5565b88866040518563ffffffff1660e01b815260040161046993929190611217565b60206040518083038185885af1158015610485573d5f5f3e3d5ffd5b50505050506040513d601f19601f820116820180604052508101906104aa9190611267565b9050847f9a0713d13bd9cc10bb3e581ae825f6cc721a6cb23feac011ad8e5a7dab79f4a1826040516104dc9190611292565b60405180910390a25050505050565b6104f361056f565b5f73ffffffffffffffffffffffffffffffffffffffff168173ffffffffffffffffffffffffffffffffffffffff1603610563575f6040517f1e4fbdf700000000000000000000000000000000000000000000000000000000815260040161055a9190610f70565b60405180910390fd5b61056c816106b2565b50565b610577610a69565b73ffffffffffffffffffffffffffffffffffffffff16610595610396565b73ffffffffffffffffffffffffffffffffffffffff16146105f4576105b8610a69565b6040517f118cdaa70000000000000000000000000000000000000000000000000000000081526004016105eb9190610f70565b60405180910390fd5b565b6105fe61056f565b8051825114610639576040517f947d5a8400000000000000000000000000000000000000000000000000000000815260040160405180910390fd5b5f5f90505b82518110156106ad5781818151811061065a576106596112ab565b5b602002602001015160015f858481518110610678576106776112ab565b5b602002602001015181526020019081526020015f205f820151815f01556020820151816001015590505080600101905061063e565b505050565b5f5f5f9054906101000a900473ffffffffffffffffffffffffffffffffffffffff169050815f5f6101000a81548173ffffffffffffffffffffffffffffffffffffffff021916908373ffffffffffffffffffffffffffffffffffffffff1602179055508173ffffffffffffffffffffffffffffffffffffffff168173ffffffffffffffffffffffffffffffffffffffff167f8be0079c531659141344cd1fd0a4f28419497f9722a3daafe3b4186f6b6457e060405160405180910390a35050565b6040517f7fee69a100000000000000000000000000000000000000000000000000000000815260040160405180910390fd5b5f5f83838101906107b6919061137a565b915091506040518060400160405280600481526020017f70696e67000000000000000000000000000000000000000000000000000000008152508051906020012082805190602001200361097e5784602001357f6a2ebcadb5c7a5390e43397830460b8d60144a607eb92002834d6affbf4489938660405160200161083b919061151c565b6040516020818303038152906040528051906020012060405161085e9190611292565b60405180910390a25f8160405160200161087891906115c2565b60405160208183030381529060405290505f7f000000000000000000000000000000000000000000000000000000000000000073ffffffffffffffffffffffffffffffffffffffff1663dc203137346108d48a602001356101d5565b8a60200135866040518563ffffffff1660e01b81526004016108f893929190611217565b60206040518083038185885af1158015610914573d5f5f3e3d5ffd5b50505050506040513d601f19601f820116820180604052508101906109399190611267565b905086602001357ff6eb543d49fe714b0e42cc5c6d367792f2c7d330650c3991d2dc463c1392d2a78260405161096f9190611292565b60405180910390a25050610a62565b6040518060400160405280600481526020017f706f6e670000000000000000000000000000000000000000000000000000000081525080519060200120828051906020012003610a2f5784602001357f7c0a7b5aa66c3b2e7d4d3377188f735e87372f7d0bbba37829e260f6f53f9377866040516020016109ff919061151c565b60405160208183030381529060405280519060200120604051610a229190611292565b60405180910390a2610a61565b6040517f5b60892f00000000000000000000000000000000000000000000000000000000815260040160405180910390fd5b5b5050505050565b5f33905090565b60405180604001604052805f81526020015f81525090565b5f604051905090565b5f5ffd5b5f5ffd5b5f5ffd5b5f601f19601f8301169050919050565b7f4e487b71000000000000000000000000000000000000000000000000000000005f52604160045260245ffd5b610ae382610a9d565b810181811067ffffffffffffffff82111715610b0257610b01610aad565b5b80604052505050565b5f610b14610a88565b9050610b208282610ada565b919050565b5f67ffffffffffffffff821115610b3f57610b3e610aad565b5b602082029050602081019050919050565b5f5ffd5b5f819050919050565b610b6681610b54565b8114610b70575f5ffd5b50565b5f81359050610b8181610b5d565b92915050565b5f610b99610b9484610b25565b610b0b565b90508083825260208201905060208402830185811115610bbc57610bbb610b50565b5b835b81811015610be55780610bd18882610b73565b845260208401935050602081019050610bbe565b5050509392505050565b5f82601f830112610c0357610c02610a99565b5b8135610c13848260208601610b87565b91505092915050565b5f67ffffffffffffffff821115610c3657610c35610aad565b5b602082029050602081019050919050565b5f5ffd5b5f819050919050565b610c5d81610c4b565b8114610c67575f5ffd5b50565b5f81359050610c7881610c54565b92915050565b5f60408284031215610c9357610c92610c47565b5b610c9d6040610b0b565b90505f610cac84828501610c6a565b5f830152506020610cbf84828501610c6a565b60208301525092915050565b5f610cdd610cd884610c1c565b610b0b565b90508083825260208201905060408402830185811115610d0057610cff610b50565b5b835b81811015610d295780610d158882610c7e565b845260208401935050604081019050610d02565b5050509392505050565b5f82601f830112610d4757610d46610a99565b5b8135610d57848260208601610ccb565b91505092915050565b5f5f60408385031215610d7657610d75610a91565b5b5f83013567ffffffffffffffff811115610d9357610d92610a95565b5b610d9f85828601610bef565b925050602083013567ffffffffffffffff811115610dc057610dbf610a95565b5b610dcc85828601610d33565b9150509250929050565b5f60208284031215610deb57610dea610a91565b5b5f610df884828501610b73565b91505092915050565b610e0a81610c4b565b82525050565b604082015f820151610e245f850182610e01565b506020820151610e376020850182610e01565b50505050565b5f604082019050610e505f830184610e10565b92915050565b5f5ffd5b5f6101008284031215610e7057610e6f610e56565b5b81905092915050565b5f5ffd5b5f5f83601f840112610e9257610e91610a99565b5b8235905067ffffffffffffffff811115610eaf57610eae610e79565b5b602083019150836001820283011115610ecb57610eca610b50565b5b9250929050565b5f5f5f6101208486031215610eea57610ee9610a91565b5b5f610ef786828701610e5a565b93505061010084013567ffffffffffffffff811115610f1957610f18610a95565b5b610f2586828701610e7d565b92509250509250925092565b5f73ffffffffffffffffffffffffffffffffffffffff82169050919050565b5f610f5a82610f31565b9050919050565b610f6a81610f50565b82525050565b5f602082019050610f835f830184610f61565b92915050565b610f9281610c4b565b82525050565b5f604082019050610fab5f830185610f89565b610fb86020830184610f89565b9392505050565b5f5f83601f840112610fd457610fd3610a99565b5b8235905067ffffffffffffffff811115610ff157610ff0610e79565b5b60208301915083600182028301111561100d5761100c610b50565b5b9250929050565b5f5f5f6040848603121561102b5761102a610a91565b5b5f61103886828701610b73565b935050602084013567ffffffffffffffff81111561105957611058610a95565b5b61106586828701610fbf565b92509250509250925092565b61107a81610f50565b8114611084575f5ffd5b50565b5f8135905061109581611071565b92915050565b5f602082840312156110b0576110af610a91565b5b5f6110bd84828501611087565b91505092915050565b6110cf81610b54565b82525050565b5f6020820190506110e85f8301846110c6565b92915050565b5f82825260208201905092915050565b7f70696e67000000000000000000000000000000000000000000000000000000005f82015250565b5f6111326004836110ee565b915061113d826110fe565b602082019050919050565b828183375f83830152505050565b5f61116183856110ee565b935061116e838584611148565b61117783610a9d565b840190509392505050565b5f6040820190508181035f83015261119981611126565b905081810360208301526111ae818486611156565b90509392505050565b5f81519050919050565b5f82825260208201905092915050565b8281835e5f83830152505050565b5f6111e9826111b7565b6111f381856111c1565b93506112038185602086016111d1565b61120c81610a9d565b840191505092915050565b5f60808201905061122a5f830186610e10565b61123760408301856110c6565b818103606083015261124981846111df565b9050949350505050565b5f8151905061126181610c54565b92915050565b5f6020828403121561127c5761127b610a91565b5b5f61128984828501611253565b91505092915050565b5f6020820190506112a55f830184610f89565b92915050565b7f4e487b71000000000000000000000000000000000000000000000000000000005f52603260045260245ffd5b5f5ffd5b5f67ffffffffffffffff8211156112f6576112f5610aad565b5b6112ff82610a9d565b9050602081019050919050565b5f61131e611319846112dc565b610b0b565b90508281526020810184848401111561133a576113396112d8565b5b611345848285611148565b509392505050565b5f82601f83011261136157611360610a99565b5b813561137184826020860161130c565b91505092915050565b5f5f604083850312156113905761138f610a91565b5b5f83013567ffffffffffffffff8111156113ad576113ac610a95565b5b6113b98582860161134d565b925050602083013567ffffffffffffffff8111156113da576113d9610a95565b5b6113e68582860161134d565b9150509250929050565b5f6113fe6020840184610b73565b905092915050565b61140f81610b54565b82525050565b5f82905092915050565b5f61142d6020840184610c6a565b905092915050565b604082016114455f83018361141f565b6114515f850182610e01565b5061145f602083018361141f565b61146c6020850182610e01565b50505050565b61010082016114835f8301836113f0565b61148f5f850182611406565b5061149d60208301836113f0565b6114aa6020850182611406565b506114b86040830183611415565b6114c56040850182611435565b506114d360808301836113f0565b6114e06080850182611406565b506114ee60a0830183611415565b6114fb60a0850182611435565b5061150960e083018361141f565b61151660e0850182610e01565b50505050565b5f610100820190506115305f830184611472565b92915050565b7f706f6e67000000000000000000000000000000000000000000000000000000005f82015250565b5f61156a6004836110ee565b915061157582611536565b602082019050919050565b5f81519050919050565b5f61159482611580565b61159e81856110ee565b93506115ae8185602086016111d1565b6115b781610a9d565b840191505092915050565b5f6040820190508181035f8301526115d98161155e565b905081810360208301526115ed818461158a565b90509291505056fea2646970667358221220c4e984ccf71df328b8bbb549850e0b485cf41842e465d342112c58d4af8131e364736f6c634300081b0033",
			"opcodes": "PUSH1 0xA0 PUSH1 0x40 MSTORE CALLVALUE DUP1 ISZERO PUSH2 0xF JUMPI PUSH0 PUSH0 REVERT JUMPDEST POP PUSH1 0x40 MLOAD PUSH2 0x1916 CODESIZE SUB DUP1 PUSH2 0x1916 DUP4 CODECOPY DUP2 DUP2 ADD PUSH1 0x40 MSTORE DUP2 ADD SWAP1 PUSH2 0x31 SWAP2 SWAP1 PUSH2 0x272 JUMP JUMPDEST DUP1 CALLER PUSH0 PUSH20 0xFFFFFFFFFFFFFFFFFFFFFFFFFFFFFFFFFFFFFFFF AND DUP2 PUSH20 0xFFFFFFFFFFFFFFFFFFFFFFFFFFFFFFFFFFFFFFFF AND SUB PUSH2 0xA3 JUMPI PUSH0 PUSH1 0x40 MLOAD PUSH32 0x1E4FBDF700000000000000000000000000000000000000000000000000000000 DUP2 MSTORE PUSH1 0x4 ADD PUSH2 0x9A SWAP2 SWAP1 PUSH2 0x2AC JUMP JUMPDEST PUSH1 0x40 MLOAD DUP1 SWAP2 SUB SWAP1 REVERT JUMPDEST PUSH2 0xB2 DUP2 PUSH2 0x153 PUSH1 0x20 SHL PUSH1 0x20 SHR JUMP JUMPDEST POP PUSH0 PUSH20 0xFFFFFFFFFFFFFFFFFFFFFFFFFFFFFFFFFFFFFFFF AND DUP2 PUSH20 0xFFFFFFFFFFFFFFFFFFFFFFFFFFFFFFFFFFFFFFFF AND SUB PUSH2 0x118 JUMPI PUSH1 0x40 MLOAD PUSH32 0x5008268300000000000000000000000000000000000000000000000000000000 DUP2 MSTORE PUSH1 0x4 ADD PUSH1 0x40 MLOAD DUP1 SWAP2 SUB SWAP1 REVERT JUMPDEST DUP1 PUSH20 0xFFFFFFFFFFFFFFFFFFFFFFFFFFFFFFFFFFFFFFFF AND PUSH1 0x80 DUP2 PUSH20 0xFFFFFFFFFFFFFFFFFFFFFFFFFFFFFFFFFFFFFFFF AND DUP2 MSTORE POP POP POP POP PUSH2 0x2C5 JUMP JUMPDEST PUSH0 PUSH0 PUSH0 SWAP1 SLOAD SWAP1 PUSH2 0x100 EXP SWAP1 DIV PUSH20 0xFFFFFFFFFFFFFFFFFFFFFFFFFFFFFFFFFFFFFFFF AND SWAP1 POP DUP2 PUSH0 PUSH0 PUSH2 0x100 EXP DUP2 SLOAD DUP2 PUSH20 0xFFFFFFFFFFFFFFFFFFFFFFFFFFFFFFFFFFFFFFFF MUL NOT AND SWAP1 DUP4 PUSH20 0xFFFFFFFFFFFFFFFFFFFFFFFFFFFFFFFFFFFFFFFF AND MUL OR SWAP1 SSTORE POP DUP2 PUSH20 0xFFFFFFFFFFFFFFFFFFFFFFFFFFFFFFFFFFFFFFFF AND DUP2 PUSH20 0xFFFFFFFFFFFFFFFFFFFFFFFFFFFFFFFFFFFFFFFF AND PUSH32 0x8BE0079C531659141344CD1FD0A4F28419497F9722A3DAAFE3B4186F6B6457E0 PUSH1 0x40 MLOAD PUSH1 0x40 MLOAD DUP1 SWAP2 SUB SWAP1 LOG3 POP POP JUMP JUMPDEST PUSH0 PUSH0 REVERT JUMPDEST PUSH0 PUSH20 0xFFFFFFFFFFFFFFFFFFFFFFFFFFFFFFFFFFFFFFFF DUP3 AND SWAP1 POP SWAP2 SWAP1 POP JUMP JUMPDEST PUSH0 PUSH2 0x241 DUP3 PUSH2 0x218 JUMP JUMPDEST SWAP1 POP SWAP2 SWAP1 POP JUMP JUMPDEST PUSH2 0x251 DUP2 PUSH2 0x237 JUMP JUMPDEST DUP2 EQ PUSH2 0x25B JUMPI PUSH0 PUSH0 REVERT JUMPDEST POP JUMP JUMPDEST PUSH0 DUP2 MLOAD SWAP1 POP PUSH2 0x26C DUP2 PUSH2 0x248 JUMP JUMPDEST SWAP3 SWAP2 POP POP JUMP JUMPDEST PUSH0 PUSH1 0x20 DUP3 DUP5 SUB SLT ISZERO PUSH2 0x287 JUMPI PUSH2 0x286 PUSH2 0x214 JUMP JUMPDEST JUMPDEST PUSH0 PUSH2 0x294 DUP5 DUP3 DUP6 ADD PUSH2 0x25E JUMP JUMPDEST SWAP2 POP POP SWAP3 SWAP2 POP POP JUMP JUMPDEST PUSH2 0x2A6 DUP2 PUSH2 0x237 JUMP JUMPDEST DUP3 MSTORE POP POP JUMP JUMPDEST PUSH0 PUSH1 0x20 DUP3 ADD SWAP1 POP PUSH2 0x2BF PUSH0 DUP4 ADD DUP5 PUSH2 0x29D JUMP JUMPDEST SWAP3 SWAP2 POP POP JUMP JUMPDEST PUSH1 0x80 MLOAD PUSH2 0x162B PUSH2 0x2EB PUSH0 CODECOPY PUSH0 DUP2 DUP2 PUSH2 0x288 ADD MSTORE DUP2 DUP2 PUSH2 0x405 ADD MSTORE PUSH2 0x88C ADD MSTORE PUSH2 0x162B PUSH0 RETURN INVALID PUSH1 0x80 PUSH1 0x40 MSTORE PUSH1 0x4 CALLDATASIZE LT PUSH2 0x7A JUMPI PUSH0 CALLDATALOAD PUSH1 0xE0 SHR DUP1 PUSH4 0x8DA5CB5B GT PUSH2 0x4D JUMPI DUP1 PUSH4 0x8DA5CB5B EQ PUSH2 0x114 JUMPI DUP1 PUSH4 0xBE4F3E8F EQ PUSH2 0x13E JUMPI DUP1 PUSH4 0xCF0AF879 EQ PUSH2 0x17B JUMPI DUP1 PUSH4 0xF2FDE38B EQ PUSH2 0x197 JUMPI PUSH2 0x7A JUMP JUMPDEST DUP1 PUSH4 0x59A1AAE1 EQ PUSH2 0x7E JUMPI DUP1 PUSH4 0x67EBB6B2 EQ PUSH2 0xA6 JUMPI DUP1 PUSH4 0x715018A6 EQ PUSH2 0xE2 JUMPI DUP1 PUSH4 0x879D182D EQ PUSH2 0xF8 JUMPI JUMPDEST PUSH0 PUSH0 REVERT JUMPDEST CALLVALUE DUP1 ISZERO PUSH2 0x89 JUMPI PUSH0 PUSH0 REVERT JUMPDEST POP PUSH2 0xA4 PUSH1 0x4 DUP1 CALLDATASIZE SUB DUP2 ADD SWAP1 PUSH2 0x9F SWAP2 SWAP1 PUSH2 0xD60 JUMP JUMPDEST PUSH2 0x1BF JUMP JUMPDEST STOP JUMPDEST CALLVALUE DUP1 ISZERO PUSH2 0xB1 JUMPI PUSH0 PUSH0 REVERT JUMPDEST POP PUSH2 0xCC PUSH1 0x4 DUP1 CALLDATASIZE SUB DUP2 ADD SWAP1 PUSH2 0xC7 SWAP2 SWAP1 PUSH2 0xDD6 JUMP JUMPDEST PUSH2 0x1D5 JUMP JUMPDEST PUSH1 0x40 MLOAD PUSH2 0xD9 SWAP2 SWAP1 PUSH2 0xE3D JUMP JUMPDEST PUSH1 0x40 MLOAD DUP1 SWAP2 SUB SWAP1 RETURN JUMPDEST CALLVALUE DUP1 ISZERO PUSH2 0xED JUMPI PUSH0 PUSH0 REVERT JUMPDEST POP PUSH2 0xF6 PUSH2 0x273 JUMP JUMPDEST STOP JUMPDEST PUSH2 0x112 PUSH1 0x4 DUP1 CALLDATASIZE SUB DUP2 ADD SWAP1 PUSH2 0x10D SWAP2 SWAP1 PUSH2 0xED2 JUMP JUMPDEST PUSH2 0x286 JUMP JUMPDEST STOP JUMPDEST CALLVALUE DUP1 ISZERO PUSH2 0x11F JUMPI PUSH0 PUSH0 REVERT JUMPDEST POP PUSH2 0x128 PUSH2 0x396 JUMP JUMPDEST PUSH1 0x40 MLOAD PUSH2 0x135 SWAP2 SWAP1 PUSH2 0xF70 JUMP JUMPDEST PUSH1 0x40 MLOAD DUP1 SWAP2 SUB SWAP1 RETURN JUMPDEST CALLVALUE DUP1 ISZERO PUSH2 0x149 JUMPI PUSH0 PUSH0 REVERT JUMPDEST POP PUSH2 0x164 PUSH1 0x4 DUP1 CALLDATASIZE SUB DUP2 ADD SWAP1 PUSH2 0x15F SWAP2 SWAP1 PUSH2 0xDD6 JUMP JUMPDEST PUSH2 0x3BD JUMP JUMPDEST PUSH1 0x40 MLOAD PUSH2 0x172 SWAP3 SWAP2 SWAP1 PUSH2 0xF98 JUMP JUMPDEST PUSH1 0x40 MLOAD DUP1 SWAP2 SUB SWAP1 RETURN JUMPDEST PUSH2 0x195 PUSH1 0x4 DUP1 CALLDATASIZE SUB DUP2 ADD SWAP1 PUSH2 0x190 SWAP2 SWAP1 PUSH2 0x1014 JUMP JUMPDEST PUSH2 0x3DD JUMP JUMPDEST STOP JUMPDEST CALLVALUE DUP1 ISZERO PUSH2 0x1A2 JUMPI PUSH0 PUSH0 REVERT JUMPDEST POP PUSH2 0x1BD PUSH1 0x4 DUP1 CALLDATASIZE SUB DUP2 ADD SWAP1 PUSH2 0x1B8 SWAP2 SWAP1 PUSH2 0x109B JUMP JUMPDEST PUSH2 0x4EB JUMP JUMPDEST STOP JUMPDEST PUSH2 0x1C7 PUSH2 0x56F JUMP JUMPDEST PUSH2 0x1D1 DUP3 DUP3 PUSH2 0x5F6 JUMP JUMPDEST POP POP JUMP JUMPDEST PUSH2 0x1DD PUSH2 0xA70 JUMP JUMPDEST PUSH0 PUSH1 0x1 PUSH0 DUP5 DUP2 MSTORE PUSH1 0x20 ADD SWAP1 DUP2 MSTORE PUSH1 0x20 ADD PUSH0 KECCAK256 PUSH1 0x40 MLOAD DUP1 PUSH1 0x40 ADD PUSH1 0x40 MSTORE SWAP1 DUP2 PUSH0 DUP3 ADD SLOAD DUP2 MSTORE PUSH1 0x20 ADD PUSH1 0x1 DUP3 ADD SLOAD DUP2 MSTORE POP POP SWAP1 POP PUSH0 PUSH0 SHL DUP2 PUSH0 ADD MLOAD EQ DUP1 ISZERO PUSH2 0x228 JUMPI POP PUSH0 PUSH0 SHL DUP2 PUSH1 0x20 ADD MLOAD EQ JUMPDEST ISZERO PUSH2 0x26A JUMPI DUP3 PUSH1 0x40 MLOAD PUSH32 0x78D0DBFC00000000000000000000000000000000000000000000000000000000 DUP2 MSTORE PUSH1 0x4 ADD PUSH2 0x261 SWAP2 SWAP1 PUSH2 0x10D5 JUMP JUMPDEST PUSH1 0x40 MLOAD DUP1 SWAP2 SUB SWAP1 REVERT JUMPDEST DUP1 SWAP2 POP POP SWAP2 SWAP1 POP JUMP JUMPDEST PUSH2 0x27B PUSH2 0x56F JUMP JUMPDEST PUSH2 0x284 PUSH0 PUSH2 0x6B2 JUMP JUMPDEST JUMP JUMPDEST PUSH32 0x0 PUSH20 0xFFFFFFFFFFFFFFFFFFFFFFFFFFFFFFFFFFFFFFFF AND CALLER PUSH20 0xFFFFFFFFFFFFFFFFFFFFFFFFFFFFFFFFFFFFFFFF AND EQ PUSH2 0x316 JUMPI CALLER PUSH1 0x40 MLOAD PUSH32 0xD7F7333400000000000000000000000000000000000000000000000000000000 DUP2 MSTORE PUSH1 0x4 ADD PUSH2 0x30D SWAP2 SWAP1 PUSH2 0xF70 JUMP JUMPDEST PUSH1 0x40 MLOAD DUP1 SWAP2 SUB SWAP1 REVERT JUMPDEST PUSH0 PUSH1 0x1 PUSH0 DUP6 PUSH1 0x20 ADD CALLDATALOAD DUP2 MSTORE PUSH1 0x20 ADD SWAP1 DUP2 MSTORE PUSH1 0x20 ADD PUSH0 KECCAK256 PUSH1 0x40 MLOAD DUP1 PUSH1 0x40 ADD PUSH1 0x40 MSTORE SWAP1 DUP2 PUSH0 DUP3 ADD SLOAD DUP2 MSTORE PUSH1 0x20 ADD PUSH1 0x1 DUP3 ADD SLOAD DUP2 MSTORE POP POP SWAP1 POP DUP4 PUSH1 0x40 ADD PUSH0 ADD CALLDATALOAD DUP2 PUSH0 ADD MLOAD EQ ISZERO DUP1 PUSH2 0x36F JUMPI POP DUP4 PUSH1 0x40 ADD PUSH1 0x20 ADD CALLDATALOAD DUP2 PUSH1 0x20 ADD MLOAD EQ ISZERO JUMPDEST ISZERO PUSH2 0x384 JUMPI PUSH2 0x37F DUP5 DUP5 DUP5 PUSH2 0x773 JUMP JUMPDEST PUSH2 0x390 JUMP JUMPDEST PUSH2 0x38F DUP5 DUP5 DUP5 PUSH2 0x7A5 JUMP JUMPDEST JUMPDEST POP POP POP POP JUMP JUMPDEST PUSH0 PUSH0 PUSH0 SWAP1 SLOAD SWAP1 PUSH2 0x100 EXP SWAP1 DIV PUSH20 0xFFFFFFFFFFFFFFFFFFFFFFFFFFFFFFFFFFFFFFFF AND SWAP1 POP SWAP1 JUMP JUMPDEST PUSH1 0x1 PUSH1 0x20 MSTORE DUP1 PUSH0 MSTORE PUSH1 0x40 PUSH0 KECCAK256 PUSH0 SWAP2 POP SWAP1 POP DUP1 PUSH0 ADD SLOAD SWAP1 DUP1 PUSH1 0x1 ADD SLOAD SWAP1 POP DUP3 JUMP JUMPDEST PUSH0 DUP3 DUP3 PUSH1 0x40 MLOAD PUSH1 0x20 ADD PUSH2 0x3F1 SWAP3 SWAP2 SWAP1 PUSH2 0x1182 JUMP JUMPDEST PUSH1 0x40 MLOAD PUSH1 0x20 DUP2 DUP4 SUB SUB DUP2 MSTORE SWAP1 PUSH1 0x40 MSTORE SWAP1 POP PUSH0 PUSH32 0x0 PUSH20 0xFFFFFFFFFFFFFFFFFFFFFFFFFFFFFFFFFFFFFFFF AND PUSH4 0xDC203137 CALLVALUE PUSH2 0x449 DUP9 PUSH2 0x1D5 JUMP JUMPDEST DUP9 DUP7 PUSH1 0x40 MLOAD DUP6 PUSH4 0xFFFFFFFF AND PUSH1 0xE0 SHL DUP2 MSTORE PUSH1 0x4 ADD PUSH2 0x469 SWAP4 SWAP3 SWAP2 SWAP1 PUSH2 0x1217 JUMP JUMPDEST PUSH1 0x20 PUSH1 0x40 MLOAD DUP1 DUP4 SUB DUP2 DUP6 DUP9 GAS CALL ISZERO DUP1 ISZERO PUSH2 0x485 JUMPI RETURNDATASIZE PUSH0 PUSH0 RETURNDATACOPY RETURNDATASIZE PUSH0 REVERT JUMPDEST POP POP POP POP POP PUSH1 0x40 MLOAD RETURNDATASIZE PUSH1 0x1F NOT PUSH1 0x1F DUP3 ADD AND DUP3 ADD DUP1 PUSH1 0x40 MSTORE POP DUP2 ADD SWAP1 PUSH2 0x4AA SWAP2 SWAP1 PUSH2 0x1267 JUMP JUMPDEST SWAP1 POP DUP5 PUSH32 0x9A0713D13BD9CC10BB3E581AE825F6CC721A6CB23FEAC011AD8E5A7DAB79F4A1 DUP3 PUSH1 0x40 MLOAD PUSH2 0x4DC SWAP2 SWAP1 PUSH2 0x1292 JUMP JUMPDEST PUSH1 0x40 MLOAD DUP1 SWAP2 SUB SWAP1 LOG2 POP POP POP POP POP JUMP JUMPDEST PUSH2 0x4F3 PUSH2 0x56F JUMP JUMPDEST PUSH0 PUSH20 0xFFFFFFFFFFFFFFFFFFFFFFFFFFFFFFFFFFFFFFFF AND DUP2 PUSH20 0xFFFFFFFFFFFFFFFFFFFFFFFFFFFFFFFFFFFFFFFF AND SUB PUSH2 0x563 JUMPI PUSH0 PUSH1 0x40 MLOAD PUSH32 0x1E4FBDF700000000000000000000000000000000000000000000000000000000 DUP2 MSTORE PUSH1 0x4 ADD PUSH2 0x55A SWAP2 SWAP1 PUSH2 0xF70 JUMP JUMPDEST PUSH1 0x40 MLOAD DUP1 SWAP2 SUB SWAP1 REVERT JUMPDEST PUSH2 0x56C DUP2 PUSH2 0x6B2 JUMP JUMPDEST POP JUMP JUMPDEST PUSH2 0x577 PUSH2 0xA69 JUMP JUMPDEST PUSH20 0xFFFFFFFFFFFFFFFFFFFFFFFFFFFFFFFFFFFFFFFF AND PUSH2 0x595 PUSH2 0x396 JUMP JUMPDEST PUSH20 0xFFFFFFFFFFFFFFFFFFFFFFFFFFFFFFFFFFFFFFFF AND EQ PUSH2 0x5F4 JUMPI PUSH2 0x5B8 PUSH2 0xA69 JUMP JUMPDEST PUSH1 0x40 MLOAD PUSH32 0x118CDAA700000000000000000000000000000000000000000000000000000000 DUP2 MSTORE PUSH1 0x4 ADD PUSH2 0x5EB SWAP2 SWAP1 PUSH2 0xF70 JUMP JUMPDEST PUSH1 0x40 MLOAD DUP1 SWAP2 SUB SWAP1 REVERT JUMPDEST JUMP JUMPDEST PUSH2 0x5FE PUSH2 0x56F JUMP JUMPDEST DUP1 MLOAD DUP3 MLOAD EQ PUSH2 0x639 JUMPI PUSH1 0x40 MLOAD PUSH32 0x947D5A8400000000000000000000000000000000000000000000000000000000 DUP2 MSTORE PUSH1 0x4 ADD PUSH1 0x40 MLOAD DUP1 SWAP2 SUB SWAP1 REVERT JUMPDEST PUSH0 PUSH0 SWAP1 POP JUMPDEST DUP3 MLOAD DUP2 LT ISZERO PUSH2 0x6AD JUMPI DUP2 DUP2 DUP2 MLOAD DUP2 LT PUSH2 0x65A JUMPI PUSH2 0x659 PUSH2 0x12AB JUMP JUMPDEST JUMPDEST PUSH1 0x20 MUL PUSH1 0x20 ADD ADD MLOAD PUSH1 0x1 PUSH0 DUP6 DUP5 DUP2 MLOAD DUP2 LT PUSH2 0x678 JUMPI PUSH2 0x677 PUSH2 0x12AB JUMP JUMPDEST JUMPDEST PUSH1 0x20 MUL PUSH1 0x20 ADD ADD MLOAD DUP2 MSTORE PUSH1 0x20 ADD SWAP1 DUP2 MSTORE PUSH1 0x20 ADD PUSH0 KECCAK256 PUSH0 DUP3 ADD MLOAD DUP2 PUSH0 ADD SSTORE PUSH1 0x20 DUP3 ADD MLOAD DUP2 PUSH1 0x1 ADD SSTORE SWAP1 POP POP DUP1 PUSH1 0x1 ADD SWAP1 POP PUSH2 0x63E JUMP JUMPDEST POP POP POP JUMP JUMPDEST PUSH0 PUSH0 PUSH0 SWAP1 SLOAD SWAP1 PUSH2 0x100 EXP SWAP1 DIV PUSH20 0xFFFFFFFFFFFFFFFFFFFFFFFFFFFFFFFFFFFFFFFF AND SWAP1 POP DUP2 PUSH0 PUSH0 PUSH2 0x100 EXP DUP2 SLOAD DUP2 PUSH20 0xFFFFFFFFFFFFFFFFFFFFFFFFFFFFFFFFFFFFFFFF MUL NOT AND SWAP1 DUP4 PUSH20 0xFFFFFFFFFFFFFFFFFFFFFFFFFFFFFFFFFFFFFFFF AND MUL OR SWAP1 SSTORE POP DUP2 PUSH20 0xFFFFFFFFFFFFFFFFFFFFFFFFFFFFFFFFFFFFFFFF AND DUP2 PUSH20 0xFFFFFFFFFFFFFFFFFFFFFFFFFFFFFFFFFFFFFFFF AND PUSH32 0x8BE0079C531659141344CD1FD0A4F28419497F9722A3DAAFE3B4186F6B6457E0 PUSH1 0x40 MLOAD PUSH1 0x40 MLOAD DUP1 SWAP2 SUB SWAP1 LOG3 POP POP JUMP JUMPDEST PUSH1 0x40 MLOAD PUSH32 0x7FEE69A100000000000000000000000000000000000000000000000000000000 DUP2 MSTORE PUSH1 0x4 ADD PUSH1 0x40 MLOAD DUP1 SWAP2 SUB SWAP1 REVERT JUMPDEST PUSH0 PUSH0 DUP4 DUP4 DUP2 ADD SWAP1 PUSH2 0x7B6 SWAP2 SWAP1 PUSH2 0x137A JUMP JUMPDEST SWAP2 POP SWAP2 POP PUSH1 0x40 MLOAD DUP1 PUSH1 0x40 ADD PUSH1 0x40 MSTORE DUP1 PUSH1 0x4 DUP2 MSTORE PUSH1 0x20 ADD PUSH32 0x70696E6700000000000000000000000000000000000000000000000000000000 DUP2 MSTORE POP DUP1 MLOAD SWAP1 PUSH1 0x20 ADD KECCAK256 DUP3 DUP1 MLOAD SWAP1 PUSH1 0x20 ADD KECCAK256 SUB PUSH2 0x97E JUMPI DUP5 PUSH1 0x20 ADD CALLDATALOAD PUSH32 0x6A2EBCADB5C7A5390E43397830460B8D60144A607EB92002834D6AFFBF448993 DUP7 PUSH1 0x40 MLOAD PUSH1 0x20 ADD PUSH2 0x83B SWAP2 SWAP1 PUSH2 0x151C JUMP JUMPDEST PUSH1 0x40 MLOAD PUSH1 0x20 DUP2 DUP4 SUB SUB DUP2 MSTORE SWAP1 PUSH1 0x40 MSTORE DUP1 MLOAD SWAP1 PUSH1 0x20 ADD KECCAK256 PUSH1 0x40 MLOAD PUSH2 0x85E SWAP2 SWAP1 PUSH2 0x1292 JUMP JUMPDEST PUSH1 0x40 MLOAD DUP1 SWAP2 SUB SWAP1 LOG2 PUSH0 DUP2 PUSH1 0x40 MLOAD PUSH1 0x20 ADD PUSH2 0x878 SWAP2 SWAP1 PUSH2 0x15C2 JUMP JUMPDEST PUSH1 0x40 MLOAD PUSH1 0x20 DUP2 DUP4 SUB SUB DUP2 MSTORE SWAP1 PUSH1 0x40 MSTORE SWAP1 POP PUSH0 PUSH32 0x0 PUSH20 0xFFFFFFFFFFFFFFFFFFFFFFFFFFFFFFFFFFFFFFFF AND PUSH4 0xDC203137 CALLVALUE PUSH2 0x8D4 DUP11 PUSH1 0x20 ADD CALLDATALOAD PUSH2 0x1D5 JUMP JUMPDEST DUP11 PUSH1 0x20 ADD CALLDATALOAD DUP7 PUSH1 0x40 MLOAD DUP6 PUSH4 0xFFFFFFFF AND PUSH1 0xE0 SHL DUP2 MSTORE PUSH1 0x4 ADD PUSH2 0x8F8 SWAP4 SWAP3 SWAP2 SWAP1 PUSH2 0x1217 JUMP JUMPDEST PUSH1 0x20 PUSH1 0x40 MLOAD DUP1 DUP4 SUB DUP2 DUP6 DUP9 GAS CALL ISZERO DUP1 ISZERO PUSH2 0x914 JUMPI RETURNDATASIZE PUSH0 PUSH0 RETURNDATACOPY RETURNDATASIZE PUSH0 REVERT JUMPDEST POP POP POP POP POP PUSH1 0x40 MLOAD RETURNDATASIZE PUSH1 0x1F NOT PUSH1 0x1F DUP3 ADD AND DUP3 ADD DUP1 PUSH1 0x40 MSTORE POP DUP2 ADD SWAP1 PUSH2 0x939 SWAP2 SWAP1 PUSH2 0x1267 JUMP JUMPDEST SWAP1 POP DUP7 PUSH1 0x20 ADD CALLDATALOAD PUSH32 0xF6EB543D49FE714B0E42CC5C6D367792F2C7D330650C3991D2DC463C1392D2A7 DUP3 PUSH1 0x40 MLOAD PUSH2 0x96F SWAP2 SWAP1 PUSH2 0x1292 JUMP JUMPDEST PUSH1 0x40 MLOAD DUP1 SWAP2 SUB SWAP1 LOG2 POP POP PUSH2 0xA62 JUMP JUMPDEST PUSH1 0x40 MLOAD DUP1 PUSH1 0x40 ADD PUSH1 0x40 MSTORE DUP1 PUSH1 0x4 DUP2 MSTORE PUSH1 0x20 ADD PUSH32 0x706F6E6700000000000000000000000000000000000000000000000000000000 DUP2 MSTORE POP DUP1 MLOAD SWAP1 PUSH1 0x20 ADD KECCAK256 DUP3 DUP1 MLOAD SWAP1 PUSH1 0x20 ADD KECCAK256 SUB PUSH2 0xA2F JUMPI DUP5 PUSH1 0x20 ADD CALLDATALOAD PUSH32 0x7C0A7B5AA66C3B2E7D4D3377188F735E87372F7D0BBBA37829E260F6F53F9377 DUP7 PUSH1 0x40 MLOAD PUSH1 0x20 ADD PUSH2 0x9FF SWAP2 SWAP1 PUSH2 0x151C JUMP JUMPDEST PUSH1 0x40 MLOAD PUSH1 0x20 DUP2 DUP4 SUB SUB DUP2 MSTORE SWAP1 PUSH1 0x40 MSTORE DUP1 MLOAD SWAP1 PUSH1 0x20 ADD KECCAK256 PUSH1 0x40 MLOAD PUSH2 0xA22 SWAP2 SWAP1 PUSH2 0x1292 JUMP JUMPDEST PUSH1 0x40 MLOAD DUP1 SWAP2 SUB SWAP1 LOG2 PUSH2 0xA61 JUMP JUMPDEST PUSH1 0x40 MLOAD PUSH32 0x5B60892F00000000000000000000000000000000000000000000000000000000 DUP2 MSTORE PUSH1 0x4 ADD PUSH1 0x40 MLOAD DUP1 SWAP2 SUB SWAP1 REVERT JUMPDEST JUMPDEST POP POP POP POP POP JUMP JUMPDEST PUSH0 CALLER SWAP1 POP SWAP1 JUMP JUMPDEST PUSH1 0x40 MLOAD DUP1 PUSH1 0x40 ADD PUSH1 0x40 MSTORE DUP1 PUSH0 DUP2 MSTORE PUSH1 0x20 ADD PUSH0 DUP2 MSTORE POP SWAP1 JUMP JUMPDEST PUSH0 PUSH1 0x40 MLOAD SWAP1 POP SWAP1 JUMP JUMPDEST PUSH0 PUSH0 REVERT JUMPDEST PUSH0 PUSH0 REVERT JUMPDEST PUSH0 PUSH0 REVERT JUMPDEST PUSH0 PUSH1 0x1F NOT PUSH1 0x1F DUP4 ADD AND SWAP1 POP SWAP2 SWAP1 POP JUMP JUMPDEST PUSH32 0x4E487B7100000000000000000000000000000000000000000000000000000000 PUSH0 MSTORE PUSH1 0x41 PUSH1 0x4 MSTORE PUSH1 0x24 PUSH0 REVERT JUMPDEST PUSH2 0xAE3 DUP3 PUSH2 0xA9D JUMP JUMPDEST DUP2 ADD DUP2 DUP2 LT PUSH8 0xFFFFFFFFFFFFFFFF DUP3 GT OR ISZERO PUSH2 0xB02 JUMPI PUSH2 0xB01 PUSH2 0xAAD JUMP JUMPDEST JUMPDEST DUP1 PUSH1 0x40 MSTORE POP POP POP JUMP JUMPDEST PUSH0 PUSH2 0xB14 PUSH2 0xA88 JUMP JUMPDEST SWAP1 POP PUSH2 0xB20 DUP3 DUP3 PUSH2 0xADA JUMP JUMPDEST SWAP2 SWAP1 POP JUMP JUMPDEST PUSH0 PUSH8 0xFFFFFFFFFFFFFFFF DUP3 GT ISZERO PUSH2 0xB3F JUMPI PUSH2 0xB3E PUSH2 0xAAD JUMP JUMPDEST JUMPDEST PUSH1 0x20 DUP3 MUL SWAP1 POP PUSH1 0x20 DUP2 ADD SWAP1 POP SWAP2 SWAP1 POP JUMP JUMPDEST PUSH0 PUSH0 REVERT JUMPDEST PUSH0 DUP2 SWAP1 POP SWAP2 SWAP1 POP JUMP JUMPDEST PUSH2 0xB66 DUP2 PUSH2 0xB54 JUMP JUMPDEST DUP2 EQ PUSH2 0xB70 JUMPI PUSH0 PUSH0 REVERT JUMPDEST POP JUMP JUMPDEST PUSH0 DUP2 CALLDATALOAD SWAP1 POP PUSH2 0xB81 DUP2 PUSH2 0xB5D JUMP JUMPDEST SWAP3 SWAP2 POP POP JUMP JUMPDEST PUSH0 PUSH2 0xB99 PUSH2 0xB94 DUP5 PUSH2 0xB25 JUMP JUMPDEST PUSH2 0xB0B JUMP JUMPDEST SWAP1 POP DUP1 DUP4 DUP3 MSTORE PUSH1 0x20 DUP3 ADD SWAP1 POP PUSH1 0x20 DUP5 MUL DUP4 ADD DUP6 DUP2 GT ISZERO PUSH2 0xBBC JUMPI PUSH2 0xBBB PUSH2 0xB50 JUMP JUMPDEST JUMPDEST DUP4 JUMPDEST DUP2 DUP2 LT ISZERO PUSH2 0xBE5 JUMPI DUP1 PUSH2 0xBD1 DUP9 DUP3 PUSH2 0xB73 JUMP JUMPDEST DUP5 MSTORE PUSH1 0x20 DUP5 ADD SWAP4 POP POP PUSH1 0x20 DUP2 ADD SWAP1 POP PUSH2 0xBBE JUMP JUMPDEST POP POP POP SWAP4 SWAP3 POP POP POP JUMP JUMPDEST PUSH0 DUP3 PUSH1 0x1F DUP4 ADD SLT PUSH2 0xC03 JUMPI PUSH2 0xC02 PUSH2 0xA99 JUMP JUMPDEST JUMPDEST DUP2 CALLDATALOAD PUSH2 0xC13 DUP5 DUP3 PUSH1 0x20 DUP7 ADD PUSH2 0xB87 JUMP JUMPDEST SWAP2 POP POP SWAP3 SWAP2 POP POP JUMP JUMPDEST PUSH0 PUSH8 0xFFFFFFFFFFFFFFFF DUP3 GT ISZERO PUSH2 0xC36 JUMPI PUSH2 0xC35 PUSH2 0xAAD JUMP JUMPDEST JUMPDEST PUSH1 0x20 DUP3 MUL SWAP1 POP PUSH1 0x20 DUP2 ADD SWAP1 POP SWAP2 SWAP1 POP JUMP JUMPDEST PUSH0 PUSH0 REVERT JUMPDEST PUSH0 DUP2 SWAP1 POP SWAP2 SWAP1 POP JUMP JUMPDEST PUSH2 0xC5D DUP2 PUSH2 0xC4B JUMP JUMPDEST DUP2 EQ PUSH2 0xC67 JUMPI PUSH0 PUSH0 REVERT JUMPDEST POP JUMP JUMPDEST PUSH0 DUP2 CALLDATALOAD SWAP1 POP PUSH2 0xC78 DUP2 PUSH2 0xC54 JUMP JUMPDEST SWAP3 SWAP2 POP POP JUMP JUMPDEST PUSH0 PUSH1 0x40 DUP3 DUP5 SUB SLT ISZERO PUSH2 0xC93 JUMPI PUSH2 0xC92 PUSH2 0xC47 JUMP JUMPDEST JUMPDEST PUSH2 0xC9D PUSH1 0x40 PUSH2 0xB0B JUMP JUMPDEST SWAP1 POP PUSH0 PUSH2 0xCAC DUP5 DUP3 DUP6 ADD PUSH2 0xC6A JUMP JUMPDEST PUSH0 DUP4 ADD MSTORE POP PUSH1 0x20 PUSH2 0xCBF DUP5 DUP3 DUP6 ADD PUSH2 0xC6A JUMP JUMPDEST PUSH1 0x20 DUP4 ADD MSTORE POP SWAP3 SWAP2 POP POP JUMP JUMPDEST PUSH0 PUSH2 0xCDD PUSH2 0xCD8 DUP5 PUSH2 0xC1C JUMP JUMPDEST PUSH2 0xB0B JUMP JUMPDEST SWAP1 POP DUP1 DUP4 DUP3 MSTORE PUSH1 0x20 DUP3 ADD SWAP1 POP PUSH1 0x40 DUP5 MUL DUP4 ADD DUP6 DUP2 GT ISZERO PUSH2 0xD00 JUMPI PUSH2 0xCFF PUSH2 0xB50 JUMP JUMPDEST JUMPDEST DUP4 JUMPDEST DUP2 DUP2 LT ISZERO PUSH2 0xD29 JUMPI DUP1 PUSH2 0xD15 DUP9 DUP3 PUSH2 0xC7E JUMP JUMPDEST DUP5 MSTORE PUSH1 0x20 DUP5 ADD SWAP4 POP POP PUSH1 0x40 DUP2 ADD SWAP1 POP PUSH2 0xD02 JUMP JUMPDEST POP POP POP SWAP4 SWAP3 POP POP POP JUMP JUMPDEST PUSH0 DUP3 PUSH1 0x1F DUP4 ADD SLT PUSH2 0xD47 JUMPI PUSH2 0xD46 PUSH2 0xA99 JUMP JUMPDEST JUMPDEST DUP2 CALLDATALOAD PUSH2 0xD57 DUP5 DUP3 PUSH1 0x20 DUP7 ADD PUSH2 0xCCB JUMP JUMPDEST SWAP2 POP POP SWAP3 SWAP2 POP POP JUMP JUMPDEST PUSH0 PUSH0 PUSH1 0x40 DUP4 DUP6 SUB SLT ISZERO PUSH2 0xD76 JUMPI PUSH2 0xD75 PUSH2 0xA91 JUMP JUMPDEST JUMPDEST PUSH0 DUP4 ADD CALLDATALOAD PUSH8 0xFFFFFFFFFFFFFFFF DUP2 GT ISZERO PUSH2 0xD93 JUMPI PUSH2 0xD92 PUSH2 0xA95 JUMP JUMPDEST JUMPDEST PUSH2 0xD9F DUP6 DUP3 DUP7 ADD PUSH2 0xBEF JUMP JUMPDEST SWAP3 POP POP PUSH1 0x20 DUP4 ADD CALLDATALOAD PUSH8 0xFFFFFFFFFFFFFFFF DUP2 GT ISZERO PUSH2 0xDC0 JUMPI PUSH2 0xDBF PUSH2 0xA95 JUMP JUMPDEST JUMPDEST PUSH2 0xDCC DUP6 DUP3 DUP7 ADD PUSH2 0xD33 JUMP JUMPDEST SWAP2 POP POP SWAP3 POP SWAP3 SWAP1 POP JUMP JUMPDEST PUSH0 PUSH1 0x20 DUP3 DUP5 SUB SLT ISZERO PUSH2 0xDEB JUMPI PUSH2 0xDEA PUSH2 0xA91 JUMP JUMPDEST JUMPDEST PUSH0 PUSH2 0xDF8 DUP5 DUP3 DUP6 ADD PUSH2 0xB73 JUMP JUMPDEST SWAP2 POP POP SWAP3 SWAP2 POP POP JUMP JUMPDEST PUSH2 0xE0A DUP2 PUSH2 0xC4B JUMP JUMPDEST DUP3 MSTORE POP POP JUMP JUMPDEST PUSH1 0x40 DUP3 ADD PUSH0 DUP3 ADD MLOAD PUSH2 0xE24 PUSH0 DUP6 ADD DUP3 PUSH2 0xE01 JUMP JUMPDEST POP PUSH1 0x20 DUP3 ADD MLOAD PUSH2 0xE37 PUSH1 0x20 DUP6 ADD DUP3 PUSH2 0xE01 JUMP JUMPDEST POP POP POP POP JUMP JUMPDEST PUSH0 PUSH1 0x40 DUP3 ADD SWAP1 POP PUSH2 0xE50 PUSH0 DUP4 ADD DUP5 PUSH2 0xE10 JUMP JUMPDEST SWAP3 SWAP2 POP POP JUMP JUMPDEST PUSH0 PUSH0 REVERT JUMPDEST PUSH0 PUSH2 0x100 DUP3 DUP5 SUB SLT ISZERO PUSH2 0xE70 JUMPI PUSH2 0xE6F PUSH2 0xE56 JUMP JUMPDEST JUMPDEST DUP2 SWAP1 POP SWAP3 SWAP2 POP POP JUMP JUMPDEST PUSH0 PUSH0 REVERT JUMPDEST PUSH0 PUSH0 DUP4 PUSH1 0x1F DUP5 ADD SLT PUSH2 0xE92 JUMPI PUSH2 0xE91 PUSH2 0xA99 JUMP JUMPDEST JUMPDEST DUP3 CALLDATALOAD SWAP1 POP PUSH8 0xFFFFFFFFFFFFFFFF DUP2 GT ISZERO PUSH2 0xEAF JUMPI PUSH2 0xEAE PUSH2 0xE79 JUMP JUMPDEST JUMPDEST PUSH1 0x20 DUP4 ADD SWAP2 POP DUP4 PUSH1 0x1 DUP3 MUL DUP4 ADD GT ISZERO PUSH2 0xECB JUMPI PUSH2 0xECA PUSH2 0xB50 JUMP JUMPDEST JUMPDEST SWAP3 POP SWAP3 SWAP1 POP JUMP JUMPDEST PUSH0 PUSH0 PUSH0 PUSH2 0x120 DUP5 DUP7 SUB SLT ISZERO PUSH2 0xEEA JUMPI PUSH2 0xEE9 PUSH2 0xA91 JUMP JUMPDEST JUMPDEST PUSH0 PUSH2 0xEF7 DUP7 DUP3 DUP8 ADD PUSH2 0xE5A JUMP JUMPDEST SWAP4 POP POP PUSH2 0x100 DUP5 ADD CALLDATALOAD PUSH8 0xFFFFFFFFFFFFFFFF DUP2 GT ISZERO PUSH2 0xF19 JUMPI PUSH2 0xF18 PUSH2 0xA95 JUMP JUMPDEST JUMPDEST PUSH2 0xF25 DUP7 DUP3 DUP8 ADD PUSH2 0xE7D JUMP JUMPDEST SWAP3 POP SWAP3 POP POP SWAP3 POP SWAP3 POP SWAP3 JUMP JUMPDEST PUSH0 PUSH20 0xFFFFFFFFFFFFFFFFFFFFFFFFFFFFFFFFFFFFFFFF DUP3 AND SWAP1 POP SWAP2 SWAP1 POP JUMP JUMPDEST PUSH0 PUSH2 0xF5A DUP3 PUSH2 0xF31 JUMP JUMPDEST SWAP1 POP SWAP2 SWAP1 POP JUMP JUMPDEST PUSH2 0xF6A DUP2 PUSH2 0xF50 JUMP JUMPDEST DUP3 MSTORE POP POP JUMP JUMPDEST PUSH0 PUSH1 0x20 DUP3 ADD SWAP1 POP PUSH2 0xF83 PUSH0 DUP4 ADD DUP5 PUSH2 0xF61 JUMP JUMPDEST SWAP3 SWAP2 POP POP JUMP JUMPDEST PUSH2 0xF92 DUP2 PUSH2 0xC4B JUMP JUMPDEST DUP3 MSTORE POP POP JUMP JUMPDEST PUSH0 PUSH1 0x40 DUP3 ADD SWAP1 POP PUSH2 0xFAB PUSH0 DUP4 ADD DUP6 PUSH2 0xF89 JUMP JUMPDEST PUSH2 0xFB8 PUSH1 0x20 DUP4 ADD DUP5 PUSH2 0xF89 JUMP JUMPDEST SWAP4 SWAP3 POP POP POP JUMP JUMPDEST PUSH0 PUSH0 DUP4 PUSH1 0x1F DUP5 ADD SLT PUSH2 0xFD4 JUMPI PUSH2 0xFD3 PUSH2 0xA99 JUMP JUMPDEST JUMPDEST DUP3 CALLDATALOAD SWAP1 POP PUSH8 0xFFFFFFFFFFFFFFFF DUP2 GT ISZERO PUSH2 0xFF1 JUMPI PUSH2 0xFF0 PUSH2 0xE79 JUMP JUMPDEST JUMPDEST PUSH1 0x20 DUP4 ADD SWAP2 POP DUP4 PUSH1 0x1 DUP3 MUL DUP4 ADD GT ISZERO PUSH2 0x100D JUMPI PUSH2 0x100C PUSH2 0xB50 JUMP JUMPDEST JUMPDEST SWAP3 POP SWAP3 SWAP1 POP JUMP JUMPDEST PUSH0 PUSH0 PUSH0 PUSH1 0x40 DUP5 DUP7 SUB SLT ISZERO PUSH2 0x102B JUMPI PUSH2 0x102A PUSH2 0xA91 JUMP JUMPDEST JUMPDEST PUSH0 PUSH2 0x1038 DUP7 DUP3 DUP8 ADD PUSH2 0xB73 JUMP JUMPDEST SWAP4 POP POP PUSH1 0x20 DUP5 ADD CALLDATALOAD PUSH8 0xFFFFFFFFFFFFFFFF DUP2 GT ISZERO PUSH2 0x1059 JUMPI PUSH2 0x1058 PUSH2 0xA95 JUMP JUMPDEST JUMPDEST PUSH2 0x1065 DUP7 DUP3 DUP8 ADD PUSH2 0xFBF JUMP JUMPDEST SWAP3 POP SWAP3 POP POP SWAP3 POP SWAP3 POP SWAP3 JUMP JUMPDEST PUSH2 0x107A DUP2 PUSH2 0xF50 JUMP JUMPDEST DUP2 EQ PUSH2 0x1084 JUMPI PUSH0 PUSH0 REVERT JUMPDEST POP JUMP JUMPDEST PUSH0 DUP2 CALLDATALOAD SWAP1 POP PUSH2 0x1095 DUP2 PUSH2 0x1071 JUMP JUMPDEST SWAP3 SWAP2 POP POP JUMP JUMPDEST PUSH0 PUSH1 0x20 DUP3 DUP5 SUB SLT ISZERO PUSH2 0x10B0 JUMPI PUSH2 0x10AF PUSH2 0xA91 JUMP JUMPDEST JUMPDEST PUSH0 PUSH2 0x10BD DUP5 DUP3 DUP6 ADD PUSH2 0x1087 JUMP JUMPDEST SWAP2 POP POP SWAP3 SWAP2 POP POP JUMP JUMPDEST PUSH2 0x10CF DUP2 PUSH2 0xB54 JUMP JUMPDEST DUP3 MSTORE POP POP JUMP JUMPDEST PUSH0 PUSH1 0x20 DUP3 ADD SWAP1 POP PUSH2 0x10E8 PUSH0 DUP4 ADD DUP5 PUSH2 0x10C6 JUMP JUMPDEST SWAP3 SWAP2 POP POP JUMP JUMPDEST PUSH0 DUP3 DUP3 MSTORE PUSH1 0x20 DUP3 ADD SWAP1 POP SWAP3 SWAP2 POP POP JUMP JUMPDEST PUSH32 0x70696E6700000000000000000000000000000000000000000000000000000000 PUSH0 DUP3 ADD MSTORE POP JUMP JUMPDEST PUSH0 PUSH2 0x1132 PUSH1 0x4 DUP4 PUSH2 0x10EE JUMP JUMPDEST SWAP2 POP PUSH2 0x113D DUP3 PUSH2 0x10FE JUMP JUMPDEST PUSH1 0x20 DUP3 ADD SWAP1 POP SWAP2 SWAP1 POP JUMP JUMPDEST DUP3 DUP2 DUP4 CALLDATACOPY PUSH0 DUP4 DUP4 ADD MSTORE POP POP POP JUMP JUMPDEST PUSH0 PUSH2 0x1161 DUP4 DUP6 PUSH2 0x10EE JUMP JUMPDEST SWAP4 POP PUSH2 0x116E DUP4 DUP6 DUP5 PUSH2 0x1148 JUMP JUMPDEST PUSH2 0x1177 DUP4 PUSH2 0xA9D JUMP JUMPDEST DUP5 ADD SWAP1 POP SWAP4 SWAP3 POP POP POP JUMP JUMPDEST PUSH0 PUSH1 0x40 DUP3 ADD SWAP1 POP DUP2 DUP2 SUB PUSH0 DUP4 ADD MSTORE PUSH2 0x1199 DUP2 PUSH2 0x1126 JUMP JUMPDEST SWAP1 POP DUP2 DUP2 SUB PUSH1 0x20 DUP4 ADD MSTORE PUSH2 0x11AE DUP2 DUP5 DUP7 PUSH2 0x1156 JUMP JUMPDEST SWAP1 POP SWAP4 SWAP3 POP POP POP JUMP JUMPDEST PUSH0 DUP2 MLOAD SWAP1 POP SWAP2 SWAP1 POP JUMP JUMPDEST PUSH0 DUP3 DUP3 MSTORE PUSH1 0x20 DUP3 ADD SWAP1 POP SWAP3 SWAP2 POP POP JUMP JUMPDEST DUP3 DUP2 DUP4 MCOPY PUSH0 DUP4 DUP4 ADD MSTORE POP POP POP JUMP JUMPDEST PUSH0 PUSH2 0x11E9 DUP3 PUSH2 0x11B7 JUMP JUMPDEST PUSH2 0x11F3 DUP2 DUP6 PUSH2 0x11C1 JUMP JUMPDEST SWAP4 POP PUSH2 0x1203 DUP2 DUP6 PUSH1 0x20 DUP7 ADD PUSH2 0x11D1 JUMP JUMPDEST PUSH2 0x120C DUP2 PUSH2 0xA9D JUMP JUMPDEST DUP5 ADD SWAP2 POP POP SWAP3 SWAP2 POP POP JUMP JUMPDEST PUSH0 PUSH1 0x80 DUP3 ADD SWAP1 POP PUSH2 0x122A PUSH0 DUP4 ADD DUP7 PUSH2 0xE10 JUMP JUMPDEST PUSH2 0x1237 PUSH1 0x40 DUP4 ADD DUP6 PUSH2 0x10C6 JUMP JUMPDEST DUP2 DUP2 SUB PUSH1 0x60 DUP4 ADD MSTORE PUSH2 0x1249 DUP2 DUP5 PUSH2 0x11DF JUMP JUMPDEST SWAP1 POP SWAP5 SWAP4 POP POP POP POP JUMP JUMPDEST PUSH0 DUP2 MLOAD SWAP1 POP PUSH2 0x1261 DUP2 PUSH2 0xC54 JUMP JUMPDEST SWAP3 SWAP2 POP POP JUMP JUMPDEST PUSH0 PUSH1 0x20 DUP3 DUP5 SUB SLT ISZERO PUSH2 0x127C JUMPI PUSH2 0x127B PUSH2 0xA91 JUMP JUMPDEST JUMPDEST PUSH0 PUSH2 0x1289 DUP5 DUP3 DUP6 ADD PUSH2 0x1253 JUMP JUMPDEST SWAP2 POP POP SWAP3 SWAP2 POP POP JUMP JUMPDEST PUSH0 PUSH1 0x20 DUP3 ADD SWAP1 POP PUSH2 0x12A5 PUSH0 DUP4 ADD DUP5 PUSH2 0xF89 JUMP JUMPDEST SWAP3 SWAP2 POP POP JUMP JUMPDEST PUSH32 0x4E487B7100000000000000000000000000000000000000000000000000000000 PUSH0 MSTORE PUSH1 0x32 PUSH1 0x4 MSTORE PUSH1 0x24 PUSH0 REVERT JUMPDEST PUSH0 PUSH0 REVERT JUMPDEST PUSH0 PUSH8 0xFFFFFFFFFFFFFFFF DUP3 GT ISZERO PUSH2 0x12F6 JUMPI PUSH2 0x12F5 PUSH2 0xAAD JUMP JUMPDEST JUMPDEST PUSH2 0x12FF DUP3 PUSH2 0xA9D JUMP JUMPDEST SWAP1 POP PUSH1 0x20 DUP2 ADD SWAP1 POP SWAP2 SWAP1 POP JUMP JUMPDEST PUSH0 PUSH2 0x131E PUSH2 0x1319 DUP5 PUSH2 0x12DC JUMP JUMPDEST PUSH2 0xB0B JUMP JUMPDEST SWAP1 POP DUP3 DUP2 MSTORE PUSH1 0x20 DUP2 ADD DUP5 DUP5 DUP5 ADD GT ISZERO PUSH2 0x133A JUMPI PUSH2 0x1339 PUSH2 0x12D8 JUMP JUMPDEST JUMPDEST PUSH2 0x1345 DUP5 DUP3 DUP6 PUSH2 0x1148 JUMP JUMPDEST POP SWAP4 SWAP3 POP POP POP JUMP JUMPDEST PUSH0 DUP3 PUSH1 0x1F DUP4 ADD SLT PUSH2 0x1361 JUMPI PUSH2 0x1360 PUSH2 0xA99 JUMP JUMPDEST JUMPDEST DUP2 CALLDATALOAD PUSH2 0x1371 DUP5 DUP3 PUSH1 0x20 DUP7 ADD PUSH2 0x130C JUMP JUMPDEST SWAP2 POP POP SWAP3 SWAP2 POP POP JUMP JUMPDEST PUSH0 PUSH0 PUSH1 0x40 DUP4 DUP6 SUB SLT ISZERO PUSH2 0x1390 JUMPI PUSH2 0x138F PUSH2 0xA91 JUMP JUMPDEST JUMPDEST PUSH0 DUP4 ADD CALLDATALOAD PUSH8 0xFFFFFFFFFFFFFFFF DUP2 GT ISZERO PUSH2 0x13AD JUMPI PUSH2 0x13AC PUSH2 0xA95 JUMP JUMPDEST JUMPDEST PUSH2 0x13B9 DUP6 DUP3 DUP7 ADD PUSH2 0x134D JUMP JUMPDEST SWAP3 POP POP PUSH1 0x20 DUP4 ADD CALLDATALOAD PUSH8 0xFFFFFFFFFFFFFFFF DUP2 GT ISZERO PUSH2 0x13DA JUMPI PUSH2 0x13D9 PUSH2 0xA95 JUMP JUMPDEST JUMPDEST PUSH2 0x13E6 DUP6 DUP3 DUP7 ADD PUSH2 0x134D JUMP JUMPDEST SWAP2 POP POP SWAP3 POP SWAP3 SWAP1 POP JUMP JUMPDEST PUSH0 PUSH2 0x13FE PUSH1 0x20 DUP5 ADD DUP5 PUSH2 0xB73 JUMP JUMPDEST SWAP1 POP SWAP3 SWAP2 POP POP JUMP JUMPDEST PUSH2 0x140F DUP2 PUSH2 0xB54 JUMP JUMPDEST DUP3 MSTORE POP POP JUMP JUMPDEST PUSH0 DUP3 SWAP1 POP SWAP3 SWAP2 POP POP JUMP JUMPDEST PUSH0 PUSH2 0x142D PUSH1 0x20 DUP5 ADD DUP5 PUSH2 0xC6A JUMP JUMPDEST SWAP1 POP SWAP3 SWAP2 POP POP JUMP JUMPDEST PUSH1 0x40 DUP3 ADD PUSH2 0x1445 PUSH0 DUP4 ADD DUP4 PUSH2 0x141F JUMP JUMPDEST PUSH2 0x1451 PUSH0 DUP6 ADD DUP3 PUSH2 0xE01 JUMP JUMPDEST POP PUSH2 0x145F PUSH1 0x20 DUP4 ADD DUP4 PUSH2 0x141F JUMP JUMPDEST PUSH2 0x146C PUSH1 0x20 DUP6 ADD DUP3 PUSH2 0xE01 JUMP JUMPDEST POP POP POP POP JUMP JUMPDEST PUSH2 0x100 DUP3 ADD PUSH2 0x1483 PUSH0 DUP4 ADD DUP4 PUSH2 0x13F0 JUMP JUMPDEST PUSH2 0x148F PUSH0 DUP6 ADD DUP3 PUSH2 0x1406 JUMP JUMPDEST POP PUSH2 0x149D PUSH1 0x20 DUP4 ADD DUP4 PUSH2 0x13F0 JUMP JUMPDEST PUSH2 0x14AA PUSH1 0x20 DUP6 ADD DUP3 PUSH2 0x1406 JUMP JUMPDEST POP PUSH2 0x14B8 PUSH1 0x40 DUP4 ADD DUP4 PUSH2 0x1415 JUMP JUMPDEST PUSH2 0x14C5 PUSH1 0x40 DUP6 ADD DUP3 PUSH2 0x1435 JUMP JUMPDEST POP PUSH2 0x14D3 PUSH1 0x80 DUP4 ADD DUP4 PUSH2 0x13F0 JUMP JUMPDEST PUSH2 0x14E0 PUSH1 0x80 DUP6 ADD DUP3 PUSH2 0x1406 JUMP JUMPDEST POP PUSH2 0x14EE PUSH1 0xA0 DUP4 ADD DUP4 PUSH2 0x1415 JUMP JUMPDEST PUSH2 0x14FB PUSH1 0xA0 DUP6 ADD DUP3 PUSH2 0x1435 JUMP JUMPDEST POP PUSH2 0x1509 PUSH1 0xE0 DUP4 ADD DUP4 PUSH2 0x141F JUMP JUMPDEST PUSH2 0x1516 PUSH1 0xE0 DUP6 ADD DUP3 PUSH2 0xE01 JUMP JUMPDEST POP POP POP POP JUMP JUMPDEST PUSH0 PUSH2 0x100 DUP3 ADD SWAP1 POP PUSH2 0x1530 PUSH0 DUP4 ADD DUP5 PUSH2 0x1472 JUMP JUMPDEST SWAP3 SWAP2 POP POP JUMP JUMPDEST PUSH32 0x706F6E6700000000000000000000000000000000000000000000000000000000 PUSH0 DUP3 ADD MSTORE POP JUMP JUMPDEST PUSH0 PUSH2 0x156A PUSH1 0x4 DUP4 PUSH2 0x10EE JUMP JUMPDEST SWAP2 POP PUSH2 0x1575 DUP3 PUSH2 0x1536 JUMP JUMPDEST PUSH1 0x20 DUP3 ADD SWAP1 POP SWAP2 SWAP1 POP JUMP JUMPDEST PUSH0 DUP2 MLOAD SWAP1 POP SWAP2 SWAP1 POP JUMP JUMPDEST PUSH0 PUSH2 0x1594 DUP3 PUSH2 0x1580 JUMP JUMPDEST PUSH2 0x159E DUP2 DUP6 PUSH2 0x10EE JUMP JUMPDEST SWAP4 POP PUSH2 0x15AE DUP2 DUP6 PUSH1 0x20 DUP7 ADD PUSH2 0x11D1 JUMP JUMPDEST PUSH2 0x15B7 DUP2 PUSH2 0xA9D JUMP JUMPDEST DUP5 ADD SWAP2 POP POP SWAP3 SWAP2 POP POP JUMP JUMPDEST PUSH0 PUSH1 0x40 DUP3 ADD SWAP1 POP DUP2 DUP2 SUB PUSH0 DUP4 ADD MSTORE PUSH2 0x15D9 DUP2 PUSH2 0x155E JUMP JUMPDEST SWAP1 POP DUP2 DUP2 SUB PUSH1 0x20 DUP4 ADD MSTORE PUSH2 0x15ED DUP2 DUP5 PUSH2 0x158A JUMP JUMPDEST SWAP1 POP SWAP3 SWAP2 POP POP JUMP INVALID LOG2 PUSH5 0x6970667358 0x22 SLT KECCAK256 0xC4 0xE9 DUP5 0xCC 0xF7 SAR RETURN 0x28 0xB8 0xBB 0xB5 BLOBHASH DUP6 0xE SIGNEXTEND BASEFEE TLOAD DELEGATECALL XOR TIMESTAMP 0xE4 PUSH6 0xD342112C58D4 0xAF DUP2 BALANCE 0xE3 PUSH5 0x736F6C6343 STOP ADDMOD SHL STOP CALLER "
		},
		"gasEstimates": {
			"creation": {
				"codeDepositCost": "1135000",
				"executionCost": "infinite",
				"totalCost": "infinite"
			},
			"external": {
				"getPeer(uint256)": "infinite",
				"owner()": "2514",
				"peers(uint256)": "infinite",
				"receiveMessage((uint256,uint256,(bytes32,bytes32),uint256,(bytes32,bytes32),bytes32),bytes)": "infinite",
				"renounceOwnership()": "infinite",
				"sendPing(uint256,string)": "infinite",
				"setPeers(uint256[],(bytes32,bytes32)[])": "infinite",
				"transferOwnership(address)": "infinite"
			},
			"internal": {
				"_receiveMessageFromPeer(struct EquitoMessage calldata,bytes calldata)": "infinite"
			}
		},
		"methodIdentifiers": {
			"getPeer(uint256)": "67ebb6b2",
			"owner()": "8da5cb5b",
			"peers(uint256)": "be4f3e8f",
			"receiveMessage((uint256,uint256,(bytes32,bytes32),uint256,(bytes32,bytes32),bytes32),bytes)": "879d182d",
			"renounceOwnership()": "715018a6",
			"sendPing(uint256,string)": "cf0af879",
			"setPeers(uint256[],(bytes32,bytes32)[])": "59a1aae1",
			"transferOwnership(address)": "f2fde38b"
		}
	},
	"abi": [
		{
			"inputs": [
				{
					"internalType": "address",
					"name": "_router",
					"type": "address"
				}
			],
			"stateMutability": "nonpayable",
			"type": "constructor"
		},
		{
			"inputs": [],
			"name": "InvalidLength",
			"type": "error"
		},
		{
			"inputs": [],
			"name": "InvalidMessageSender",
			"type": "error"
		},
		{
			"inputs": [],
			"name": "InvalidMessageType",
			"type": "error"
		},
		{
			"inputs": [
				{
					"internalType": "uint256",
					"name": "chainSelector",
					"type": "uint256"
				}
			],
			"name": "InvalidPeer",
			"type": "error"
		},
		{
			"inputs": [
				{
					"internalType": "address",
					"name": "router",
					"type": "address"
				}
			],
			"name": "InvalidRouter",
			"type": "error"
		},
		{
			"inputs": [
				{
					"internalType": "address",
					"name": "owner",
					"type": "address"
				}
			],
			"name": "OwnableInvalidOwner",
			"type": "error"
		},
		{
			"inputs": [
				{
					"internalType": "address",
					"name": "account",
					"type": "address"
				}
			],
			"name": "OwnableUnauthorizedAccount",
			"type": "error"
		},
		{
			"inputs": [],
			"name": "RouterAddressCannotBeZero",
			"type": "error"
		},
		{
			"inputs": [],
			"name": "RouterAlreadySet",
			"type": "error"
		},
		{
			"anonymous": false,
			"inputs": [
				{
					"indexed": true,
					"internalType": "address",
					"name": "previousOwner",
					"type": "address"
				},
				{
					"indexed": true,
					"internalType": "address",
					"name": "newOwner",
					"type": "address"
				}
			],
			"name": "OwnershipTransferred",
			"type": "event"
		},
		{
			"anonymous": false,
			"inputs": [
				{
					"indexed": true,
					"internalType": "uint256",
					"name": "sourceChainSelector",
					"type": "uint256"
				},
				{
					"indexed": false,
					"internalType": "bytes32",
					"name": "messageHash",
					"type": "bytes32"
				}
			],
			"name": "PingReceived",
			"type": "event"
		},
		{
			"anonymous": false,
			"inputs": [
				{
					"indexed": true,
					"internalType": "uint256",
					"name": "destinationChainSelector",
					"type": "uint256"
				},
				{
					"indexed": false,
					"internalType": "bytes32",
					"name": "messageHash",
					"type": "bytes32"
				}
			],
			"name": "PingSent",
			"type": "event"
		},
		{
			"anonymous": false,
			"inputs": [
				{
					"indexed": true,
					"internalType": "uint256",
					"name": "sourceChainSelector",
					"type": "uint256"
				},
				{
					"indexed": false,
					"internalType": "bytes32",
					"name": "messageHash",
					"type": "bytes32"
				}
			],
			"name": "PongReceived",
			"type": "event"
		},
		{
			"anonymous": false,
			"inputs": [
				{
					"indexed": true,
					"internalType": "uint256",
					"name": "destinationChainSelector",
					"type": "uint256"
				},
				{
					"indexed": false,
					"internalType": "bytes32",
					"name": "messageHash",
					"type": "bytes32"
				}
			],
			"name": "PongSent",
			"type": "event"
		},
		{
			"inputs": [
				{
					"internalType": "uint256",
					"name": "chainSelector",
					"type": "uint256"
				}
			],
			"name": "getPeer",
			"outputs": [
				{
					"components": [
						{
							"internalType": "bytes32",
							"name": "lower",
							"type": "bytes32"
						},
						{
							"internalType": "bytes32",
							"name": "upper",
							"type": "bytes32"
						}
					],
					"internalType": "struct bytes64",
					"name": "",
					"type": "tuple"
				}
			],
			"stateMutability": "view",
			"type": "function"
		},
		{
			"inputs": [],
			"name": "owner",
			"outputs": [
				{
					"internalType": "address",
					"name": "",
					"type": "address"
				}
			],
			"stateMutability": "view",
			"type": "function"
		},
		{
			"inputs": [
				{
					"internalType": "uint256",
					"name": "",
					"type": "uint256"
				}
			],
			"name": "peers",
			"outputs": [
				{
					"internalType": "bytes32",
					"name": "lower",
					"type": "bytes32"
				},
				{
					"internalType": "bytes32",
					"name": "upper",
					"type": "bytes32"
				}
			],
			"stateMutability": "view",
			"type": "function"
		},
		{
			"inputs": [
				{
					"components": [
						{
							"internalType": "uint256",
							"name": "blockNumber",
							"type": "uint256"
						},
						{
							"internalType": "uint256",
							"name": "sourceChainSelector",
							"type": "uint256"
						},
						{
							"components": [
								{
									"internalType": "bytes32",
									"name": "lower",
									"type": "bytes32"
								},
								{
									"internalType": "bytes32",
									"name": "upper",
									"type": "bytes32"
								}
							],
							"internalType": "struct bytes64",
							"name": "sender",
							"type": "tuple"
						},
						{
							"internalType": "uint256",
							"name": "destinationChainSelector",
							"type": "uint256"
						},
						{
							"components": [
								{
									"internalType": "bytes32",
									"name": "lower",
									"type": "bytes32"
								},
								{
									"internalType": "bytes32",
									"name": "upper",
									"type": "bytes32"
								}
							],
							"internalType": "struct bytes64",
							"name": "receiver",
							"type": "tuple"
						},
						{
							"internalType": "bytes32",
							"name": "hashedData",
							"type": "bytes32"
						}
					],
					"internalType": "struct EquitoMessage",
					"name": "message",
					"type": "tuple"
				},
				{
					"internalType": "bytes",
					"name": "messageData",
					"type": "bytes"
				}
			],
			"name": "receiveMessage",
			"outputs": [],
			"stateMutability": "payable",
			"type": "function"
		},
		{
			"inputs": [],
			"name": "renounceOwnership",
			"outputs": [],
			"stateMutability": "nonpayable",
			"type": "function"
		},
		{
			"inputs": [
				{
					"internalType": "uint256",
					"name": "destinationChainSelector",
					"type": "uint256"
				},
				{
					"internalType": "string",
					"name": "message",
					"type": "string"
				}
			],
			"name": "sendPing",
			"outputs": [],
			"stateMutability": "payable",
			"type": "function"
		},
		{
			"inputs": [
				{
					"internalType": "uint256[]",
					"name": "chainSelectors",
					"type": "uint256[]"
				},
				{
					"components": [
						{
							"internalType": "bytes32",
							"name": "lower",
							"type": "bytes32"
						},
						{
							"internalType": "bytes32",
							"name": "upper",
							"type": "bytes32"
						}
					],
					"internalType": "struct bytes64[]",
					"name": "addresses",
					"type": "tuple[]"
				}
			],
			"name": "setPeers",
			"outputs": [],
			"stateMutability": "nonpayable",
			"type": "function"
		},
		{
			"inputs": [
				{
					"internalType": "address",
					"name": "newOwner",
					"type": "address"
				}
			],
			"name": "transferOwnership",
			"outputs": [],
			"stateMutability": "nonpayable",
			"type": "function"
		}
	]
}