{
	"src/examples/CrossChainSwap.sol": {
		"CrossChainSwap": {
			"abi": [
				{
					"inputs": [
						{
							"internalType": "address",
							"name": "_router",
							"type": "address"
						}
					],
					"stateMutability": "payable",
					"type": "constructor"
				},
				{
					"inputs": [],
					"name": "InsufficientValueSent",
					"type": "error"
				},
				{
					"inputs": [],
					"name": "InvalidLength",
					"type": "error"
				},
				{
					"inputs": [],
					"name": "InvalidMessageSender",
					"type": "error"
				},
				{
					"inputs": [
						{
							"internalType": "uint256",
							"name": "chainSelector",
							"type": "uint256"
						}
					],
					"name": "InvalidPeer",
					"type": "error"
				},
				{
					"inputs": [
						{
							"internalType": "address",
							"name": "router",
							"type": "address"
						}
					],
					"name": "InvalidRouter",
					"type": "error"
				},
				{
					"inputs": [
						{
							"internalType": "address",
							"name": "owner",
							"type": "address"
						}
					],
					"name": "OwnableInvalidOwner",
					"type": "error"
				},
				{
					"inputs": [
						{
							"internalType": "address",
							"name": "account",
							"type": "address"
						}
					],
					"name": "OwnableUnauthorizedAccount",
					"type": "error"
				},
				{
					"inputs": [],
					"name": "RouterAddressCannotBeZero",
					"type": "error"
				},
				{
					"anonymous": false,
					"inputs": [
						{
							"indexed": true,
							"internalType": "address",
							"name": "previousOwner",
							"type": "address"
						},
						{
							"indexed": true,
							"internalType": "address",
							"name": "newOwner",
							"type": "address"
						}
					],
					"name": "OwnershipTransferred",
					"type": "event"
				},
				{
					"anonymous": false,
					"inputs": [
						{
							"indexed": true,
							"internalType": "bytes32",
							"name": "messageHash",
							"type": "bytes32"
						},
						{
							"indexed": true,
							"internalType": "uint256",
							"name": "destinationChainSelector",
							"type": "uint256"
						},
						{
							"indexed": false,
							"internalType": "address",
							"name": "sourceToken",
							"type": "address"
						},
						{
							"indexed": false,
							"internalType": "uint256",
							"name": "sourceAmount",
							"type": "uint256"
						},
						{
							"indexed": false,
							"internalType": "bytes",
							"name": "destinationToken",
							"type": "bytes"
						},
						{
							"indexed": false,
							"internalType": "uint256",
							"name": "destinationAmount",
							"type": "uint256"
						},
						{
							"indexed": false,
							"internalType": "bytes",
							"name": "recipient",
							"type": "bytes"
						}
					],
					"name": "SwapRequested",
					"type": "event"
				},
				{
					"inputs": [
						{
							"internalType": "bytes",
							"name": "sourceToken",
							"type": "bytes"
						},
						{
							"internalType": "uint256",
							"name": "amount",
							"type": "uint256"
						},
						{
							"internalType": "uint256",
							"name": "destinationChainSelector",
							"type": "uint256"
						},
						{
							"internalType": "bytes",
							"name": "destinationToken",
							"type": "bytes"
						}
					],
					"name": "calculateDestinationTokenAmount",
					"outputs": [
						{
							"internalType": "uint256",
							"name": "",
							"type": "uint256"
						}
					],
					"stateMutability": "view",
					"type": "function"
				},
				{
					"inputs": [
						{
							"internalType": "uint256",
							"name": "chainSelector",
							"type": "uint256"
						}
					],
					"name": "getPeer",
					"outputs": [
						{
							"components": [
								{
									"internalType": "bytes32",
									"name": "lower",
									"type": "bytes32"
								},
								{
									"internalType": "bytes32",
									"name": "upper",
									"type": "bytes32"
								}
							],
							"internalType": "struct bytes64",
							"name": "",
							"type": "tuple"
						}
					],
					"stateMutability": "view",
					"type": "function"
				},
				{
					"inputs": [],
					"name": "owner",
					"outputs": [
						{
							"internalType": "address",
							"name": "",
							"type": "address"
						}
					],
					"stateMutability": "view",
					"type": "function"
				},
				{
					"inputs": [
						{
							"internalType": "uint256",
							"name": "",
							"type": "uint256"
						}
					],
					"name": "peers",
					"outputs": [
						{
							"internalType": "bytes32",
							"name": "lower",
							"type": "bytes32"
						},
						{
							"internalType": "bytes32",
							"name": "upper",
							"type": "bytes32"
						}
					],
					"stateMutability": "view",
					"type": "function"
				},
				{
					"inputs": [
						{
							"components": [
								{
									"internalType": "uint256",
									"name": "blockNumber",
									"type": "uint256"
								},
								{
									"internalType": "uint256",
									"name": "sourceChainSelector",
									"type": "uint256"
								},
								{
									"components": [
										{
											"internalType": "bytes32",
											"name": "lower",
											"type": "bytes32"
										},
										{
											"internalType": "bytes32",
											"name": "upper",
											"type": "bytes32"
										}
									],
									"internalType": "struct bytes64",
									"name": "sender",
									"type": "tuple"
								},
								{
									"internalType": "uint256",
									"name": "destinationChainSelector",
									"type": "uint256"
								},
								{
									"components": [
										{
											"internalType": "bytes32",
											"name": "lower",
											"type": "bytes32"
										},
										{
											"internalType": "bytes32",
											"name": "upper",
											"type": "bytes32"
										}
									],
									"internalType": "struct bytes64",
									"name": "receiver",
									"type": "tuple"
								},
								{
									"internalType": "bytes32",
									"name": "hashedData",
									"type": "bytes32"
								}
							],
							"internalType": "struct EquitoMessage",
							"name": "message",
							"type": "tuple"
						},
						{
							"internalType": "bytes",
							"name": "messageData",
							"type": "bytes"
						}
					],
					"name": "receiveMessage",
					"outputs": [],
					"stateMutability": "payable",
					"type": "function"
				},
				{
					"inputs": [],
					"name": "renounceOwnership",
					"outputs": [],
					"stateMutability": "nonpayable",
					"type": "function"
				},
				{
					"inputs": [
						{
							"internalType": "uint256[]",
							"name": "chainSelectors",
							"type": "uint256[]"
						},
						{
							"components": [
								{
									"internalType": "bytes32",
									"name": "lower",
									"type": "bytes32"
								},
								{
									"internalType": "bytes32",
									"name": "upper",
									"type": "bytes32"
								}
							],
							"internalType": "struct bytes64[]",
							"name": "addresses",
							"type": "tuple[]"
						}
					],
					"name": "setPeers",
					"outputs": [],
					"stateMutability": "nonpayable",
					"type": "function"
				},
				{
					"inputs": [
						{
							"internalType": "uint256[]",
							"name": "chainSelectors",
							"type": "uint256[]"
						},
						{
							"components": [
								{
									"internalType": "bytes32",
									"name": "lower",
									"type": "bytes32"
								},
								{
									"internalType": "bytes32",
									"name": "upper",
									"type": "bytes32"
								}
							],
							"internalType": "struct bytes64[]",
							"name": "swapAddresses",
							"type": "tuple[]"
						}
					],
					"name": "setSwapAddress",
					"outputs": [],
					"stateMutability": "nonpayable",
					"type": "function"
				},
				{
					"inputs": [
						{
							"internalType": "uint256[]",
							"name": "chainSelectors",
							"type": "uint256[]"
						},
						{
							"internalType": "bytes[]",
							"name": "destinationTokens",
							"type": "bytes[]"
						},
						{
							"internalType": "uint256[]",
							"name": "prices",
							"type": "uint256[]"
						}
					],
					"name": "setTokenPrice",
					"outputs": [],
					"stateMutability": "nonpayable",
					"type": "function"
				},
				{
					"inputs": [
						{
							"internalType": "uint256",
							"name": "destinationChainSelector",
							"type": "uint256"
						},
						{
							"internalType": "bytes",
							"name": "destinationToken",
							"type": "bytes"
						},
						{
							"internalType": "bytes",
							"name": "recipient",
							"type": "bytes"
						},
						{
							"internalType": "uint256",
							"name": "amount",
							"type": "uint256"
						}
					],
					"name": "swap",
					"outputs": [],
					"stateMutability": "payable",
					"type": "function"
				},
				{
					"inputs": [
						{
							"internalType": "uint256",
							"name": "destinationChainSelector",
							"type": "uint256"
						},
						{
							"internalType": "bytes",
							"name": "destinationToken",
							"type": "bytes"
						},
						{
							"internalType": "bytes",
							"name": "recipient",
							"type": "bytes"
						},
						{
							"internalType": "address",
							"name": "sourceToken",
							"type": "address"
						},
						{
							"internalType": "uint256",
							"name": "amount",
							"type": "uint256"
						}
					],
					"name": "swap",
					"outputs": [],
					"stateMutability": "payable",
					"type": "function"
				},
				{
					"inputs": [
						{
							"internalType": "uint256",
							"name": "",
							"type": "uint256"
						},
						{
							"internalType": "bytes",
							"name": "",
							"type": "bytes"
						}
					],
					"name": "tokenPrice",
					"outputs": [
						{
							"internalType": "uint256",
							"name": "",
							"type": "uint256"
						}
					],
					"stateMutability": "view",
					"type": "function"
				},
				{
					"inputs": [
						{
							"internalType": "address",
							"name": "newOwner",
							"type": "address"
						}
					],
					"name": "transferOwnership",
					"outputs": [],
					"stateMutability": "nonpayable",
					"type": "function"
				}
			],
			"devdoc": {
				"errors": {
					"InvalidPeer(uint256)": [
						{
							"params": {
								"chainSelector": "The chain selector for which the peer address is requested."
							}
						}
					],
					"InvalidRouter(address)": [
						{
							"params": {
								"router": "The address of the router that caused the error."
							}
						}
					],
					"OwnableInvalidOwner(address)": [
						{
							"details": "The owner is not a valid owner account. (eg. `address(0)`)"
						}
					],
					"OwnableUnauthorizedAccount(address)": [
						{
							"details": "The caller account is not authorized to perform an operation."
						}
					]
				},
				"events": {
					"SwapRequested(bytes32,uint256,address,uint256,bytes,uint256,bytes)": {
						"params": {
							"destinationAmount": "The amount of destination tokens to be received.",
							"destinationChainSelector": "The identifier of the destination blockchain.",
							"destinationToken": "The address of the destination token.",
							"messageHash": "The unique identifier for the message.",
							"recipient": "The address of the recipient on the destination chain.",
							"sourceAmount": "The amount of source tokens to be swapped.",
							"sourceToken": "The address of the source token."
						}
					}
				},
				"kind": "dev",
				"methods": {
					"calculateDestinationTokenAmount(bytes,uint256,uint256,bytes)": {
						"params": {
							"amount": "The amount of source tokens.",
							"destinationChainSelector": "The identifier of the destination chain.",
							"destinationToken": "The address of the destination token.",
							"sourceToken": "The address of the source token."
						},
						"returns": {
							"_0": "The calculated amount of destination tokens."
						}
					},
					"constructor": {
						"params": {
							"_router": "The address of the router contract."
						}
					},
					"getPeer(uint256)": {
						"details": "Throws an error if the chain selector is not found in the mapping.",
						"params": {
							"chainSelector": "The chain selector for which the peer address is requested."
						},
						"returns": {
							"_0": "The peer address for the given chain selector."
						}
					},
					"owner()": {
						"details": "Returns the address of the current owner."
					},
					"receiveMessage((uint256,uint256,(bytes32,bytes32),uint256,(bytes32,bytes32),bytes32),bytes)": {
						"params": {
							"message": "The Equito message received.",
							"messageData": "The data of the message received."
						}
					},
					"renounceOwnership()": {
						"details": "Leaves the contract without owner. It will not be possible to call `onlyOwner` functions. Can only be called by the current owner. NOTE: Renouncing ownership will leave the contract without an owner, thereby disabling any functionality that is only available to the owner."
					},
					"setPeers(uint256[],(bytes32,bytes32)[])": {
						"params": {
							"addresses": "The list of addresses corresponding to the chain selectors.",
							"chainSelectors": "The list of chain selectors."
						}
					},
					"setSwapAddress(uint256[],(bytes32,bytes32)[])": {
						"params": {
							"chainSelectors": "The list of chain selectors.",
							"swapAddresses": "The list of swap addresses corresponding to the chain selectors."
						}
					},
					"setTokenPrice(uint256[],bytes[],uint256[])": {
						"params": {
							"chainSelectors": "The list of chain selectors.",
							"destinationTokens": "The list of destination token addresses.",
							"prices": "The list of prices corresponding to the destination tokens."
						}
					},
					"swap(uint256,bytes,bytes,address,uint256)": {
						"params": {
							"amount": "The amount of source tokens to swap.",
							"destinationChainSelector": "The identifier of the destination chain.",
							"destinationToken": "The address of the destination token.",
							"recipient": "The address of the recipient on the destination chain.",
							"sourceToken": "The address of the source token."
						}
					},
					"swap(uint256,bytes,bytes,uint256)": {
						"params": {
							"amount": "The amount of native tokens to swap.",
							"destinationChainSelector": "The identifier of the destination chain.",
							"destinationToken": "The address of the destination token.",
							"recipient": "The address of the recipient on the destination chain."
						}
					},
					"transferOwnership(address)": {
						"details": "Transfers ownership of the contract to a new account (`newOwner`). Can only be called by the current owner."
					}
				},
				"stateVariables": {
					"NATIVE_TOKEN": {
						"details": "The address used to represent the native token."
					},
					"tokenPrice": {
						"details": "The first key is the chain selector, and the second key is the token address."
					}
				},
				"title": "CrossChainSwap",
				"version": 1
			},
			"evm": {
				"assembly": "    /* \"src/examples/CrossChainSwap.sol\":478:9097  contract CrossChainSwap is EquitoApp {... */\n  mstore(0x40, 0xa0)\n    /* \"src/examples/CrossChainSwap.sol\":1903:1961  constructor(address _router) payable EquitoApp(_router) {} */\n  mload(0x40)\n  sub(codesize, bytecodeSize)\n  dup1\n  bytecodeSize\n  dup4\n  codecopy\n  dup2\n  dup2\n  add\n  0x40\n  mstore\n  dup2\n  add\n  swap1\n  tag_1\n  swap2\n  swap1\n  tag_2\n  jump\t// in\ntag_1:\n    /* \"src/examples/CrossChainSwap.sol\":1950:1957  _router */\n  dup1\n    /* \"src/EquitoApp.sol\":1033:1043  msg.sender */\n  caller\n    /* \"@openzeppelin/contracts/access/Ownable.sol\":1297:1298  0 */\n  0x00\n    /* \"@openzeppelin/contracts/access/Ownable.sol\":1273:1299  initialOwner == address(0) */\n  0xffffffffffffffffffffffffffffffffffffffff\n  and\n    /* \"@openzeppelin/contracts/access/Ownable.sol\":1273:1285  initialOwner */\n  dup2\n    /* \"@openzeppelin/contracts/access/Ownable.sol\":1273:1299  initialOwner == address(0) */\n  0xffffffffffffffffffffffffffffffffffffffff\n  and\n  sub\n    /* \"@openzeppelin/contracts/access/Ownable.sol\":1269:1364  if (initialOwner == address(0)) {... */\n  tag_7\n  jumpi\n    /* \"@openzeppelin/contracts/access/Ownable.sol\":1350:1351  0 */\n  0x00\n    /* \"@openzeppelin/contracts/access/Ownable.sol\":1322:1353  OwnableInvalidOwner(address(0)) */\n  mload(0x40)\n  0x1e4fbdf700000000000000000000000000000000000000000000000000000000\n  dup2\n  mstore\n  0x04\n  add\n  tag_8\n  swap2\n  swap1\n  tag_9\n  jump\t// in\ntag_8:\n  mload(0x40)\n  dup1\n  swap2\n  sub\n  swap1\n  revert\n    /* \"@openzeppelin/contracts/access/Ownable.sol\":1269:1364  if (initialOwner == address(0)) {... */\ntag_7:\n    /* \"@openzeppelin/contracts/access/Ownable.sol\":1373:1405  _transferOwnership(initialOwner) */\n  tag_10\n    /* \"@openzeppelin/contracts/access/Ownable.sol\":1392:1404  initialOwner */\n  dup2\n    /* \"@openzeppelin/contracts/access/Ownable.sol\":1373:1391  _transferOwnership */\n  shl(0x20, tag_11)\n    /* \"@openzeppelin/contracts/access/Ownable.sol\":1373:1405  _transferOwnership(initialOwner) */\n  0x20\n  shr\n  jump\t// in\ntag_10:\n    /* \"@openzeppelin/contracts/access/Ownable.sol\":1225:1412  constructor(address initialOwner) {... */\n  pop\n    /* \"src/EquitoApp.sol\":1078:1079  0 */\n  0x00\n    /* \"src/EquitoApp.sol\":1059:1080  _router == address(0) */\n  0xffffffffffffffffffffffffffffffffffffffff\n  and\n    /* \"src/EquitoApp.sol\":1059:1066  _router */\n  dup2\n    /* \"src/EquitoApp.sol\":1059:1080  _router == address(0) */\n  0xffffffffffffffffffffffffffffffffffffffff\n  and\n  sub\n    /* \"src/EquitoApp.sol\":1055:1148  if (_router == address(0)) {... */\n  tag_13\n  jumpi\n    /* \"src/EquitoApp.sol\":1103:1137  Errors.RouterAddressCannotBeZero() */\n  mload(0x40)\n  0x5008268300000000000000000000000000000000000000000000000000000000\n  dup2\n  mstore\n  0x04\n  add\n  mload(0x40)\n  dup1\n  swap2\n  sub\n  swap1\n  revert\n    /* \"src/EquitoApp.sol\":1055:1148  if (_router == address(0)) {... */\ntag_13:\n    /* \"src/EquitoApp.sol\":1174:1181  _router */\n  dup1\n    /* \"src/EquitoApp.sol\":1157:1182  router = IRouter(_router) */\n  0xffffffffffffffffffffffffffffffffffffffff\n  and\n  0x80\n  dup2\n  0xffffffffffffffffffffffffffffffffffffffff\n  and\n  dup2\n  mstore\n  pop\n  pop\n    /* \"src/EquitoApp.sol\":996:1189  constructor(address _router) Ownable(msg.sender) {... */\n  pop\n    /* \"src/examples/CrossChainSwap.sol\":1903:1961  constructor(address _router) payable EquitoApp(_router) {} */\n  pop\n    /* \"src/examples/CrossChainSwap.sol\":478:9097  contract CrossChainSwap is EquitoApp {... */\n  jump(tag_15)\n    /* \"@openzeppelin/contracts/access/Ownable.sol\":2912:3099  function _transferOwnership(address newOwner) internal virtual {... */\ntag_11:\n    /* \"@openzeppelin/contracts/access/Ownable.sol\":2985:3001  address oldOwner */\n  0x00\n    /* \"@openzeppelin/contracts/access/Ownable.sol\":3004:3010  _owner */\n  0x00\n  0x00\n  swap1\n  sload\n  swap1\n  0x0100\n  exp\n  swap1\n  div\n  0xffffffffffffffffffffffffffffffffffffffff\n  and\n    /* \"@openzeppelin/contracts/access/Ownable.sol\":2985:3010  address oldOwner = _owner */\n  swap1\n  pop\n    /* \"@openzeppelin/contracts/access/Ownable.sol\":3029:3037  newOwner */\n  dup2\n    /* \"@openzeppelin/contracts/access/Ownable.sol\":3020:3026  _owner */\n  0x00\n  0x00\n    /* \"@openzeppelin/contracts/access/Ownable.sol\":3020:3037  _owner = newOwner */\n  0x0100\n  exp\n  dup2\n  sload\n  dup2\n  0xffffffffffffffffffffffffffffffffffffffff\n  mul\n  not\n  and\n  swap1\n  dup4\n  0xffffffffffffffffffffffffffffffffffffffff\n  and\n  mul\n  or\n  swap1\n  sstore\n  pop\n    /* \"@openzeppelin/contracts/access/Ownable.sol\":3083:3091  newOwner */\n  dup2\n    /* \"@openzeppelin/contracts/access/Ownable.sol\":3052:3092  OwnershipTransferred(oldOwner, newOwner) */\n  0xffffffffffffffffffffffffffffffffffffffff\n  and\n    /* \"@openzeppelin/contracts/access/Ownable.sol\":3073:3081  oldOwner */\n  dup2\n    /* \"@openzeppelin/contracts/access/Ownable.sol\":3052:3092  OwnershipTransferred(oldOwner, newOwner) */\n  0xffffffffffffffffffffffffffffffffffffffff\n  and\n  0x8be0079c531659141344cd1fd0a4f28419497f9722a3daafe3b4186f6b6457e0\n  mload(0x40)\n  mload(0x40)\n  dup1\n  swap2\n  sub\n  swap1\n  log3\n    /* \"@openzeppelin/contracts/access/Ownable.sol\":2975:3099  {... */\n  pop\n    /* \"@openzeppelin/contracts/access/Ownable.sol\":2912:3099  function _transferOwnership(address newOwner) internal virtual {... */\n  pop\n  jump\t// out\n    /* \"#utility.yul\":88:205   */\ntag_18:\n    /* \"#utility.yul\":197:198   */\n  0x00\n    /* \"#utility.yul\":194:195   */\n  0x00\n    /* \"#utility.yul\":187:199   */\n  revert\n    /* \"#utility.yul\":334:460   */\ntag_20:\n    /* \"#utility.yul\":371:378   */\n  0x00\n    /* \"#utility.yul\":411:453   */\n  0xffffffffffffffffffffffffffffffffffffffff\n    /* \"#utility.yul\":404:409   */\n  dup3\n    /* \"#utility.yul\":400:454   */\n  and\n    /* \"#utility.yul\":389:454   */\n  swap1\n  pop\n    /* \"#utility.yul\":334:460   */\n  swap2\n  swap1\n  pop\n  jump\t// out\n    /* \"#utility.yul\":466:562   */\ntag_21:\n    /* \"#utility.yul\":503:510   */\n  0x00\n    /* \"#utility.yul\":532:556   */\n  tag_31\n    /* \"#utility.yul\":550:555   */\n  dup3\n    /* \"#utility.yul\":532:556   */\n  tag_20\n  jump\t// in\ntag_31:\n    /* \"#utility.yul\":521:556   */\n  swap1\n  pop\n    /* \"#utility.yul\":466:562   */\n  swap2\n  swap1\n  pop\n  jump\t// out\n    /* \"#utility.yul\":568:690   */\ntag_22:\n    /* \"#utility.yul\":641:665   */\n  tag_33\n    /* \"#utility.yul\":659:664   */\n  dup2\n    /* \"#utility.yul\":641:665   */\n  tag_21\n  jump\t// in\ntag_33:\n    /* \"#utility.yul\":634:639   */\n  dup2\n    /* \"#utility.yul\":631:666   */\n  eq\n    /* \"#utility.yul\":621:684   */\n  tag_34\n  jumpi\n    /* \"#utility.yul\":680:681   */\n  0x00\n    /* \"#utility.yul\":677:678   */\n  0x00\n    /* \"#utility.yul\":670:682   */\n  revert\n    /* \"#utility.yul\":621:684   */\ntag_34:\n    /* \"#utility.yul\":568:690   */\n  pop\n  jump\t// out\n    /* \"#utility.yul\":696:839   */\ntag_23:\n    /* \"#utility.yul\":753:758   */\n  0x00\n    /* \"#utility.yul\":784:790   */\n  dup2\n    /* \"#utility.yul\":778:791   */\n  mload\n    /* \"#utility.yul\":769:791   */\n  swap1\n  pop\n    /* \"#utility.yul\":800:833   */\n  tag_36\n    /* \"#utility.yul\":827:832   */\n  dup2\n    /* \"#utility.yul\":800:833   */\n  tag_22\n  jump\t// in\ntag_36:\n    /* \"#utility.yul\":696:839   */\n  swap3\n  swap2\n  pop\n  pop\n  jump\t// out\n    /* \"#utility.yul\":845:1196   */\ntag_2:\n    /* \"#utility.yul\":915:921   */\n  0x00\n    /* \"#utility.yul\":964:966   */\n  0x20\n    /* \"#utility.yul\":952:961   */\n  dup3\n    /* \"#utility.yul\":943:950   */\n  dup5\n    /* \"#utility.yul\":939:962   */\n  sub\n    /* \"#utility.yul\":935:967   */\n  slt\n    /* \"#utility.yul\":932:1051   */\n  iszero\n  tag_38\n  jumpi\n    /* \"#utility.yul\":970:1049   */\n  tag_39\n  tag_18\n  jump\t// in\ntag_39:\n    /* \"#utility.yul\":932:1051   */\ntag_38:\n    /* \"#utility.yul\":1090:1091   */\n  0x00\n    /* \"#utility.yul\":1115:1179   */\n  tag_40\n    /* \"#utility.yul\":1171:1178   */\n  dup5\n    /* \"#utility.yul\":1162:1168   */\n  dup3\n    /* \"#utility.yul\":1151:1160   */\n  dup6\n    /* \"#utility.yul\":1147:1169   */\n  add\n    /* \"#utility.yul\":1115:1179   */\n  tag_23\n  jump\t// in\ntag_40:\n    /* \"#utility.yul\":1105:1179   */\n  swap2\n  pop\n    /* \"#utility.yul\":1061:1189   */\n  pop\n    /* \"#utility.yul\":845:1196   */\n  swap3\n  swap2\n  pop\n  pop\n  jump\t// out\n    /* \"#utility.yul\":1202:1320   */\ntag_24:\n    /* \"#utility.yul\":1289:1313   */\n  tag_42\n    /* \"#utility.yul\":1307:1312   */\n  dup2\n    /* \"#utility.yul\":1289:1313   */\n  tag_21\n  jump\t// in\ntag_42:\n    /* \"#utility.yul\":1284:1287   */\n  dup3\n    /* \"#utility.yul\":1277:1314   */\n  mstore\n    /* \"#utility.yul\":1202:1320   */\n  pop\n  pop\n  jump\t// out\n    /* \"#utility.yul\":1326:1548   */\ntag_9:\n    /* \"#utility.yul\":1419:1423   */\n  0x00\n    /* \"#utility.yul\":1457:1459   */\n  0x20\n    /* \"#utility.yul\":1446:1455   */\n  dup3\n    /* \"#utility.yul\":1442:1460   */\n  add\n    /* \"#utility.yul\":1434:1460   */\n  swap1\n  pop\n    /* \"#utility.yul\":1470:1541   */\n  tag_44\n    /* \"#utility.yul\":1538:1539   */\n  0x00\n    /* \"#utility.yul\":1527:1536   */\n  dup4\n    /* \"#utility.yul\":1523:1540   */\n  add\n    /* \"#utility.yul\":1514:1520   */\n  dup5\n    /* \"#utility.yul\":1470:1541   */\n  tag_24\n  jump\t// in\ntag_44:\n    /* \"#utility.yul\":1326:1548   */\n  swap3\n  swap2\n  pop\n  pop\n  jump\t// out\n    /* \"src/examples/CrossChainSwap.sol\":478:9097  contract CrossChainSwap is EquitoApp {... */\ntag_15:\n  mload(0x80)\n  codecopy(0x00, dataOffset(sub_0), dataSize(sub_0))\n  0x00\n  assignImmutable(\"0x69e3c6522a2f8bf12e780ae53c30e69d48d224ea00c92026278c398148e8df91\")\n  return(0x00, dataSize(sub_0))\nstop\n\nsub_0: assembly {\n        /* \"src/examples/CrossChainSwap.sol\":478:9097  contract CrossChainSwap is EquitoApp {... */\n      mstore(0x40, 0x80)\n      jumpi(tag_1, lt(calldatasize, 0x04))\n      shr(0xe0, calldataload(0x00))\n      dup1\n      0x7904a946\n      gt\n      tag_15\n      jumpi\n      dup1\n      0xa2798328\n      gt\n      tag_16\n      jumpi\n      dup1\n      0xa2798328\n      eq\n      tag_11\n      jumpi\n      dup1\n      0xbe4f3e8f\n      eq\n      tag_12\n      jumpi\n      dup1\n      0xf2fde38b\n      eq\n      tag_13\n      jumpi\n      dup1\n      0xf95a54c9\n      eq\n      tag_14\n      jumpi\n      jump(tag_1)\n    tag_16:\n      dup1\n      0x7904a946\n      eq\n      tag_8\n      jumpi\n      dup1\n      0x879d182d\n      eq\n      tag_9\n      jumpi\n      dup1\n      0x8da5cb5b\n      eq\n      tag_10\n      jumpi\n      jump(tag_1)\n    tag_15:\n      dup1\n      0x0c49815b\n      eq\n      tag_2\n      jumpi\n      dup1\n      0x59a1aae1\n      eq\n      tag_3\n      jumpi\n      dup1\n      0x5bb76937\n      eq\n      tag_4\n      jumpi\n      dup1\n      0x67ebb6b2\n      eq\n      tag_5\n      jumpi\n      dup1\n      0x715018a6\n      eq\n      tag_6\n      jumpi\n      dup1\n      0x75d4d8fc\n      eq\n      tag_7\n      jumpi\n    tag_1:\n      revert(0x00, 0x00)\n        /* \"src/examples/CrossChainSwap.sol\":3828:4310  function setTokenPrice(... */\n    tag_2:\n      callvalue\n      dup1\n      iszero\n      tag_17\n      jumpi\n      revert(0x00, 0x00)\n    tag_17:\n      pop\n      tag_18\n      0x04\n      dup1\n      calldatasize\n      sub\n      dup2\n      add\n      swap1\n      tag_19\n      swap2\n      swap1\n      tag_20\n      jump\t// in\n    tag_19:\n      tag_21\n      jump\t// in\n    tag_18:\n      stop\n        /* \"src/EquitoApp.sol\":1632:1783  function setPeers(uint256[] memory chainSelectors, bytes64[] memory addresses) external onlyOwner {... */\n    tag_3:\n      callvalue\n      dup1\n      iszero\n      tag_22\n      jumpi\n      revert(0x00, 0x00)\n    tag_22:\n      pop\n      tag_23\n      0x04\n      dup1\n      calldatasize\n      sub\n      dup2\n      add\n      swap1\n      tag_24\n      swap2\n      swap1\n      tag_25\n      jump\t// in\n    tag_24:\n      tag_26\n      jump\t// in\n    tag_23:\n      stop\n        /* \"src/examples/CrossChainSwap.sol\":1703:1766  mapping(uint256 => mapping(bytes => uint256)) public tokenPrice */\n    tag_4:\n      callvalue\n      dup1\n      iszero\n      tag_27\n      jumpi\n      revert(0x00, 0x00)\n    tag_27:\n      pop\n      tag_28\n      0x04\n      dup1\n      calldatasize\n      sub\n      dup2\n      add\n      swap1\n      tag_29\n      swap2\n      swap1\n      tag_30\n      jump\t// in\n    tag_29:\n      tag_31\n      jump\t// in\n    tag_28:\n      mload(0x40)\n      tag_32\n      swap2\n      swap1\n      tag_33\n      jump\t// in\n    tag_32:\n      mload(0x40)\n      dup1\n      swap2\n      sub\n      swap1\n      return\n        /* \"src/EquitoApp.sol\":2873:3197  function getPeer(... */\n    tag_5:\n      callvalue\n      dup1\n      iszero\n      tag_34\n      jumpi\n      revert(0x00, 0x00)\n    tag_34:\n      pop\n      tag_35\n      0x04\n      dup1\n      calldatasize\n      sub\n      dup2\n      add\n      swap1\n      tag_36\n      swap2\n      swap1\n      tag_37\n      jump\t// in\n    tag_36:\n      tag_38\n      jump\t// in\n    tag_35:\n      mload(0x40)\n      tag_39\n      swap2\n      swap1\n      tag_40\n      jump\t// in\n    tag_39:\n      mload(0x40)\n      dup1\n      swap2\n      sub\n      swap1\n      return\n        /* \"@openzeppelin/contracts/access/Ownable.sol\":2293:2394  function renounceOwnership() public virtual onlyOwner {... */\n    tag_6:\n      callvalue\n      dup1\n      iszero\n      tag_41\n      jumpi\n      revert(0x00, 0x00)\n    tag_41:\n      pop\n      tag_42\n      tag_43\n      jump\t// in\n    tag_42:\n      stop\n        /* \"src/examples/CrossChainSwap.sol\":3341:3532  function setSwapAddress(... */\n    tag_7:\n      callvalue\n      dup1\n      iszero\n      tag_44\n      jumpi\n      revert(0x00, 0x00)\n    tag_44:\n      pop\n      tag_45\n      0x04\n      dup1\n      calldatasize\n      sub\n      dup2\n      add\n      swap1\n      tag_46\n      swap2\n      swap1\n      tag_47\n      jump\t// in\n    tag_46:\n      tag_48\n      jump\t// in\n    tag_45:\n      stop\n        /* \"src/examples/CrossChainSwap.sol\":6559:7062  function swap(... */\n    tag_8:\n      tag_49\n      0x04\n      dup1\n      calldatasize\n      sub\n      dup2\n      add\n      swap1\n      tag_50\n      swap2\n      swap1\n      tag_51\n      jump\t// in\n    tag_50:\n      tag_52\n      jump\t// in\n    tag_49:\n      stop\n        /* \"src/EquitoApp.sol\":3570:4049  function receiveMessage(... */\n    tag_9:\n      tag_53\n      0x04\n      dup1\n      calldatasize\n      sub\n      dup2\n      add\n      swap1\n      tag_54\n      swap2\n      swap1\n      tag_55\n      jump\t// in\n    tag_54:\n      tag_56\n      jump\t// in\n    tag_53:\n      stop\n        /* \"@openzeppelin/contracts/access/Ownable.sol\":1638:1723  function owner() public view virtual returns (address) {... */\n    tag_10:\n      callvalue\n      dup1\n      iszero\n      tag_57\n      jumpi\n      revert(0x00, 0x00)\n    tag_57:\n      pop\n      tag_58\n      tag_59\n      jump\t// in\n    tag_58:\n      mload(0x40)\n      tag_60\n      swap2\n      swap1\n      tag_61\n      jump\t// in\n    tag_60:\n      mload(0x40)\n      dup1\n      swap2\n      sub\n      swap1\n      return\n        /* \"src/examples/CrossChainSwap.sol\":5621:6167  function swap(... */\n    tag_11:\n      tag_62\n      0x04\n      dup1\n      calldatasize\n      sub\n      dup2\n      add\n      swap1\n      tag_63\n      swap2\n      swap1\n      tag_64\n      jump\t// in\n    tag_63:\n      tag_65\n      jump\t// in\n    tag_62:\n      stop\n        /* \"src/EquitoApp.sol\":811:851  mapping(uint256 => bytes64) public peers */\n    tag_12:\n      callvalue\n      dup1\n      iszero\n      tag_66\n      jumpi\n      revert(0x00, 0x00)\n    tag_66:\n      pop\n      tag_67\n      0x04\n      dup1\n      calldatasize\n      sub\n      dup2\n      add\n      swap1\n      tag_68\n      swap2\n      swap1\n      tag_37\n      jump\t// in\n    tag_68:\n      tag_69\n      jump\t// in\n    tag_67:\n      mload(0x40)\n      tag_70\n      swap3\n      swap2\n      swap1\n      tag_71\n      jump\t// in\n    tag_70:\n      mload(0x40)\n      dup1\n      swap2\n      sub\n      swap1\n      return\n        /* \"@openzeppelin/contracts/access/Ownable.sol\":2543:2758  function transferOwnership(address newOwner) public virtual onlyOwner {... */\n    tag_13:\n      callvalue\n      dup1\n      iszero\n      tag_72\n      jumpi\n      revert(0x00, 0x00)\n    tag_72:\n      pop\n      tag_73\n      0x04\n      dup1\n      calldatasize\n      sub\n      dup2\n      add\n      swap1\n      tag_74\n      swap2\n      swap1\n      tag_75\n      jump\t// in\n    tag_74:\n      tag_76\n      jump\t// in\n    tag_73:\n      stop\n        /* \"src/examples/CrossChainSwap.sol\":2707:3086  function calculateDestinationTokenAmount(... */\n    tag_14:\n      callvalue\n      dup1\n      iszero\n      tag_77\n      jumpi\n      revert(0x00, 0x00)\n    tag_77:\n      pop\n      tag_78\n      0x04\n      dup1\n      calldatasize\n      sub\n      dup2\n      add\n      swap1\n      tag_79\n      swap2\n      swap1\n      tag_80\n      jump\t// in\n    tag_79:\n      tag_81\n      jump\t// in\n    tag_78:\n      mload(0x40)\n      tag_82\n      swap2\n      swap1\n      tag_33\n      jump\t// in\n    tag_82:\n      mload(0x40)\n      dup1\n      swap2\n      sub\n      swap1\n      return\n        /* \"src/examples/CrossChainSwap.sol\":3828:4310  function setTokenPrice(... */\n    tag_21:\n        /* \"@openzeppelin/contracts/access/Ownable.sol\":1531:1544  _checkOwner() */\n      tag_84\n        /* \"@openzeppelin/contracts/access/Ownable.sol\":1531:1542  _checkOwner */\n      tag_85\n        /* \"@openzeppelin/contracts/access/Ownable.sol\":1531:1544  _checkOwner() */\n      jump\t// in\n    tag_84:\n        /* \"src/examples/CrossChainSwap.sol\":4044:4050  prices */\n      dup1\n        /* \"src/examples/CrossChainSwap.sol\":4044:4057  prices.length */\n      mload\n        /* \"src/examples/CrossChainSwap.sol\":4019:4033  chainSelectors */\n      dup4\n        /* \"src/examples/CrossChainSwap.sol\":4019:4040  chainSelectors.length */\n      mload\n        /* \"src/examples/CrossChainSwap.sol\":4019:4057  chainSelectors.length != prices.length */\n      eq\n      iszero\n        /* \"src/examples/CrossChainSwap.sol\":4019:4114  chainSelectors.length != prices.length ||... */\n      dup1\n      tag_87\n      jumpi\n      pop\n        /* \"src/examples/CrossChainSwap.sol\":4090:4107  destinationTokens */\n      dup2\n        /* \"src/examples/CrossChainSwap.sol\":4090:4114  destinationTokens.length */\n      mload\n        /* \"src/examples/CrossChainSwap.sol\":4073:4079  prices */\n      dup2\n        /* \"src/examples/CrossChainSwap.sol\":4073:4086  prices.length */\n      mload\n        /* \"src/examples/CrossChainSwap.sol\":4073:4114  prices.length != destinationTokens.length */\n      eq\n      iszero\n        /* \"src/examples/CrossChainSwap.sol\":4019:4114  chainSelectors.length != prices.length ||... */\n    tag_87:\n        /* \"src/examples/CrossChainSwap.sol\":4002:4154  if (... */\n      iszero\n      tag_88\n      jumpi\n        /* \"src/examples/CrossChainSwap.sol\":4132:4154  Errors.InvalidLength() */\n      mload(0x40)\n      0x947d5a8400000000000000000000000000000000000000000000000000000000\n      dup2\n      mstore\n      0x04\n      add\n      mload(0x40)\n      dup1\n      swap2\n      sub\n      swap1\n      revert\n        /* \"src/examples/CrossChainSwap.sol\":4002:4154  if (... */\n    tag_88:\n        /* \"src/examples/CrossChainSwap.sol\":4169:4178  uint256 i */\n      0x00\n        /* \"src/examples/CrossChainSwap.sol\":4181:4182  0 */\n      0x00\n        /* \"src/examples/CrossChainSwap.sol\":4169:4182  uint256 i = 0 */\n      swap1\n      pop\n        /* \"src/examples/CrossChainSwap.sol\":4164:4304  for (uint256 i = 0; i < chainSelectors.length; i++) {... */\n    tag_89:\n        /* \"src/examples/CrossChainSwap.sol\":4188:4202  chainSelectors */\n      dup4\n        /* \"src/examples/CrossChainSwap.sol\":4188:4209  chainSelectors.length */\n      mload\n        /* \"src/examples/CrossChainSwap.sol\":4184:4185  i */\n      dup2\n        /* \"src/examples/CrossChainSwap.sol\":4184:4209  i < chainSelectors.length */\n      lt\n        /* \"src/examples/CrossChainSwap.sol\":4164:4304  for (uint256 i = 0; i < chainSelectors.length; i++) {... */\n      iszero\n      tag_90\n      jumpi\n        /* \"src/examples/CrossChainSwap.sol\":4284:4290  prices */\n      dup2\n        /* \"src/examples/CrossChainSwap.sol\":4291:4292  i */\n      dup2\n        /* \"src/examples/CrossChainSwap.sol\":4284:4293  prices[i] */\n      dup2\n      mload\n      dup2\n      lt\n      tag_92\n      jumpi\n      tag_93\n      tag_94\n      jump\t// in\n    tag_93:\n    tag_92:\n      0x20\n      mul\n      0x20\n      add\n      add\n      mload\n        /* \"src/examples/CrossChainSwap.sol\":4230:4240  tokenPrice */\n      0x02\n        /* \"src/examples/CrossChainSwap.sol\":4230:4259  tokenPrice[chainSelectors[i]] */\n      0x00\n        /* \"src/examples/CrossChainSwap.sol\":4241:4255  chainSelectors */\n      dup7\n        /* \"src/examples/CrossChainSwap.sol\":4256:4257  i */\n      dup5\n        /* \"src/examples/CrossChainSwap.sol\":4241:4258  chainSelectors[i] */\n      dup2\n      mload\n      dup2\n      lt\n      tag_95\n      jumpi\n      tag_96\n      tag_94\n      jump\t// in\n    tag_96:\n    tag_95:\n      0x20\n      mul\n      0x20\n      add\n      add\n      mload\n        /* \"src/examples/CrossChainSwap.sol\":4230:4259  tokenPrice[chainSelectors[i]] */\n      dup2\n      mstore\n      0x20\n      add\n      swap1\n      dup2\n      mstore\n      0x20\n      add\n      0x00\n      keccak256\n        /* \"src/examples/CrossChainSwap.sol\":4260:4277  destinationTokens */\n      dup5\n        /* \"src/examples/CrossChainSwap.sol\":4278:4279  i */\n      dup4\n        /* \"src/examples/CrossChainSwap.sol\":4260:4280  destinationTokens[i] */\n      dup2\n      mload\n      dup2\n      lt\n      tag_97\n      jumpi\n      tag_98\n      tag_94\n      jump\t// in\n    tag_98:\n    tag_97:\n      0x20\n      mul\n      0x20\n      add\n      add\n      mload\n        /* \"src/examples/CrossChainSwap.sol\":4230:4281  tokenPrice[chainSelectors[i]][destinationTokens[i]] */\n      mload(0x40)\n      tag_99\n      swap2\n      swap1\n      tag_100\n      jump\t// in\n    tag_99:\n      swap1\n      dup2\n      mstore\n      0x20\n      add\n      mload(0x40)\n      dup1\n      swap2\n      sub\n      swap1\n      keccak256\n        /* \"src/examples/CrossChainSwap.sol\":4230:4293  tokenPrice[chainSelectors[i]][destinationTokens[i]] = prices[i] */\n      dup2\n      swap1\n      sstore\n      pop\n        /* \"src/examples/CrossChainSwap.sol\":4211:4214  i++ */\n      dup1\n      dup1\n      0x01\n      add\n      swap2\n      pop\n      pop\n        /* \"src/examples/CrossChainSwap.sol\":4164:4304  for (uint256 i = 0; i < chainSelectors.length; i++) {... */\n      jump(tag_89)\n    tag_90:\n      pop\n        /* \"src/examples/CrossChainSwap.sol\":3828:4310  function setTokenPrice(... */\n      pop\n      pop\n      pop\n      jump\t// out\n        /* \"src/EquitoApp.sol\":1632:1783  function setPeers(uint256[] memory chainSelectors, bytes64[] memory addresses) external onlyOwner {... */\n    tag_26:\n        /* \"@openzeppelin/contracts/access/Ownable.sol\":1531:1544  _checkOwner() */\n      tag_102\n        /* \"@openzeppelin/contracts/access/Ownable.sol\":1531:1542  _checkOwner */\n      tag_85\n        /* \"@openzeppelin/contracts/access/Ownable.sol\":1531:1544  _checkOwner() */\n      jump\t// in\n    tag_102:\n        /* \"src/EquitoApp.sol\":1740:1776  _setPeers(chainSelectors, addresses) */\n      tag_104\n        /* \"src/EquitoApp.sol\":1750:1764  chainSelectors */\n      dup3\n        /* \"src/EquitoApp.sol\":1766:1775  addresses */\n      dup3\n        /* \"src/EquitoApp.sol\":1740:1749  _setPeers */\n      tag_105\n        /* \"src/EquitoApp.sol\":1740:1776  _setPeers(chainSelectors, addresses) */\n      jump\t// in\n    tag_104:\n        /* \"src/EquitoApp.sol\":1632:1783  function setPeers(uint256[] memory chainSelectors, bytes64[] memory addresses) external onlyOwner {... */\n      pop\n      pop\n      jump\t// out\n        /* \"src/examples/CrossChainSwap.sol\":1703:1766  mapping(uint256 => mapping(bytes => uint256)) public tokenPrice */\n    tag_31:\n      mstore(0x20, 0x02)\n      dup2\n      0x00\n      mstore\n      keccak256(0x00, 0x40)\n      dup2\n      dup1\n      mload\n      0x20\n      dup2\n      add\n      dup3\n      add\n      dup1\n      mload\n      dup5\n      dup3\n      mstore\n      0x20\n      dup4\n      add\n      0x20\n      dup6\n      add\n      keccak256\n      dup2\n      dup4\n      mstore\n      dup1\n      swap6\n      pop\n      pop\n      pop\n      pop\n      pop\n      pop\n      0x00\n      swap2\n      pop\n      swap2\n      pop\n      pop\n      sload\n      dup2\n      jump\t// out\n        /* \"src/EquitoApp.sol\":2873:3197  function getPeer(... */\n    tag_38:\n        /* \"src/EquitoApp.sol\":2953:2967  bytes64 memory */\n      tag_106\n      tag_107\n      jump\t// in\n    tag_106:\n        /* \"src/EquitoApp.sol\":2979:3005  bytes64 memory peerAddress */\n      0x00\n        /* \"src/EquitoApp.sol\":3008:3013  peers */\n      0x01\n        /* \"src/EquitoApp.sol\":3008:3028  peers[chainSelector] */\n      0x00\n        /* \"src/EquitoApp.sol\":3014:3027  chainSelector */\n      dup5\n        /* \"src/EquitoApp.sol\":3008:3028  peers[chainSelector] */\n      dup2\n      mstore\n      0x20\n      add\n      swap1\n      dup2\n      mstore\n      0x20\n      add\n      0x00\n      keccak256\n        /* \"src/EquitoApp.sol\":2979:3028  bytes64 memory peerAddress = peers[chainSelector] */\n      mload(0x40)\n      dup1\n      0x40\n      add\n      0x40\n      mstore\n      swap1\n      dup2\n      0x00\n      dup3\n      add\n      sload\n      dup2\n      mstore\n      0x20\n      add\n      0x01\n      dup3\n      add\n      sload\n      dup2\n      mstore\n      pop\n      pop\n      swap1\n      pop\n        /* \"src/EquitoApp.sol\":3063:3067  0x00 */\n      0x00\n        /* \"src/EquitoApp.sol\":3042:3067  peerAddress.lower == 0x00 */\n      0x00\n      shl\n        /* \"src/EquitoApp.sol\":3042:3053  peerAddress */\n      dup2\n        /* \"src/EquitoApp.sol\":3042:3059  peerAddress.lower */\n      0x00\n      add\n      mload\n        /* \"src/EquitoApp.sol\":3042:3067  peerAddress.lower == 0x00 */\n      eq\n        /* \"src/EquitoApp.sol\":3042:3096  peerAddress.lower == 0x00 && peerAddress.upper == 0x00 */\n      dup1\n      iszero\n      tag_109\n      jumpi\n      pop\n        /* \"src/EquitoApp.sol\":3092:3096  0x00 */\n      0x00\n        /* \"src/EquitoApp.sol\":3071:3096  peerAddress.upper == 0x00 */\n      0x00\n      shl\n        /* \"src/EquitoApp.sol\":3071:3082  peerAddress */\n      dup2\n        /* \"src/EquitoApp.sol\":3071:3088  peerAddress.upper */\n      0x20\n      add\n      mload\n        /* \"src/EquitoApp.sol\":3071:3096  peerAddress.upper == 0x00 */\n      eq\n        /* \"src/EquitoApp.sol\":3042:3096  peerAddress.lower == 0x00 && peerAddress.upper == 0x00 */\n    tag_109:\n        /* \"src/EquitoApp.sol\":3038:3163  if (peerAddress.lower == 0x00 && peerAddress.upper == 0x00) {... */\n      iszero\n      tag_110\n      jumpi\n        /* \"src/EquitoApp.sol\":3138:3151  chainSelector */\n      dup3\n        /* \"src/EquitoApp.sol\":3119:3152  Errors.InvalidPeer(chainSelector) */\n      mload(0x40)\n      0x78d0dbfc00000000000000000000000000000000000000000000000000000000\n      dup2\n      mstore\n      0x04\n      add\n      tag_111\n      swap2\n      swap1\n      tag_33\n      jump\t// in\n    tag_111:\n      mload(0x40)\n      dup1\n      swap2\n      sub\n      swap1\n      revert\n        /* \"src/EquitoApp.sol\":3038:3163  if (peerAddress.lower == 0x00 && peerAddress.upper == 0x00) {... */\n    tag_110:\n        /* \"src/EquitoApp.sol\":3179:3190  peerAddress */\n      dup1\n        /* \"src/EquitoApp.sol\":3172:3190  return peerAddress */\n      swap2\n      pop\n      pop\n        /* \"src/EquitoApp.sol\":2873:3197  function getPeer(... */\n      swap2\n      swap1\n      pop\n      jump\t// out\n        /* \"@openzeppelin/contracts/access/Ownable.sol\":2293:2394  function renounceOwnership() public virtual onlyOwner {... */\n    tag_43:\n        /* \"@openzeppelin/contracts/access/Ownable.sol\":1531:1544  _checkOwner() */\n      tag_113\n        /* \"@openzeppelin/contracts/access/Ownable.sol\":1531:1542  _checkOwner */\n      tag_85\n        /* \"@openzeppelin/contracts/access/Ownable.sol\":1531:1544  _checkOwner() */\n      jump\t// in\n    tag_113:\n        /* \"@openzeppelin/contracts/access/Ownable.sol\":2357:2387  _transferOwnership(address(0)) */\n      tag_115\n        /* \"@openzeppelin/contracts/access/Ownable.sol\":2384:2385  0 */\n      0x00\n        /* \"@openzeppelin/contracts/access/Ownable.sol\":2357:2375  _transferOwnership */\n      tag_116\n        /* \"@openzeppelin/contracts/access/Ownable.sol\":2357:2387  _transferOwnership(address(0)) */\n      jump\t// in\n    tag_115:\n        /* \"@openzeppelin/contracts/access/Ownable.sol\":2293:2394  function renounceOwnership() public virtual onlyOwner {... */\n      jump\t// out\n        /* \"src/examples/CrossChainSwap.sol\":3341:3532  function setSwapAddress(... */\n    tag_48:\n        /* \"@openzeppelin/contracts/access/Ownable.sol\":1531:1544  _checkOwner() */\n      tag_118\n        /* \"@openzeppelin/contracts/access/Ownable.sol\":1531:1542  _checkOwner */\n      tag_85\n        /* \"@openzeppelin/contracts/access/Ownable.sol\":1531:1544  _checkOwner() */\n      jump\t// in\n    tag_118:\n        /* \"src/examples/CrossChainSwap.sol\":3485:3525  _setPeers(chainSelectors, swapAddresses) */\n      tag_120\n        /* \"src/examples/CrossChainSwap.sol\":3495:3509  chainSelectors */\n      dup5\n      dup5\n        /* \"src/examples/CrossChainSwap.sol\":3485:3525  _setPeers(chainSelectors, swapAddresses) */\n      dup1\n      dup1\n      0x20\n      mul\n      0x20\n      add\n      mload(0x40)\n      swap1\n      dup2\n      add\n      0x40\n      mstore\n      dup1\n      swap4\n      swap3\n      swap2\n      swap1\n      dup2\n      dup2\n      mstore\n      0x20\n      add\n      dup4\n      dup4\n      0x20\n      mul\n      dup1\n      dup3\n      dup5\n      calldatacopy\n      0x00\n      dup2\n      dup5\n      add\n      mstore\n      not(0x1f)\n      0x1f\n      dup3\n      add\n      and\n      swap1\n      pop\n      dup1\n      dup4\n      add\n      swap3\n      pop\n      pop\n      pop\n      pop\n      pop\n      pop\n      pop\n        /* \"src/examples/CrossChainSwap.sol\":3511:3524  swapAddresses */\n      dup4\n      dup4\n        /* \"src/examples/CrossChainSwap.sol\":3485:3525  _setPeers(chainSelectors, swapAddresses) */\n      dup1\n      dup1\n      0x20\n      mul\n      0x20\n      add\n      mload(0x40)\n      swap1\n      dup2\n      add\n      0x40\n      mstore\n      dup1\n      swap4\n      swap3\n      swap2\n      swap1\n      dup2\n      dup2\n      mstore\n      0x20\n      add\n      0x00\n      swap1\n    tag_121:\n      dup3\n      dup3\n      lt\n      iszero\n      tag_122\n      jumpi\n      dup5\n      dup5\n      dup4\n      swap1\n      pop\n      0x40\n      mul\n      add\n      dup1\n      calldatasize\n      sub\n      dup2\n      add\n      swap1\n      tag_123\n      swap2\n      swap1\n      tag_124\n      jump\t// in\n    tag_123:\n      dup2\n      mstore\n      0x20\n      add\n      swap1\n      0x01\n      add\n      swap1\n      jump(tag_121)\n    tag_122:\n      pop\n      pop\n      pop\n      pop\n      pop\n        /* \"src/examples/CrossChainSwap.sol\":3485:3494  _setPeers */\n      tag_105\n        /* \"src/examples/CrossChainSwap.sol\":3485:3525  _setPeers(chainSelectors, swapAddresses) */\n      jump\t// in\n    tag_120:\n        /* \"src/examples/CrossChainSwap.sol\":3341:3532  function setSwapAddress(... */\n      pop\n      pop\n      pop\n      pop\n      jump\t// out\n        /* \"src/examples/CrossChainSwap.sol\":6559:7062  function swap(... */\n    tag_52:\n        /* \"src/examples/CrossChainSwap.sol\":6760:6769  msg.value */\n      callvalue\n        /* \"src/examples/CrossChainSwap.sol\":6751:6757  amount */\n      dup2\n        /* \"src/examples/CrossChainSwap.sol\":6751:6769  amount > msg.value */\n      gt\n        /* \"src/examples/CrossChainSwap.sol\":6747:6833  if (amount > msg.value) {... */\n      iszero\n      tag_126\n      jumpi\n        /* \"src/examples/CrossChainSwap.sol\":6792:6822  Errors.InsufficientValueSent() */\n      mload(0x40)\n      0xa5fb6be900000000000000000000000000000000000000000000000000000000\n      dup2\n      mstore\n      0x04\n      add\n      mload(0x40)\n      dup1\n      swap2\n      sub\n      swap1\n      revert\n        /* \"src/examples/CrossChainSwap.sol\":6747:6833  if (amount > msg.value) {... */\n    tag_126:\n        /* \"src/examples/CrossChainSwap.sol\":6843:6854  uint256 fee */\n      0x00\n        /* \"src/examples/CrossChainSwap.sol\":6869:6875  amount */\n      dup2\n        /* \"src/examples/CrossChainSwap.sol\":6857:6866  msg.value */\n      callvalue\n        /* \"src/examples/CrossChainSwap.sol\":6857:6875  msg.value - amount */\n      tag_127\n      swap2\n      swap1\n      tag_128\n      jump\t// in\n    tag_127:\n        /* \"src/examples/CrossChainSwap.sol\":6843:6875  uint256 fee = msg.value - amount */\n      swap1\n      pop\n        /* \"src/examples/CrossChainSwap.sol\":6886:7055  _swap(... */\n      tag_129\n        /* \"src/examples/CrossChainSwap.sol\":1478:1520  0xEeeeeEeeeEeEeeEeEeEeeEEEeeeeEeeeeeeeEEeE */\n      0xeeeeeeeeeeeeeeeeeeeeeeeeeeeeeeeeeeeeeeee\n        /* \"src/examples/CrossChainSwap.sol\":6931:6937  amount */\n      dup4\n        /* \"src/examples/CrossChainSwap.sol\":6951:6954  fee */\n      dup4\n        /* \"src/examples/CrossChainSwap.sol\":6968:6992  destinationChainSelector */\n      dup11\n        /* \"src/examples/CrossChainSwap.sol\":7006:7022  destinationToken */\n      dup11\n      dup11\n        /* \"src/examples/CrossChainSwap.sol\":7036:7045  recipient */\n      dup11\n      dup11\n        /* \"src/examples/CrossChainSwap.sol\":6886:6891  _swap */\n      tag_130\n        /* \"src/examples/CrossChainSwap.sol\":6886:7055  _swap(... */\n      jump\t// in\n    tag_129:\n      pop\n        /* \"src/examples/CrossChainSwap.sol\":6737:7062  {... */\n      pop\n        /* \"src/examples/CrossChainSwap.sol\":6559:7062  function swap(... */\n      pop\n      pop\n      pop\n      pop\n      pop\n      pop\n      jump\t// out\n        /* \"src/EquitoApp.sol\":3570:4049  function receiveMessage(... */\n    tag_56:\n        /* \"src/EquitoApp.sol\":1326:1332  router */\n      immutable(\"0x69e3c6522a2f8bf12e780ae53c30e69d48d224ea00c92026278c398148e8df91\")\n        /* \"src/EquitoApp.sol\":1304:1333  msg.sender != address(router) */\n      0xffffffffffffffffffffffffffffffffffffffff\n      and\n        /* \"src/EquitoApp.sol\":1304:1314  msg.sender */\n      caller\n        /* \"src/EquitoApp.sol\":1304:1333  msg.sender != address(router) */\n      0xffffffffffffffffffffffffffffffffffffffff\n      and\n      eq\n        /* \"src/EquitoApp.sol\":1300:1374  if (msg.sender != address(router)) revert Errors.InvalidRouter(msg.sender) */\n      tag_132\n      jumpi\n        /* \"src/EquitoApp.sol\":1363:1373  msg.sender */\n      caller\n        /* \"src/EquitoApp.sol\":1342:1374  Errors.InvalidRouter(msg.sender) */\n      mload(0x40)\n      0xd7f7333400000000000000000000000000000000000000000000000000000000\n      dup2\n      mstore\n      0x04\n      add\n      tag_133\n      swap2\n      swap1\n      tag_61\n      jump\t// in\n    tag_133:\n      mload(0x40)\n      dup1\n      swap2\n      sub\n      swap1\n      revert\n        /* \"src/EquitoApp.sol\":1300:1374  if (msg.sender != address(router)) revert Errors.InvalidRouter(msg.sender) */\n    tag_132:\n        /* \"src/EquitoApp.sol\":3723:3749  bytes64 memory peerAddress */\n      0x00\n        /* \"src/EquitoApp.sol\":3752:3757  peers */\n      0x01\n        /* \"src/EquitoApp.sol\":3752:3786  peers[message.sourceChainSelector] */\n      0x00\n        /* \"src/EquitoApp.sol\":3758:3765  message */\n      dup6\n        /* \"src/EquitoApp.sol\":3758:3785  message.sourceChainSelector */\n      0x20\n      add\n      calldataload\n        /* \"src/EquitoApp.sol\":3752:3786  peers[message.sourceChainSelector] */\n      dup2\n      mstore\n      0x20\n      add\n      swap1\n      dup2\n      mstore\n      0x20\n      add\n      0x00\n      keccak256\n        /* \"src/EquitoApp.sol\":3723:3786  bytes64 memory peerAddress = peers[message.sourceChainSelector] */\n      mload(0x40)\n      dup1\n      0x40\n      add\n      0x40\n      mstore\n      swap1\n      dup2\n      0x00\n      dup3\n      add\n      sload\n      dup2\n      mstore\n      0x20\n      add\n      0x01\n      dup3\n      add\n      sload\n      dup2\n      mstore\n      pop\n      pop\n      swap1\n      pop\n        /* \"src/EquitoApp.sol\":3827:3834  message */\n      dup4\n        /* \"src/EquitoApp.sol\":3827:3841  message.sender */\n      0x40\n      add\n        /* \"src/EquitoApp.sol\":3827:3847  message.sender.lower */\n      0x00\n      add\n      calldataload\n        /* \"src/EquitoApp.sol\":3806:3817  peerAddress */\n      dup2\n        /* \"src/EquitoApp.sol\":3806:3823  peerAddress.lower */\n      0x00\n      add\n      mload\n        /* \"src/EquitoApp.sol\":3806:3847  peerAddress.lower != message.sender.lower */\n      eq\n      iszero\n        /* \"src/EquitoApp.sol\":3806:3892  peerAddress.lower != message.sender.lower || peerAddress.upper != message.sender.upper */\n      dup1\n      tag_135\n      jumpi\n      pop\n        /* \"src/EquitoApp.sol\":3872:3879  message */\n      dup4\n        /* \"src/EquitoApp.sol\":3872:3886  message.sender */\n      0x40\n      add\n        /* \"src/EquitoApp.sol\":3872:3892  message.sender.upper */\n      0x20\n      add\n      calldataload\n        /* \"src/EquitoApp.sol\":3851:3862  peerAddress */\n      dup2\n        /* \"src/EquitoApp.sol\":3851:3868  peerAddress.upper */\n      0x20\n      add\n      mload\n        /* \"src/EquitoApp.sol\":3851:3892  peerAddress.upper != message.sender.upper */\n      eq\n      iszero\n        /* \"src/EquitoApp.sol\":3806:3892  peerAddress.lower != message.sender.lower || peerAddress.upper != message.sender.upper */\n    tag_135:\n        /* \"src/EquitoApp.sol\":3802:4043  if (peerAddress.lower != message.sender.lower || peerAddress.upper != message.sender.upper) {... */\n      iszero\n      tag_136\n      jumpi\n        /* \"src/EquitoApp.sol\":3908:3956  _receiveMessageFromNonPeer(message, messageData) */\n      tag_137\n        /* \"src/EquitoApp.sol\":3935:3942  message */\n      dup5\n        /* \"src/EquitoApp.sol\":3944:3955  messageData */\n      dup5\n      dup5\n        /* \"src/EquitoApp.sol\":3908:3934  _receiveMessageFromNonPeer */\n      tag_138\n        /* \"src/EquitoApp.sol\":3908:3956  _receiveMessageFromNonPeer(message, messageData) */\n      jump\t// in\n    tag_137:\n        /* \"src/EquitoApp.sol\":3802:4043  if (peerAddress.lower != message.sender.lower || peerAddress.upper != message.sender.upper) {... */\n      jump(tag_139)\n    tag_136:\n        /* \"src/EquitoApp.sol\":3987:4032  _receiveMessageFromPeer(message, messageData) */\n      tag_140\n        /* \"src/EquitoApp.sol\":4011:4018  message */\n      dup5\n        /* \"src/EquitoApp.sol\":4020:4031  messageData */\n      dup5\n      dup5\n        /* \"src/EquitoApp.sol\":3987:4010  _receiveMessageFromPeer */\n      tag_141\n        /* \"src/EquitoApp.sol\":3987:4032  _receiveMessageFromPeer(message, messageData) */\n      jump\t// in\n    tag_140:\n        /* \"src/EquitoApp.sol\":3802:4043  if (peerAddress.lower != message.sender.lower || peerAddress.upper != message.sender.upper) {... */\n    tag_139:\n        /* \"src/EquitoApp.sol\":3713:4049  {... */\n      pop\n        /* \"src/EquitoApp.sol\":3570:4049  function receiveMessage(... */\n      pop\n      pop\n      pop\n      jump\t// out\n        /* \"@openzeppelin/contracts/access/Ownable.sol\":1638:1723  function owner() public view virtual returns (address) {... */\n    tag_59:\n        /* \"@openzeppelin/contracts/access/Ownable.sol\":1684:1691  address */\n      0x00\n        /* \"@openzeppelin/contracts/access/Ownable.sol\":1710:1716  _owner */\n      0x00\n      0x00\n      swap1\n      sload\n      swap1\n      0x0100\n      exp\n      swap1\n      div\n      0xffffffffffffffffffffffffffffffffffffffff\n      and\n        /* \"@openzeppelin/contracts/access/Ownable.sol\":1703:1716  return _owner */\n      swap1\n      pop\n        /* \"@openzeppelin/contracts/access/Ownable.sol\":1638:1723  function owner() public view virtual returns (address) {... */\n      swap1\n      jump\t// out\n        /* \"src/examples/CrossChainSwap.sol\":5621:6167  function swap(... */\n    tag_65:\n        /* \"src/examples/CrossChainSwap.sol\":5838:5975  TransferHelper.safeTransferFrom(... */\n      tag_144\n        /* \"src/examples/CrossChainSwap.sol\":5883:5894  sourceToken */\n      dup3\n        /* \"src/examples/CrossChainSwap.sol\":5908:5918  msg.sender */\n      caller\n        /* \"src/examples/CrossChainSwap.sol\":5940:5944  this */\n      address\n        /* \"src/examples/CrossChainSwap.sol\":5959:5965  amount */\n      dup5\n        /* \"src/examples/CrossChainSwap.sol\":5838:5869  TransferHelper.safeTransferFrom */\n      tag_145\n        /* \"src/examples/CrossChainSwap.sol\":5838:5975  TransferHelper.safeTransferFrom(... */\n      jump\t// in\n    tag_144:\n        /* \"src/examples/CrossChainSwap.sol\":5986:6160  _swap(... */\n      tag_146\n        /* \"src/examples/CrossChainSwap.sol\":6005:6016  sourceToken */\n      dup3\n        /* \"src/examples/CrossChainSwap.sol\":6030:6036  amount */\n      dup3\n        /* \"src/examples/CrossChainSwap.sol\":6050:6059  msg.value */\n      callvalue\n        /* \"src/examples/CrossChainSwap.sol\":6073:6097  destinationChainSelector */\n      dup11\n        /* \"src/examples/CrossChainSwap.sol\":6111:6127  destinationToken */\n      dup11\n      dup11\n        /* \"src/examples/CrossChainSwap.sol\":6141:6150  recipient */\n      dup11\n      dup11\n        /* \"src/examples/CrossChainSwap.sol\":5986:5991  _swap */\n      tag_130\n        /* \"src/examples/CrossChainSwap.sol\":5986:6160  _swap(... */\n      jump\t// in\n    tag_146:\n      pop\n        /* \"src/examples/CrossChainSwap.sol\":5621:6167  function swap(... */\n      pop\n      pop\n      pop\n      pop\n      pop\n      pop\n      pop\n      jump\t// out\n        /* \"src/EquitoApp.sol\":811:851  mapping(uint256 => bytes64) public peers */\n    tag_69:\n      mstore(0x20, 0x01)\n      dup1\n      0x00\n      mstore\n      keccak256(0x00, 0x40)\n      0x00\n      swap2\n      pop\n      swap1\n      pop\n      dup1\n      0x00\n      add\n      sload\n      swap1\n      dup1\n      0x01\n      add\n      sload\n      swap1\n      pop\n      dup3\n      jump\t// out\n        /* \"@openzeppelin/contracts/access/Ownable.sol\":2543:2758  function transferOwnership(address newOwner) public virtual onlyOwner {... */\n    tag_76:\n        /* \"@openzeppelin/contracts/access/Ownable.sol\":1531:1544  _checkOwner() */\n      tag_148\n        /* \"@openzeppelin/contracts/access/Ownable.sol\":1531:1542  _checkOwner */\n      tag_85\n        /* \"@openzeppelin/contracts/access/Ownable.sol\":1531:1544  _checkOwner() */\n      jump\t// in\n    tag_148:\n        /* \"@openzeppelin/contracts/access/Ownable.sol\":2647:2648  0 */\n      0x00\n        /* \"@openzeppelin/contracts/access/Ownable.sol\":2627:2649  newOwner == address(0) */\n      0xffffffffffffffffffffffffffffffffffffffff\n      and\n        /* \"@openzeppelin/contracts/access/Ownable.sol\":2627:2635  newOwner */\n      dup2\n        /* \"@openzeppelin/contracts/access/Ownable.sol\":2627:2649  newOwner == address(0) */\n      0xffffffffffffffffffffffffffffffffffffffff\n      and\n      sub\n        /* \"@openzeppelin/contracts/access/Ownable.sol\":2623:2714  if (newOwner == address(0)) {... */\n      tag_150\n      jumpi\n        /* \"@openzeppelin/contracts/access/Ownable.sol\":2700:2701  0 */\n      0x00\n        /* \"@openzeppelin/contracts/access/Ownable.sol\":2672:2703  OwnableInvalidOwner(address(0)) */\n      mload(0x40)\n      0x1e4fbdf700000000000000000000000000000000000000000000000000000000\n      dup2\n      mstore\n      0x04\n      add\n      tag_151\n      swap2\n      swap1\n      tag_61\n      jump\t// in\n    tag_151:\n      mload(0x40)\n      dup1\n      swap2\n      sub\n      swap1\n      revert\n        /* \"@openzeppelin/contracts/access/Ownable.sol\":2623:2714  if (newOwner == address(0)) {... */\n    tag_150:\n        /* \"@openzeppelin/contracts/access/Ownable.sol\":2723:2751  _transferOwnership(newOwner) */\n      tag_152\n        /* \"@openzeppelin/contracts/access/Ownable.sol\":2742:2750  newOwner */\n      dup2\n        /* \"@openzeppelin/contracts/access/Ownable.sol\":2723:2741  _transferOwnership */\n      tag_116\n        /* \"@openzeppelin/contracts/access/Ownable.sol\":2723:2751  _transferOwnership(newOwner) */\n      jump\t// in\n    tag_152:\n        /* \"@openzeppelin/contracts/access/Ownable.sol\":2543:2758  function transferOwnership(address newOwner) public virtual onlyOwner {... */\n      pop\n      jump\t// out\n        /* \"src/examples/CrossChainSwap.sol\":2707:3086  function calculateDestinationTokenAmount(... */\n    tag_81:\n        /* \"src/examples/CrossChainSwap.sol\":2914:2921  uint256 */\n      0x00\n        /* \"src/examples/CrossChainSwap.sol\":3025:3035  tokenPrice */\n      0x02\n        /* \"src/examples/CrossChainSwap.sol\":3025:3061  tokenPrice[destinationChainSelector] */\n      0x00\n        /* \"src/examples/CrossChainSwap.sol\":3036:3060  destinationChainSelector */\n      dup5\n        /* \"src/examples/CrossChainSwap.sol\":3025:3061  tokenPrice[destinationChainSelector] */\n      dup2\n      mstore\n      0x20\n      add\n      swap1\n      dup2\n      mstore\n      0x20\n      add\n      0x00\n      keccak256\n        /* \"src/examples/CrossChainSwap.sol\":3062:3078  destinationToken */\n      dup3\n        /* \"src/examples/CrossChainSwap.sol\":3025:3079  tokenPrice[destinationChainSelector][destinationToken] */\n      mload(0x40)\n      tag_154\n      swap2\n      swap1\n      tag_100\n      jump\t// in\n    tag_154:\n      swap1\n      dup2\n      mstore\n      0x20\n      add\n      mload(0x40)\n      dup1\n      swap2\n      sub\n      swap1\n      keccak256\n      sload\n        /* \"src/examples/CrossChainSwap.sol\":2962:2972  tokenPrice */\n      0x02\n        /* \"src/examples/CrossChainSwap.sol\":2962:2996  tokenPrice[router.chainSelector()] */\n      0x00\n        /* \"src/examples/CrossChainSwap.sol\":2973:2979  router */\n      immutable(\"0x69e3c6522a2f8bf12e780ae53c30e69d48d224ea00c92026278c398148e8df91\")\n        /* \"src/examples/CrossChainSwap.sol\":2973:2993  router.chainSelector */\n      0xffffffffffffffffffffffffffffffffffffffff\n      and\n      0x4e4bc847\n        /* \"src/examples/CrossChainSwap.sol\":2973:2995  router.chainSelector() */\n      mload(0x40)\n      dup2\n      0xffffffff\n      and\n      0xe0\n      shl\n      dup2\n      mstore\n      0x04\n      add\n      0x20\n      mload(0x40)\n      dup1\n      dup4\n      sub\n      dup2\n      dup7\n      gas\n      staticcall\n      iszero\n      dup1\n      iszero\n      tag_156\n      jumpi\n      returndatacopy(0x00, 0x00, returndatasize)\n      revert(0x00, returndatasize)\n    tag_156:\n      pop\n      pop\n      pop\n      pop\n      mload(0x40)\n      returndatasize\n      not(0x1f)\n      0x1f\n      dup3\n      add\n      and\n      dup3\n      add\n      dup1\n      0x40\n      mstore\n      pop\n      dup2\n      add\n      swap1\n      tag_157\n      swap2\n      swap1\n      tag_158\n      jump\t// in\n    tag_157:\n        /* \"src/examples/CrossChainSwap.sol\":2962:2996  tokenPrice[router.chainSelector()] */\n      dup2\n      mstore\n      0x20\n      add\n      swap1\n      dup2\n      mstore\n      0x20\n      add\n      0x00\n      keccak256\n        /* \"src/examples/CrossChainSwap.sol\":2997:3008  sourceToken */\n      dup7\n        /* \"src/examples/CrossChainSwap.sol\":2962:3009  tokenPrice[router.chainSelector()][sourceToken] */\n      mload(0x40)\n      tag_159\n      swap2\n      swap1\n      tag_100\n      jump\t// in\n    tag_159:\n      swap1\n      dup2\n      mstore\n      0x20\n      add\n      mload(0x40)\n      dup1\n      swap2\n      sub\n      swap1\n      keccak256\n      sload\n        /* \"src/examples/CrossChainSwap.sol\":2953:2959  amount */\n      dup6\n        /* \"src/examples/CrossChainSwap.sol\":2953:3009  amount * tokenPrice[router.chainSelector()][sourceToken] */\n      tag_160\n      swap2\n      swap1\n      tag_161\n      jump\t// in\n    tag_160:\n        /* \"src/examples/CrossChainSwap.sol\":2952:3079  (amount * tokenPrice[router.chainSelector()][sourceToken]) /... */\n      tag_162\n      swap2\n      swap1\n      tag_163\n      jump\t// in\n    tag_162:\n        /* \"src/examples/CrossChainSwap.sol\":2933:3079  return... */\n      swap1\n      pop\n        /* \"src/examples/CrossChainSwap.sol\":2707:3086  function calculateDestinationTokenAmount(... */\n      swap5\n      swap4\n      pop\n      pop\n      pop\n      pop\n      jump\t// out\n        /* \"@openzeppelin/contracts/access/Ownable.sol\":1796:1958  function _checkOwner() internal view virtual {... */\n    tag_85:\n        /* \"@openzeppelin/contracts/access/Ownable.sol\":1866:1878  _msgSender() */\n      tag_165\n        /* \"@openzeppelin/contracts/access/Ownable.sol\":1866:1876  _msgSender */\n      tag_166\n        /* \"@openzeppelin/contracts/access/Ownable.sol\":1866:1878  _msgSender() */\n      jump\t// in\n    tag_165:\n        /* \"@openzeppelin/contracts/access/Ownable.sol\":1855:1878  owner() != _msgSender() */\n      0xffffffffffffffffffffffffffffffffffffffff\n      and\n        /* \"@openzeppelin/contracts/access/Ownable.sol\":1855:1862  owner() */\n      tag_167\n        /* \"@openzeppelin/contracts/access/Ownable.sol\":1855:1860  owner */\n      tag_59\n        /* \"@openzeppelin/contracts/access/Ownable.sol\":1855:1862  owner() */\n      jump\t// in\n    tag_167:\n        /* \"@openzeppelin/contracts/access/Ownable.sol\":1855:1878  owner() != _msgSender() */\n      0xffffffffffffffffffffffffffffffffffffffff\n      and\n      eq\n        /* \"@openzeppelin/contracts/access/Ownable.sol\":1851:1952  if (owner() != _msgSender()) {... */\n      tag_168\n      jumpi\n        /* \"@openzeppelin/contracts/access/Ownable.sol\":1928:1940  _msgSender() */\n      tag_169\n        /* \"@openzeppelin/contracts/access/Ownable.sol\":1928:1938  _msgSender */\n      tag_166\n        /* \"@openzeppelin/contracts/access/Ownable.sol\":1928:1940  _msgSender() */\n      jump\t// in\n    tag_169:\n        /* \"@openzeppelin/contracts/access/Ownable.sol\":1901:1941  OwnableUnauthorizedAccount(_msgSender()) */\n      mload(0x40)\n      0x118cdaa700000000000000000000000000000000000000000000000000000000\n      dup2\n      mstore\n      0x04\n      add\n      tag_170\n      swap2\n      swap1\n      tag_61\n      jump\t// in\n    tag_170:\n      mload(0x40)\n      dup1\n      swap2\n      sub\n      swap1\n      revert\n        /* \"@openzeppelin/contracts/access/Ownable.sol\":1851:1952  if (owner() != _msgSender()) {... */\n    tag_168:\n        /* \"@openzeppelin/contracts/access/Ownable.sol\":1796:1958  function _checkOwner() internal view virtual {... */\n      jump\t// out\n        /* \"src/EquitoApp.sol\":2211:2566  function _setPeers(uint256[] memory chainSelectors, bytes64[] memory addresses) internal virtual onlyOwner {... */\n    tag_105:\n        /* \"@openzeppelin/contracts/access/Ownable.sol\":1531:1544  _checkOwner() */\n      tag_172\n        /* \"@openzeppelin/contracts/access/Ownable.sol\":1531:1542  _checkOwner */\n      tag_85\n        /* \"@openzeppelin/contracts/access/Ownable.sol\":1531:1544  _checkOwner() */\n      jump\t// in\n    tag_172:\n        /* \"src/EquitoApp.sol\":2357:2366  addresses */\n      dup1\n        /* \"src/EquitoApp.sol\":2357:2373  addresses.length */\n      mload\n        /* \"src/EquitoApp.sol\":2332:2346  chainSelectors */\n      dup3\n        /* \"src/EquitoApp.sol\":2332:2353  chainSelectors.length */\n      mload\n        /* \"src/EquitoApp.sol\":2332:2373  chainSelectors.length != addresses.length */\n      eq\n        /* \"src/EquitoApp.sol\":2328:2404  if (chainSelectors.length != addresses.length) revert Errors.InvalidLength() */\n      tag_174\n      jumpi\n        /* \"src/EquitoApp.sol\":2382:2404  Errors.InvalidLength() */\n      mload(0x40)\n      0x947d5a8400000000000000000000000000000000000000000000000000000000\n      dup2\n      mstore\n      0x04\n      add\n      mload(0x40)\n      dup1\n      swap2\n      sub\n      swap1\n      revert\n        /* \"src/EquitoApp.sol\":2328:2404  if (chainSelectors.length != addresses.length) revert Errors.InvalidLength() */\n    tag_174:\n        /* \"src/EquitoApp.sol\":2420:2429  uint256 i */\n      0x00\n        /* \"src/EquitoApp.sol\":2432:2433  0 */\n      0x00\n        /* \"src/EquitoApp.sol\":2420:2433  uint256 i = 0 */\n      swap1\n      pop\n        /* \"src/EquitoApp.sol\":2415:2560  for (uint256 i = 0; i < chainSelectors.length; ) {... */\n    tag_175:\n        /* \"src/EquitoApp.sol\":2439:2453  chainSelectors */\n      dup3\n        /* \"src/EquitoApp.sol\":2439:2460  chainSelectors.length */\n      mload\n        /* \"src/EquitoApp.sol\":2435:2436  i */\n      dup2\n        /* \"src/EquitoApp.sol\":2435:2460  i < chainSelectors.length */\n      lt\n        /* \"src/EquitoApp.sol\":2415:2560  for (uint256 i = 0; i < chainSelectors.length; ) {... */\n      iszero\n      tag_176\n      jumpi\n        /* \"src/EquitoApp.sol\":2505:2514  addresses */\n      dup2\n        /* \"src/EquitoApp.sol\":2515:2516  i */\n      dup2\n        /* \"src/EquitoApp.sol\":2505:2517  addresses[i] */\n      dup2\n      mload\n      dup2\n      lt\n      tag_178\n      jumpi\n      tag_179\n      tag_94\n      jump\t// in\n    tag_179:\n    tag_178:\n      0x20\n      mul\n      0x20\n      add\n      add\n      mload\n        /* \"src/EquitoApp.sol\":2478:2483  peers */\n      0x01\n        /* \"src/EquitoApp.sol\":2478:2502  peers[chainSelectors[i]] */\n      0x00\n        /* \"src/EquitoApp.sol\":2484:2498  chainSelectors */\n      dup6\n        /* \"src/EquitoApp.sol\":2499:2500  i */\n      dup5\n        /* \"src/EquitoApp.sol\":2484:2501  chainSelectors[i] */\n      dup2\n      mload\n      dup2\n      lt\n      tag_180\n      jumpi\n      tag_181\n      tag_94\n      jump\t// in\n    tag_181:\n    tag_180:\n      0x20\n      mul\n      0x20\n      add\n      add\n      mload\n        /* \"src/EquitoApp.sol\":2478:2502  peers[chainSelectors[i]] */\n      dup2\n      mstore\n      0x20\n      add\n      swap1\n      dup2\n      mstore\n      0x20\n      add\n      0x00\n      keccak256\n        /* \"src/EquitoApp.sol\":2478:2517  peers[chainSelectors[i]] = addresses[i] */\n      0x00\n      dup3\n      add\n      mload\n      dup2\n      0x00\n      add\n      sstore\n      0x20\n      dup3\n      add\n      mload\n      dup2\n      0x01\n      add\n      sstore\n      swap1\n      pop\n      pop\n        /* \"src/EquitoApp.sol\":2544:2547  ++i */\n      dup1\n      0x01\n      add\n      swap1\n      pop\n        /* \"src/EquitoApp.sol\":2415:2560  for (uint256 i = 0; i < chainSelectors.length; ) {... */\n      jump(tag_175)\n    tag_176:\n      pop\n        /* \"src/EquitoApp.sol\":2211:2566  function _setPeers(uint256[] memory chainSelectors, bytes64[] memory addresses) internal virtual onlyOwner {... */\n      pop\n      pop\n      jump\t// out\n        /* \"@openzeppelin/contracts/access/Ownable.sol\":2912:3099  function _transferOwnership(address newOwner) internal virtual {... */\n    tag_116:\n        /* \"@openzeppelin/contracts/access/Ownable.sol\":2985:3001  address oldOwner */\n      0x00\n        /* \"@openzeppelin/contracts/access/Ownable.sol\":3004:3010  _owner */\n      0x00\n      0x00\n      swap1\n      sload\n      swap1\n      0x0100\n      exp\n      swap1\n      div\n      0xffffffffffffffffffffffffffffffffffffffff\n      and\n        /* \"@openzeppelin/contracts/access/Ownable.sol\":2985:3010  address oldOwner = _owner */\n      swap1\n      pop\n        /* \"@openzeppelin/contracts/access/Ownable.sol\":3029:3037  newOwner */\n      dup2\n        /* \"@openzeppelin/contracts/access/Ownable.sol\":3020:3026  _owner */\n      0x00\n      0x00\n        /* \"@openzeppelin/contracts/access/Ownable.sol\":3020:3037  _owner = newOwner */\n      0x0100\n      exp\n      dup2\n      sload\n      dup2\n      0xffffffffffffffffffffffffffffffffffffffff\n      mul\n      not\n      and\n      swap1\n      dup4\n      0xffffffffffffffffffffffffffffffffffffffff\n      and\n      mul\n      or\n      swap1\n      sstore\n      pop\n        /* \"@openzeppelin/contracts/access/Ownable.sol\":3083:3091  newOwner */\n      dup2\n        /* \"@openzeppelin/contracts/access/Ownable.sol\":3052:3092  OwnershipTransferred(oldOwner, newOwner) */\n      0xffffffffffffffffffffffffffffffffffffffff\n      and\n        /* \"@openzeppelin/contracts/access/Ownable.sol\":3073:3081  oldOwner */\n      dup2\n        /* \"@openzeppelin/contracts/access/Ownable.sol\":3052:3092  OwnershipTransferred(oldOwner, newOwner) */\n      0xffffffffffffffffffffffffffffffffffffffff\n      and\n      0x8be0079c531659141344cd1fd0a4f28419497f9722a3daafe3b4186f6b6457e0\n      mload(0x40)\n      mload(0x40)\n      dup1\n      swap2\n      sub\n      swap1\n      log3\n        /* \"@openzeppelin/contracts/access/Ownable.sol\":2975:3099  {... */\n      pop\n        /* \"@openzeppelin/contracts/access/Ownable.sol\":2912:3099  function _transferOwnership(address newOwner) internal virtual {... */\n      pop\n      jump\t// out\n        /* \"src/examples/CrossChainSwap.sol\":7781:9095  function _swap(... */\n    tag_130:\n        /* \"src/examples/CrossChainSwap.sol\":8017:8036  bytes32 messageHash */\n      0x00\n        /* \"src/examples/CrossChainSwap.sol\":8098:8123  uint256 destinationAmount */\n      0x00\n        /* \"src/examples/CrossChainSwap.sol\":8126:8298  calculateDestinationTokenAmount(... */\n      tag_184\n        /* \"src/examples/CrossChainSwap.sol\":8182:8193  sourceToken */\n      dup11\n        /* \"src/examples/CrossChainSwap.sol\":8171:8194  abi.encode(sourceToken) */\n      add(0x20, mload(0x40))\n      tag_185\n      swap2\n      swap1\n      tag_61\n      jump\t// in\n    tag_185:\n      mload(0x40)\n      0x20\n      dup2\n      dup4\n      sub\n      sub\n      dup2\n      mstore\n      swap1\n      0x40\n      mstore\n        /* \"src/examples/CrossChainSwap.sol\":8208:8220  sourceAmount */\n      dup11\n        /* \"src/examples/CrossChainSwap.sol\":8234:8258  destinationChainSelector */\n      dup10\n        /* \"src/examples/CrossChainSwap.sol\":8272:8288  destinationToken */\n      dup10\n      dup10\n        /* \"src/examples/CrossChainSwap.sol\":8126:8298  calculateDestinationTokenAmount(... */\n      dup1\n      dup1\n      0x1f\n      add\n      0x20\n      dup1\n      swap2\n      div\n      mul\n      0x20\n      add\n      mload(0x40)\n      swap1\n      dup2\n      add\n      0x40\n      mstore\n      dup1\n      swap4\n      swap3\n      swap2\n      swap1\n      dup2\n      dup2\n      mstore\n      0x20\n      add\n      dup4\n      dup4\n      dup1\n      dup3\n      dup5\n      calldatacopy\n      0x00\n      dup2\n      dup5\n      add\n      mstore\n      not(0x1f)\n      0x1f\n      dup3\n      add\n      and\n      swap1\n      pop\n      dup1\n      dup4\n      add\n      swap3\n      pop\n      pop\n      pop\n      pop\n      pop\n      pop\n      pop\n        /* \"src/examples/CrossChainSwap.sol\":8126:8157  calculateDestinationTokenAmount */\n      tag_81\n        /* \"src/examples/CrossChainSwap.sol\":8126:8298  calculateDestinationTokenAmount(... */\n      jump\t// in\n    tag_184:\n        /* \"src/examples/CrossChainSwap.sol\":8098:8298  uint256 destinationAmount = calculateDestinationTokenAmount(... */\n      swap1\n      pop\n        /* \"src/examples/CrossChainSwap.sol\":8309:8339  TokenAmount memory tokenAmount */\n      0x00\n        /* \"src/examples/CrossChainSwap.sol\":8342:8475  TokenAmount({... */\n      mload(0x40)\n      dup1\n      0x60\n      add\n      0x40\n      mstore\n      dup1\n        /* \"src/examples/CrossChainSwap.sol\":8375:8391  destinationToken */\n      dup9\n      dup9\n        /* \"src/examples/CrossChainSwap.sol\":8342:8475  TokenAmount({... */\n      dup1\n      dup1\n      0x1f\n      add\n      0x20\n      dup1\n      swap2\n      div\n      mul\n      0x20\n      add\n      mload(0x40)\n      swap1\n      dup2\n      add\n      0x40\n      mstore\n      dup1\n      swap4\n      swap3\n      swap2\n      swap1\n      dup2\n      dup2\n      mstore\n      0x20\n      add\n      dup4\n      dup4\n      dup1\n      dup3\n      dup5\n      calldatacopy\n      0x00\n      dup2\n      dup5\n      add\n      mstore\n      not(0x1f)\n      0x1f\n      dup3\n      add\n      and\n      swap1\n      pop\n      dup1\n      dup4\n      add\n      swap3\n      pop\n      pop\n      pop\n      pop\n      pop\n      pop\n      pop\n      dup2\n      mstore\n      0x20\n      add\n        /* \"src/examples/CrossChainSwap.sol\":8413:8430  destinationAmount */\n      dup4\n        /* \"src/examples/CrossChainSwap.sol\":8342:8475  TokenAmount({... */\n      dup2\n      mstore\n      0x20\n      add\n        /* \"src/examples/CrossChainSwap.sol\":8455:8464  recipient */\n      dup7\n      dup7\n        /* \"src/examples/CrossChainSwap.sol\":8342:8475  TokenAmount({... */\n      dup1\n      dup1\n      0x1f\n      add\n      0x20\n      dup1\n      swap2\n      div\n      mul\n      0x20\n      add\n      mload(0x40)\n      swap1\n      dup2\n      add\n      0x40\n      mstore\n      dup1\n      swap4\n      swap3\n      swap2\n      swap1\n      dup2\n      dup2\n      mstore\n      0x20\n      add\n      dup4\n      dup4\n      dup1\n      dup3\n      dup5\n      calldatacopy\n      0x00\n      dup2\n      dup5\n      add\n      mstore\n      not(0x1f)\n      0x1f\n      dup3\n      add\n      and\n      swap1\n      pop\n      dup1\n      dup4\n      add\n      swap3\n      pop\n      pop\n      pop\n      pop\n      pop\n      pop\n      pop\n      dup2\n      mstore\n      pop\n        /* \"src/examples/CrossChainSwap.sol\":8309:8475  TokenAmount memory tokenAmount = TokenAmount({... */\n      swap1\n      pop\n        /* \"src/examples/CrossChainSwap.sol\":8581:8587  router */\n      immutable(\"0x69e3c6522a2f8bf12e780ae53c30e69d48d224ea00c92026278c398148e8df91\")\n        /* \"src/examples/CrossChainSwap.sol\":8581:8599  router.sendMessage */\n      0xffffffffffffffffffffffffffffffffffffffff\n      and\n      0xdc203137\n        /* \"src/examples/CrossChainSwap.sol\":8607:8610  fee */\n      dup11\n        /* \"src/examples/CrossChainSwap.sol\":8625:8658  getPeer(destinationChainSelector) */\n      tag_186\n        /* \"src/examples/CrossChainSwap.sol\":8633:8657  destinationChainSelector */\n      dup12\n        /* \"src/examples/CrossChainSwap.sol\":8625:8632  getPeer */\n      tag_38\n        /* \"src/examples/CrossChainSwap.sol\":8625:8658  getPeer(destinationChainSelector) */\n      jump\t// in\n    tag_186:\n        /* \"src/examples/CrossChainSwap.sol\":8672:8696  destinationChainSelector */\n      dup12\n        /* \"src/examples/CrossChainSwap.sol\":8721:8732  tokenAmount */\n      dup6\n        /* \"src/examples/CrossChainSwap.sol\":8710:8733  abi.encode(tokenAmount) */\n      add(0x20, mload(0x40))\n      tag_187\n      swap2\n      swap1\n      tag_188\n      jump\t// in\n    tag_187:\n      mload(0x40)\n      0x20\n      dup2\n      dup4\n      sub\n      sub\n      dup2\n      mstore\n      swap1\n      0x40\n      mstore\n        /* \"src/examples/CrossChainSwap.sol\":8581:8743  router.sendMessage{value: fee}(... */\n      mload(0x40)\n      dup6\n      0xffffffff\n      and\n      0xe0\n      shl\n      dup2\n      mstore\n      0x04\n      add\n      tag_189\n      swap4\n      swap3\n      swap2\n      swap1\n      tag_190\n      jump\t// in\n    tag_189:\n      0x20\n      mload(0x40)\n      dup1\n      dup4\n      sub\n      dup2\n      dup6\n      dup9\n      gas\n      call\n      iszero\n      dup1\n      iszero\n      tag_192\n      jumpi\n      returndatacopy(0x00, 0x00, returndatasize)\n      revert(0x00, returndatasize)\n    tag_192:\n      pop\n      pop\n      pop\n      pop\n      pop\n      mload(0x40)\n      returndatasize\n      not(0x1f)\n      0x1f\n      dup3\n      add\n      and\n      dup3\n      add\n      dup1\n      0x40\n      mstore\n      pop\n      dup2\n      add\n      swap1\n      tag_193\n      swap2\n      swap1\n      tag_194\n      jump\t// in\n    tag_193:\n        /* \"src/examples/CrossChainSwap.sol\":8567:8743  messageHash = router.sendMessage{value: fee}(... */\n      swap3\n      pop\n        /* \"src/examples/CrossChainSwap.sol\":8857:8881  destinationChainSelector */\n      dup8\n        /* \"src/examples/CrossChainSwap.sol\":8832:8843  messageHash */\n      dup4\n        /* \"src/examples/CrossChainSwap.sol\":8805:9026  SwapRequested(... */\n      0xe2130893f9792447a89b553600c2619692d63b61479e16a0e3735e250ca078d7\n        /* \"src/examples/CrossChainSwap.sol\":8895:8906  sourceToken */\n      dup14\n        /* \"src/examples/CrossChainSwap.sol\":8920:8932  sourceAmount */\n      dup14\n        /* \"src/examples/CrossChainSwap.sol\":8946:8962  destinationToken */\n      dup12\n      dup12\n        /* \"src/examples/CrossChainSwap.sol\":8976:8993  destinationAmount */\n      dup9\n        /* \"src/examples/CrossChainSwap.sol\":9007:9016  recipient */\n      dup13\n      dup13\n        /* \"src/examples/CrossChainSwap.sol\":8805:9026  SwapRequested(... */\n      mload(0x40)\n      tag_195\n      swap8\n      swap7\n      swap6\n      swap5\n      swap4\n      swap3\n      swap2\n      swap1\n      tag_196\n      jump\t// in\n    tag_195:\n      mload(0x40)\n      dup1\n      swap2\n      sub\n      swap1\n      log3\n        /* \"src/examples/CrossChainSwap.sol\":9070:9088  return messageHash */\n      pop\n      pop\n        /* \"src/examples/CrossChainSwap.sol\":7781:9095  function _swap(... */\n      swap9\n      swap8\n      pop\n      pop\n      pop\n      pop\n      pop\n      pop\n      pop\n      pop\n      jump\t// out\n        /* \"src/EquitoApp.sol\":4643:4835  function _receiveMessageFromNonPeer(... */\n    tag_138:\n        /* \"src/EquitoApp.sol\":4799:4828  Errors.InvalidMessageSender() */\n      mload(0x40)\n      0x7fee69a100000000000000000000000000000000000000000000000000000000\n      dup2\n      mstore\n      0x04\n      add\n      mload(0x40)\n      dup1\n      swap2\n      sub\n      swap1\n      revert\n        /* \"src/examples/CrossChainSwap.sol\":4555:5170  function _receiveMessageFromPeer(... */\n    tag_141:\n        /* \"src/examples/CrossChainSwap.sol\":4699:4729  TokenAmount memory tokenAmount */\n      0x00\n        /* \"src/examples/CrossChainSwap.sol\":4756:4767  messageData */\n      dup3\n      dup3\n        /* \"src/examples/CrossChainSwap.sol\":4732:4804  abi.decode(... */\n      dup2\n      add\n      swap1\n      tag_199\n      swap2\n      swap1\n      tag_200\n      jump\t// in\n    tag_199:\n        /* \"src/examples/CrossChainSwap.sol\":4699:4804  TokenAmount memory tokenAmount = abi.decode(... */\n      swap1\n      pop\n        /* \"src/examples/CrossChainSwap.sol\":4815:4832  address recipient */\n      0x00\n        /* \"src/examples/CrossChainSwap.sol\":4846:4857  tokenAmount */\n      dup2\n        /* \"src/examples/CrossChainSwap.sol\":4846:4867  tokenAmount.recipient */\n      0x40\n      add\n      mload\n        /* \"src/examples/CrossChainSwap.sol\":4835:4879  abi.decode(tokenAmount.recipient, (address)) */\n      dup1\n      0x20\n      add\n      swap1\n      mload\n      dup2\n      add\n      swap1\n      tag_201\n      swap2\n      swap1\n      tag_202\n      jump\t// in\n    tag_201:\n        /* \"src/examples/CrossChainSwap.sol\":4815:4879  address recipient = abi.decode(tokenAmount.recipient, (address)) */\n      swap1\n      pop\n        /* \"src/examples/CrossChainSwap.sol\":4889:4902  address token */\n      0x00\n        /* \"src/examples/CrossChainSwap.sol\":4916:4927  tokenAmount */\n      dup3\n        /* \"src/examples/CrossChainSwap.sol\":4916:4933  tokenAmount.token */\n      0x00\n      add\n      mload\n        /* \"src/examples/CrossChainSwap.sol\":4905:4945  abi.decode(tokenAmount.token, (address)) */\n      dup1\n      0x20\n      add\n      swap1\n      mload\n      dup2\n      add\n      swap1\n      tag_203\n      swap2\n      swap1\n      tag_202\n      jump\t// in\n    tag_203:\n        /* \"src/examples/CrossChainSwap.sol\":4889:4945  address token = abi.decode(tokenAmount.token, (address)) */\n      swap1\n      pop\n        /* \"src/examples/CrossChainSwap.sol\":1478:1520  0xEeeeeEeeeEeEeeEeEeEeeEEEeeeeEeeeeeeeEEeE */\n      0xeeeeeeeeeeeeeeeeeeeeeeeeeeeeeeeeeeeeeeee\n        /* \"src/examples/CrossChainSwap.sol\":4959:4980  token == NATIVE_TOKEN */\n      0xffffffffffffffffffffffffffffffffffffffff\n      and\n        /* \"src/examples/CrossChainSwap.sol\":4959:4964  token */\n      dup2\n        /* \"src/examples/CrossChainSwap.sol\":4959:4980  token == NATIVE_TOKEN */\n      0xffffffffffffffffffffffffffffffffffffffff\n      and\n      sub\n        /* \"src/examples/CrossChainSwap.sol\":4955:5164  if (token == NATIVE_TOKEN) {... */\n      tag_204\n      jumpi\n        /* \"src/examples/CrossChainSwap.sol\":4996:5057  TransferHelper.safeTransferETH(recipient, tokenAmount.amount) */\n      tag_205\n        /* \"src/examples/CrossChainSwap.sol\":5027:5036  recipient */\n      dup3\n        /* \"src/examples/CrossChainSwap.sol\":5038:5049  tokenAmount */\n      dup5\n        /* \"src/examples/CrossChainSwap.sol\":5038:5056  tokenAmount.amount */\n      0x20\n      add\n      mload\n        /* \"src/examples/CrossChainSwap.sol\":4996:5026  TransferHelper.safeTransferETH */\n      tag_206\n        /* \"src/examples/CrossChainSwap.sol\":4996:5057  TransferHelper.safeTransferETH(recipient, tokenAmount.amount) */\n      jump\t// in\n    tag_205:\n        /* \"src/examples/CrossChainSwap.sol\":4955:5164  if (token == NATIVE_TOKEN) {... */\n      jump(tag_207)\n    tag_204:\n        /* \"src/examples/CrossChainSwap.sol\":5088:5153  TransferHelper.safeTransfer(token, recipient, tokenAmount.amount) */\n      tag_208\n        /* \"src/examples/CrossChainSwap.sol\":5116:5121  token */\n      dup2\n        /* \"src/examples/CrossChainSwap.sol\":5123:5132  recipient */\n      dup4\n        /* \"src/examples/CrossChainSwap.sol\":5134:5145  tokenAmount */\n      dup6\n        /* \"src/examples/CrossChainSwap.sol\":5134:5152  tokenAmount.amount */\n      0x20\n      add\n      mload\n        /* \"src/examples/CrossChainSwap.sol\":5088:5115  TransferHelper.safeTransfer */\n      tag_209\n        /* \"src/examples/CrossChainSwap.sol\":5088:5153  TransferHelper.safeTransfer(token, recipient, tokenAmount.amount) */\n      jump\t// in\n    tag_208:\n        /* \"src/examples/CrossChainSwap.sol\":4955:5164  if (token == NATIVE_TOKEN) {... */\n    tag_207:\n        /* \"src/examples/CrossChainSwap.sol\":4689:5170  {... */\n      pop\n      pop\n      pop\n        /* \"src/examples/CrossChainSwap.sol\":4555:5170  function _receiveMessageFromPeer(... */\n      pop\n      pop\n      pop\n      jump\t// out\n        /* \"src/libraries/TransferHelper.sol\":2312:2930  function safeTransferFrom(... */\n    tag_145:\n        /* \"src/libraries/TransferHelper.sol\":2556:2568  bool success */\n      0x00\n        /* \"src/libraries/TransferHelper.sol\":2570:2587  bytes memory data */\n      0x00\n        /* \"src/libraries/TransferHelper.sol\":2591:2596  token */\n      dup6\n        /* \"src/libraries/TransferHelper.sol\":2591:2601  token.call */\n      0xffffffffffffffffffffffffffffffffffffffff\n      and\n        /* \"src/libraries/TransferHelper.sol\":2638:2648  0x23b872dd */\n      0x23b872dd\n        /* \"src/libraries/TransferHelper.sol\":2650:2654  from */\n      dup7\n        /* \"src/libraries/TransferHelper.sol\":2656:2658  to */\n      dup7\n        /* \"src/libraries/TransferHelper.sol\":2660:2665  value */\n      dup7\n        /* \"src/libraries/TransferHelper.sol\":2615:2666  abi.encodeWithSelector(0x23b872dd, from, to, value) */\n      add(0x24, mload(0x40))\n      tag_211\n      swap4\n      swap3\n      swap2\n      swap1\n      tag_212\n      jump\t// in\n    tag_211:\n      mload(0x40)\n      0x20\n      dup2\n      dup4\n      sub\n      sub\n      dup2\n      mstore\n      swap1\n      0x40\n      mstore\n      swap1\n      0xe0\n      shl\n      0x20\n      dup3\n      add\n      dup1\n      mload\n      0xffffffffffffffffffffffffffffffffffffffffffffffffffffffff\n      dup4\n      dup2\n      dup4\n      and\n      or\n      dup4\n      mstore\n      pop\n      pop\n      pop\n      pop\n        /* \"src/libraries/TransferHelper.sol\":2591:2676  token.call(... */\n      mload(0x40)\n      tag_213\n      swap2\n      swap1\n      tag_100\n      jump\t// in\n    tag_213:\n      0x00\n      mload(0x40)\n      dup1\n      dup4\n      sub\n      dup2\n      0x00\n      dup7\n      gas\n      call\n      swap2\n      pop\n      pop\n      returndatasize\n      dup1\n      0x00\n      dup2\n      eq\n      tag_216\n      jumpi\n      mload(0x40)\n      swap2\n      pop\n      and(add(returndatasize, 0x3f), not(0x1f))\n      dup3\n      add\n      0x40\n      mstore\n      returndatasize\n      dup3\n      mstore\n      returndatasize\n      0x00\n      0x20\n      dup5\n      add\n      returndatacopy\n      jump(tag_215)\n    tag_216:\n      0x60\n      swap2\n      pop\n    tag_215:\n      pop\n        /* \"src/libraries/TransferHelper.sol\":2555:2676  (bool success, bytes memory data) = token.call(... */\n      swap2\n      pop\n      swap2\n      pop\n        /* \"src/libraries/TransferHelper.sol\":2804:2811  success */\n      dup2\n        /* \"src/libraries/TransferHelper.sol\":2804:2861  success && (data.length == 0 || abi.decode(data, (bool))) */\n      dup1\n      iszero\n      tag_217\n      jumpi\n      pop\n        /* \"src/libraries/TransferHelper.sol\":2831:2832  0 */\n      0x00\n        /* \"src/libraries/TransferHelper.sol\":2816:2820  data */\n      dup2\n        /* \"src/libraries/TransferHelper.sol\":2816:2827  data.length */\n      mload\n        /* \"src/libraries/TransferHelper.sol\":2816:2832  data.length == 0 */\n      eq\n        /* \"src/libraries/TransferHelper.sol\":2816:2860  data.length == 0 || abi.decode(data, (bool)) */\n      dup1\n      tag_218\n      jumpi\n      pop\n        /* \"src/libraries/TransferHelper.sol\":2847:2851  data */\n      dup1\n        /* \"src/libraries/TransferHelper.sol\":2836:2860  abi.decode(data, (bool)) */\n      dup1\n      0x20\n      add\n      swap1\n      mload\n      dup2\n      add\n      swap1\n      tag_219\n      swap2\n      swap1\n      tag_220\n      jump\t// in\n    tag_219:\n        /* \"src/libraries/TransferHelper.sol\":2816:2860  data.length == 0 || abi.decode(data, (bool)) */\n    tag_218:\n        /* \"src/libraries/TransferHelper.sol\":2804:2861  success && (data.length == 0 || abi.decode(data, (bool))) */\n    tag_217:\n        /* \"src/libraries/TransferHelper.sol\":2783:2923  require(... */\n      tag_221\n      jumpi\n      mload(0x40)\n      0x08c379a000000000000000000000000000000000000000000000000000000000\n      dup2\n      mstore\n      0x04\n      add\n      tag_222\n      swap1\n      tag_223\n      jump\t// in\n    tag_222:\n      mload(0x40)\n      dup1\n      swap2\n      sub\n      swap1\n      revert\n    tag_221:\n        /* \"src/libraries/TransferHelper.sol\":2441:2930  {... */\n      pop\n      pop\n        /* \"src/libraries/TransferHelper.sol\":2312:2930  function safeTransferFrom(... */\n      pop\n      pop\n      pop\n      pop\n      jump\t// out\n        /* \"@openzeppelin/contracts/utils/Context.sol\":656:752  function _msgSender() internal view virtual returns (address) {... */\n    tag_166:\n        /* \"@openzeppelin/contracts/utils/Context.sol\":709:716  address */\n      0x00\n        /* \"@openzeppelin/contracts/utils/Context.sol\":735:745  msg.sender */\n      caller\n        /* \"@openzeppelin/contracts/utils/Context.sol\":728:745  return msg.sender */\n      swap1\n      pop\n        /* \"@openzeppelin/contracts/utils/Context.sol\":656:752  function _msgSender() internal view virtual returns (address) {... */\n      swap1\n      jump\t// out\n        /* \"src/libraries/TransferHelper.sol\":3171:3412  function safeTransferETH(address to, uint256 value) internal {... */\n    tag_206:\n        /* \"src/libraries/TransferHelper.sol\":3243:3255  bool success */\n      0x00\n        /* \"src/libraries/TransferHelper.sol\":3261:3263  to */\n      dup3\n        /* \"src/libraries/TransferHelper.sol\":3261:3268  to.call */\n      0xffffffffffffffffffffffffffffffffffffffff\n      and\n        /* \"src/libraries/TransferHelper.sol\":3276:3281  value */\n      dup3\n        /* \"src/libraries/TransferHelper.sol\":3293:3294  0 */\n      0x00\n        /* \"src/libraries/TransferHelper.sol\":3283:3295  new bytes(0) */\n      0xffffffffffffffff\n      dup2\n      gt\n      iszero\n      tag_226\n      jumpi\n      tag_227\n      tag_228\n      jump\t// in\n    tag_227:\n    tag_226:\n      mload(0x40)\n      swap1\n      dup1\n      dup3\n      mstore\n      dup1\n      0x1f\n      add\n      not(0x1f)\n      and\n      0x20\n      add\n      dup3\n      add\n      0x40\n      mstore\n      dup1\n      iszero\n      tag_229\n      jumpi\n      dup2\n      0x20\n      add\n      0x01\n      dup3\n      mul\n      dup1\n      calldatasize\n      dup4\n      calldatacopy\n      dup1\n      dup3\n      add\n      swap2\n      pop\n      pop\n      swap1\n      pop\n    tag_229:\n      pop\n        /* \"src/libraries/TransferHelper.sol\":3261:3296  to.call{value: value}(new bytes(0)) */\n      mload(0x40)\n      tag_230\n      swap2\n      swap1\n      tag_100\n      jump\t// in\n    tag_230:\n      0x00\n      mload(0x40)\n      dup1\n      dup4\n      sub\n      dup2\n      dup6\n      dup8\n      gas\n      call\n      swap3\n      pop\n      pop\n      pop\n      returndatasize\n      dup1\n      0x00\n      dup2\n      eq\n      tag_233\n      jumpi\n      mload(0x40)\n      swap2\n      pop\n      and(add(returndatasize, 0x3f), not(0x1f))\n      dup3\n      add\n      0x40\n      mstore\n      returndatasize\n      dup3\n      mstore\n      returndatasize\n      0x00\n      0x20\n      dup5\n      add\n      returndatacopy\n      jump(tag_232)\n    tag_233:\n      0x60\n      swap2\n      pop\n    tag_232:\n      pop\n        /* \"src/libraries/TransferHelper.sol\":3242:3296  (bool success, ) = to.call{value: value}(new bytes(0)) */\n      pop\n      swap1\n      pop\n        /* \"src/libraries/TransferHelper.sol\":3358:3365  success */\n      dup1\n        /* \"src/libraries/TransferHelper.sol\":3350:3405  require(success, \"TransferHelper: ETH_TRANSFER_FAILED\") */\n      tag_234\n      jumpi\n      mload(0x40)\n      0x08c379a000000000000000000000000000000000000000000000000000000000\n      dup2\n      mstore\n      0x04\n      add\n      tag_235\n      swap1\n      tag_236\n      jump\t// in\n    tag_235:\n      mload(0x40)\n      dup1\n      swap2\n      sub\n      swap1\n      revert\n    tag_234:\n        /* \"src/libraries/TransferHelper.sol\":3232:3412  {... */\n      pop\n        /* \"src/libraries/TransferHelper.sol\":3171:3412  function safeTransferETH(address to, uint256 value) internal {... */\n      pop\n      pop\n      jump\t// out\n        /* \"src/libraries/TransferHelper.sol\":1400:1939  function safeTransfer(address token, address to, uint256 value) internal {... */\n    tag_209:\n        /* \"src/libraries/TransferHelper.sol\":1576:1588  bool success */\n      0x00\n        /* \"src/libraries/TransferHelper.sol\":1590:1607  bytes memory data */\n      0x00\n        /* \"src/libraries/TransferHelper.sol\":1611:1616  token */\n      dup5\n        /* \"src/libraries/TransferHelper.sol\":1611:1621  token.call */\n      0xffffffffffffffffffffffffffffffffffffffff\n      and\n        /* \"src/libraries/TransferHelper.sol\":1658:1668  0xa9059cbb */\n      0xa9059cbb\n        /* \"src/libraries/TransferHelper.sol\":1670:1672  to */\n      dup6\n        /* \"src/libraries/TransferHelper.sol\":1674:1679  value */\n      dup6\n        /* \"src/libraries/TransferHelper.sol\":1635:1680  abi.encodeWithSelector(0xa9059cbb, to, value) */\n      add(0x24, mload(0x40))\n      tag_238\n      swap3\n      swap2\n      swap1\n      tag_239\n      jump\t// in\n    tag_238:\n      mload(0x40)\n      0x20\n      dup2\n      dup4\n      sub\n      sub\n      dup2\n      mstore\n      swap1\n      0x40\n      mstore\n      swap1\n      0xe0\n      shl\n      0x20\n      dup3\n      add\n      dup1\n      mload\n      0xffffffffffffffffffffffffffffffffffffffffffffffffffffffff\n      dup4\n      dup2\n      dup4\n      and\n      or\n      dup4\n      mstore\n      pop\n      pop\n      pop\n      pop\n        /* \"src/libraries/TransferHelper.sol\":1611:1690  token.call(... */\n      mload(0x40)\n      tag_240\n      swap2\n      swap1\n      tag_100\n      jump\t// in\n    tag_240:\n      0x00\n      mload(0x40)\n      dup1\n      dup4\n      sub\n      dup2\n      0x00\n      dup7\n      gas\n      call\n      swap2\n      pop\n      pop\n      returndatasize\n      dup1\n      0x00\n      dup2\n      eq\n      tag_243\n      jumpi\n      mload(0x40)\n      swap2\n      pop\n      and(add(returndatasize, 0x3f), not(0x1f))\n      dup3\n      add\n      0x40\n      mstore\n      returndatasize\n      dup3\n      mstore\n      returndatasize\n      0x00\n      0x20\n      dup5\n      add\n      returndatacopy\n      jump(tag_242)\n    tag_243:\n      0x60\n      swap2\n      pop\n    tag_242:\n      pop\n        /* \"src/libraries/TransferHelper.sol\":1575:1690  (bool success, bytes memory data) = token.call(... */\n      swap2\n      pop\n      swap2\n      pop\n        /* \"src/libraries/TransferHelper.sol\":1818:1825  success */\n      dup2\n        /* \"src/libraries/TransferHelper.sol\":1818:1875  success && (data.length == 0 || abi.decode(data, (bool))) */\n      dup1\n      iszero\n      tag_244\n      jumpi\n      pop\n        /* \"src/libraries/TransferHelper.sol\":1845:1846  0 */\n      0x00\n        /* \"src/libraries/TransferHelper.sol\":1830:1834  data */\n      dup2\n        /* \"src/libraries/TransferHelper.sol\":1830:1841  data.length */\n      mload\n        /* \"src/libraries/TransferHelper.sol\":1830:1846  data.length == 0 */\n      eq\n        /* \"src/libraries/TransferHelper.sol\":1830:1874  data.length == 0 || abi.decode(data, (bool)) */\n      dup1\n      tag_245\n      jumpi\n      pop\n        /* \"src/libraries/TransferHelper.sol\":1861:1865  data */\n      dup1\n        /* \"src/libraries/TransferHelper.sol\":1850:1874  abi.decode(data, (bool)) */\n      dup1\n      0x20\n      add\n      swap1\n      mload\n      dup2\n      add\n      swap1\n      tag_246\n      swap2\n      swap1\n      tag_220\n      jump\t// in\n    tag_246:\n        /* \"src/libraries/TransferHelper.sol\":1830:1874  data.length == 0 || abi.decode(data, (bool)) */\n    tag_245:\n        /* \"src/libraries/TransferHelper.sol\":1818:1875  success && (data.length == 0 || abi.decode(data, (bool))) */\n    tag_244:\n        /* \"src/libraries/TransferHelper.sol\":1797:1932  require(... */\n      tag_247\n      jumpi\n      mload(0x40)\n      0x08c379a000000000000000000000000000000000000000000000000000000000\n      dup2\n      mstore\n      0x04\n      add\n      tag_248\n      swap1\n      tag_249\n      jump\t// in\n    tag_248:\n      mload(0x40)\n      dup1\n      swap2\n      sub\n      swap1\n      revert\n    tag_247:\n        /* \"src/libraries/TransferHelper.sol\":1473:1939  {... */\n      pop\n      pop\n        /* \"src/libraries/TransferHelper.sol\":1400:1939  function safeTransfer(address token, address to, uint256 value) internal {... */\n      pop\n      pop\n      pop\n      jump\t// out\n    tag_107:\n      mload(0x40)\n      dup1\n      0x40\n      add\n      0x40\n      mstore\n      dup1\n      0x00\n      dup2\n      mstore\n      0x20\n      add\n      0x00\n      dup2\n      mstore\n      pop\n      swap1\n      jump\t// out\n        /* \"#utility.yul\":7:82   */\n    tag_250:\n        /* \"#utility.yul\":40:46   */\n      0x00\n        /* \"#utility.yul\":73:75   */\n      0x40\n        /* \"#utility.yul\":67:76   */\n      mload\n        /* \"#utility.yul\":57:76   */\n      swap1\n      pop\n        /* \"#utility.yul\":7:82   */\n      swap1\n      jump\t// out\n        /* \"#utility.yul\":88:205   */\n    tag_251:\n        /* \"#utility.yul\":197:198   */\n      0x00\n        /* \"#utility.yul\":194:195   */\n      0x00\n        /* \"#utility.yul\":187:199   */\n      revert\n        /* \"#utility.yul\":211:328   */\n    tag_252:\n        /* \"#utility.yul\":320:321   */\n      0x00\n        /* \"#utility.yul\":317:318   */\n      0x00\n        /* \"#utility.yul\":310:322   */\n      revert\n        /* \"#utility.yul\":334:451   */\n    tag_253:\n        /* \"#utility.yul\":443:444   */\n      0x00\n        /* \"#utility.yul\":440:441   */\n      0x00\n        /* \"#utility.yul\":433:445   */\n      revert\n        /* \"#utility.yul\":457:559   */\n    tag_254:\n        /* \"#utility.yul\":498:504   */\n      0x00\n        /* \"#utility.yul\":549:551   */\n      0x1f\n        /* \"#utility.yul\":545:552   */\n      not\n        /* \"#utility.yul\":540:542   */\n      0x1f\n        /* \"#utility.yul\":533:538   */\n      dup4\n        /* \"#utility.yul\":529:543   */\n      add\n        /* \"#utility.yul\":525:553   */\n      and\n        /* \"#utility.yul\":515:553   */\n      swap1\n      pop\n        /* \"#utility.yul\":457:559   */\n      swap2\n      swap1\n      pop\n      jump\t// out\n        /* \"#utility.yul\":565:745   */\n    tag_228:\n        /* \"#utility.yul\":613:690   */\n      0x4e487b7100000000000000000000000000000000000000000000000000000000\n        /* \"#utility.yul\":610:611   */\n      0x00\n        /* \"#utility.yul\":603:691   */\n      mstore\n        /* \"#utility.yul\":710:714   */\n      0x41\n        /* \"#utility.yul\":707:708   */\n      0x04\n        /* \"#utility.yul\":700:715   */\n      mstore\n        /* \"#utility.yul\":734:738   */\n      0x24\n        /* \"#utility.yul\":731:732   */\n      0x00\n        /* \"#utility.yul\":724:739   */\n      revert\n        /* \"#utility.yul\":751:1032   */\n    tag_255:\n        /* \"#utility.yul\":834:861   */\n      tag_333\n        /* \"#utility.yul\":856:860   */\n      dup3\n        /* \"#utility.yul\":834:861   */\n      tag_254\n      jump\t// in\n    tag_333:\n        /* \"#utility.yul\":826:832   */\n      dup2\n        /* \"#utility.yul\":822:862   */\n      add\n        /* \"#utility.yul\":964:970   */\n      dup2\n        /* \"#utility.yul\":952:962   */\n      dup2\n        /* \"#utility.yul\":949:971   */\n      lt\n        /* \"#utility.yul\":928:946   */\n      0xffffffffffffffff\n        /* \"#utility.yul\":916:926   */\n      dup3\n        /* \"#utility.yul\":913:947   */\n      gt\n        /* \"#utility.yul\":910:972   */\n      or\n        /* \"#utility.yul\":907:995   */\n      iszero\n      tag_334\n      jumpi\n        /* \"#utility.yul\":975:993   */\n      tag_335\n      tag_228\n      jump\t// in\n    tag_335:\n        /* \"#utility.yul\":907:995   */\n    tag_334:\n        /* \"#utility.yul\":1015:1025   */\n      dup1\n        /* \"#utility.yul\":1011:1013   */\n      0x40\n        /* \"#utility.yul\":1004:1026   */\n      mstore\n        /* \"#utility.yul\":794:1032   */\n      pop\n        /* \"#utility.yul\":751:1032   */\n      pop\n      pop\n      jump\t// out\n        /* \"#utility.yul\":1038:1167   */\n    tag_256:\n        /* \"#utility.yul\":1072:1078   */\n      0x00\n        /* \"#utility.yul\":1099:1119   */\n      tag_337\n      tag_250\n      jump\t// in\n    tag_337:\n        /* \"#utility.yul\":1089:1119   */\n      swap1\n      pop\n        /* \"#utility.yul\":1128:1161   */\n      tag_338\n        /* \"#utility.yul\":1156:1160   */\n      dup3\n        /* \"#utility.yul\":1148:1154   */\n      dup3\n        /* \"#utility.yul\":1128:1161   */\n      tag_255\n      jump\t// in\n    tag_338:\n        /* \"#utility.yul\":1038:1167   */\n      swap2\n      swap1\n      pop\n      jump\t// out\n        /* \"#utility.yul\":1173:1484   */\n    tag_257:\n        /* \"#utility.yul\":1250:1254   */\n      0x00\n        /* \"#utility.yul\":1340:1358   */\n      0xffffffffffffffff\n        /* \"#utility.yul\":1332:1338   */\n      dup3\n        /* \"#utility.yul\":1329:1359   */\n      gt\n        /* \"#utility.yul\":1326:1382   */\n      iszero\n      tag_340\n      jumpi\n        /* \"#utility.yul\":1362:1380   */\n      tag_341\n      tag_228\n      jump\t// in\n    tag_341:\n        /* \"#utility.yul\":1326:1382   */\n    tag_340:\n        /* \"#utility.yul\":1412:1416   */\n      0x20\n        /* \"#utility.yul\":1404:1410   */\n      dup3\n        /* \"#utility.yul\":1400:1417   */\n      mul\n        /* \"#utility.yul\":1392:1417   */\n      swap1\n      pop\n        /* \"#utility.yul\":1472:1476   */\n      0x20\n        /* \"#utility.yul\":1466:1470   */\n      dup2\n        /* \"#utility.yul\":1462:1477   */\n      add\n        /* \"#utility.yul\":1454:1477   */\n      swap1\n      pop\n        /* \"#utility.yul\":1173:1484   */\n      swap2\n      swap1\n      pop\n      jump\t// out\n        /* \"#utility.yul\":1490:1607   */\n    tag_258:\n        /* \"#utility.yul\":1599:1600   */\n      0x00\n        /* \"#utility.yul\":1596:1597   */\n      0x00\n        /* \"#utility.yul\":1589:1601   */\n      revert\n        /* \"#utility.yul\":1613:1690   */\n    tag_259:\n        /* \"#utility.yul\":1650:1657   */\n      0x00\n        /* \"#utility.yul\":1679:1684   */\n      dup2\n        /* \"#utility.yul\":1668:1684   */\n      swap1\n      pop\n        /* \"#utility.yul\":1613:1690   */\n      swap2\n      swap1\n      pop\n      jump\t// out\n        /* \"#utility.yul\":1696:1818   */\n    tag_260:\n        /* \"#utility.yul\":1769:1793   */\n      tag_345\n        /* \"#utility.yul\":1787:1792   */\n      dup2\n        /* \"#utility.yul\":1769:1793   */\n      tag_259\n      jump\t// in\n    tag_345:\n        /* \"#utility.yul\":1762:1767   */\n      dup2\n        /* \"#utility.yul\":1759:1794   */\n      eq\n        /* \"#utility.yul\":1749:1812   */\n      tag_346\n      jumpi\n        /* \"#utility.yul\":1808:1809   */\n      0x00\n        /* \"#utility.yul\":1805:1806   */\n      0x00\n        /* \"#utility.yul\":1798:1810   */\n      revert\n        /* \"#utility.yul\":1749:1812   */\n    tag_346:\n        /* \"#utility.yul\":1696:1818   */\n      pop\n      jump\t// out\n        /* \"#utility.yul\":1824:1963   */\n    tag_261:\n        /* \"#utility.yul\":1870:1875   */\n      0x00\n        /* \"#utility.yul\":1908:1914   */\n      dup2\n        /* \"#utility.yul\":1895:1915   */\n      calldataload\n        /* \"#utility.yul\":1886:1915   */\n      swap1\n      pop\n        /* \"#utility.yul\":1924:1957   */\n      tag_348\n        /* \"#utility.yul\":1951:1956   */\n      dup2\n        /* \"#utility.yul\":1924:1957   */\n      tag_260\n      jump\t// in\n    tag_348:\n        /* \"#utility.yul\":1824:1963   */\n      swap3\n      swap2\n      pop\n      pop\n      jump\t// out\n        /* \"#utility.yul\":1986:2696   */\n    tag_262:\n        /* \"#utility.yul\":2082:2087   */\n      0x00\n        /* \"#utility.yul\":2107:2188   */\n      tag_350\n        /* \"#utility.yul\":2123:2187   */\n      tag_351\n        /* \"#utility.yul\":2180:2186   */\n      dup5\n        /* \"#utility.yul\":2123:2187   */\n      tag_257\n      jump\t// in\n    tag_351:\n        /* \"#utility.yul\":2107:2188   */\n      tag_256\n      jump\t// in\n    tag_350:\n        /* \"#utility.yul\":2098:2188   */\n      swap1\n      pop\n        /* \"#utility.yul\":2208:2213   */\n      dup1\n        /* \"#utility.yul\":2237:2243   */\n      dup4\n        /* \"#utility.yul\":2230:2235   */\n      dup3\n        /* \"#utility.yul\":2223:2244   */\n      mstore\n        /* \"#utility.yul\":2271:2275   */\n      0x20\n        /* \"#utility.yul\":2264:2269   */\n      dup3\n        /* \"#utility.yul\":2260:2276   */\n      add\n        /* \"#utility.yul\":2253:2276   */\n      swap1\n      pop\n        /* \"#utility.yul\":2324:2328   */\n      0x20\n        /* \"#utility.yul\":2316:2322   */\n      dup5\n        /* \"#utility.yul\":2312:2329   */\n      mul\n        /* \"#utility.yul\":2304:2310   */\n      dup4\n        /* \"#utility.yul\":2300:2330   */\n      add\n        /* \"#utility.yul\":2353:2356   */\n      dup6\n        /* \"#utility.yul\":2345:2351   */\n      dup2\n        /* \"#utility.yul\":2342:2357   */\n      gt\n        /* \"#utility.yul\":2339:2461   */\n      iszero\n      tag_352\n      jumpi\n        /* \"#utility.yul\":2372:2451   */\n      tag_353\n      tag_258\n      jump\t// in\n    tag_353:\n        /* \"#utility.yul\":2339:2461   */\n    tag_352:\n        /* \"#utility.yul\":2487:2493   */\n      dup4\n        /* \"#utility.yul\":2470:2690   */\n    tag_354:\n        /* \"#utility.yul\":2504:2510   */\n      dup2\n        /* \"#utility.yul\":2499:2502   */\n      dup2\n        /* \"#utility.yul\":2496:2511   */\n      lt\n        /* \"#utility.yul\":2470:2690   */\n      iszero\n      tag_356\n      jumpi\n        /* \"#utility.yul\":2579:2582   */\n      dup1\n        /* \"#utility.yul\":2608:2645   */\n      tag_357\n        /* \"#utility.yul\":2641:2644   */\n      dup9\n        /* \"#utility.yul\":2629:2639   */\n      dup3\n        /* \"#utility.yul\":2608:2645   */\n      tag_261\n      jump\t// in\n    tag_357:\n        /* \"#utility.yul\":2603:2606   */\n      dup5\n        /* \"#utility.yul\":2596:2646   */\n      mstore\n        /* \"#utility.yul\":2675:2679   */\n      0x20\n        /* \"#utility.yul\":2670:2673   */\n      dup5\n        /* \"#utility.yul\":2666:2680   */\n      add\n        /* \"#utility.yul\":2659:2680   */\n      swap4\n      pop\n        /* \"#utility.yul\":2546:2690   */\n      pop\n        /* \"#utility.yul\":2530:2534   */\n      0x20\n        /* \"#utility.yul\":2525:2528   */\n      dup2\n        /* \"#utility.yul\":2521:2535   */\n      add\n        /* \"#utility.yul\":2514:2535   */\n      swap1\n      pop\n        /* \"#utility.yul\":2470:2690   */\n      jump(tag_354)\n    tag_356:\n        /* \"#utility.yul\":2474:2495   */\n      pop\n        /* \"#utility.yul\":2088:2696   */\n      pop\n      pop\n        /* \"#utility.yul\":1986:2696   */\n      swap4\n      swap3\n      pop\n      pop\n      pop\n      jump\t// out\n        /* \"#utility.yul\":2719:3089   */\n    tag_263:\n        /* \"#utility.yul\":2790:2795   */\n      0x00\n        /* \"#utility.yul\":2839:2842   */\n      dup3\n        /* \"#utility.yul\":2832:2836   */\n      0x1f\n        /* \"#utility.yul\":2824:2830   */\n      dup4\n        /* \"#utility.yul\":2820:2837   */\n      add\n        /* \"#utility.yul\":2816:2843   */\n      slt\n        /* \"#utility.yul\":2806:2928   */\n      tag_359\n      jumpi\n        /* \"#utility.yul\":2847:2926   */\n      tag_360\n      tag_253\n      jump\t// in\n    tag_360:\n        /* \"#utility.yul\":2806:2928   */\n    tag_359:\n        /* \"#utility.yul\":2964:2970   */\n      dup2\n        /* \"#utility.yul\":2951:2971   */\n      calldataload\n        /* \"#utility.yul\":2989:3083   */\n      tag_361\n        /* \"#utility.yul\":3079:3082   */\n      dup5\n        /* \"#utility.yul\":3071:3077   */\n      dup3\n        /* \"#utility.yul\":3064:3068   */\n      0x20\n        /* \"#utility.yul\":3056:3062   */\n      dup7\n        /* \"#utility.yul\":3052:3069   */\n      add\n        /* \"#utility.yul\":2989:3083   */\n      tag_262\n      jump\t// in\n    tag_361:\n        /* \"#utility.yul\":2980:3083   */\n      swap2\n      pop\n        /* \"#utility.yul\":2796:3089   */\n      pop\n        /* \"#utility.yul\":2719:3089   */\n      swap3\n      swap2\n      pop\n      pop\n      jump\t// out\n        /* \"#utility.yul\":3095:3415   */\n    tag_264:\n        /* \"#utility.yul\":3181:3185   */\n      0x00\n        /* \"#utility.yul\":3271:3289   */\n      0xffffffffffffffff\n        /* \"#utility.yul\":3263:3269   */\n      dup3\n        /* \"#utility.yul\":3260:3290   */\n      gt\n        /* \"#utility.yul\":3257:3313   */\n      iszero\n      tag_363\n      jumpi\n        /* \"#utility.yul\":3293:3311   */\n      tag_364\n      tag_228\n      jump\t// in\n    tag_364:\n        /* \"#utility.yul\":3257:3313   */\n    tag_363:\n        /* \"#utility.yul\":3343:3347   */\n      0x20\n        /* \"#utility.yul\":3335:3341   */\n      dup3\n        /* \"#utility.yul\":3331:3348   */\n      mul\n        /* \"#utility.yul\":3323:3348   */\n      swap1\n      pop\n        /* \"#utility.yul\":3403:3407   */\n      0x20\n        /* \"#utility.yul\":3397:3401   */\n      dup2\n        /* \"#utility.yul\":3393:3408   */\n      add\n        /* \"#utility.yul\":3385:3408   */\n      swap1\n      pop\n        /* \"#utility.yul\":3095:3415   */\n      swap2\n      swap1\n      pop\n      jump\t// out\n        /* \"#utility.yul\":3421:3538   */\n    tag_265:\n        /* \"#utility.yul\":3530:3531   */\n      0x00\n        /* \"#utility.yul\":3527:3528   */\n      0x00\n        /* \"#utility.yul\":3520:3532   */\n      revert\n        /* \"#utility.yul\":3544:3851   */\n    tag_266:\n        /* \"#utility.yul\":3605:3609   */\n      0x00\n        /* \"#utility.yul\":3695:3713   */\n      0xffffffffffffffff\n        /* \"#utility.yul\":3687:3693   */\n      dup3\n        /* \"#utility.yul\":3684:3714   */\n      gt\n        /* \"#utility.yul\":3681:3737   */\n      iszero\n      tag_367\n      jumpi\n        /* \"#utility.yul\":3717:3735   */\n      tag_368\n      tag_228\n      jump\t// in\n    tag_368:\n        /* \"#utility.yul\":3681:3737   */\n    tag_367:\n        /* \"#utility.yul\":3755:3784   */\n      tag_369\n        /* \"#utility.yul\":3777:3783   */\n      dup3\n        /* \"#utility.yul\":3755:3784   */\n      tag_254\n      jump\t// in\n    tag_369:\n        /* \"#utility.yul\":3747:3784   */\n      swap1\n      pop\n        /* \"#utility.yul\":3839:3843   */\n      0x20\n        /* \"#utility.yul\":3833:3837   */\n      dup2\n        /* \"#utility.yul\":3829:3844   */\n      add\n        /* \"#utility.yul\":3821:3844   */\n      swap1\n      pop\n        /* \"#utility.yul\":3544:3851   */\n      swap2\n      swap1\n      pop\n      jump\t// out\n        /* \"#utility.yul\":3857:4005   */\n    tag_267:\n        /* \"#utility.yul\":3955:3961   */\n      dup3\n        /* \"#utility.yul\":3950:3953   */\n      dup2\n        /* \"#utility.yul\":3945:3948   */\n      dup4\n        /* \"#utility.yul\":3932:3962   */\n      calldatacopy\n        /* \"#utility.yul\":3996:3997   */\n      0x00\n        /* \"#utility.yul\":3987:3993   */\n      dup4\n        /* \"#utility.yul\":3982:3985   */\n      dup4\n        /* \"#utility.yul\":3978:3994   */\n      add\n        /* \"#utility.yul\":3971:3998   */\n      mstore\n        /* \"#utility.yul\":3857:4005   */\n      pop\n      pop\n      pop\n      jump\t// out\n        /* \"#utility.yul\":4011:4434   */\n    tag_268:\n        /* \"#utility.yul\":4088:4093   */\n      0x00\n        /* \"#utility.yul\":4113:4178   */\n      tag_372\n        /* \"#utility.yul\":4129:4177   */\n      tag_373\n        /* \"#utility.yul\":4170:4176   */\n      dup5\n        /* \"#utility.yul\":4129:4177   */\n      tag_266\n      jump\t// in\n    tag_373:\n        /* \"#utility.yul\":4113:4178   */\n      tag_256\n      jump\t// in\n    tag_372:\n        /* \"#utility.yul\":4104:4178   */\n      swap1\n      pop\n        /* \"#utility.yul\":4201:4207   */\n      dup3\n        /* \"#utility.yul\":4194:4199   */\n      dup2\n        /* \"#utility.yul\":4187:4208   */\n      mstore\n        /* \"#utility.yul\":4239:4243   */\n      0x20\n        /* \"#utility.yul\":4232:4237   */\n      dup2\n        /* \"#utility.yul\":4228:4244   */\n      add\n        /* \"#utility.yul\":4277:4280   */\n      dup5\n        /* \"#utility.yul\":4268:4274   */\n      dup5\n        /* \"#utility.yul\":4263:4266   */\n      dup5\n        /* \"#utility.yul\":4259:4275   */\n      add\n        /* \"#utility.yul\":4256:4281   */\n      gt\n        /* \"#utility.yul\":4253:4365   */\n      iszero\n      tag_374\n      jumpi\n        /* \"#utility.yul\":4284:4363   */\n      tag_375\n      tag_265\n      jump\t// in\n    tag_375:\n        /* \"#utility.yul\":4253:4365   */\n    tag_374:\n        /* \"#utility.yul\":4374:4428   */\n      tag_376\n        /* \"#utility.yul\":4421:4427   */\n      dup5\n        /* \"#utility.yul\":4416:4419   */\n      dup3\n        /* \"#utility.yul\":4411:4414   */\n      dup6\n        /* \"#utility.yul\":4374:4428   */\n      tag_267\n      jump\t// in\n    tag_376:\n        /* \"#utility.yul\":4094:4434   */\n      pop\n        /* \"#utility.yul\":4011:4434   */\n      swap4\n      swap3\n      pop\n      pop\n      pop\n      jump\t// out\n        /* \"#utility.yul\":4453:4791   */\n    tag_269:\n        /* \"#utility.yul\":4508:4513   */\n      0x00\n        /* \"#utility.yul\":4557:4560   */\n      dup3\n        /* \"#utility.yul\":4550:4554   */\n      0x1f\n        /* \"#utility.yul\":4542:4548   */\n      dup4\n        /* \"#utility.yul\":4538:4555   */\n      add\n        /* \"#utility.yul\":4534:4561   */\n      slt\n        /* \"#utility.yul\":4524:4646   */\n      tag_378\n      jumpi\n        /* \"#utility.yul\":4565:4644   */\n      tag_379\n      tag_253\n      jump\t// in\n    tag_379:\n        /* \"#utility.yul\":4524:4646   */\n    tag_378:\n        /* \"#utility.yul\":4682:4688   */\n      dup2\n        /* \"#utility.yul\":4669:4689   */\n      calldataload\n        /* \"#utility.yul\":4707:4785   */\n      tag_380\n        /* \"#utility.yul\":4781:4784   */\n      dup5\n        /* \"#utility.yul\":4773:4779   */\n      dup3\n        /* \"#utility.yul\":4766:4770   */\n      0x20\n        /* \"#utility.yul\":4758:4764   */\n      dup7\n        /* \"#utility.yul\":4754:4771   */\n      add\n        /* \"#utility.yul\":4707:4785   */\n      tag_268\n      jump\t// in\n    tag_380:\n        /* \"#utility.yul\":4698:4785   */\n      swap2\n      pop\n        /* \"#utility.yul\":4514:4791   */\n      pop\n        /* \"#utility.yul\":4453:4791   */\n      swap3\n      swap2\n      pop\n      pop\n      jump\t// out\n        /* \"#utility.yul\":4812:5754   */\n    tag_270:\n        /* \"#utility.yul\":4917:4922   */\n      0x00\n        /* \"#utility.yul\":4942:5032   */\n      tag_382\n        /* \"#utility.yul\":4958:5031   */\n      tag_383\n        /* \"#utility.yul\":5024:5030   */\n      dup5\n        /* \"#utility.yul\":4958:5031   */\n      tag_264\n      jump\t// in\n    tag_383:\n        /* \"#utility.yul\":4942:5032   */\n      tag_256\n      jump\t// in\n    tag_382:\n        /* \"#utility.yul\":4933:5032   */\n      swap1\n      pop\n        /* \"#utility.yul\":5052:5057   */\n      dup1\n        /* \"#utility.yul\":5081:5087   */\n      dup4\n        /* \"#utility.yul\":5074:5079   */\n      dup3\n        /* \"#utility.yul\":5067:5088   */\n      mstore\n        /* \"#utility.yul\":5115:5119   */\n      0x20\n        /* \"#utility.yul\":5108:5113   */\n      dup3\n        /* \"#utility.yul\":5104:5120   */\n      add\n        /* \"#utility.yul\":5097:5120   */\n      swap1\n      pop\n        /* \"#utility.yul\":5168:5172   */\n      0x20\n        /* \"#utility.yul\":5160:5166   */\n      dup5\n        /* \"#utility.yul\":5156:5173   */\n      mul\n        /* \"#utility.yul\":5148:5154   */\n      dup4\n        /* \"#utility.yul\":5144:5174   */\n      add\n        /* \"#utility.yul\":5197:5200   */\n      dup6\n        /* \"#utility.yul\":5189:5195   */\n      dup2\n        /* \"#utility.yul\":5186:5201   */\n      gt\n        /* \"#utility.yul\":5183:5305   */\n      iszero\n      tag_384\n      jumpi\n        /* \"#utility.yul\":5216:5295   */\n      tag_385\n      tag_258\n      jump\t// in\n    tag_385:\n        /* \"#utility.yul\":5183:5305   */\n    tag_384:\n        /* \"#utility.yul\":5331:5337   */\n      dup4\n        /* \"#utility.yul\":5314:5748   */\n    tag_386:\n        /* \"#utility.yul\":5348:5354   */\n      dup2\n        /* \"#utility.yul\":5343:5346   */\n      dup2\n        /* \"#utility.yul\":5340:5355   */\n      lt\n        /* \"#utility.yul\":5314:5748   */\n      iszero\n      tag_388\n      jumpi\n        /* \"#utility.yul\":5437:5440   */\n      dup1\n        /* \"#utility.yul\":5424:5441   */\n      calldataload\n        /* \"#utility.yul\":5473:5491   */\n      0xffffffffffffffff\n        /* \"#utility.yul\":5460:5471   */\n      dup2\n        /* \"#utility.yul\":5457:5492   */\n      gt\n        /* \"#utility.yul\":5454:5576   */\n      iszero\n      tag_389\n      jumpi\n        /* \"#utility.yul\":5495:5574   */\n      tag_390\n      tag_253\n      jump\t// in\n    tag_390:\n        /* \"#utility.yul\":5454:5576   */\n    tag_389:\n        /* \"#utility.yul\":5619:5630   */\n      dup1\n        /* \"#utility.yul\":5611:5617   */\n      dup7\n        /* \"#utility.yul\":5607:5631   */\n      add\n        /* \"#utility.yul\":5657:5703   */\n      tag_391\n        /* \"#utility.yul\":5699:5702   */\n      dup10\n        /* \"#utility.yul\":5687:5697   */\n      dup3\n        /* \"#utility.yul\":5657:5703   */\n      tag_269\n      jump\t// in\n    tag_391:\n        /* \"#utility.yul\":5652:5655   */\n      dup6\n        /* \"#utility.yul\":5645:5704   */\n      mstore\n        /* \"#utility.yul\":5733:5737   */\n      0x20\n        /* \"#utility.yul\":5728:5731   */\n      dup6\n        /* \"#utility.yul\":5724:5738   */\n      add\n        /* \"#utility.yul\":5717:5738   */\n      swap5\n      pop\n        /* \"#utility.yul\":5390:5748   */\n      pop\n      pop\n        /* \"#utility.yul\":5374:5378   */\n      0x20\n        /* \"#utility.yul\":5369:5372   */\n      dup2\n        /* \"#utility.yul\":5365:5379   */\n      add\n        /* \"#utility.yul\":5358:5379   */\n      swap1\n      pop\n        /* \"#utility.yul\":5314:5748   */\n      jump(tag_386)\n    tag_388:\n        /* \"#utility.yul\":5318:5339   */\n      pop\n        /* \"#utility.yul\":4923:5754   */\n      pop\n      pop\n        /* \"#utility.yul\":4812:5754   */\n      swap4\n      swap3\n      pop\n      pop\n      pop\n      jump\t// out\n        /* \"#utility.yul\":5775:6163   */\n    tag_271:\n        /* \"#utility.yul\":5855:5860   */\n      0x00\n        /* \"#utility.yul\":5904:5907   */\n      dup3\n        /* \"#utility.yul\":5897:5901   */\n      0x1f\n        /* \"#utility.yul\":5889:5895   */\n      dup4\n        /* \"#utility.yul\":5885:5902   */\n      add\n        /* \"#utility.yul\":5881:5908   */\n      slt\n        /* \"#utility.yul\":5871:5993   */\n      tag_393\n      jumpi\n        /* \"#utility.yul\":5912:5991   */\n      tag_394\n      tag_253\n      jump\t// in\n    tag_394:\n        /* \"#utility.yul\":5871:5993   */\n    tag_393:\n        /* \"#utility.yul\":6029:6035   */\n      dup2\n        /* \"#utility.yul\":6016:6036   */\n      calldataload\n        /* \"#utility.yul\":6054:6157   */\n      tag_395\n        /* \"#utility.yul\":6153:6156   */\n      dup5\n        /* \"#utility.yul\":6145:6151   */\n      dup3\n        /* \"#utility.yul\":6138:6142   */\n      0x20\n        /* \"#utility.yul\":6130:6136   */\n      dup7\n        /* \"#utility.yul\":6126:6143   */\n      add\n        /* \"#utility.yul\":6054:6157   */\n      tag_270\n      jump\t// in\n    tag_395:\n        /* \"#utility.yul\":6045:6157   */\n      swap2\n      pop\n        /* \"#utility.yul\":5861:6163   */\n      pop\n        /* \"#utility.yul\":5775:6163   */\n      swap3\n      swap2\n      pop\n      pop\n      jump\t// out\n        /* \"#utility.yul\":6169:7436   */\n    tag_20:\n        /* \"#utility.yul\":6330:6336   */\n      0x00\n        /* \"#utility.yul\":6338:6344   */\n      0x00\n        /* \"#utility.yul\":6346:6352   */\n      0x00\n        /* \"#utility.yul\":6395:6397   */\n      0x60\n        /* \"#utility.yul\":6383:6392   */\n      dup5\n        /* \"#utility.yul\":6374:6381   */\n      dup7\n        /* \"#utility.yul\":6370:6393   */\n      sub\n        /* \"#utility.yul\":6366:6398   */\n      slt\n        /* \"#utility.yul\":6363:6482   */\n      iszero\n      tag_397\n      jumpi\n        /* \"#utility.yul\":6401:6480   */\n      tag_398\n      tag_251\n      jump\t// in\n    tag_398:\n        /* \"#utility.yul\":6363:6482   */\n    tag_397:\n        /* \"#utility.yul\":6549:6550   */\n      0x00\n        /* \"#utility.yul\":6538:6547   */\n      dup5\n        /* \"#utility.yul\":6534:6551   */\n      add\n        /* \"#utility.yul\":6521:6552   */\n      calldataload\n        /* \"#utility.yul\":6579:6597   */\n      0xffffffffffffffff\n        /* \"#utility.yul\":6571:6577   */\n      dup2\n        /* \"#utility.yul\":6568:6598   */\n      gt\n        /* \"#utility.yul\":6565:6682   */\n      iszero\n      tag_399\n      jumpi\n        /* \"#utility.yul\":6601:6680   */\n      tag_400\n      tag_252\n      jump\t// in\n    tag_400:\n        /* \"#utility.yul\":6565:6682   */\n    tag_399:\n        /* \"#utility.yul\":6706:6784   */\n      tag_401\n        /* \"#utility.yul\":6776:6783   */\n      dup7\n        /* \"#utility.yul\":6767:6773   */\n      dup3\n        /* \"#utility.yul\":6756:6765   */\n      dup8\n        /* \"#utility.yul\":6752:6774   */\n      add\n        /* \"#utility.yul\":6706:6784   */\n      tag_263\n      jump\t// in\n    tag_401:\n        /* \"#utility.yul\":6696:6784   */\n      swap4\n      pop\n        /* \"#utility.yul\":6492:6794   */\n      pop\n        /* \"#utility.yul\":6861:6863   */\n      0x20\n        /* \"#utility.yul\":6850:6859   */\n      dup5\n        /* \"#utility.yul\":6846:6864   */\n      add\n        /* \"#utility.yul\":6833:6865   */\n      calldataload\n        /* \"#utility.yul\":6892:6910   */\n      0xffffffffffffffff\n        /* \"#utility.yul\":6884:6890   */\n      dup2\n        /* \"#utility.yul\":6881:6911   */\n      gt\n        /* \"#utility.yul\":6878:6995   */\n      iszero\n      tag_402\n      jumpi\n        /* \"#utility.yul\":6914:6993   */\n      tag_403\n      tag_252\n      jump\t// in\n    tag_403:\n        /* \"#utility.yul\":6878:6995   */\n    tag_402:\n        /* \"#utility.yul\":7019:7106   */\n      tag_404\n        /* \"#utility.yul\":7098:7105   */\n      dup7\n        /* \"#utility.yul\":7089:7095   */\n      dup3\n        /* \"#utility.yul\":7078:7087   */\n      dup8\n        /* \"#utility.yul\":7074:7096   */\n      add\n        /* \"#utility.yul\":7019:7106   */\n      tag_271\n      jump\t// in\n    tag_404:\n        /* \"#utility.yul\":7009:7106   */\n      swap3\n      pop\n        /* \"#utility.yul\":6804:7116   */\n      pop\n        /* \"#utility.yul\":7183:7185   */\n      0x40\n        /* \"#utility.yul\":7172:7181   */\n      dup5\n        /* \"#utility.yul\":7168:7186   */\n      add\n        /* \"#utility.yul\":7155:7187   */\n      calldataload\n        /* \"#utility.yul\":7214:7232   */\n      0xffffffffffffffff\n        /* \"#utility.yul\":7206:7212   */\n      dup2\n        /* \"#utility.yul\":7203:7233   */\n      gt\n        /* \"#utility.yul\":7200:7317   */\n      iszero\n      tag_405\n      jumpi\n        /* \"#utility.yul\":7236:7315   */\n      tag_406\n      tag_252\n      jump\t// in\n    tag_406:\n        /* \"#utility.yul\":7200:7317   */\n    tag_405:\n        /* \"#utility.yul\":7341:7419   */\n      tag_407\n        /* \"#utility.yul\":7411:7418   */\n      dup7\n        /* \"#utility.yul\":7402:7408   */\n      dup3\n        /* \"#utility.yul\":7391:7400   */\n      dup8\n        /* \"#utility.yul\":7387:7409   */\n      add\n        /* \"#utility.yul\":7341:7419   */\n      tag_263\n      jump\t// in\n    tag_407:\n        /* \"#utility.yul\":7331:7419   */\n      swap2\n      pop\n        /* \"#utility.yul\":7126:7429   */\n      pop\n        /* \"#utility.yul\":6169:7436   */\n      swap3\n      pop\n      swap3\n      pop\n      swap3\n      jump\t// out\n        /* \"#utility.yul\":7442:7777   */\n    tag_272:\n        /* \"#utility.yul\":7543:7547   */\n      0x00\n        /* \"#utility.yul\":7633:7651   */\n      0xffffffffffffffff\n        /* \"#utility.yul\":7625:7631   */\n      dup3\n        /* \"#utility.yul\":7622:7652   */\n      gt\n        /* \"#utility.yul\":7619:7675   */\n      iszero\n      tag_409\n      jumpi\n        /* \"#utility.yul\":7655:7673   */\n      tag_410\n      tag_228\n      jump\t// in\n    tag_410:\n        /* \"#utility.yul\":7619:7675   */\n    tag_409:\n        /* \"#utility.yul\":7705:7709   */\n      0x20\n        /* \"#utility.yul\":7697:7703   */\n      dup3\n        /* \"#utility.yul\":7693:7710   */\n      mul\n        /* \"#utility.yul\":7685:7710   */\n      swap1\n      pop\n        /* \"#utility.yul\":7765:7769   */\n      0x20\n        /* \"#utility.yul\":7759:7763   */\n      dup2\n        /* \"#utility.yul\":7755:7770   */\n      add\n        /* \"#utility.yul\":7747:7770   */\n      swap1\n      pop\n        /* \"#utility.yul\":7442:7777   */\n      swap2\n      swap1\n      pop\n      jump\t// out\n        /* \"#utility.yul\":7783:7900   */\n    tag_273:\n        /* \"#utility.yul\":7892:7893   */\n      0x00\n        /* \"#utility.yul\":7889:7890   */\n      0x00\n        /* \"#utility.yul\":7882:7894   */\n      revert\n        /* \"#utility.yul\":7906:8023   */\n    tag_274:\n        /* \"#utility.yul\":8015:8016   */\n      0x00\n        /* \"#utility.yul\":8012:8013   */\n      0x00\n        /* \"#utility.yul\":8005:8017   */\n      revert\n        /* \"#utility.yul\":8029:8106   */\n    tag_275:\n        /* \"#utility.yul\":8066:8073   */\n      0x00\n        /* \"#utility.yul\":8095:8100   */\n      dup2\n        /* \"#utility.yul\":8084:8100   */\n      swap1\n      pop\n        /* \"#utility.yul\":8029:8106   */\n      swap2\n      swap1\n      pop\n      jump\t// out\n        /* \"#utility.yul\":8112:8234   */\n    tag_276:\n        /* \"#utility.yul\":8185:8209   */\n      tag_415\n        /* \"#utility.yul\":8203:8208   */\n      dup2\n        /* \"#utility.yul\":8185:8209   */\n      tag_275\n      jump\t// in\n    tag_415:\n        /* \"#utility.yul\":8178:8183   */\n      dup2\n        /* \"#utility.yul\":8175:8210   */\n      eq\n        /* \"#utility.yul\":8165:8228   */\n      tag_416\n      jumpi\n        /* \"#utility.yul\":8224:8225   */\n      0x00\n        /* \"#utility.yul\":8221:8222   */\n      0x00\n        /* \"#utility.yul\":8214:8226   */\n      revert\n        /* \"#utility.yul\":8165:8228   */\n    tag_416:\n        /* \"#utility.yul\":8112:8234   */\n      pop\n      jump\t// out\n        /* \"#utility.yul\":8240:8379   */\n    tag_277:\n        /* \"#utility.yul\":8286:8291   */\n      0x00\n        /* \"#utility.yul\":8324:8330   */\n      dup2\n        /* \"#utility.yul\":8311:8331   */\n      calldataload\n        /* \"#utility.yul\":8302:8331   */\n      swap1\n      pop\n        /* \"#utility.yul\":8340:8373   */\n      tag_418\n        /* \"#utility.yul\":8367:8372   */\n      dup2\n        /* \"#utility.yul\":8340:8373   */\n      tag_276\n      jump\t// in\n    tag_418:\n        /* \"#utility.yul\":8240:8379   */\n      swap3\n      swap2\n      pop\n      pop\n      jump\t// out\n        /* \"#utility.yul\":8407:8982   */\n    tag_278:\n        /* \"#utility.yul\":8480:8485   */\n      0x00\n        /* \"#utility.yul\":8524:8528   */\n      0x40\n        /* \"#utility.yul\":8512:8521   */\n      dup3\n        /* \"#utility.yul\":8507:8510   */\n      dup5\n        /* \"#utility.yul\":8503:8522   */\n      sub\n        /* \"#utility.yul\":8499:8529   */\n      slt\n        /* \"#utility.yul\":8496:8613   */\n      iszero\n      tag_420\n      jumpi\n        /* \"#utility.yul\":8532:8611   */\n      tag_421\n      tag_273\n      jump\t// in\n    tag_421:\n        /* \"#utility.yul\":8496:8613   */\n    tag_420:\n        /* \"#utility.yul\":8631:8652   */\n      tag_422\n        /* \"#utility.yul\":8647:8651   */\n      0x40\n        /* \"#utility.yul\":8631:8652   */\n      tag_256\n      jump\t// in\n    tag_422:\n        /* \"#utility.yul\":8622:8652   */\n      swap1\n      pop\n        /* \"#utility.yul\":8712:8713   */\n      0x00\n        /* \"#utility.yul\":8752:8801   */\n      tag_423\n        /* \"#utility.yul\":8797:8800   */\n      dup5\n        /* \"#utility.yul\":8788:8794   */\n      dup3\n        /* \"#utility.yul\":8777:8786   */\n      dup6\n        /* \"#utility.yul\":8773:8795   */\n      add\n        /* \"#utility.yul\":8752:8801   */\n      tag_277\n      jump\t// in\n    tag_423:\n        /* \"#utility.yul\":8745:8749   */\n      0x00\n        /* \"#utility.yul\":8738:8743   */\n      dup4\n        /* \"#utility.yul\":8734:8750   */\n      add\n        /* \"#utility.yul\":8727:8802   */\n      mstore\n        /* \"#utility.yul\":8662:8813   */\n      pop\n        /* \"#utility.yul\":8873:8875   */\n      0x20\n        /* \"#utility.yul\":8914:8963   */\n      tag_424\n        /* \"#utility.yul\":8959:8962   */\n      dup5\n        /* \"#utility.yul\":8950:8956   */\n      dup3\n        /* \"#utility.yul\":8939:8948   */\n      dup6\n        /* \"#utility.yul\":8935:8957   */\n      add\n        /* \"#utility.yul\":8914:8963   */\n      tag_277\n      jump\t// in\n    tag_424:\n        /* \"#utility.yul\":8907:8911   */\n      0x20\n        /* \"#utility.yul\":8900:8905   */\n      dup4\n        /* \"#utility.yul\":8896:8912   */\n      add\n        /* \"#utility.yul\":8889:8964   */\n      mstore\n        /* \"#utility.yul\":8823:8975   */\n      pop\n        /* \"#utility.yul\":8407:8982   */\n      swap3\n      swap2\n      pop\n      pop\n      jump\t// out\n        /* \"#utility.yul\":9012:9794   */\n    tag_279:\n        /* \"#utility.yul\":9132:9137   */\n      0x00\n        /* \"#utility.yul\":9157:9262   */\n      tag_426\n        /* \"#utility.yul\":9173:9261   */\n      tag_427\n        /* \"#utility.yul\":9254:9260   */\n      dup5\n        /* \"#utility.yul\":9173:9261   */\n      tag_272\n      jump\t// in\n    tag_427:\n        /* \"#utility.yul\":9157:9262   */\n      tag_256\n      jump\t// in\n    tag_426:\n        /* \"#utility.yul\":9148:9262   */\n      swap1\n      pop\n        /* \"#utility.yul\":9282:9287   */\n      dup1\n        /* \"#utility.yul\":9311:9317   */\n      dup4\n        /* \"#utility.yul\":9304:9309   */\n      dup3\n        /* \"#utility.yul\":9297:9318   */\n      mstore\n        /* \"#utility.yul\":9345:9349   */\n      0x20\n        /* \"#utility.yul\":9338:9343   */\n      dup3\n        /* \"#utility.yul\":9334:9350   */\n      add\n        /* \"#utility.yul\":9327:9350   */\n      swap1\n      pop\n        /* \"#utility.yul\":9398:9402   */\n      0x40\n        /* \"#utility.yul\":9390:9396   */\n      dup5\n        /* \"#utility.yul\":9386:9403   */\n      mul\n        /* \"#utility.yul\":9378:9384   */\n      dup4\n        /* \"#utility.yul\":9374:9404   */\n      add\n        /* \"#utility.yul\":9427:9430   */\n      dup6\n        /* \"#utility.yul\":9419:9425   */\n      dup2\n        /* \"#utility.yul\":9416:9431   */\n      gt\n        /* \"#utility.yul\":9413:9535   */\n      iszero\n      tag_428\n      jumpi\n        /* \"#utility.yul\":9446:9525   */\n      tag_429\n      tag_258\n      jump\t// in\n    tag_429:\n        /* \"#utility.yul\":9413:9535   */\n    tag_428:\n        /* \"#utility.yul\":9561:9567   */\n      dup4\n        /* \"#utility.yul\":9544:9788   */\n    tag_430:\n        /* \"#utility.yul\":9578:9584   */\n      dup2\n        /* \"#utility.yul\":9573:9576   */\n      dup2\n        /* \"#utility.yul\":9570:9585   */\n      lt\n        /* \"#utility.yul\":9544:9788   */\n      iszero\n      tag_432\n      jumpi\n        /* \"#utility.yul\":9653:9656   */\n      dup1\n        /* \"#utility.yul\":9682:9743   */\n      tag_433\n        /* \"#utility.yul\":9739:9742   */\n      dup9\n        /* \"#utility.yul\":9727:9737   */\n      dup3\n        /* \"#utility.yul\":9682:9743   */\n      tag_278\n      jump\t// in\n    tag_433:\n        /* \"#utility.yul\":9677:9680   */\n      dup5\n        /* \"#utility.yul\":9670:9744   */\n      mstore\n        /* \"#utility.yul\":9773:9777   */\n      0x20\n        /* \"#utility.yul\":9768:9771   */\n      dup5\n        /* \"#utility.yul\":9764:9778   */\n      add\n        /* \"#utility.yul\":9757:9778   */\n      swap4\n      pop\n        /* \"#utility.yul\":9620:9788   */\n      pop\n        /* \"#utility.yul\":9604:9608   */\n      0x40\n        /* \"#utility.yul\":9599:9602   */\n      dup2\n        /* \"#utility.yul\":9595:9609   */\n      add\n        /* \"#utility.yul\":9588:9609   */\n      swap1\n      pop\n        /* \"#utility.yul\":9544:9788   */\n      jump(tag_430)\n    tag_432:\n        /* \"#utility.yul\":9548:9569   */\n      pop\n        /* \"#utility.yul\":9138:9794   */\n      pop\n      pop\n        /* \"#utility.yul\":9012:9794   */\n      swap4\n      swap3\n      pop\n      pop\n      pop\n      jump\t// out\n        /* \"#utility.yul\":9824:10242   */\n    tag_280:\n        /* \"#utility.yul\":9919:9924   */\n      0x00\n        /* \"#utility.yul\":9968:9971   */\n      dup3\n        /* \"#utility.yul\":9961:9965   */\n      0x1f\n        /* \"#utility.yul\":9953:9959   */\n      dup4\n        /* \"#utility.yul\":9949:9966   */\n      add\n        /* \"#utility.yul\":9945:9972   */\n      slt\n        /* \"#utility.yul\":9935:10057   */\n      tag_435\n      jumpi\n        /* \"#utility.yul\":9976:10055   */\n      tag_436\n      tag_253\n      jump\t// in\n    tag_436:\n        /* \"#utility.yul\":9935:10057   */\n    tag_435:\n        /* \"#utility.yul\":10093:10099   */\n      dup2\n        /* \"#utility.yul\":10080:10100   */\n      calldataload\n        /* \"#utility.yul\":10118:10236   */\n      tag_437\n        /* \"#utility.yul\":10232:10235   */\n      dup5\n        /* \"#utility.yul\":10224:10230   */\n      dup3\n        /* \"#utility.yul\":10217:10221   */\n      0x20\n        /* \"#utility.yul\":10209:10215   */\n      dup7\n        /* \"#utility.yul\":10205:10222   */\n      add\n        /* \"#utility.yul\":10118:10236   */\n      tag_279\n      jump\t// in\n    tag_437:\n        /* \"#utility.yul\":10109:10236   */\n      swap2\n      pop\n        /* \"#utility.yul\":9925:10242   */\n      pop\n        /* \"#utility.yul\":9824:10242   */\n      swap3\n      swap2\n      pop\n      pop\n      jump\t// out\n        /* \"#utility.yul\":10248:11190   */\n    tag_25:\n        /* \"#utility.yul\":10390:10396   */\n      0x00\n        /* \"#utility.yul\":10398:10404   */\n      0x00\n        /* \"#utility.yul\":10447:10449   */\n      0x40\n        /* \"#utility.yul\":10435:10444   */\n      dup4\n        /* \"#utility.yul\":10426:10433   */\n      dup6\n        /* \"#utility.yul\":10422:10445   */\n      sub\n        /* \"#utility.yul\":10418:10450   */\n      slt\n        /* \"#utility.yul\":10415:10534   */\n      iszero\n      tag_439\n      jumpi\n        /* \"#utility.yul\":10453:10532   */\n      tag_440\n      tag_251\n      jump\t// in\n    tag_440:\n        /* \"#utility.yul\":10415:10534   */\n    tag_439:\n        /* \"#utility.yul\":10601:10602   */\n      0x00\n        /* \"#utility.yul\":10590:10599   */\n      dup4\n        /* \"#utility.yul\":10586:10603   */\n      add\n        /* \"#utility.yul\":10573:10604   */\n      calldataload\n        /* \"#utility.yul\":10631:10649   */\n      0xffffffffffffffff\n        /* \"#utility.yul\":10623:10629   */\n      dup2\n        /* \"#utility.yul\":10620:10650   */\n      gt\n        /* \"#utility.yul\":10617:10734   */\n      iszero\n      tag_441\n      jumpi\n        /* \"#utility.yul\":10653:10732   */\n      tag_442\n      tag_252\n      jump\t// in\n    tag_442:\n        /* \"#utility.yul\":10617:10734   */\n    tag_441:\n        /* \"#utility.yul\":10758:10836   */\n      tag_443\n        /* \"#utility.yul\":10828:10835   */\n      dup6\n        /* \"#utility.yul\":10819:10825   */\n      dup3\n        /* \"#utility.yul\":10808:10817   */\n      dup7\n        /* \"#utility.yul\":10804:10826   */\n      add\n        /* \"#utility.yul\":10758:10836   */\n      tag_263\n      jump\t// in\n    tag_443:\n        /* \"#utility.yul\":10748:10836   */\n      swap3\n      pop\n        /* \"#utility.yul\":10544:10846   */\n      pop\n        /* \"#utility.yul\":10913:10915   */\n      0x20\n        /* \"#utility.yul\":10902:10911   */\n      dup4\n        /* \"#utility.yul\":10898:10916   */\n      add\n        /* \"#utility.yul\":10885:10917   */\n      calldataload\n        /* \"#utility.yul\":10944:10962   */\n      0xffffffffffffffff\n        /* \"#utility.yul\":10936:10942   */\n      dup2\n        /* \"#utility.yul\":10933:10963   */\n      gt\n        /* \"#utility.yul\":10930:11047   */\n      iszero\n      tag_444\n      jumpi\n        /* \"#utility.yul\":10966:11045   */\n      tag_445\n      tag_252\n      jump\t// in\n    tag_445:\n        /* \"#utility.yul\":10930:11047   */\n    tag_444:\n        /* \"#utility.yul\":11071:11173   */\n      tag_446\n        /* \"#utility.yul\":11165:11172   */\n      dup6\n        /* \"#utility.yul\":11156:11162   */\n      dup3\n        /* \"#utility.yul\":11145:11154   */\n      dup7\n        /* \"#utility.yul\":11141:11163   */\n      add\n        /* \"#utility.yul\":11071:11173   */\n      tag_280\n      jump\t// in\n    tag_446:\n        /* \"#utility.yul\":11061:11173   */\n      swap2\n      pop\n        /* \"#utility.yul\":10856:11183   */\n      pop\n        /* \"#utility.yul\":10248:11190   */\n      swap3\n      pop\n      swap3\n      swap1\n      pop\n      jump\t// out\n        /* \"#utility.yul\":11196:11848   */\n    tag_30:\n        /* \"#utility.yul\":11273:11279   */\n      0x00\n        /* \"#utility.yul\":11281:11287   */\n      0x00\n        /* \"#utility.yul\":11330:11332   */\n      0x40\n        /* \"#utility.yul\":11318:11327   */\n      dup4\n        /* \"#utility.yul\":11309:11316   */\n      dup6\n        /* \"#utility.yul\":11305:11328   */\n      sub\n        /* \"#utility.yul\":11301:11333   */\n      slt\n        /* \"#utility.yul\":11298:11417   */\n      iszero\n      tag_448\n      jumpi\n        /* \"#utility.yul\":11336:11415   */\n      tag_449\n      tag_251\n      jump\t// in\n    tag_449:\n        /* \"#utility.yul\":11298:11417   */\n    tag_448:\n        /* \"#utility.yul\":11456:11457   */\n      0x00\n        /* \"#utility.yul\":11481:11534   */\n      tag_450\n        /* \"#utility.yul\":11526:11533   */\n      dup6\n        /* \"#utility.yul\":11517:11523   */\n      dup3\n        /* \"#utility.yul\":11506:11515   */\n      dup7\n        /* \"#utility.yul\":11502:11524   */\n      add\n        /* \"#utility.yul\":11481:11534   */\n      tag_261\n      jump\t// in\n    tag_450:\n        /* \"#utility.yul\":11471:11534   */\n      swap3\n      pop\n        /* \"#utility.yul\":11427:11544   */\n      pop\n        /* \"#utility.yul\":11611:11613   */\n      0x20\n        /* \"#utility.yul\":11600:11609   */\n      dup4\n        /* \"#utility.yul\":11596:11614   */\n      add\n        /* \"#utility.yul\":11583:11615   */\n      calldataload\n        /* \"#utility.yul\":11642:11660   */\n      0xffffffffffffffff\n        /* \"#utility.yul\":11634:11640   */\n      dup2\n        /* \"#utility.yul\":11631:11661   */\n      gt\n        /* \"#utility.yul\":11628:11745   */\n      iszero\n      tag_451\n      jumpi\n        /* \"#utility.yul\":11664:11743   */\n      tag_452\n      tag_252\n      jump\t// in\n    tag_452:\n        /* \"#utility.yul\":11628:11745   */\n    tag_451:\n        /* \"#utility.yul\":11769:11831   */\n      tag_453\n        /* \"#utility.yul\":11823:11830   */\n      dup6\n        /* \"#utility.yul\":11814:11820   */\n      dup3\n        /* \"#utility.yul\":11803:11812   */\n      dup7\n        /* \"#utility.yul\":11799:11821   */\n      add\n        /* \"#utility.yul\":11769:11831   */\n      tag_269\n      jump\t// in\n    tag_453:\n        /* \"#utility.yul\":11759:11831   */\n      swap2\n      pop\n        /* \"#utility.yul\":11554:11841   */\n      pop\n        /* \"#utility.yul\":11196:11848   */\n      swap3\n      pop\n      swap3\n      swap1\n      pop\n      jump\t// out\n        /* \"#utility.yul\":11854:11972   */\n    tag_281:\n        /* \"#utility.yul\":11941:11965   */\n      tag_455\n        /* \"#utility.yul\":11959:11964   */\n      dup2\n        /* \"#utility.yul\":11941:11965   */\n      tag_259\n      jump\t// in\n    tag_455:\n        /* \"#utility.yul\":11936:11939   */\n      dup3\n        /* \"#utility.yul\":11929:11966   */\n      mstore\n        /* \"#utility.yul\":11854:11972   */\n      pop\n      pop\n      jump\t// out\n        /* \"#utility.yul\":11978:12200   */\n    tag_33:\n        /* \"#utility.yul\":12071:12075   */\n      0x00\n        /* \"#utility.yul\":12109:12111   */\n      0x20\n        /* \"#utility.yul\":12098:12107   */\n      dup3\n        /* \"#utility.yul\":12094:12112   */\n      add\n        /* \"#utility.yul\":12086:12112   */\n      swap1\n      pop\n        /* \"#utility.yul\":12122:12193   */\n      tag_457\n        /* \"#utility.yul\":12190:12191   */\n      0x00\n        /* \"#utility.yul\":12179:12188   */\n      dup4\n        /* \"#utility.yul\":12175:12192   */\n      add\n        /* \"#utility.yul\":12166:12172   */\n      dup5\n        /* \"#utility.yul\":12122:12193   */\n      tag_281\n      jump\t// in\n    tag_457:\n        /* \"#utility.yul\":11978:12200   */\n      swap3\n      swap2\n      pop\n      pop\n      jump\t// out\n        /* \"#utility.yul\":12206:12535   */\n    tag_37:\n        /* \"#utility.yul\":12265:12271   */\n      0x00\n        /* \"#utility.yul\":12314:12316   */\n      0x20\n        /* \"#utility.yul\":12302:12311   */\n      dup3\n        /* \"#utility.yul\":12293:12300   */\n      dup5\n        /* \"#utility.yul\":12289:12312   */\n      sub\n        /* \"#utility.yul\":12285:12317   */\n      slt\n        /* \"#utility.yul\":12282:12401   */\n      iszero\n      tag_459\n      jumpi\n        /* \"#utility.yul\":12320:12399   */\n      tag_460\n      tag_251\n      jump\t// in\n    tag_460:\n        /* \"#utility.yul\":12282:12401   */\n    tag_459:\n        /* \"#utility.yul\":12440:12441   */\n      0x00\n        /* \"#utility.yul\":12465:12518   */\n      tag_461\n        /* \"#utility.yul\":12510:12517   */\n      dup5\n        /* \"#utility.yul\":12501:12507   */\n      dup3\n        /* \"#utility.yul\":12490:12499   */\n      dup6\n        /* \"#utility.yul\":12486:12508   */\n      add\n        /* \"#utility.yul\":12465:12518   */\n      tag_261\n      jump\t// in\n    tag_461:\n        /* \"#utility.yul\":12455:12518   */\n      swap2\n      pop\n        /* \"#utility.yul\":12411:12528   */\n      pop\n        /* \"#utility.yul\":12206:12535   */\n      swap3\n      swap2\n      pop\n      pop\n      jump\t// out\n        /* \"#utility.yul\":12541:12649   */\n    tag_282:\n        /* \"#utility.yul\":12618:12642   */\n      tag_463\n        /* \"#utility.yul\":12636:12641   */\n      dup2\n        /* \"#utility.yul\":12618:12642   */\n      tag_275\n      jump\t// in\n    tag_463:\n        /* \"#utility.yul\":12613:12616   */\n      dup3\n        /* \"#utility.yul\":12606:12643   */\n      mstore\n        /* \"#utility.yul\":12541:12649   */\n      pop\n      pop\n      jump\t// out\n        /* \"#utility.yul\":12695:13202   */\n    tag_283:\n        /* \"#utility.yul\":12840:12844   */\n      0x40\n        /* \"#utility.yul\":12835:12838   */\n      dup3\n        /* \"#utility.yul\":12831:12845   */\n      add\n        /* \"#utility.yul\":12928:12932   */\n      0x00\n        /* \"#utility.yul\":12921:12926   */\n      dup3\n        /* \"#utility.yul\":12917:12933   */\n      add\n        /* \"#utility.yul\":12911:12934   */\n      mload\n        /* \"#utility.yul\":12947:13010   */\n      tag_465\n        /* \"#utility.yul\":13004:13008   */\n      0x00\n        /* \"#utility.yul\":12999:13002   */\n      dup6\n        /* \"#utility.yul\":12995:13009   */\n      add\n        /* \"#utility.yul\":12981:12993   */\n      dup3\n        /* \"#utility.yul\":12947:13010   */\n      tag_282\n      jump\t// in\n    tag_465:\n        /* \"#utility.yul\":12855:13020   */\n      pop\n        /* \"#utility.yul\":13103:13107   */\n      0x20\n        /* \"#utility.yul\":13096:13101   */\n      dup3\n        /* \"#utility.yul\":13092:13108   */\n      add\n        /* \"#utility.yul\":13086:13109   */\n      mload\n        /* \"#utility.yul\":13122:13185   */\n      tag_466\n        /* \"#utility.yul\":13179:13183   */\n      0x20\n        /* \"#utility.yul\":13174:13177   */\n      dup6\n        /* \"#utility.yul\":13170:13184   */\n      add\n        /* \"#utility.yul\":13156:13168   */\n      dup3\n        /* \"#utility.yul\":13122:13185   */\n      tag_282\n      jump\t// in\n    tag_466:\n        /* \"#utility.yul\":13030:13195   */\n      pop\n        /* \"#utility.yul\":12809:13202   */\n      pop\n        /* \"#utility.yul\":12695:13202   */\n      pop\n      pop\n      jump\t// out\n        /* \"#utility.yul\":13208:13526   */\n    tag_40:\n        /* \"#utility.yul\":13349:13353   */\n      0x00\n        /* \"#utility.yul\":13387:13389   */\n      0x40\n        /* \"#utility.yul\":13376:13385   */\n      dup3\n        /* \"#utility.yul\":13372:13390   */\n      add\n        /* \"#utility.yul\":13364:13390   */\n      swap1\n      pop\n        /* \"#utility.yul\":13400:13519   */\n      tag_468\n        /* \"#utility.yul\":13516:13517   */\n      0x00\n        /* \"#utility.yul\":13505:13514   */\n      dup4\n        /* \"#utility.yul\":13501:13518   */\n      add\n        /* \"#utility.yul\":13492:13498   */\n      dup5\n        /* \"#utility.yul\":13400:13519   */\n      tag_283\n      jump\t// in\n    tag_468:\n        /* \"#utility.yul\":13208:13526   */\n      swap3\n      swap2\n      pop\n      pop\n      jump\t// out\n        /* \"#utility.yul\":13532:13649   */\n    tag_284:\n        /* \"#utility.yul\":13641:13642   */\n      0x00\n        /* \"#utility.yul\":13638:13639   */\n      0x00\n        /* \"#utility.yul\":13631:13643   */\n      revert\n        /* \"#utility.yul\":13672:14240   */\n    tag_285:\n        /* \"#utility.yul\":13745:13753   */\n      0x00\n        /* \"#utility.yul\":13755:13761   */\n      0x00\n        /* \"#utility.yul\":13805:13808   */\n      dup4\n        /* \"#utility.yul\":13798:13802   */\n      0x1f\n        /* \"#utility.yul\":13790:13796   */\n      dup5\n        /* \"#utility.yul\":13786:13803   */\n      add\n        /* \"#utility.yul\":13782:13809   */\n      slt\n        /* \"#utility.yul\":13772:13894   */\n      tag_471\n      jumpi\n        /* \"#utility.yul\":13813:13892   */\n      tag_472\n      tag_253\n      jump\t// in\n    tag_472:\n        /* \"#utility.yul\":13772:13894   */\n    tag_471:\n        /* \"#utility.yul\":13926:13932   */\n      dup3\n        /* \"#utility.yul\":13913:13933   */\n      calldataload\n        /* \"#utility.yul\":13903:13933   */\n      swap1\n      pop\n        /* \"#utility.yul\":13956:13974   */\n      0xffffffffffffffff\n        /* \"#utility.yul\":13948:13954   */\n      dup2\n        /* \"#utility.yul\":13945:13975   */\n      gt\n        /* \"#utility.yul\":13942:14059   */\n      iszero\n      tag_473\n      jumpi\n        /* \"#utility.yul\":13978:14057   */\n      tag_474\n      tag_284\n      jump\t// in\n    tag_474:\n        /* \"#utility.yul\":13942:14059   */\n    tag_473:\n        /* \"#utility.yul\":14092:14096   */\n      0x20\n        /* \"#utility.yul\":14084:14090   */\n      dup4\n        /* \"#utility.yul\":14080:14097   */\n      add\n        /* \"#utility.yul\":14068:14097   */\n      swap2\n      pop\n        /* \"#utility.yul\":14146:14149   */\n      dup4\n        /* \"#utility.yul\":14138:14142   */\n      0x20\n        /* \"#utility.yul\":14130:14136   */\n      dup3\n        /* \"#utility.yul\":14126:14143   */\n      mul\n        /* \"#utility.yul\":14116:14124   */\n      dup4\n        /* \"#utility.yul\":14112:14144   */\n      add\n        /* \"#utility.yul\":14109:14150   */\n      gt\n        /* \"#utility.yul\":14106:14234   */\n      iszero\n      tag_475\n      jumpi\n        /* \"#utility.yul\":14153:14232   */\n      tag_476\n      tag_258\n      jump\t// in\n    tag_476:\n        /* \"#utility.yul\":14106:14234   */\n    tag_475:\n        /* \"#utility.yul\":13672:14240   */\n      swap3\n      pop\n      swap3\n      swap1\n      pop\n      jump\t// out\n        /* \"#utility.yul\":14270:14864   */\n    tag_286:\n        /* \"#utility.yul\":14369:14377   */\n      0x00\n        /* \"#utility.yul\":14379:14385   */\n      0x00\n        /* \"#utility.yul\":14429:14432   */\n      dup4\n        /* \"#utility.yul\":14422:14426   */\n      0x1f\n        /* \"#utility.yul\":14414:14420   */\n      dup5\n        /* \"#utility.yul\":14410:14427   */\n      add\n        /* \"#utility.yul\":14406:14433   */\n      slt\n        /* \"#utility.yul\":14396:14518   */\n      tag_478\n      jumpi\n        /* \"#utility.yul\":14437:14516   */\n      tag_479\n      tag_253\n      jump\t// in\n    tag_479:\n        /* \"#utility.yul\":14396:14518   */\n    tag_478:\n        /* \"#utility.yul\":14550:14556   */\n      dup3\n        /* \"#utility.yul\":14537:14557   */\n      calldataload\n        /* \"#utility.yul\":14527:14557   */\n      swap1\n      pop\n        /* \"#utility.yul\":14580:14598   */\n      0xffffffffffffffff\n        /* \"#utility.yul\":14572:14578   */\n      dup2\n        /* \"#utility.yul\":14569:14599   */\n      gt\n        /* \"#utility.yul\":14566:14683   */\n      iszero\n      tag_480\n      jumpi\n        /* \"#utility.yul\":14602:14681   */\n      tag_481\n      tag_284\n      jump\t// in\n    tag_481:\n        /* \"#utility.yul\":14566:14683   */\n    tag_480:\n        /* \"#utility.yul\":14716:14720   */\n      0x20\n        /* \"#utility.yul\":14708:14714   */\n      dup4\n        /* \"#utility.yul\":14704:14721   */\n      add\n        /* \"#utility.yul\":14692:14721   */\n      swap2\n      pop\n        /* \"#utility.yul\":14770:14773   */\n      dup4\n        /* \"#utility.yul\":14762:14766   */\n      0x40\n        /* \"#utility.yul\":14754:14760   */\n      dup3\n        /* \"#utility.yul\":14750:14767   */\n      mul\n        /* \"#utility.yul\":14740:14748   */\n      dup4\n        /* \"#utility.yul\":14736:14768   */\n      add\n        /* \"#utility.yul\":14733:14774   */\n      gt\n        /* \"#utility.yul\":14730:14858   */\n      iszero\n      tag_482\n      jumpi\n        /* \"#utility.yul\":14777:14856   */\n      tag_483\n      tag_258\n      jump\t// in\n    tag_483:\n        /* \"#utility.yul\":14730:14858   */\n    tag_482:\n        /* \"#utility.yul\":14270:14864   */\n      swap3\n      pop\n      swap3\n      swap1\n      pop\n      jump\t// out\n        /* \"#utility.yul\":14870:15856   */\n    tag_47:\n        /* \"#utility.yul\":15018:15024   */\n      0x00\n        /* \"#utility.yul\":15026:15032   */\n      0x00\n        /* \"#utility.yul\":15034:15040   */\n      0x00\n        /* \"#utility.yul\":15042:15048   */\n      0x00\n        /* \"#utility.yul\":15091:15093   */\n      0x40\n        /* \"#utility.yul\":15079:15088   */\n      dup6\n        /* \"#utility.yul\":15070:15077   */\n      dup8\n        /* \"#utility.yul\":15066:15089   */\n      sub\n        /* \"#utility.yul\":15062:15094   */\n      slt\n        /* \"#utility.yul\":15059:15178   */\n      iszero\n      tag_485\n      jumpi\n        /* \"#utility.yul\":15097:15176   */\n      tag_486\n      tag_251\n      jump\t// in\n    tag_486:\n        /* \"#utility.yul\":15059:15178   */\n    tag_485:\n        /* \"#utility.yul\":15245:15246   */\n      0x00\n        /* \"#utility.yul\":15234:15243   */\n      dup6\n        /* \"#utility.yul\":15230:15247   */\n      add\n        /* \"#utility.yul\":15217:15248   */\n      calldataload\n        /* \"#utility.yul\":15275:15293   */\n      0xffffffffffffffff\n        /* \"#utility.yul\":15267:15273   */\n      dup2\n        /* \"#utility.yul\":15264:15294   */\n      gt\n        /* \"#utility.yul\":15261:15378   */\n      iszero\n      tag_487\n      jumpi\n        /* \"#utility.yul\":15297:15376   */\n      tag_488\n      tag_252\n      jump\t// in\n    tag_488:\n        /* \"#utility.yul\":15261:15378   */\n    tag_487:\n        /* \"#utility.yul\":15410:15490   */\n      tag_489\n        /* \"#utility.yul\":15482:15489   */\n      dup8\n        /* \"#utility.yul\":15473:15479   */\n      dup3\n        /* \"#utility.yul\":15462:15471   */\n      dup9\n        /* \"#utility.yul\":15458:15480   */\n      add\n        /* \"#utility.yul\":15410:15490   */\n      tag_285\n      jump\t// in\n    tag_489:\n        /* \"#utility.yul\":15392:15490   */\n      swap5\n      pop\n      swap5\n      pop\n        /* \"#utility.yul\":15188:15500   */\n      pop\n        /* \"#utility.yul\":15567:15569   */\n      0x20\n        /* \"#utility.yul\":15556:15565   */\n      dup6\n        /* \"#utility.yul\":15552:15570   */\n      add\n        /* \"#utility.yul\":15539:15571   */\n      calldataload\n        /* \"#utility.yul\":15598:15616   */\n      0xffffffffffffffff\n        /* \"#utility.yul\":15590:15596   */\n      dup2\n        /* \"#utility.yul\":15587:15617   */\n      gt\n        /* \"#utility.yul\":15584:15701   */\n      iszero\n      tag_490\n      jumpi\n        /* \"#utility.yul\":15620:15699   */\n      tag_491\n      tag_252\n      jump\t// in\n    tag_491:\n        /* \"#utility.yul\":15584:15701   */\n    tag_490:\n        /* \"#utility.yul\":15733:15839   */\n      tag_492\n        /* \"#utility.yul\":15831:15838   */\n      dup8\n        /* \"#utility.yul\":15822:15828   */\n      dup3\n        /* \"#utility.yul\":15811:15820   */\n      dup9\n        /* \"#utility.yul\":15807:15829   */\n      add\n        /* \"#utility.yul\":15733:15839   */\n      tag_286\n      jump\t// in\n    tag_492:\n        /* \"#utility.yul\":15715:15839   */\n      swap3\n      pop\n      swap3\n      pop\n        /* \"#utility.yul\":15510:15849   */\n      pop\n        /* \"#utility.yul\":14870:15856   */\n      swap3\n      swap6\n      swap2\n      swap5\n      pop\n      swap3\n      pop\n      jump\t// out\n        /* \"#utility.yul\":15875:16427   */\n    tag_287:\n        /* \"#utility.yul\":15932:15940   */\n      0x00\n        /* \"#utility.yul\":15942:15948   */\n      0x00\n        /* \"#utility.yul\":15992:15995   */\n      dup4\n        /* \"#utility.yul\":15985:15989   */\n      0x1f\n        /* \"#utility.yul\":15977:15983   */\n      dup5\n        /* \"#utility.yul\":15973:15990   */\n      add\n        /* \"#utility.yul\":15969:15996   */\n      slt\n        /* \"#utility.yul\":15959:16081   */\n      tag_494\n      jumpi\n        /* \"#utility.yul\":16000:16079   */\n      tag_495\n      tag_253\n      jump\t// in\n    tag_495:\n        /* \"#utility.yul\":15959:16081   */\n    tag_494:\n        /* \"#utility.yul\":16113:16119   */\n      dup3\n        /* \"#utility.yul\":16100:16120   */\n      calldataload\n        /* \"#utility.yul\":16090:16120   */\n      swap1\n      pop\n        /* \"#utility.yul\":16143:16161   */\n      0xffffffffffffffff\n        /* \"#utility.yul\":16135:16141   */\n      dup2\n        /* \"#utility.yul\":16132:16162   */\n      gt\n        /* \"#utility.yul\":16129:16246   */\n      iszero\n      tag_496\n      jumpi\n        /* \"#utility.yul\":16165:16244   */\n      tag_497\n      tag_284\n      jump\t// in\n    tag_497:\n        /* \"#utility.yul\":16129:16246   */\n    tag_496:\n        /* \"#utility.yul\":16279:16283   */\n      0x20\n        /* \"#utility.yul\":16271:16277   */\n      dup4\n        /* \"#utility.yul\":16267:16284   */\n      add\n        /* \"#utility.yul\":16255:16284   */\n      swap2\n      pop\n        /* \"#utility.yul\":16333:16336   */\n      dup4\n        /* \"#utility.yul\":16325:16329   */\n      0x01\n        /* \"#utility.yul\":16317:16323   */\n      dup3\n        /* \"#utility.yul\":16313:16330   */\n      mul\n        /* \"#utility.yul\":16303:16311   */\n      dup4\n        /* \"#utility.yul\":16299:16331   */\n      add\n        /* \"#utility.yul\":16296:16337   */\n      gt\n        /* \"#utility.yul\":16293:16421   */\n      iszero\n      tag_498\n      jumpi\n        /* \"#utility.yul\":16340:16419   */\n      tag_499\n      tag_258\n      jump\t// in\n    tag_499:\n        /* \"#utility.yul\":16293:16421   */\n    tag_498:\n        /* \"#utility.yul\":15875:16427   */\n      swap3\n      pop\n      swap3\n      swap1\n      pop\n      jump\t// out\n        /* \"#utility.yul\":16433:17594   */\n    tag_51:\n        /* \"#utility.yul\":16541:16547   */\n      0x00\n        /* \"#utility.yul\":16549:16555   */\n      0x00\n        /* \"#utility.yul\":16557:16563   */\n      0x00\n        /* \"#utility.yul\":16565:16571   */\n      0x00\n        /* \"#utility.yul\":16573:16579   */\n      0x00\n        /* \"#utility.yul\":16581:16587   */\n      0x00\n        /* \"#utility.yul\":16630:16633   */\n      0x80\n        /* \"#utility.yul\":16618:16627   */\n      dup8\n        /* \"#utility.yul\":16609:16616   */\n      dup10\n        /* \"#utility.yul\":16605:16628   */\n      sub\n        /* \"#utility.yul\":16601:16634   */\n      slt\n        /* \"#utility.yul\":16598:16718   */\n      iszero\n      tag_501\n      jumpi\n        /* \"#utility.yul\":16637:16716   */\n      tag_502\n      tag_251\n      jump\t// in\n    tag_502:\n        /* \"#utility.yul\":16598:16718   */\n    tag_501:\n        /* \"#utility.yul\":16757:16758   */\n      0x00\n        /* \"#utility.yul\":16782:16835   */\n      tag_503\n        /* \"#utility.yul\":16827:16834   */\n      dup10\n        /* \"#utility.yul\":16818:16824   */\n      dup3\n        /* \"#utility.yul\":16807:16816   */\n      dup11\n        /* \"#utility.yul\":16803:16825   */\n      add\n        /* \"#utility.yul\":16782:16835   */\n      tag_261\n      jump\t// in\n    tag_503:\n        /* \"#utility.yul\":16772:16835   */\n      swap7\n      pop\n        /* \"#utility.yul\":16728:16845   */\n      pop\n        /* \"#utility.yul\":16912:16914   */\n      0x20\n        /* \"#utility.yul\":16901:16910   */\n      dup8\n        /* \"#utility.yul\":16897:16915   */\n      add\n        /* \"#utility.yul\":16884:16916   */\n      calldataload\n        /* \"#utility.yul\":16943:16961   */\n      0xffffffffffffffff\n        /* \"#utility.yul\":16935:16941   */\n      dup2\n        /* \"#utility.yul\":16932:16962   */\n      gt\n        /* \"#utility.yul\":16929:17046   */\n      iszero\n      tag_504\n      jumpi\n        /* \"#utility.yul\":16965:17044   */\n      tag_505\n      tag_252\n      jump\t// in\n    tag_505:\n        /* \"#utility.yul\":16929:17046   */\n    tag_504:\n        /* \"#utility.yul\":17078:17142   */\n      tag_506\n        /* \"#utility.yul\":17134:17141   */\n      dup10\n        /* \"#utility.yul\":17125:17131   */\n      dup3\n        /* \"#utility.yul\":17114:17123   */\n      dup11\n        /* \"#utility.yul\":17110:17132   */\n      add\n        /* \"#utility.yul\":17078:17142   */\n      tag_287\n      jump\t// in\n    tag_506:\n        /* \"#utility.yul\":17060:17142   */\n      swap6\n      pop\n      swap6\n      pop\n        /* \"#utility.yul\":16855:17152   */\n      pop\n        /* \"#utility.yul\":17219:17221   */\n      0x40\n        /* \"#utility.yul\":17208:17217   */\n      dup8\n        /* \"#utility.yul\":17204:17222   */\n      add\n        /* \"#utility.yul\":17191:17223   */\n      calldataload\n        /* \"#utility.yul\":17250:17268   */\n      0xffffffffffffffff\n        /* \"#utility.yul\":17242:17248   */\n      dup2\n        /* \"#utility.yul\":17239:17269   */\n      gt\n        /* \"#utility.yul\":17236:17353   */\n      iszero\n      tag_507\n      jumpi\n        /* \"#utility.yul\":17272:17351   */\n      tag_508\n      tag_252\n      jump\t// in\n    tag_508:\n        /* \"#utility.yul\":17236:17353   */\n    tag_507:\n        /* \"#utility.yul\":17385:17449   */\n      tag_509\n        /* \"#utility.yul\":17441:17448   */\n      dup10\n        /* \"#utility.yul\":17432:17438   */\n      dup3\n        /* \"#utility.yul\":17421:17430   */\n      dup11\n        /* \"#utility.yul\":17417:17439   */\n      add\n        /* \"#utility.yul\":17385:17449   */\n      tag_287\n      jump\t// in\n    tag_509:\n        /* \"#utility.yul\":17367:17449   */\n      swap4\n      pop\n      swap4\n      pop\n        /* \"#utility.yul\":17162:17459   */\n      pop\n        /* \"#utility.yul\":17498:17500   */\n      0x60\n        /* \"#utility.yul\":17524:17577   */\n      tag_510\n        /* \"#utility.yul\":17569:17576   */\n      dup10\n        /* \"#utility.yul\":17560:17566   */\n      dup3\n        /* \"#utility.yul\":17549:17558   */\n      dup11\n        /* \"#utility.yul\":17545:17567   */\n      add\n        /* \"#utility.yul\":17524:17577   */\n      tag_261\n      jump\t// in\n    tag_510:\n        /* \"#utility.yul\":17514:17577   */\n      swap2\n      pop\n        /* \"#utility.yul\":17469:17587   */\n      pop\n        /* \"#utility.yul\":16433:17594   */\n      swap3\n      swap6\n      pop\n      swap3\n      swap6\n      pop\n      swap3\n      swap6\n      jump\t// out\n        /* \"#utility.yul\":17600:17717   */\n    tag_288:\n        /* \"#utility.yul\":17709:17710   */\n      0x00\n        /* \"#utility.yul\":17706:17707   */\n      0x00\n        /* \"#utility.yul\":17699:17711   */\n      revert\n        /* \"#utility.yul\":17751:17988   */\n    tag_289:\n        /* \"#utility.yul\":17829:17834   */\n      0x00\n        /* \"#utility.yul\":17870:17873   */\n      0x0100\n        /* \"#utility.yul\":17861:17867   */\n      dup3\n        /* \"#utility.yul\":17856:17859   */\n      dup5\n        /* \"#utility.yul\":17852:17868   */\n      sub\n        /* \"#utility.yul\":17848:17874   */\n      slt\n        /* \"#utility.yul\":17845:17958   */\n      iszero\n      tag_513\n      jumpi\n        /* \"#utility.yul\":17877:17956   */\n      tag_514\n      tag_288\n      jump\t// in\n    tag_514:\n        /* \"#utility.yul\":17845:17958   */\n    tag_513:\n        /* \"#utility.yul\":17976:17982   */\n      dup2\n        /* \"#utility.yul\":17967:17982   */\n      swap1\n      pop\n        /* \"#utility.yul\":17751:17988   */\n      swap3\n      swap2\n      pop\n      pop\n      jump\t// out\n        /* \"#utility.yul\":17994:18732   */\n    tag_55:\n        /* \"#utility.yul\":18105:18111   */\n      0x00\n        /* \"#utility.yul\":18113:18119   */\n      0x00\n        /* \"#utility.yul\":18121:18127   */\n      0x00\n        /* \"#utility.yul\":18170:18173   */\n      0x0120\n        /* \"#utility.yul\":18158:18167   */\n      dup5\n        /* \"#utility.yul\":18149:18156   */\n      dup7\n        /* \"#utility.yul\":18145:18168   */\n      sub\n        /* \"#utility.yul\":18141:18174   */\n      slt\n        /* \"#utility.yul\":18138:18258   */\n      iszero\n      tag_516\n      jumpi\n        /* \"#utility.yul\":18177:18256   */\n      tag_517\n      tag_251\n      jump\t// in\n    tag_517:\n        /* \"#utility.yul\":18138:18258   */\n    tag_516:\n        /* \"#utility.yul\":18297:18298   */\n      0x00\n        /* \"#utility.yul\":18322:18407   */\n      tag_518\n        /* \"#utility.yul\":18399:18406   */\n      dup7\n        /* \"#utility.yul\":18390:18396   */\n      dup3\n        /* \"#utility.yul\":18379:18388   */\n      dup8\n        /* \"#utility.yul\":18375:18397   */\n      add\n        /* \"#utility.yul\":18322:18407   */\n      tag_289\n      jump\t// in\n    tag_518:\n        /* \"#utility.yul\":18312:18407   */\n      swap4\n      pop\n        /* \"#utility.yul\":18268:18417   */\n      pop\n        /* \"#utility.yul\":18484:18487   */\n      0x0100\n        /* \"#utility.yul\":18473:18482   */\n      dup5\n        /* \"#utility.yul\":18469:18488   */\n      add\n        /* \"#utility.yul\":18456:18489   */\n      calldataload\n        /* \"#utility.yul\":18516:18534   */\n      0xffffffffffffffff\n        /* \"#utility.yul\":18508:18514   */\n      dup2\n        /* \"#utility.yul\":18505:18535   */\n      gt\n        /* \"#utility.yul\":18502:18619   */\n      iszero\n      tag_519\n      jumpi\n        /* \"#utility.yul\":18538:18617   */\n      tag_520\n      tag_252\n      jump\t// in\n    tag_520:\n        /* \"#utility.yul\":18502:18619   */\n    tag_519:\n        /* \"#utility.yul\":18651:18715   */\n      tag_521\n        /* \"#utility.yul\":18707:18714   */\n      dup7\n        /* \"#utility.yul\":18698:18704   */\n      dup3\n        /* \"#utility.yul\":18687:18696   */\n      dup8\n        /* \"#utility.yul\":18683:18705   */\n      add\n        /* \"#utility.yul\":18651:18715   */\n      tag_287\n      jump\t// in\n    tag_521:\n        /* \"#utility.yul\":18633:18715   */\n      swap3\n      pop\n      swap3\n      pop\n        /* \"#utility.yul\":18427:18725   */\n      pop\n        /* \"#utility.yul\":17994:18732   */\n      swap3\n      pop\n      swap3\n      pop\n      swap3\n      jump\t// out\n        /* \"#utility.yul\":18738:18864   */\n    tag_290:\n        /* \"#utility.yul\":18775:18782   */\n      0x00\n        /* \"#utility.yul\":18815:18857   */\n      0xffffffffffffffffffffffffffffffffffffffff\n        /* \"#utility.yul\":18808:18813   */\n      dup3\n        /* \"#utility.yul\":18804:18858   */\n      and\n        /* \"#utility.yul\":18793:18858   */\n      swap1\n      pop\n        /* \"#utility.yul\":18738:18864   */\n      swap2\n      swap1\n      pop\n      jump\t// out\n        /* \"#utility.yul\":18870:18966   */\n    tag_291:\n        /* \"#utility.yul\":18907:18914   */\n      0x00\n        /* \"#utility.yul\":18936:18960   */\n      tag_524\n        /* \"#utility.yul\":18954:18959   */\n      dup3\n        /* \"#utility.yul\":18936:18960   */\n      tag_290\n      jump\t// in\n    tag_524:\n        /* \"#utility.yul\":18925:18960   */\n      swap1\n      pop\n        /* \"#utility.yul\":18870:18966   */\n      swap2\n      swap1\n      pop\n      jump\t// out\n        /* \"#utility.yul\":18972:19090   */\n    tag_292:\n        /* \"#utility.yul\":19059:19083   */\n      tag_526\n        /* \"#utility.yul\":19077:19082   */\n      dup2\n        /* \"#utility.yul\":19059:19083   */\n      tag_291\n      jump\t// in\n    tag_526:\n        /* \"#utility.yul\":19054:19057   */\n      dup3\n        /* \"#utility.yul\":19047:19084   */\n      mstore\n        /* \"#utility.yul\":18972:19090   */\n      pop\n      pop\n      jump\t// out\n        /* \"#utility.yul\":19096:19318   */\n    tag_61:\n        /* \"#utility.yul\":19189:19193   */\n      0x00\n        /* \"#utility.yul\":19227:19229   */\n      0x20\n        /* \"#utility.yul\":19216:19225   */\n      dup3\n        /* \"#utility.yul\":19212:19230   */\n      add\n        /* \"#utility.yul\":19204:19230   */\n      swap1\n      pop\n        /* \"#utility.yul\":19240:19311   */\n      tag_528\n        /* \"#utility.yul\":19308:19309   */\n      0x00\n        /* \"#utility.yul\":19297:19306   */\n      dup4\n        /* \"#utility.yul\":19293:19310   */\n      add\n        /* \"#utility.yul\":19284:19290   */\n      dup5\n        /* \"#utility.yul\":19240:19311   */\n      tag_292\n      jump\t// in\n    tag_528:\n        /* \"#utility.yul\":19096:19318   */\n      swap3\n      swap2\n      pop\n      pop\n      jump\t// out\n        /* \"#utility.yul\":19324:19446   */\n    tag_293:\n        /* \"#utility.yul\":19397:19421   */\n      tag_530\n        /* \"#utility.yul\":19415:19420   */\n      dup2\n        /* \"#utility.yul\":19397:19421   */\n      tag_291\n      jump\t// in\n    tag_530:\n        /* \"#utility.yul\":19390:19395   */\n      dup2\n        /* \"#utility.yul\":19387:19422   */\n      eq\n        /* \"#utility.yul\":19377:19440   */\n      tag_531\n      jumpi\n        /* \"#utility.yul\":19436:19437   */\n      0x00\n        /* \"#utility.yul\":19433:19434   */\n      0x00\n        /* \"#utility.yul\":19426:19438   */\n      revert\n        /* \"#utility.yul\":19377:19440   */\n    tag_531:\n        /* \"#utility.yul\":19324:19446   */\n      pop\n      jump\t// out\n        /* \"#utility.yul\":19452:19591   */\n    tag_294:\n        /* \"#utility.yul\":19498:19503   */\n      0x00\n        /* \"#utility.yul\":19536:19542   */\n      dup2\n        /* \"#utility.yul\":19523:19543   */\n      calldataload\n        /* \"#utility.yul\":19514:19543   */\n      swap1\n      pop\n        /* \"#utility.yul\":19552:19585   */\n      tag_533\n        /* \"#utility.yul\":19579:19584   */\n      dup2\n        /* \"#utility.yul\":19552:19585   */\n      tag_293\n      jump\t// in\n    tag_533:\n        /* \"#utility.yul\":19452:19591   */\n      swap3\n      swap2\n      pop\n      pop\n      jump\t// out\n        /* \"#utility.yul\":19597:20904   */\n    tag_64:\n        /* \"#utility.yul\":19714:19720   */\n      0x00\n        /* \"#utility.yul\":19722:19728   */\n      0x00\n        /* \"#utility.yul\":19730:19736   */\n      0x00\n        /* \"#utility.yul\":19738:19744   */\n      0x00\n        /* \"#utility.yul\":19746:19752   */\n      0x00\n        /* \"#utility.yul\":19754:19760   */\n      0x00\n        /* \"#utility.yul\":19762:19768   */\n      0x00\n        /* \"#utility.yul\":19811:19814   */\n      0xa0\n        /* \"#utility.yul\":19799:19808   */\n      dup9\n        /* \"#utility.yul\":19790:19797   */\n      dup11\n        /* \"#utility.yul\":19786:19809   */\n      sub\n        /* \"#utility.yul\":19782:19815   */\n      slt\n        /* \"#utility.yul\":19779:19899   */\n      iszero\n      tag_535\n      jumpi\n        /* \"#utility.yul\":19818:19897   */\n      tag_536\n      tag_251\n      jump\t// in\n    tag_536:\n        /* \"#utility.yul\":19779:19899   */\n    tag_535:\n        /* \"#utility.yul\":19938:19939   */\n      0x00\n        /* \"#utility.yul\":19963:20016   */\n      tag_537\n        /* \"#utility.yul\":20008:20015   */\n      dup11\n        /* \"#utility.yul\":19999:20005   */\n      dup3\n        /* \"#utility.yul\":19988:19997   */\n      dup12\n        /* \"#utility.yul\":19984:20006   */\n      add\n        /* \"#utility.yul\":19963:20016   */\n      tag_261\n      jump\t// in\n    tag_537:\n        /* \"#utility.yul\":19953:20016   */\n      swap8\n      pop\n        /* \"#utility.yul\":19909:20026   */\n      pop\n        /* \"#utility.yul\":20093:20095   */\n      0x20\n        /* \"#utility.yul\":20082:20091   */\n      dup9\n        /* \"#utility.yul\":20078:20096   */\n      add\n        /* \"#utility.yul\":20065:20097   */\n      calldataload\n        /* \"#utility.yul\":20124:20142   */\n      0xffffffffffffffff\n        /* \"#utility.yul\":20116:20122   */\n      dup2\n        /* \"#utility.yul\":20113:20143   */\n      gt\n        /* \"#utility.yul\":20110:20227   */\n      iszero\n      tag_538\n      jumpi\n        /* \"#utility.yul\":20146:20225   */\n      tag_539\n      tag_252\n      jump\t// in\n    tag_539:\n        /* \"#utility.yul\":20110:20227   */\n    tag_538:\n        /* \"#utility.yul\":20259:20323   */\n      tag_540\n        /* \"#utility.yul\":20315:20322   */\n      dup11\n        /* \"#utility.yul\":20306:20312   */\n      dup3\n        /* \"#utility.yul\":20295:20304   */\n      dup12\n        /* \"#utility.yul\":20291:20313   */\n      add\n        /* \"#utility.yul\":20259:20323   */\n      tag_287\n      jump\t// in\n    tag_540:\n        /* \"#utility.yul\":20241:20323   */\n      swap7\n      pop\n      swap7\n      pop\n        /* \"#utility.yul\":20036:20333   */\n      pop\n        /* \"#utility.yul\":20400:20402   */\n      0x40\n        /* \"#utility.yul\":20389:20398   */\n      dup9\n        /* \"#utility.yul\":20385:20403   */\n      add\n        /* \"#utility.yul\":20372:20404   */\n      calldataload\n        /* \"#utility.yul\":20431:20449   */\n      0xffffffffffffffff\n        /* \"#utility.yul\":20423:20429   */\n      dup2\n        /* \"#utility.yul\":20420:20450   */\n      gt\n        /* \"#utility.yul\":20417:20534   */\n      iszero\n      tag_541\n      jumpi\n        /* \"#utility.yul\":20453:20532   */\n      tag_542\n      tag_252\n      jump\t// in\n    tag_542:\n        /* \"#utility.yul\":20417:20534   */\n    tag_541:\n        /* \"#utility.yul\":20566:20630   */\n      tag_543\n        /* \"#utility.yul\":20622:20629   */\n      dup11\n        /* \"#utility.yul\":20613:20619   */\n      dup3\n        /* \"#utility.yul\":20602:20611   */\n      dup12\n        /* \"#utility.yul\":20598:20620   */\n      add\n        /* \"#utility.yul\":20566:20630   */\n      tag_287\n      jump\t// in\n    tag_543:\n        /* \"#utility.yul\":20548:20630   */\n      swap5\n      pop\n      swap5\n      pop\n        /* \"#utility.yul\":20343:20640   */\n      pop\n        /* \"#utility.yul\":20679:20681   */\n      0x60\n        /* \"#utility.yul\":20705:20758   */\n      tag_544\n        /* \"#utility.yul\":20750:20757   */\n      dup11\n        /* \"#utility.yul\":20741:20747   */\n      dup3\n        /* \"#utility.yul\":20730:20739   */\n      dup12\n        /* \"#utility.yul\":20726:20748   */\n      add\n        /* \"#utility.yul\":20705:20758   */\n      tag_294\n      jump\t// in\n    tag_544:\n        /* \"#utility.yul\":20695:20758   */\n      swap3\n      pop\n        /* \"#utility.yul\":20650:20768   */\n      pop\n        /* \"#utility.yul\":20807:20810   */\n      0x80\n        /* \"#utility.yul\":20834:20887   */\n      tag_545\n        /* \"#utility.yul\":20879:20886   */\n      dup11\n        /* \"#utility.yul\":20870:20876   */\n      dup3\n        /* \"#utility.yul\":20859:20868   */\n      dup12\n        /* \"#utility.yul\":20855:20877   */\n      add\n        /* \"#utility.yul\":20834:20887   */\n      tag_261\n      jump\t// in\n    tag_545:\n        /* \"#utility.yul\":20824:20887   */\n      swap2\n      pop\n        /* \"#utility.yul\":20778:20897   */\n      pop\n        /* \"#utility.yul\":19597:20904   */\n      swap3\n      swap6\n      swap9\n      swap2\n      swap5\n      swap8\n      pop\n      swap3\n      swap6\n      pop\n      jump\t// out\n        /* \"#utility.yul\":20910:21028   */\n    tag_295:\n        /* \"#utility.yul\":20997:21021   */\n      tag_547\n        /* \"#utility.yul\":21015:21020   */\n      dup2\n        /* \"#utility.yul\":20997:21021   */\n      tag_275\n      jump\t// in\n    tag_547:\n        /* \"#utility.yul\":20992:20995   */\n      dup3\n        /* \"#utility.yul\":20985:21022   */\n      mstore\n        /* \"#utility.yul\":20910:21028   */\n      pop\n      pop\n      jump\t// out\n        /* \"#utility.yul\":21034:21366   */\n    tag_71:\n        /* \"#utility.yul\":21155:21159   */\n      0x00\n        /* \"#utility.yul\":21193:21195   */\n      0x40\n        /* \"#utility.yul\":21182:21191   */\n      dup3\n        /* \"#utility.yul\":21178:21196   */\n      add\n        /* \"#utility.yul\":21170:21196   */\n      swap1\n      pop\n        /* \"#utility.yul\":21206:21277   */\n      tag_549\n        /* \"#utility.yul\":21274:21275   */\n      0x00\n        /* \"#utility.yul\":21263:21272   */\n      dup4\n        /* \"#utility.yul\":21259:21276   */\n      add\n        /* \"#utility.yul\":21250:21256   */\n      dup6\n        /* \"#utility.yul\":21206:21277   */\n      tag_295\n      jump\t// in\n    tag_549:\n        /* \"#utility.yul\":21287:21359   */\n      tag_550\n        /* \"#utility.yul\":21355:21357   */\n      0x20\n        /* \"#utility.yul\":21344:21353   */\n      dup4\n        /* \"#utility.yul\":21340:21358   */\n      add\n        /* \"#utility.yul\":21331:21337   */\n      dup5\n        /* \"#utility.yul\":21287:21359   */\n      tag_295\n      jump\t// in\n    tag_550:\n        /* \"#utility.yul\":21034:21366   */\n      swap4\n      swap3\n      pop\n      pop\n      pop\n      jump\t// out\n        /* \"#utility.yul\":21372:21701   */\n    tag_75:\n        /* \"#utility.yul\":21431:21437   */\n      0x00\n        /* \"#utility.yul\":21480:21482   */\n      0x20\n        /* \"#utility.yul\":21468:21477   */\n      dup3\n        /* \"#utility.yul\":21459:21466   */\n      dup5\n        /* \"#utility.yul\":21455:21478   */\n      sub\n        /* \"#utility.yul\":21451:21483   */\n      slt\n        /* \"#utility.yul\":21448:21567   */\n      iszero\n      tag_552\n      jumpi\n        /* \"#utility.yul\":21486:21565   */\n      tag_553\n      tag_251\n      jump\t// in\n    tag_553:\n        /* \"#utility.yul\":21448:21567   */\n    tag_552:\n        /* \"#utility.yul\":21606:21607   */\n      0x00\n        /* \"#utility.yul\":21631:21684   */\n      tag_554\n        /* \"#utility.yul\":21676:21683   */\n      dup5\n        /* \"#utility.yul\":21667:21673   */\n      dup3\n        /* \"#utility.yul\":21656:21665   */\n      dup6\n        /* \"#utility.yul\":21652:21674   */\n      add\n        /* \"#utility.yul\":21631:21684   */\n      tag_294\n      jump\t// in\n    tag_554:\n        /* \"#utility.yul\":21621:21684   */\n      swap2\n      pop\n        /* \"#utility.yul\":21577:21694   */\n      pop\n        /* \"#utility.yul\":21372:21701   */\n      swap3\n      swap2\n      pop\n      pop\n      jump\t// out\n        /* \"#utility.yul\":21707:22828   */\n    tag_80:\n        /* \"#utility.yul\":21811:21817   */\n      0x00\n        /* \"#utility.yul\":21819:21825   */\n      0x00\n        /* \"#utility.yul\":21827:21833   */\n      0x00\n        /* \"#utility.yul\":21835:21841   */\n      0x00\n        /* \"#utility.yul\":21884:21887   */\n      0x80\n        /* \"#utility.yul\":21872:21881   */\n      dup6\n        /* \"#utility.yul\":21863:21870   */\n      dup8\n        /* \"#utility.yul\":21859:21882   */\n      sub\n        /* \"#utility.yul\":21855:21888   */\n      slt\n        /* \"#utility.yul\":21852:21972   */\n      iszero\n      tag_556\n      jumpi\n        /* \"#utility.yul\":21891:21970   */\n      tag_557\n      tag_251\n      jump\t// in\n    tag_557:\n        /* \"#utility.yul\":21852:21972   */\n    tag_556:\n        /* \"#utility.yul\":22039:22040   */\n      0x00\n        /* \"#utility.yul\":22028:22037   */\n      dup6\n        /* \"#utility.yul\":22024:22041   */\n      add\n        /* \"#utility.yul\":22011:22042   */\n      calldataload\n        /* \"#utility.yul\":22069:22087   */\n      0xffffffffffffffff\n        /* \"#utility.yul\":22061:22067   */\n      dup2\n        /* \"#utility.yul\":22058:22088   */\n      gt\n        /* \"#utility.yul\":22055:22172   */\n      iszero\n      tag_558\n      jumpi\n        /* \"#utility.yul\":22091:22170   */\n      tag_559\n      tag_252\n      jump\t// in\n    tag_559:\n        /* \"#utility.yul\":22055:22172   */\n    tag_558:\n        /* \"#utility.yul\":22196:22258   */\n      tag_560\n        /* \"#utility.yul\":22250:22257   */\n      dup8\n        /* \"#utility.yul\":22241:22247   */\n      dup3\n        /* \"#utility.yul\":22230:22239   */\n      dup9\n        /* \"#utility.yul\":22226:22248   */\n      add\n        /* \"#utility.yul\":22196:22258   */\n      tag_269\n      jump\t// in\n    tag_560:\n        /* \"#utility.yul\":22186:22258   */\n      swap5\n      pop\n        /* \"#utility.yul\":21982:22268   */\n      pop\n        /* \"#utility.yul\":22307:22309   */\n      0x20\n        /* \"#utility.yul\":22333:22386   */\n      tag_561\n        /* \"#utility.yul\":22378:22385   */\n      dup8\n        /* \"#utility.yul\":22369:22375   */\n      dup3\n        /* \"#utility.yul\":22358:22367   */\n      dup9\n        /* \"#utility.yul\":22354:22376   */\n      add\n        /* \"#utility.yul\":22333:22386   */\n      tag_261\n      jump\t// in\n    tag_561:\n        /* \"#utility.yul\":22323:22386   */\n      swap4\n      pop\n        /* \"#utility.yul\":22278:22396   */\n      pop\n        /* \"#utility.yul\":22435:22437   */\n      0x40\n        /* \"#utility.yul\":22461:22514   */\n      tag_562\n        /* \"#utility.yul\":22506:22513   */\n      dup8\n        /* \"#utility.yul\":22497:22503   */\n      dup3\n        /* \"#utility.yul\":22486:22495   */\n      dup9\n        /* \"#utility.yul\":22482:22504   */\n      add\n        /* \"#utility.yul\":22461:22514   */\n      tag_261\n      jump\t// in\n    tag_562:\n        /* \"#utility.yul\":22451:22514   */\n      swap3\n      pop\n        /* \"#utility.yul\":22406:22524   */\n      pop\n        /* \"#utility.yul\":22591:22593   */\n      0x60\n        /* \"#utility.yul\":22580:22589   */\n      dup6\n        /* \"#utility.yul\":22576:22594   */\n      add\n        /* \"#utility.yul\":22563:22595   */\n      calldataload\n        /* \"#utility.yul\":22622:22640   */\n      0xffffffffffffffff\n        /* \"#utility.yul\":22614:22620   */\n      dup2\n        /* \"#utility.yul\":22611:22641   */\n      gt\n        /* \"#utility.yul\":22608:22725   */\n      iszero\n      tag_563\n      jumpi\n        /* \"#utility.yul\":22644:22723   */\n      tag_564\n      tag_252\n      jump\t// in\n    tag_564:\n        /* \"#utility.yul\":22608:22725   */\n    tag_563:\n        /* \"#utility.yul\":22749:22811   */\n      tag_565\n        /* \"#utility.yul\":22803:22810   */\n      dup8\n        /* \"#utility.yul\":22794:22800   */\n      dup3\n        /* \"#utility.yul\":22783:22792   */\n      dup9\n        /* \"#utility.yul\":22779:22801   */\n      add\n        /* \"#utility.yul\":22749:22811   */\n      tag_269\n      jump\t// in\n    tag_565:\n        /* \"#utility.yul\":22739:22811   */\n      swap2\n      pop\n        /* \"#utility.yul\":22534:22821   */\n      pop\n        /* \"#utility.yul\":21707:22828   */\n      swap3\n      swap6\n      swap2\n      swap5\n      pop\n      swap3\n      pop\n      jump\t// out\n        /* \"#utility.yul\":22834:23014   */\n    tag_94:\n        /* \"#utility.yul\":22882:22959   */\n      0x4e487b7100000000000000000000000000000000000000000000000000000000\n        /* \"#utility.yul\":22879:22880   */\n      0x00\n        /* \"#utility.yul\":22872:22960   */\n      mstore\n        /* \"#utility.yul\":22979:22983   */\n      0x32\n        /* \"#utility.yul\":22976:22977   */\n      0x04\n        /* \"#utility.yul\":22969:22984   */\n      mstore\n        /* \"#utility.yul\":23003:23007   */\n      0x24\n        /* \"#utility.yul\":23000:23001   */\n      0x00\n        /* \"#utility.yul\":22993:23008   */\n      revert\n        /* \"#utility.yul\":23020:23118   */\n    tag_296:\n        /* \"#utility.yul\":23071:23077   */\n      0x00\n        /* \"#utility.yul\":23105:23110   */\n      dup2\n        /* \"#utility.yul\":23099:23111   */\n      mload\n        /* \"#utility.yul\":23089:23111   */\n      swap1\n      pop\n        /* \"#utility.yul\":23020:23118   */\n      swap2\n      swap1\n      pop\n      jump\t// out\n        /* \"#utility.yul\":23124:23271   */\n    tag_297:\n        /* \"#utility.yul\":23225:23236   */\n      0x00\n        /* \"#utility.yul\":23262:23265   */\n      dup2\n        /* \"#utility.yul\":23247:23265   */\n      swap1\n      pop\n        /* \"#utility.yul\":23124:23271   */\n      swap3\n      swap2\n      pop\n      pop\n      jump\t// out\n        /* \"#utility.yul\":23277:23416   */\n    tag_298:\n        /* \"#utility.yul\":23366:23372   */\n      dup3\n        /* \"#utility.yul\":23361:23364   */\n      dup2\n        /* \"#utility.yul\":23356:23359   */\n      dup4\n        /* \"#utility.yul\":23350:23373   */\n      mcopy\n        /* \"#utility.yul\":23407:23408   */\n      0x00\n        /* \"#utility.yul\":23398:23404   */\n      dup4\n        /* \"#utility.yul\":23393:23396   */\n      dup4\n        /* \"#utility.yul\":23389:23405   */\n      add\n        /* \"#utility.yul\":23382:23409   */\n      mstore\n        /* \"#utility.yul\":23277:23416   */\n      pop\n      pop\n      pop\n      jump\t// out\n        /* \"#utility.yul\":23422:23808   */\n    tag_299:\n        /* \"#utility.yul\":23526:23529   */\n      0x00\n        /* \"#utility.yul\":23554:23592   */\n      tag_571\n        /* \"#utility.yul\":23586:23591   */\n      dup3\n        /* \"#utility.yul\":23554:23592   */\n      tag_296\n      jump\t// in\n    tag_571:\n        /* \"#utility.yul\":23608:23696   */\n      tag_572\n        /* \"#utility.yul\":23689:23695   */\n      dup2\n        /* \"#utility.yul\":23684:23687   */\n      dup6\n        /* \"#utility.yul\":23608:23696   */\n      tag_297\n      jump\t// in\n    tag_572:\n        /* \"#utility.yul\":23601:23696   */\n      swap4\n      pop\n        /* \"#utility.yul\":23705:23770   */\n      tag_573\n        /* \"#utility.yul\":23763:23769   */\n      dup2\n        /* \"#utility.yul\":23758:23761   */\n      dup6\n        /* \"#utility.yul\":23751:23755   */\n      0x20\n        /* \"#utility.yul\":23744:23749   */\n      dup7\n        /* \"#utility.yul\":23740:23756   */\n      add\n        /* \"#utility.yul\":23705:23770   */\n      tag_298\n      jump\t// in\n    tag_573:\n        /* \"#utility.yul\":23795:23801   */\n      dup1\n        /* \"#utility.yul\":23790:23793   */\n      dup5\n        /* \"#utility.yul\":23786:23802   */\n      add\n        /* \"#utility.yul\":23779:23802   */\n      swap2\n      pop\n        /* \"#utility.yul\":23530:23808   */\n      pop\n        /* \"#utility.yul\":23422:23808   */\n      swap3\n      swap2\n      pop\n      pop\n      jump\t// out\n        /* \"#utility.yul\":23814:24085   */\n    tag_100:\n        /* \"#utility.yul\":23944:23947   */\n      0x00\n        /* \"#utility.yul\":23966:24059   */\n      tag_575\n        /* \"#utility.yul\":24055:24058   */\n      dup3\n        /* \"#utility.yul\":24046:24052   */\n      dup5\n        /* \"#utility.yul\":23966:24059   */\n      tag_299\n      jump\t// in\n    tag_575:\n        /* \"#utility.yul\":23959:24059   */\n      swap2\n      pop\n        /* \"#utility.yul\":24076:24079   */\n      dup2\n        /* \"#utility.yul\":24069:24079   */\n      swap1\n      pop\n        /* \"#utility.yul\":23814:24085   */\n      swap3\n      swap2\n      pop\n      pop\n      jump\t// out\n        /* \"#utility.yul\":24091:24468   */\n    tag_124:\n        /* \"#utility.yul\":24174:24180   */\n      0x00\n        /* \"#utility.yul\":24223:24225   */\n      0x40\n        /* \"#utility.yul\":24211:24220   */\n      dup3\n        /* \"#utility.yul\":24202:24209   */\n      dup5\n        /* \"#utility.yul\":24198:24221   */\n      sub\n        /* \"#utility.yul\":24194:24226   */\n      slt\n        /* \"#utility.yul\":24191:24310   */\n      iszero\n      tag_577\n      jumpi\n        /* \"#utility.yul\":24229:24308   */\n      tag_578\n      tag_251\n      jump\t// in\n    tag_578:\n        /* \"#utility.yul\":24191:24310   */\n    tag_577:\n        /* \"#utility.yul\":24349:24350   */\n      0x00\n        /* \"#utility.yul\":24374:24451   */\n      tag_579\n        /* \"#utility.yul\":24443:24450   */\n      dup5\n        /* \"#utility.yul\":24434:24440   */\n      dup3\n        /* \"#utility.yul\":24423:24432   */\n      dup6\n        /* \"#utility.yul\":24419:24441   */\n      add\n        /* \"#utility.yul\":24374:24451   */\n      tag_278\n      jump\t// in\n    tag_579:\n        /* \"#utility.yul\":24364:24451   */\n      swap2\n      pop\n        /* \"#utility.yul\":24320:24461   */\n      pop\n        /* \"#utility.yul\":24091:24468   */\n      swap3\n      swap2\n      pop\n      pop\n      jump\t// out\n        /* \"#utility.yul\":24474:24654   */\n    tag_300:\n        /* \"#utility.yul\":24522:24599   */\n      0x4e487b7100000000000000000000000000000000000000000000000000000000\n        /* \"#utility.yul\":24519:24520   */\n      0x00\n        /* \"#utility.yul\":24512:24600   */\n      mstore\n        /* \"#utility.yul\":24619:24623   */\n      0x11\n        /* \"#utility.yul\":24616:24617   */\n      0x04\n        /* \"#utility.yul\":24609:24624   */\n      mstore\n        /* \"#utility.yul\":24643:24647   */\n      0x24\n        /* \"#utility.yul\":24640:24641   */\n      0x00\n        /* \"#utility.yul\":24633:24648   */\n      revert\n        /* \"#utility.yul\":24660:24854   */\n    tag_128:\n        /* \"#utility.yul\":24700:24704   */\n      0x00\n        /* \"#utility.yul\":24720:24740   */\n      tag_582\n        /* \"#utility.yul\":24738:24739   */\n      dup3\n        /* \"#utility.yul\":24720:24740   */\n      tag_259\n      jump\t// in\n    tag_582:\n        /* \"#utility.yul\":24715:24740   */\n      swap2\n      pop\n        /* \"#utility.yul\":24754:24774   */\n      tag_583\n        /* \"#utility.yul\":24772:24773   */\n      dup4\n        /* \"#utility.yul\":24754:24774   */\n      tag_259\n      jump\t// in\n    tag_583:\n        /* \"#utility.yul\":24749:24774   */\n      swap3\n      pop\n        /* \"#utility.yul\":24798:24799   */\n      dup3\n        /* \"#utility.yul\":24795:24796   */\n      dup3\n        /* \"#utility.yul\":24791:24800   */\n      sub\n        /* \"#utility.yul\":24783:24800   */\n      swap1\n      pop\n        /* \"#utility.yul\":24822:24823   */\n      dup2\n        /* \"#utility.yul\":24816:24820   */\n      dup2\n        /* \"#utility.yul\":24813:24824   */\n      gt\n        /* \"#utility.yul\":24810:24847   */\n      iszero\n      tag_584\n      jumpi\n        /* \"#utility.yul\":24827:24845   */\n      tag_585\n      tag_300\n      jump\t// in\n    tag_585:\n        /* \"#utility.yul\":24810:24847   */\n    tag_584:\n        /* \"#utility.yul\":24660:24854   */\n      swap3\n      swap2\n      pop\n      pop\n      jump\t// out\n        /* \"#utility.yul\":24860:25003   */\n    tag_301:\n        /* \"#utility.yul\":24917:24922   */\n      0x00\n        /* \"#utility.yul\":24948:24954   */\n      dup2\n        /* \"#utility.yul\":24942:24955   */\n      mload\n        /* \"#utility.yul\":24933:24955   */\n      swap1\n      pop\n        /* \"#utility.yul\":24964:24997   */\n      tag_587\n        /* \"#utility.yul\":24991:24996   */\n      dup2\n        /* \"#utility.yul\":24964:24997   */\n      tag_260\n      jump\t// in\n    tag_587:\n        /* \"#utility.yul\":24860:25003   */\n      swap3\n      swap2\n      pop\n      pop\n      jump\t// out\n        /* \"#utility.yul\":25009:25360   */\n    tag_158:\n        /* \"#utility.yul\":25079:25085   */\n      0x00\n        /* \"#utility.yul\":25128:25130   */\n      0x20\n        /* \"#utility.yul\":25116:25125   */\n      dup3\n        /* \"#utility.yul\":25107:25114   */\n      dup5\n        /* \"#utility.yul\":25103:25126   */\n      sub\n        /* \"#utility.yul\":25099:25131   */\n      slt\n        /* \"#utility.yul\":25096:25215   */\n      iszero\n      tag_589\n      jumpi\n        /* \"#utility.yul\":25134:25213   */\n      tag_590\n      tag_251\n      jump\t// in\n    tag_590:\n        /* \"#utility.yul\":25096:25215   */\n    tag_589:\n        /* \"#utility.yul\":25254:25255   */\n      0x00\n        /* \"#utility.yul\":25279:25343   */\n      tag_591\n        /* \"#utility.yul\":25335:25342   */\n      dup5\n        /* \"#utility.yul\":25326:25332   */\n      dup3\n        /* \"#utility.yul\":25315:25324   */\n      dup6\n        /* \"#utility.yul\":25311:25333   */\n      add\n        /* \"#utility.yul\":25279:25343   */\n      tag_301\n      jump\t// in\n    tag_591:\n        /* \"#utility.yul\":25269:25343   */\n      swap2\n      pop\n        /* \"#utility.yul\":25225:25353   */\n      pop\n        /* \"#utility.yul\":25009:25360   */\n      swap3\n      swap2\n      pop\n      pop\n      jump\t// out\n        /* \"#utility.yul\":25366:25776   */\n    tag_161:\n        /* \"#utility.yul\":25406:25413   */\n      0x00\n        /* \"#utility.yul\":25429:25449   */\n      tag_593\n        /* \"#utility.yul\":25447:25448   */\n      dup3\n        /* \"#utility.yul\":25429:25449   */\n      tag_259\n      jump\t// in\n    tag_593:\n        /* \"#utility.yul\":25424:25449   */\n      swap2\n      pop\n        /* \"#utility.yul\":25463:25483   */\n      tag_594\n        /* \"#utility.yul\":25481:25482   */\n      dup4\n        /* \"#utility.yul\":25463:25483   */\n      tag_259\n      jump\t// in\n    tag_594:\n        /* \"#utility.yul\":25458:25483   */\n      swap3\n      pop\n        /* \"#utility.yul\":25518:25519   */\n      dup3\n        /* \"#utility.yul\":25515:25516   */\n      dup3\n        /* \"#utility.yul\":25511:25520   */\n      mul\n        /* \"#utility.yul\":25540:25570   */\n      tag_595\n        /* \"#utility.yul\":25558:25569   */\n      dup2\n        /* \"#utility.yul\":25540:25570   */\n      tag_259\n      jump\t// in\n    tag_595:\n        /* \"#utility.yul\":25529:25570   */\n      swap2\n      pop\n        /* \"#utility.yul\":25719:25720   */\n      dup3\n        /* \"#utility.yul\":25710:25717   */\n      dup3\n        /* \"#utility.yul\":25706:25721   */\n      div\n        /* \"#utility.yul\":25703:25704   */\n      dup5\n        /* \"#utility.yul\":25700:25722   */\n      eq\n        /* \"#utility.yul\":25680:25681   */\n      dup4\n        /* \"#utility.yul\":25673:25682   */\n      iszero\n        /* \"#utility.yul\":25653:25736   */\n      or\n        /* \"#utility.yul\":25630:25769   */\n      tag_596\n      jumpi\n        /* \"#utility.yul\":25749:25767   */\n      tag_597\n      tag_300\n      jump\t// in\n    tag_597:\n        /* \"#utility.yul\":25630:25769   */\n    tag_596:\n        /* \"#utility.yul\":25414:25776   */\n      pop\n        /* \"#utility.yul\":25366:25776   */\n      swap3\n      swap2\n      pop\n      pop\n      jump\t// out\n        /* \"#utility.yul\":25782:25962   */\n    tag_302:\n        /* \"#utility.yul\":25830:25907   */\n      0x4e487b7100000000000000000000000000000000000000000000000000000000\n        /* \"#utility.yul\":25827:25828   */\n      0x00\n        /* \"#utility.yul\":25820:25908   */\n      mstore\n        /* \"#utility.yul\":25927:25931   */\n      0x12\n        /* \"#utility.yul\":25924:25925   */\n      0x04\n        /* \"#utility.yul\":25917:25932   */\n      mstore\n        /* \"#utility.yul\":25951:25955   */\n      0x24\n        /* \"#utility.yul\":25948:25949   */\n      0x00\n        /* \"#utility.yul\":25941:25956   */\n      revert\n        /* \"#utility.yul\":25968:26153   */\n    tag_163:\n        /* \"#utility.yul\":26008:26009   */\n      0x00\n        /* \"#utility.yul\":26025:26045   */\n      tag_600\n        /* \"#utility.yul\":26043:26044   */\n      dup3\n        /* \"#utility.yul\":26025:26045   */\n      tag_259\n      jump\t// in\n    tag_600:\n        /* \"#utility.yul\":26020:26045   */\n      swap2\n      pop\n        /* \"#utility.yul\":26059:26079   */\n      tag_601\n        /* \"#utility.yul\":26077:26078   */\n      dup4\n        /* \"#utility.yul\":26059:26079   */\n      tag_259\n      jump\t// in\n    tag_601:\n        /* \"#utility.yul\":26054:26079   */\n      swap3\n      pop\n        /* \"#utility.yul\":26098:26099   */\n      dup3\n        /* \"#utility.yul\":26088:26123   */\n      tag_602\n      jumpi\n        /* \"#utility.yul\":26103:26121   */\n      tag_603\n      tag_302\n      jump\t// in\n    tag_603:\n        /* \"#utility.yul\":26088:26123   */\n    tag_602:\n        /* \"#utility.yul\":26145:26146   */\n      dup3\n        /* \"#utility.yul\":26142:26143   */\n      dup3\n        /* \"#utility.yul\":26138:26147   */\n      div\n        /* \"#utility.yul\":26133:26147   */\n      swap1\n      pop\n        /* \"#utility.yul\":25968:26153   */\n      swap3\n      swap2\n      pop\n      pop\n      jump\t// out\n        /* \"#utility.yul\":26159:26317   */\n    tag_303:\n        /* \"#utility.yul\":26232:26243   */\n      0x00\n        /* \"#utility.yul\":26266:26272   */\n      dup3\n        /* \"#utility.yul\":26261:26264   */\n      dup3\n        /* \"#utility.yul\":26254:26273   */\n      mstore\n        /* \"#utility.yul\":26306:26310   */\n      0x20\n        /* \"#utility.yul\":26301:26304   */\n      dup3\n        /* \"#utility.yul\":26297:26311   */\n      add\n        /* \"#utility.yul\":26282:26311   */\n      swap1\n      pop\n        /* \"#utility.yul\":26159:26317   */\n      swap3\n      swap2\n      pop\n      pop\n      jump\t// out\n        /* \"#utility.yul\":26323:26676   */\n    tag_304:\n        /* \"#utility.yul\":26399:26402   */\n      0x00\n        /* \"#utility.yul\":26427:26465   */\n      tag_606\n        /* \"#utility.yul\":26459:26464   */\n      dup3\n        /* \"#utility.yul\":26427:26465   */\n      tag_296\n      jump\t// in\n    tag_606:\n        /* \"#utility.yul\":26481:26541   */\n      tag_607\n        /* \"#utility.yul\":26534:26540   */\n      dup2\n        /* \"#utility.yul\":26529:26532   */\n      dup6\n        /* \"#utility.yul\":26481:26541   */\n      tag_303\n      jump\t// in\n    tag_607:\n        /* \"#utility.yul\":26474:26541   */\n      swap4\n      pop\n        /* \"#utility.yul\":26550:26615   */\n      tag_608\n        /* \"#utility.yul\":26608:26614   */\n      dup2\n        /* \"#utility.yul\":26603:26606   */\n      dup6\n        /* \"#utility.yul\":26596:26600   */\n      0x20\n        /* \"#utility.yul\":26589:26594   */\n      dup7\n        /* \"#utility.yul\":26585:26601   */\n      add\n        /* \"#utility.yul\":26550:26615   */\n      tag_298\n      jump\t// in\n    tag_608:\n        /* \"#utility.yul\":26640:26669   */\n      tag_609\n        /* \"#utility.yul\":26662:26668   */\n      dup2\n        /* \"#utility.yul\":26640:26669   */\n      tag_254\n      jump\t// in\n    tag_609:\n        /* \"#utility.yul\":26635:26638   */\n      dup5\n        /* \"#utility.yul\":26631:26670   */\n      add\n        /* \"#utility.yul\":26624:26670   */\n      swap2\n      pop\n        /* \"#utility.yul\":26403:26676   */\n      pop\n        /* \"#utility.yul\":26323:26676   */\n      swap3\n      swap2\n      pop\n      pop\n      jump\t// out\n        /* \"#utility.yul\":26682:26790   */\n    tag_305:\n        /* \"#utility.yul\":26759:26783   */\n      tag_611\n        /* \"#utility.yul\":26777:26782   */\n      dup2\n        /* \"#utility.yul\":26759:26783   */\n      tag_259\n      jump\t// in\n    tag_611:\n        /* \"#utility.yul\":26754:26757   */\n      dup3\n        /* \"#utility.yul\":26747:26784   */\n      mstore\n        /* \"#utility.yul\":26682:26790   */\n      pop\n      pop\n      jump\t// out\n        /* \"#utility.yul\":26874:27735   */\n    tag_306:\n        /* \"#utility.yul\":26999:27002   */\n      0x00\n        /* \"#utility.yul\":27035:27039   */\n      0x60\n        /* \"#utility.yul\":27030:27033   */\n      dup4\n        /* \"#utility.yul\":27026:27040   */\n      add\n        /* \"#utility.yul\":27123:27127   */\n      0x00\n        /* \"#utility.yul\":27116:27121   */\n      dup4\n        /* \"#utility.yul\":27112:27128   */\n      add\n        /* \"#utility.yul\":27106:27129   */\n      mload\n        /* \"#utility.yul\":27176:27179   */\n      dup5\n        /* \"#utility.yul\":27170:27174   */\n      dup3\n        /* \"#utility.yul\":27166:27180   */\n      sub\n        /* \"#utility.yul\":27159:27163   */\n      0x00\n        /* \"#utility.yul\":27154:27157   */\n      dup7\n        /* \"#utility.yul\":27150:27164   */\n      add\n        /* \"#utility.yul\":27143:27181   */\n      mstore\n        /* \"#utility.yul\":27202:27273   */\n      tag_613\n        /* \"#utility.yul\":27268:27272   */\n      dup3\n        /* \"#utility.yul\":27254:27266   */\n      dup3\n        /* \"#utility.yul\":27202:27273   */\n      tag_304\n      jump\t// in\n    tag_613:\n        /* \"#utility.yul\":27194:27273   */\n      swap2\n      pop\n        /* \"#utility.yul\":27050:27284   */\n      pop\n        /* \"#utility.yul\":27368:27372   */\n      0x20\n        /* \"#utility.yul\":27361:27366   */\n      dup4\n        /* \"#utility.yul\":27357:27373   */\n      add\n        /* \"#utility.yul\":27351:27374   */\n      mload\n        /* \"#utility.yul\":27387:27450   */\n      tag_614\n        /* \"#utility.yul\":27444:27448   */\n      0x20\n        /* \"#utility.yul\":27439:27442   */\n      dup7\n        /* \"#utility.yul\":27435:27449   */\n      add\n        /* \"#utility.yul\":27421:27433   */\n      dup3\n        /* \"#utility.yul\":27387:27450   */\n      tag_305\n      jump\t// in\n    tag_614:\n        /* \"#utility.yul\":27294:27460   */\n      pop\n        /* \"#utility.yul\":27547:27551   */\n      0x40\n        /* \"#utility.yul\":27540:27545   */\n      dup4\n        /* \"#utility.yul\":27536:27552   */\n      add\n        /* \"#utility.yul\":27530:27553   */\n      mload\n        /* \"#utility.yul\":27600:27603   */\n      dup5\n        /* \"#utility.yul\":27594:27598   */\n      dup3\n        /* \"#utility.yul\":27590:27604   */\n      sub\n        /* \"#utility.yul\":27583:27587   */\n      0x40\n        /* \"#utility.yul\":27578:27581   */\n      dup7\n        /* \"#utility.yul\":27574:27588   */\n      add\n        /* \"#utility.yul\":27567:27605   */\n      mstore\n        /* \"#utility.yul\":27626:27697   */\n      tag_615\n        /* \"#utility.yul\":27692:27696   */\n      dup3\n        /* \"#utility.yul\":27678:27690   */\n      dup3\n        /* \"#utility.yul\":27626:27697   */\n      tag_304\n      jump\t// in\n    tag_615:\n        /* \"#utility.yul\":27618:27697   */\n      swap2\n      pop\n        /* \"#utility.yul\":27470:27708   */\n      pop\n        /* \"#utility.yul\":27725:27729   */\n      dup1\n        /* \"#utility.yul\":27718:27729   */\n      swap2\n      pop\n        /* \"#utility.yul\":27004:27735   */\n      pop\n        /* \"#utility.yul\":26874:27735   */\n      swap3\n      swap2\n      pop\n      pop\n      jump\t// out\n        /* \"#utility.yul\":27741:28126   */\n    tag_188:\n        /* \"#utility.yul\":27890:27894   */\n      0x00\n        /* \"#utility.yul\":27928:27930   */\n      0x20\n        /* \"#utility.yul\":27917:27926   */\n      dup3\n        /* \"#utility.yul\":27913:27931   */\n      add\n        /* \"#utility.yul\":27905:27931   */\n      swap1\n      pop\n        /* \"#utility.yul\":27977:27986   */\n      dup2\n        /* \"#utility.yul\":27971:27975   */\n      dup2\n        /* \"#utility.yul\":27967:27987   */\n      sub\n        /* \"#utility.yul\":27963:27964   */\n      0x00\n        /* \"#utility.yul\":27952:27961   */\n      dup4\n        /* \"#utility.yul\":27948:27965   */\n      add\n        /* \"#utility.yul\":27941:27988   */\n      mstore\n        /* \"#utility.yul\":28005:28119   */\n      tag_617\n        /* \"#utility.yul\":28114:28118   */\n      dup2\n        /* \"#utility.yul\":28105:28111   */\n      dup5\n        /* \"#utility.yul\":28005:28119   */\n      tag_306\n      jump\t// in\n    tag_617:\n        /* \"#utility.yul\":27997:28119   */\n      swap1\n      pop\n        /* \"#utility.yul\":27741:28126   */\n      swap3\n      swap2\n      pop\n      pop\n      jump\t// out\n        /* \"#utility.yul\":28132:28300   */\n    tag_307:\n        /* \"#utility.yul\":28215:28226   */\n      0x00\n        /* \"#utility.yul\":28249:28255   */\n      dup3\n        /* \"#utility.yul\":28244:28247   */\n      dup3\n        /* \"#utility.yul\":28237:28256   */\n      mstore\n        /* \"#utility.yul\":28289:28293   */\n      0x20\n        /* \"#utility.yul\":28284:28287   */\n      dup3\n        /* \"#utility.yul\":28280:28294   */\n      add\n        /* \"#utility.yul\":28265:28294   */\n      swap1\n      pop\n        /* \"#utility.yul\":28132:28300   */\n      swap3\n      swap2\n      pop\n      pop\n      jump\t// out\n        /* \"#utility.yul\":28306:28679   */\n    tag_308:\n        /* \"#utility.yul\":28392:28395   */\n      0x00\n        /* \"#utility.yul\":28420:28458   */\n      tag_620\n        /* \"#utility.yul\":28452:28457   */\n      dup3\n        /* \"#utility.yul\":28420:28458   */\n      tag_296\n      jump\t// in\n    tag_620:\n        /* \"#utility.yul\":28474:28544   */\n      tag_621\n        /* \"#utility.yul\":28537:28543   */\n      dup2\n        /* \"#utility.yul\":28532:28535   */\n      dup6\n        /* \"#utility.yul\":28474:28544   */\n      tag_307\n      jump\t// in\n    tag_621:\n        /* \"#utility.yul\":28467:28544   */\n      swap4\n      pop\n        /* \"#utility.yul\":28553:28618   */\n      tag_622\n        /* \"#utility.yul\":28611:28617   */\n      dup2\n        /* \"#utility.yul\":28606:28609   */\n      dup6\n        /* \"#utility.yul\":28599:28603   */\n      0x20\n        /* \"#utility.yul\":28592:28597   */\n      dup7\n        /* \"#utility.yul\":28588:28604   */\n      add\n        /* \"#utility.yul\":28553:28618   */\n      tag_298\n      jump\t// in\n    tag_622:\n        /* \"#utility.yul\":28643:28672   */\n      tag_623\n        /* \"#utility.yul\":28665:28671   */\n      dup2\n        /* \"#utility.yul\":28643:28672   */\n      tag_254\n      jump\t// in\n    tag_623:\n        /* \"#utility.yul\":28638:28641   */\n      dup5\n        /* \"#utility.yul\":28634:28673   */\n      add\n        /* \"#utility.yul\":28627:28673   */\n      swap2\n      pop\n        /* \"#utility.yul\":28396:28679   */\n      pop\n        /* \"#utility.yul\":28306:28679   */\n      swap3\n      swap2\n      pop\n      pop\n      jump\t// out\n        /* \"#utility.yul\":28685:29311   */\n    tag_190:\n        /* \"#utility.yul\":28900:28904   */\n      0x00\n        /* \"#utility.yul\":28938:28941   */\n      0x80\n        /* \"#utility.yul\":28927:28936   */\n      dup3\n        /* \"#utility.yul\":28923:28942   */\n      add\n        /* \"#utility.yul\":28915:28942   */\n      swap1\n      pop\n        /* \"#utility.yul\":28952:29071   */\n      tag_625\n        /* \"#utility.yul\":29068:29069   */\n      0x00\n        /* \"#utility.yul\":29057:29066   */\n      dup4\n        /* \"#utility.yul\":29053:29070   */\n      add\n        /* \"#utility.yul\":29044:29050   */\n      dup7\n        /* \"#utility.yul\":28952:29071   */\n      tag_283\n      jump\t// in\n    tag_625:\n        /* \"#utility.yul\":29081:29153   */\n      tag_626\n        /* \"#utility.yul\":29149:29151   */\n      0x40\n        /* \"#utility.yul\":29138:29147   */\n      dup4\n        /* \"#utility.yul\":29134:29152   */\n      add\n        /* \"#utility.yul\":29125:29131   */\n      dup6\n        /* \"#utility.yul\":29081:29153   */\n      tag_281\n      jump\t// in\n    tag_626:\n        /* \"#utility.yul\":29200:29209   */\n      dup2\n        /* \"#utility.yul\":29194:29198   */\n      dup2\n        /* \"#utility.yul\":29190:29210   */\n      sub\n        /* \"#utility.yul\":29185:29187   */\n      0x60\n        /* \"#utility.yul\":29174:29183   */\n      dup4\n        /* \"#utility.yul\":29170:29188   */\n      add\n        /* \"#utility.yul\":29163:29211   */\n      mstore\n        /* \"#utility.yul\":29228:29304   */\n      tag_627\n        /* \"#utility.yul\":29299:29303   */\n      dup2\n        /* \"#utility.yul\":29290:29296   */\n      dup5\n        /* \"#utility.yul\":29228:29304   */\n      tag_308\n      jump\t// in\n    tag_627:\n        /* \"#utility.yul\":29220:29304   */\n      swap1\n      pop\n        /* \"#utility.yul\":28685:29311   */\n      swap5\n      swap4\n      pop\n      pop\n      pop\n      pop\n      jump\t// out\n        /* \"#utility.yul\":29317:29460   */\n    tag_309:\n        /* \"#utility.yul\":29374:29379   */\n      0x00\n        /* \"#utility.yul\":29405:29411   */\n      dup2\n        /* \"#utility.yul\":29399:29412   */\n      mload\n        /* \"#utility.yul\":29390:29412   */\n      swap1\n      pop\n        /* \"#utility.yul\":29421:29454   */\n      tag_629\n        /* \"#utility.yul\":29448:29453   */\n      dup2\n        /* \"#utility.yul\":29421:29454   */\n      tag_276\n      jump\t// in\n    tag_629:\n        /* \"#utility.yul\":29317:29460   */\n      swap3\n      swap2\n      pop\n      pop\n      jump\t// out\n        /* \"#utility.yul\":29466:29817   */\n    tag_194:\n        /* \"#utility.yul\":29536:29542   */\n      0x00\n        /* \"#utility.yul\":29585:29587   */\n      0x20\n        /* \"#utility.yul\":29573:29582   */\n      dup3\n        /* \"#utility.yul\":29564:29571   */\n      dup5\n        /* \"#utility.yul\":29560:29583   */\n      sub\n        /* \"#utility.yul\":29556:29588   */\n      slt\n        /* \"#utility.yul\":29553:29672   */\n      iszero\n      tag_631\n      jumpi\n        /* \"#utility.yul\":29591:29670   */\n      tag_632\n      tag_251\n      jump\t// in\n    tag_632:\n        /* \"#utility.yul\":29553:29672   */\n    tag_631:\n        /* \"#utility.yul\":29711:29712   */\n      0x00\n        /* \"#utility.yul\":29736:29800   */\n      tag_633\n        /* \"#utility.yul\":29792:29799   */\n      dup5\n        /* \"#utility.yul\":29783:29789   */\n      dup3\n        /* \"#utility.yul\":29772:29781   */\n      dup6\n        /* \"#utility.yul\":29768:29790   */\n      add\n        /* \"#utility.yul\":29736:29800   */\n      tag_309\n      jump\t// in\n    tag_633:\n        /* \"#utility.yul\":29726:29800   */\n      swap2\n      pop\n        /* \"#utility.yul\":29682:29810   */\n      pop\n        /* \"#utility.yul\":29466:29817   */\n      swap3\n      swap2\n      pop\n      pop\n      jump\t// out\n        /* \"#utility.yul\":29845:30159   */\n    tag_310:\n        /* \"#utility.yul\":29941:29944   */\n      0x00\n        /* \"#utility.yul\":29962:30032   */\n      tag_635\n        /* \"#utility.yul\":30025:30031   */\n      dup4\n        /* \"#utility.yul\":30020:30023   */\n      dup6\n        /* \"#utility.yul\":29962:30032   */\n      tag_307\n      jump\t// in\n    tag_635:\n        /* \"#utility.yul\":29955:30032   */\n      swap4\n      pop\n        /* \"#utility.yul\":30042:30098   */\n      tag_636\n        /* \"#utility.yul\":30091:30097   */\n      dup4\n        /* \"#utility.yul\":30086:30089   */\n      dup6\n        /* \"#utility.yul\":30079:30084   */\n      dup5\n        /* \"#utility.yul\":30042:30098   */\n      tag_267\n      jump\t// in\n    tag_636:\n        /* \"#utility.yul\":30123:30152   */\n      tag_637\n        /* \"#utility.yul\":30145:30151   */\n      dup4\n        /* \"#utility.yul\":30123:30152   */\n      tag_254\n      jump\t// in\n    tag_637:\n        /* \"#utility.yul\":30118:30121   */\n      dup5\n        /* \"#utility.yul\":30114:30153   */\n      add\n        /* \"#utility.yul\":30107:30153   */\n      swap1\n      pop\n        /* \"#utility.yul\":29845:30159   */\n      swap4\n      swap3\n      pop\n      pop\n      pop\n      jump\t// out\n        /* \"#utility.yul\":30165:31043   */\n    tag_196:\n        /* \"#utility.yul\":30426:30430   */\n      0x00\n        /* \"#utility.yul\":30464:30467   */\n      0xa0\n        /* \"#utility.yul\":30453:30462   */\n      dup3\n        /* \"#utility.yul\":30449:30468   */\n      add\n        /* \"#utility.yul\":30441:30468   */\n      swap1\n      pop\n        /* \"#utility.yul\":30478:30549   */\n      tag_639\n        /* \"#utility.yul\":30546:30547   */\n      0x00\n        /* \"#utility.yul\":30535:30544   */\n      dup4\n        /* \"#utility.yul\":30531:30548   */\n      add\n        /* \"#utility.yul\":30522:30528   */\n      dup11\n        /* \"#utility.yul\":30478:30549   */\n      tag_292\n      jump\t// in\n    tag_639:\n        /* \"#utility.yul\":30559:30631   */\n      tag_640\n        /* \"#utility.yul\":30627:30629   */\n      0x20\n        /* \"#utility.yul\":30616:30625   */\n      dup4\n        /* \"#utility.yul\":30612:30630   */\n      add\n        /* \"#utility.yul\":30603:30609   */\n      dup10\n        /* \"#utility.yul\":30559:30631   */\n      tag_281\n      jump\t// in\n    tag_640:\n        /* \"#utility.yul\":30678:30687   */\n      dup2\n        /* \"#utility.yul\":30672:30676   */\n      dup2\n        /* \"#utility.yul\":30668:30688   */\n      sub\n        /* \"#utility.yul\":30663:30665   */\n      0x40\n        /* \"#utility.yul\":30652:30661   */\n      dup4\n        /* \"#utility.yul\":30648:30666   */\n      add\n        /* \"#utility.yul\":30641:30689   */\n      mstore\n        /* \"#utility.yul\":30706:30792   */\n      tag_641\n        /* \"#utility.yul\":30787:30791   */\n      dup2\n        /* \"#utility.yul\":30778:30784   */\n      dup8\n        /* \"#utility.yul\":30770:30776   */\n      dup10\n        /* \"#utility.yul\":30706:30792   */\n      tag_310\n      jump\t// in\n    tag_641:\n        /* \"#utility.yul\":30698:30792   */\n      swap1\n      pop\n        /* \"#utility.yul\":30802:30874   */\n      tag_642\n        /* \"#utility.yul\":30870:30872   */\n      0x60\n        /* \"#utility.yul\":30859:30868   */\n      dup4\n        /* \"#utility.yul\":30855:30873   */\n      add\n        /* \"#utility.yul\":30846:30852   */\n      dup7\n        /* \"#utility.yul\":30802:30874   */\n      tag_281\n      jump\t// in\n    tag_642:\n        /* \"#utility.yul\":30922:30931   */\n      dup2\n        /* \"#utility.yul\":30916:30920   */\n      dup2\n        /* \"#utility.yul\":30912:30932   */\n      sub\n        /* \"#utility.yul\":30906:30909   */\n      0x80\n        /* \"#utility.yul\":30895:30904   */\n      dup4\n        /* \"#utility.yul\":30891:30910   */\n      add\n        /* \"#utility.yul\":30884:30933   */\n      mstore\n        /* \"#utility.yul\":30950:31036   */\n      tag_643\n        /* \"#utility.yul\":31031:31035   */\n      dup2\n        /* \"#utility.yul\":31022:31028   */\n      dup5\n        /* \"#utility.yul\":31014:31020   */\n      dup7\n        /* \"#utility.yul\":30950:31036   */\n      tag_310\n      jump\t// in\n    tag_643:\n        /* \"#utility.yul\":30942:31036   */\n      swap1\n      pop\n        /* \"#utility.yul\":30165:31043   */\n      swap9\n      swap8\n      pop\n      pop\n      pop\n      pop\n      pop\n      pop\n      pop\n      pop\n      jump\t// out\n        /* \"#utility.yul\":31090:32174   */\n    tag_311:\n        /* \"#utility.yul\":31167:31172   */\n      0x00\n        /* \"#utility.yul\":31211:31215   */\n      0x60\n        /* \"#utility.yul\":31199:31208   */\n      dup3\n        /* \"#utility.yul\":31194:31197   */\n      dup5\n        /* \"#utility.yul\":31190:31209   */\n      sub\n        /* \"#utility.yul\":31186:31216   */\n      slt\n        /* \"#utility.yul\":31183:31300   */\n      iszero\n      tag_645\n      jumpi\n        /* \"#utility.yul\":31219:31298   */\n      tag_646\n      tag_273\n      jump\t// in\n    tag_646:\n        /* \"#utility.yul\":31183:31300   */\n    tag_645:\n        /* \"#utility.yul\":31318:31339   */\n      tag_647\n        /* \"#utility.yul\":31334:31338   */\n      0x60\n        /* \"#utility.yul\":31318:31339   */\n      tag_256\n      jump\t// in\n    tag_647:\n        /* \"#utility.yul\":31309:31339   */\n      swap1\n      pop\n        /* \"#utility.yul\":31427:31428   */\n      0x00\n        /* \"#utility.yul\":31416:31425   */\n      dup3\n        /* \"#utility.yul\":31412:31429   */\n      add\n        /* \"#utility.yul\":31399:31430   */\n      calldataload\n        /* \"#utility.yul\":31457:31475   */\n      0xffffffffffffffff\n        /* \"#utility.yul\":31449:31455   */\n      dup2\n        /* \"#utility.yul\":31446:31476   */\n      gt\n        /* \"#utility.yul\":31443:31560   */\n      iszero\n      tag_648\n      jumpi\n        /* \"#utility.yul\":31479:31558   */\n      tag_649\n      tag_274\n      jump\t// in\n    tag_649:\n        /* \"#utility.yul\":31443:31560   */\n    tag_648:\n        /* \"#utility.yul\":31599:31657   */\n      tag_650\n        /* \"#utility.yul\":31653:31656   */\n      dup5\n        /* \"#utility.yul\":31644:31650   */\n      dup3\n        /* \"#utility.yul\":31633:31642   */\n      dup6\n        /* \"#utility.yul\":31629:31651   */\n      add\n        /* \"#utility.yul\":31599:31657   */\n      tag_269\n      jump\t// in\n    tag_650:\n        /* \"#utility.yul\":31592:31596   */\n      0x00\n        /* \"#utility.yul\":31585:31590   */\n      dup4\n        /* \"#utility.yul\":31581:31597   */\n      add\n        /* \"#utility.yul\":31574:31658   */\n      mstore\n        /* \"#utility.yul\":31349:31669   */\n      pop\n        /* \"#utility.yul\":31730:31732   */\n      0x20\n        /* \"#utility.yul\":31771:31820   */\n      tag_651\n        /* \"#utility.yul\":31816:31819   */\n      dup5\n        /* \"#utility.yul\":31807:31813   */\n      dup3\n        /* \"#utility.yul\":31796:31805   */\n      dup6\n        /* \"#utility.yul\":31792:31814   */\n      add\n        /* \"#utility.yul\":31771:31820   */\n      tag_261\n      jump\t// in\n    tag_651:\n        /* \"#utility.yul\":31764:31768   */\n      0x20\n        /* \"#utility.yul\":31757:31762   */\n      dup4\n        /* \"#utility.yul\":31753:31769   */\n      add\n        /* \"#utility.yul\":31746:31821   */\n      mstore\n        /* \"#utility.yul\":31679:31832   */\n      pop\n        /* \"#utility.yul\":31924:31926   */\n      0x40\n        /* \"#utility.yul\":31913:31922   */\n      dup3\n        /* \"#utility.yul\":31909:31927   */\n      add\n        /* \"#utility.yul\":31896:31928   */\n      calldataload\n        /* \"#utility.yul\":31955:31973   */\n      0xffffffffffffffff\n        /* \"#utility.yul\":31947:31953   */\n      dup2\n        /* \"#utility.yul\":31944:31974   */\n      gt\n        /* \"#utility.yul\":31941:32058   */\n      iszero\n      tag_652\n      jumpi\n        /* \"#utility.yul\":31977:32056   */\n      tag_653\n      tag_274\n      jump\t// in\n    tag_653:\n        /* \"#utility.yul\":31941:32058   */\n    tag_652:\n        /* \"#utility.yul\":32097:32155   */\n      tag_654\n        /* \"#utility.yul\":32151:32154   */\n      dup5\n        /* \"#utility.yul\":32142:32148   */\n      dup3\n        /* \"#utility.yul\":32131:32140   */\n      dup6\n        /* \"#utility.yul\":32127:32149   */\n      add\n        /* \"#utility.yul\":32097:32155   */\n      tag_269\n      jump\t// in\n    tag_654:\n        /* \"#utility.yul\":32090:32094   */\n      0x40\n        /* \"#utility.yul\":32083:32088   */\n      dup4\n        /* \"#utility.yul\":32079:32095   */\n      add\n        /* \"#utility.yul\":32072:32156   */\n      mstore\n        /* \"#utility.yul\":31842:32167   */\n      pop\n        /* \"#utility.yul\":31090:32174   */\n      swap3\n      swap2\n      pop\n      pop\n      jump\t// out\n        /* \"#utility.yul\":32180:32725   */\n    tag_200:\n        /* \"#utility.yul\":32267:32273   */\n      0x00\n        /* \"#utility.yul\":32316:32318   */\n      0x20\n        /* \"#utility.yul\":32304:32313   */\n      dup3\n        /* \"#utility.yul\":32295:32302   */\n      dup5\n        /* \"#utility.yul\":32291:32314   */\n      sub\n        /* \"#utility.yul\":32287:32319   */\n      slt\n        /* \"#utility.yul\":32284:32403   */\n      iszero\n      tag_656\n      jumpi\n        /* \"#utility.yul\":32322:32401   */\n      tag_657\n      tag_251\n      jump\t// in\n    tag_657:\n        /* \"#utility.yul\":32284:32403   */\n    tag_656:\n        /* \"#utility.yul\":32470:32471   */\n      0x00\n        /* \"#utility.yul\":32459:32468   */\n      dup3\n        /* \"#utility.yul\":32455:32472   */\n      add\n        /* \"#utility.yul\":32442:32473   */\n      calldataload\n        /* \"#utility.yul\":32500:32518   */\n      0xffffffffffffffff\n        /* \"#utility.yul\":32492:32498   */\n      dup2\n        /* \"#utility.yul\":32489:32519   */\n      gt\n        /* \"#utility.yul\":32486:32603   */\n      iszero\n      tag_658\n      jumpi\n        /* \"#utility.yul\":32522:32601   */\n      tag_659\n      tag_252\n      jump\t// in\n    tag_659:\n        /* \"#utility.yul\":32486:32603   */\n    tag_658:\n        /* \"#utility.yul\":32627:32708   */\n      tag_660\n        /* \"#utility.yul\":32700:32707   */\n      dup5\n        /* \"#utility.yul\":32691:32697   */\n      dup3\n        /* \"#utility.yul\":32680:32689   */\n      dup6\n        /* \"#utility.yul\":32676:32698   */\n      add\n        /* \"#utility.yul\":32627:32708   */\n      tag_311\n      jump\t// in\n    tag_660:\n        /* \"#utility.yul\":32617:32708   */\n      swap2\n      pop\n        /* \"#utility.yul\":32413:32718   */\n      pop\n        /* \"#utility.yul\":32180:32725   */\n      swap3\n      swap2\n      pop\n      pop\n      jump\t// out\n        /* \"#utility.yul\":32731:32835   */\n    tag_312:\n        /* \"#utility.yul\":32776:32783   */\n      0x00\n        /* \"#utility.yul\":32805:32829   */\n      tag_662\n        /* \"#utility.yul\":32823:32828   */\n      dup3\n        /* \"#utility.yul\":32805:32829   */\n      tag_290\n      jump\t// in\n    tag_662:\n        /* \"#utility.yul\":32794:32829   */\n      swap1\n      pop\n        /* \"#utility.yul\":32731:32835   */\n      swap2\n      swap1\n      pop\n      jump\t// out\n        /* \"#utility.yul\":32841:32979   */\n    tag_313:\n        /* \"#utility.yul\":32922:32954   */\n      tag_664\n        /* \"#utility.yul\":32948:32953   */\n      dup2\n        /* \"#utility.yul\":32922:32954   */\n      tag_312\n      jump\t// in\n    tag_664:\n        /* \"#utility.yul\":32915:32920   */\n      dup2\n        /* \"#utility.yul\":32912:32955   */\n      eq\n        /* \"#utility.yul\":32902:32973   */\n      tag_665\n      jumpi\n        /* \"#utility.yul\":32969:32970   */\n      0x00\n        /* \"#utility.yul\":32966:32967   */\n      0x00\n        /* \"#utility.yul\":32959:32971   */\n      revert\n        /* \"#utility.yul\":32902:32973   */\n    tag_665:\n        /* \"#utility.yul\":32841:32979   */\n      pop\n      jump\t// out\n        /* \"#utility.yul\":32985:33144   */\n    tag_314:\n        /* \"#utility.yul\":33050:33055   */\n      0x00\n        /* \"#utility.yul\":33081:33087   */\n      dup2\n        /* \"#utility.yul\":33075:33088   */\n      mload\n        /* \"#utility.yul\":33066:33088   */\n      swap1\n      pop\n        /* \"#utility.yul\":33097:33138   */\n      tag_667\n        /* \"#utility.yul\":33132:33137   */\n      dup2\n        /* \"#utility.yul\":33097:33138   */\n      tag_313\n      jump\t// in\n    tag_667:\n        /* \"#utility.yul\":32985:33144   */\n      swap3\n      swap2\n      pop\n      pop\n      jump\t// out\n        /* \"#utility.yul\":33150:33517   */\n    tag_202:\n        /* \"#utility.yul\":33228:33234   */\n      0x00\n        /* \"#utility.yul\":33277:33279   */\n      0x20\n        /* \"#utility.yul\":33265:33274   */\n      dup3\n        /* \"#utility.yul\":33256:33263   */\n      dup5\n        /* \"#utility.yul\":33252:33275   */\n      sub\n        /* \"#utility.yul\":33248:33280   */\n      slt\n        /* \"#utility.yul\":33245:33364   */\n      iszero\n      tag_669\n      jumpi\n        /* \"#utility.yul\":33283:33362   */\n      tag_670\n      tag_251\n      jump\t// in\n    tag_670:\n        /* \"#utility.yul\":33245:33364   */\n    tag_669:\n        /* \"#utility.yul\":33403:33404   */\n      0x00\n        /* \"#utility.yul\":33428:33500   */\n      tag_671\n        /* \"#utility.yul\":33492:33499   */\n      dup5\n        /* \"#utility.yul\":33483:33489   */\n      dup3\n        /* \"#utility.yul\":33472:33481   */\n      dup6\n        /* \"#utility.yul\":33468:33490   */\n      add\n        /* \"#utility.yul\":33428:33500   */\n      tag_314\n      jump\t// in\n    tag_671:\n        /* \"#utility.yul\":33418:33500   */\n      swap2\n      pop\n        /* \"#utility.yul\":33374:33510   */\n      pop\n        /* \"#utility.yul\":33150:33517   */\n      swap3\n      swap2\n      pop\n      pop\n      jump\t// out\n        /* \"#utility.yul\":33523:33965   */\n    tag_212:\n        /* \"#utility.yul\":33672:33676   */\n      0x00\n        /* \"#utility.yul\":33710:33712   */\n      0x60\n        /* \"#utility.yul\":33699:33708   */\n      dup3\n        /* \"#utility.yul\":33695:33713   */\n      add\n        /* \"#utility.yul\":33687:33713   */\n      swap1\n      pop\n        /* \"#utility.yul\":33723:33794   */\n      tag_673\n        /* \"#utility.yul\":33791:33792   */\n      0x00\n        /* \"#utility.yul\":33780:33789   */\n      dup4\n        /* \"#utility.yul\":33776:33793   */\n      add\n        /* \"#utility.yul\":33767:33773   */\n      dup7\n        /* \"#utility.yul\":33723:33794   */\n      tag_292\n      jump\t// in\n    tag_673:\n        /* \"#utility.yul\":33804:33876   */\n      tag_674\n        /* \"#utility.yul\":33872:33874   */\n      0x20\n        /* \"#utility.yul\":33861:33870   */\n      dup4\n        /* \"#utility.yul\":33857:33875   */\n      add\n        /* \"#utility.yul\":33848:33854   */\n      dup6\n        /* \"#utility.yul\":33804:33876   */\n      tag_292\n      jump\t// in\n    tag_674:\n        /* \"#utility.yul\":33886:33958   */\n      tag_675\n        /* \"#utility.yul\":33954:33956   */\n      0x40\n        /* \"#utility.yul\":33943:33952   */\n      dup4\n        /* \"#utility.yul\":33939:33957   */\n      add\n        /* \"#utility.yul\":33930:33936   */\n      dup5\n        /* \"#utility.yul\":33886:33958   */\n      tag_281\n      jump\t// in\n    tag_675:\n        /* \"#utility.yul\":33523:33965   */\n      swap5\n      swap4\n      pop\n      pop\n      pop\n      pop\n      jump\t// out\n        /* \"#utility.yul\":33971:34061   */\n    tag_315:\n        /* \"#utility.yul\":34005:34012   */\n      0x00\n        /* \"#utility.yul\":34048:34053   */\n      dup2\n        /* \"#utility.yul\":34041:34054   */\n      iszero\n        /* \"#utility.yul\":34034:34055   */\n      iszero\n        /* \"#utility.yul\":34023:34055   */\n      swap1\n      pop\n        /* \"#utility.yul\":33971:34061   */\n      swap2\n      swap1\n      pop\n      jump\t// out\n        /* \"#utility.yul\":34067:34183   */\n    tag_316:\n        /* \"#utility.yul\":34137:34158   */\n      tag_678\n        /* \"#utility.yul\":34152:34157   */\n      dup2\n        /* \"#utility.yul\":34137:34158   */\n      tag_315\n      jump\t// in\n    tag_678:\n        /* \"#utility.yul\":34130:34135   */\n      dup2\n        /* \"#utility.yul\":34127:34159   */\n      eq\n        /* \"#utility.yul\":34117:34177   */\n      tag_679\n      jumpi\n        /* \"#utility.yul\":34173:34174   */\n      0x00\n        /* \"#utility.yul\":34170:34171   */\n      0x00\n        /* \"#utility.yul\":34163:34175   */\n      revert\n        /* \"#utility.yul\":34117:34177   */\n    tag_679:\n        /* \"#utility.yul\":34067:34183   */\n      pop\n      jump\t// out\n        /* \"#utility.yul\":34189:34326   */\n    tag_317:\n        /* \"#utility.yul\":34243:34248   */\n      0x00\n        /* \"#utility.yul\":34274:34280   */\n      dup2\n        /* \"#utility.yul\":34268:34281   */\n      mload\n        /* \"#utility.yul\":34259:34281   */\n      swap1\n      pop\n        /* \"#utility.yul\":34290:34320   */\n      tag_681\n        /* \"#utility.yul\":34314:34319   */\n      dup2\n        /* \"#utility.yul\":34290:34320   */\n      tag_316\n      jump\t// in\n    tag_681:\n        /* \"#utility.yul\":34189:34326   */\n      swap3\n      swap2\n      pop\n      pop\n      jump\t// out\n        /* \"#utility.yul\":34332:34677   */\n    tag_220:\n        /* \"#utility.yul\":34399:34405   */\n      0x00\n        /* \"#utility.yul\":34448:34450   */\n      0x20\n        /* \"#utility.yul\":34436:34445   */\n      dup3\n        /* \"#utility.yul\":34427:34434   */\n      dup5\n        /* \"#utility.yul\":34423:34446   */\n      sub\n        /* \"#utility.yul\":34419:34451   */\n      slt\n        /* \"#utility.yul\":34416:34535   */\n      iszero\n      tag_683\n      jumpi\n        /* \"#utility.yul\":34454:34533   */\n      tag_684\n      tag_251\n      jump\t// in\n    tag_684:\n        /* \"#utility.yul\":34416:34535   */\n    tag_683:\n        /* \"#utility.yul\":34574:34575   */\n      0x00\n        /* \"#utility.yul\":34599:34660   */\n      tag_685\n        /* \"#utility.yul\":34652:34659   */\n      dup5\n        /* \"#utility.yul\":34643:34649   */\n      dup3\n        /* \"#utility.yul\":34632:34641   */\n      dup6\n        /* \"#utility.yul\":34628:34650   */\n      add\n        /* \"#utility.yul\":34599:34660   */\n      tag_317\n      jump\t// in\n    tag_685:\n        /* \"#utility.yul\":34589:34660   */\n      swap2\n      pop\n        /* \"#utility.yul\":34545:34670   */\n      pop\n        /* \"#utility.yul\":34332:34677   */\n      swap3\n      swap2\n      pop\n      pop\n      jump\t// out\n        /* \"#utility.yul\":34683:34852   */\n    tag_318:\n        /* \"#utility.yul\":34767:34778   */\n      0x00\n        /* \"#utility.yul\":34801:34807   */\n      dup3\n        /* \"#utility.yul\":34796:34799   */\n      dup3\n        /* \"#utility.yul\":34789:34808   */\n      mstore\n        /* \"#utility.yul\":34841:34845   */\n      0x20\n        /* \"#utility.yul\":34836:34839   */\n      dup3\n        /* \"#utility.yul\":34832:34846   */\n      add\n        /* \"#utility.yul\":34817:34846   */\n      swap1\n      pop\n        /* \"#utility.yul\":34683:34852   */\n      swap3\n      swap2\n      pop\n      pop\n      jump\t// out\n        /* \"#utility.yul\":34858:35081   */\n    tag_319:\n        /* \"#utility.yul\":34998:35032   */\n      0x5472616e7366657248656c7065723a205452414e534645525f46524f4d5f4641\n        /* \"#utility.yul\":34994:34995   */\n      0x00\n        /* \"#utility.yul\":34986:34992   */\n      dup3\n        /* \"#utility.yul\":34982:34996   */\n      add\n        /* \"#utility.yul\":34975:35033   */\n      mstore\n        /* \"#utility.yul\":35067:35073   */\n      0x494c454400000000000000000000000000000000000000000000000000000000\n        /* \"#utility.yul\":35062:35064   */\n      0x20\n        /* \"#utility.yul\":35054:35060   */\n      dup3\n        /* \"#utility.yul\":35050:35065   */\n      add\n        /* \"#utility.yul\":35043:35074   */\n      mstore\n        /* \"#utility.yul\":34858:35081   */\n      pop\n      jump\t// out\n        /* \"#utility.yul\":35087:35453   */\n    tag_320:\n        /* \"#utility.yul\":35229:35232   */\n      0x00\n        /* \"#utility.yul\":35250:35317   */\n      tag_689\n        /* \"#utility.yul\":35314:35316   */\n      0x24\n        /* \"#utility.yul\":35309:35312   */\n      dup4\n        /* \"#utility.yul\":35250:35317   */\n      tag_318\n      jump\t// in\n    tag_689:\n        /* \"#utility.yul\":35243:35317   */\n      swap2\n      pop\n        /* \"#utility.yul\":35326:35419   */\n      tag_690\n        /* \"#utility.yul\":35415:35418   */\n      dup3\n        /* \"#utility.yul\":35326:35419   */\n      tag_319\n      jump\t// in\n    tag_690:\n        /* \"#utility.yul\":35444:35446   */\n      0x40\n        /* \"#utility.yul\":35439:35442   */\n      dup3\n        /* \"#utility.yul\":35435:35447   */\n      add\n        /* \"#utility.yul\":35428:35447   */\n      swap1\n      pop\n        /* \"#utility.yul\":35087:35453   */\n      swap2\n      swap1\n      pop\n      jump\t// out\n        /* \"#utility.yul\":35459:35878   */\n    tag_223:\n        /* \"#utility.yul\":35625:35629   */\n      0x00\n        /* \"#utility.yul\":35663:35665   */\n      0x20\n        /* \"#utility.yul\":35652:35661   */\n      dup3\n        /* \"#utility.yul\":35648:35666   */\n      add\n        /* \"#utility.yul\":35640:35666   */\n      swap1\n      pop\n        /* \"#utility.yul\":35712:35721   */\n      dup2\n        /* \"#utility.yul\":35706:35710   */\n      dup2\n        /* \"#utility.yul\":35702:35722   */\n      sub\n        /* \"#utility.yul\":35698:35699   */\n      0x00\n        /* \"#utility.yul\":35687:35696   */\n      dup4\n        /* \"#utility.yul\":35683:35700   */\n      add\n        /* \"#utility.yul\":35676:35723   */\n      mstore\n        /* \"#utility.yul\":35740:35871   */\n      tag_692\n        /* \"#utility.yul\":35866:35870   */\n      dup2\n        /* \"#utility.yul\":35740:35871   */\n      tag_320\n      jump\t// in\n    tag_692:\n        /* \"#utility.yul\":35732:35871   */\n      swap1\n      pop\n        /* \"#utility.yul\":35459:35878   */\n      swap2\n      swap1\n      pop\n      jump\t// out\n        /* \"#utility.yul\":35884:36106   */\n    tag_321:\n        /* \"#utility.yul\":36024:36058   */\n      0x5472616e7366657248656c7065723a204554485f5452414e534645525f464149\n        /* \"#utility.yul\":36020:36021   */\n      0x00\n        /* \"#utility.yul\":36012:36018   */\n      dup3\n        /* \"#utility.yul\":36008:36022   */\n      add\n        /* \"#utility.yul\":36001:36059   */\n      mstore\n        /* \"#utility.yul\":36093:36098   */\n      0x4c45440000000000000000000000000000000000000000000000000000000000\n        /* \"#utility.yul\":36088:36090   */\n      0x20\n        /* \"#utility.yul\":36080:36086   */\n      dup3\n        /* \"#utility.yul\":36076:36091   */\n      add\n        /* \"#utility.yul\":36069:36099   */\n      mstore\n        /* \"#utility.yul\":35884:36106   */\n      pop\n      jump\t// out\n        /* \"#utility.yul\":36112:36478   */\n    tag_322:\n        /* \"#utility.yul\":36254:36257   */\n      0x00\n        /* \"#utility.yul\":36275:36342   */\n      tag_695\n        /* \"#utility.yul\":36339:36341   */\n      0x23\n        /* \"#utility.yul\":36334:36337   */\n      dup4\n        /* \"#utility.yul\":36275:36342   */\n      tag_318\n      jump\t// in\n    tag_695:\n        /* \"#utility.yul\":36268:36342   */\n      swap2\n      pop\n        /* \"#utility.yul\":36351:36444   */\n      tag_696\n        /* \"#utility.yul\":36440:36443   */\n      dup3\n        /* \"#utility.yul\":36351:36444   */\n      tag_321\n      jump\t// in\n    tag_696:\n        /* \"#utility.yul\":36469:36471   */\n      0x40\n        /* \"#utility.yul\":36464:36467   */\n      dup3\n        /* \"#utility.yul\":36460:36472   */\n      add\n        /* \"#utility.yul\":36453:36472   */\n      swap1\n      pop\n        /* \"#utility.yul\":36112:36478   */\n      swap2\n      swap1\n      pop\n      jump\t// out\n        /* \"#utility.yul\":36484:36903   */\n    tag_236:\n        /* \"#utility.yul\":36650:36654   */\n      0x00\n        /* \"#utility.yul\":36688:36690   */\n      0x20\n        /* \"#utility.yul\":36677:36686   */\n      dup3\n        /* \"#utility.yul\":36673:36691   */\n      add\n        /* \"#utility.yul\":36665:36691   */\n      swap1\n      pop\n        /* \"#utility.yul\":36737:36746   */\n      dup2\n        /* \"#utility.yul\":36731:36735   */\n      dup2\n        /* \"#utility.yul\":36727:36747   */\n      sub\n        /* \"#utility.yul\":36723:36724   */\n      0x00\n        /* \"#utility.yul\":36712:36721   */\n      dup4\n        /* \"#utility.yul\":36708:36725   */\n      add\n        /* \"#utility.yul\":36701:36748   */\n      mstore\n        /* \"#utility.yul\":36765:36896   */\n      tag_698\n        /* \"#utility.yul\":36891:36895   */\n      dup2\n        /* \"#utility.yul\":36765:36896   */\n      tag_322\n      jump\t// in\n    tag_698:\n        /* \"#utility.yul\":36757:36896   */\n      swap1\n      pop\n        /* \"#utility.yul\":36484:36903   */\n      swap2\n      swap1\n      pop\n      jump\t// out\n        /* \"#utility.yul\":36909:37241   */\n    tag_239:\n        /* \"#utility.yul\":37030:37034   */\n      0x00\n        /* \"#utility.yul\":37068:37070   */\n      0x40\n        /* \"#utility.yul\":37057:37066   */\n      dup3\n        /* \"#utility.yul\":37053:37071   */\n      add\n        /* \"#utility.yul\":37045:37071   */\n      swap1\n      pop\n        /* \"#utility.yul\":37081:37152   */\n      tag_700\n        /* \"#utility.yul\":37149:37150   */\n      0x00\n        /* \"#utility.yul\":37138:37147   */\n      dup4\n        /* \"#utility.yul\":37134:37151   */\n      add\n        /* \"#utility.yul\":37125:37131   */\n      dup6\n        /* \"#utility.yul\":37081:37152   */\n      tag_292\n      jump\t// in\n    tag_700:\n        /* \"#utility.yul\":37162:37234   */\n      tag_701\n        /* \"#utility.yul\":37230:37232   */\n      0x20\n        /* \"#utility.yul\":37219:37228   */\n      dup4\n        /* \"#utility.yul\":37215:37233   */\n      add\n        /* \"#utility.yul\":37206:37212   */\n      dup5\n        /* \"#utility.yul\":37162:37234   */\n      tag_281\n      jump\t// in\n    tag_701:\n        /* \"#utility.yul\":36909:37241   */\n      swap4\n      swap3\n      pop\n      pop\n      pop\n      jump\t// out\n        /* \"#utility.yul\":37247:37428   */\n    tag_323:\n        /* \"#utility.yul\":37387:37420   */\n      0x5472616e7366657248656c7065723a205452414e534645525f4641494c454400\n        /* \"#utility.yul\":37383:37384   */\n      0x00\n        /* \"#utility.yul\":37375:37381   */\n      dup3\n        /* \"#utility.yul\":37371:37385   */\n      add\n        /* \"#utility.yul\":37364:37421   */\n      mstore\n        /* \"#utility.yul\":37247:37428   */\n      pop\n      jump\t// out\n        /* \"#utility.yul\":37434:37800   */\n    tag_324:\n        /* \"#utility.yul\":37576:37579   */\n      0x00\n        /* \"#utility.yul\":37597:37664   */\n      tag_704\n        /* \"#utility.yul\":37661:37663   */\n      0x1f\n        /* \"#utility.yul\":37656:37659   */\n      dup4\n        /* \"#utility.yul\":37597:37664   */\n      tag_318\n      jump\t// in\n    tag_704:\n        /* \"#utility.yul\":37590:37664   */\n      swap2\n      pop\n        /* \"#utility.yul\":37673:37766   */\n      tag_705\n        /* \"#utility.yul\":37762:37765   */\n      dup3\n        /* \"#utility.yul\":37673:37766   */\n      tag_323\n      jump\t// in\n    tag_705:\n        /* \"#utility.yul\":37791:37793   */\n      0x20\n        /* \"#utility.yul\":37786:37789   */\n      dup3\n        /* \"#utility.yul\":37782:37794   */\n      add\n        /* \"#utility.yul\":37775:37794   */\n      swap1\n      pop\n        /* \"#utility.yul\":37434:37800   */\n      swap2\n      swap1\n      pop\n      jump\t// out\n        /* \"#utility.yul\":37806:38225   */\n    tag_249:\n        /* \"#utility.yul\":37972:37976   */\n      0x00\n        /* \"#utility.yul\":38010:38012   */\n      0x20\n        /* \"#utility.yul\":37999:38008   */\n      dup3\n        /* \"#utility.yul\":37995:38013   */\n      add\n        /* \"#utility.yul\":37987:38013   */\n      swap1\n      pop\n        /* \"#utility.yul\":38059:38068   */\n      dup2\n        /* \"#utility.yul\":38053:38057   */\n      dup2\n        /* \"#utility.yul\":38049:38069   */\n      sub\n        /* \"#utility.yul\":38045:38046   */\n      0x00\n        /* \"#utility.yul\":38034:38043   */\n      dup4\n        /* \"#utility.yul\":38030:38047   */\n      add\n        /* \"#utility.yul\":38023:38070   */\n      mstore\n        /* \"#utility.yul\":38087:38218   */\n      tag_707\n        /* \"#utility.yul\":38213:38217   */\n      dup2\n        /* \"#utility.yul\":38087:38218   */\n      tag_324\n      jump\t// in\n    tag_707:\n        /* \"#utility.yul\":38079:38218   */\n      swap1\n      pop\n        /* \"#utility.yul\":37806:38225   */\n      swap2\n      swap1\n      pop\n      jump\t// out\n\n    auxdata: 0xa2646970667358221220f1d93d205a6d8b50bbe4c97802b4f044536743fed7701736595441efeb6789d564736f6c634300081b0033\n}\n",
				"bytecode": {
					"linkReferences": {},
					"object": "60a06040526040516127cd3803806127cd83398181016040528101906100259190610266565b80335f73ffffffffffffffffffffffffffffffffffffffff168173ffffffffffffffffffffffffffffffffffffffff1603610097575f6040517f1e4fbdf700000000000000000000000000000000000000000000000000000000815260040161008e91906102a0565b60405180910390fd5b6100a68161014760201b60201c565b505f73ffffffffffffffffffffffffffffffffffffffff168173ffffffffffffffffffffffffffffffffffffffff160361010c576040517f5008268300000000000000000000000000000000000000000000000000000000815260040160405180910390fd5b8073ffffffffffffffffffffffffffffffffffffffff1660808173ffffffffffffffffffffffffffffffffffffffff168152505050506102b9565b5f5f5f9054906101000a900473ffffffffffffffffffffffffffffffffffffffff169050815f5f6101000a81548173ffffffffffffffffffffffffffffffffffffffff021916908373ffffffffffffffffffffffffffffffffffffffff1602179055508173ffffffffffffffffffffffffffffffffffffffff168173ffffffffffffffffffffffffffffffffffffffff167f8be0079c531659141344cd1fd0a4f28419497f9722a3daafe3b4186f6b6457e060405160405180910390a35050565b5f5ffd5b5f73ffffffffffffffffffffffffffffffffffffffff82169050919050565b5f6102358261020c565b9050919050565b6102458161022b565b811461024f575f5ffd5b50565b5f815190506102608161023c565b92915050565b5f6020828403121561027b5761027a610208565b5b5f61028884828501610252565b91505092915050565b61029a8161022b565b82525050565b5f6020820190506102b35f830184610291565b92915050565b6080516124ee6102df5f395f8181610602015281816108350152610c2501526124ee5ff3fe6080604052600436106100c1575f3560e01c80637904a9461161007e578063a279832811610058578063a27983281461022d578063be4f3e8f14610249578063f2fde38b14610286578063f95a54c9146102ae576100c1565b80637904a946146101cb578063879d182d146101e75780638da5cb5b14610203576100c1565b80630c49815b146100c557806359a1aae1146100ed5780635bb769371461011557806367ebb6b214610151578063715018a61461018d57806375d4d8fc146101a3575b5f5ffd5b3480156100d0575f5ffd5b506100eb60048036038101906100e691906114c8565b6102ea565b005b3480156100f8575f5ffd5b50610113600480360381019061010e91906116b4565b6103dd565b005b348015610120575f5ffd5b5061013b6004803603810190610136919061172a565b6103f3565b6040516101489190611793565b60405180910390f35b34801561015c575f5ffd5b50610177600480360381019061017291906117ac565b61042b565b6040516101849190611813565b60405180910390f35b348015610198575f5ffd5b506101a16104c9565b005b3480156101ae575f5ffd5b506101c960048036038101906101c491906118da565b6104dc565b005b6101e560048036038101906101e091906119ad565b610589565b005b61020160048036038101906101fc9190611a73565b610600565b005b34801561020e575f5ffd5b50610217610710565b6040516102249190611b11565b60405180910390f35b61024760048036038101906102429190611b54565b610737565b005b348015610254575f5ffd5b5061026f600480360381019061026a91906117ac565b61075d565b60405161027d929190611c1a565b60405180910390f35b348015610291575f5ffd5b506102ac60048036038101906102a79190611c41565b61077d565b005b3480156102b9575f5ffd5b506102d460048036038101906102cf9190611c6c565b610801565b6040516102e19190611793565b60405180910390f35b6102f2610909565b8051835114158061030557508151815114155b1561033c576040517f947d5a8400000000000000000000000000000000000000000000000000000000815260040160405180910390fd5b5f5f90505b83518110156103d75781818151811061035d5761035c611d08565b5b602002602001015160025f86848151811061037b5761037a611d08565b5b602002602001015181526020019081526020015f208483815181106103a3576103a2611d08565b5b60200260200101516040516103b89190611d87565b9081526020016040518091039020819055508080600101915050610341565b50505050565b6103e5610909565b6103ef8282610990565b5050565b6002602052815f5260405f20818051602081018201805184825260208301602085012081835280955050505050505f91509150505481565b61043361118e565b5f60015f8481526020019081526020015f206040518060400160405290815f820154815260200160018201548152505090505f5f1b815f015114801561047e57505f5f1b8160200151145b156104c057826040517f78d0dbfc0000000000000000000000000000000000000000000000000000000081526004016104b79190611793565b60405180910390fd5b80915050919050565b6104d1610909565b6104da5f610a4c565b565b6104e4610909565b6105838484808060200260200160405190810160405280939291908181526020018383602002808284375f81840152601f19601f820116905080830192505050505050508383808060200260200160405190810160405280939291908181526020015f905b828210156105795784848390506040020180360381019061056a9190611d9d565b81526020019060010190610549565b5050505050610990565b50505050565b348111156105c3576040517fa5fb6be900000000000000000000000000000000000000000000000000000000815260040160405180910390fd5b5f81346105d09190611df5565b90506105f673eeeeeeeeeeeeeeeeeeeeeeeeeeeeeeeeeeeeeeee83838a8a8a8a8a610b0d565b5050505050505050565b7f000000000000000000000000000000000000000000000000000000000000000073ffffffffffffffffffffffffffffffffffffffff163373ffffffffffffffffffffffffffffffffffffffff161461069057336040517fd7f733340000000000000000000000000000000000000000000000000000000081526004016106879190611b11565b60405180910390fd5b5f60015f856020013581526020019081526020015f206040518060400160405290815f82015481526020016001820154815250509050836040015f0135815f01511415806106e957508360400160200135816020015114155b156106fe576106f9848484610d3e565b61070a565b610709848484610d70565b5b50505050565b5f5f5f9054906101000a900473ffffffffffffffffffffffffffffffffffffffff16905090565b61074382333084610e29565b6107538282348a8a8a8a8a610b0d565b5050505050505050565b6001602052805f5260405f205f91509050805f0154908060010154905082565b610785610909565b5f73ffffffffffffffffffffffffffffffffffffffff168173ffffffffffffffffffffffffffffffffffffffff16036107f5575f6040517f1e4fbdf70000000000000000000000000000000000000000000000000000000081526004016107ec9190611b11565b60405180910390fd5b6107fe81610a4c565b50565b5f60025f8481526020019081526020015f20826040516108219190611d87565b90815260200160405180910390205460025f7f000000000000000000000000000000000000000000000000000000000000000073ffffffffffffffffffffffffffffffffffffffff16634e4bc8476040518163ffffffff1660e01b8152600401602060405180830381865afa15801561089c573d5f5f3e3d5ffd5b505050506040513d601f19601f820116820180604052508101906108c09190611e3c565b81526020019081526020015f20866040516108db9190611d87565b908152602001604051809103902054856108f59190611e67565b6108ff9190611ed5565b9050949350505050565b610911610f5c565b73ffffffffffffffffffffffffffffffffffffffff1661092f610710565b73ffffffffffffffffffffffffffffffffffffffff161461098e57610952610f5c565b6040517f118cdaa70000000000000000000000000000000000000000000000000000000081526004016109859190611b11565b60405180910390fd5b565b610998610909565b80518251146109d3576040517f947d5a8400000000000000000000000000000000000000000000000000000000815260040160405180910390fd5b5f5f90505b8251811015610a47578181815181106109f4576109f3611d08565b5b602002602001015160015f858481518110610a1257610a11611d08565b5b602002602001015181526020019081526020015f205f820151815f0155602082015181600101559050508060010190506109d8565b505050565b5f5f5f9054906101000a900473ffffffffffffffffffffffffffffffffffffffff169050815f5f6101000a81548173ffffffffffffffffffffffffffffffffffffffff021916908373ffffffffffffffffffffffffffffffffffffffff1602179055508173ffffffffffffffffffffffffffffffffffffffff168173ffffffffffffffffffffffffffffffffffffffff167f8be0079c531659141344cd1fd0a4f28419497f9722a3daafe3b4186f6b6457e060405160405180910390a35050565b5f5f610b7d8a604051602001610b239190611b11565b6040516020818303038152906040528a8989898080601f0160208091040260200160405190810160405280939291908181526020018383808284375f81840152601f19601f82011690508083019250505050505050610801565b90505f604051806060016040528088888080601f0160208091040260200160405190810160405280939291908181526020018383808284375f81840152601f19601f82011690508083019250505050505050815260200183815260200186868080601f0160208091040260200160405190810160405280939291908181526020018383808284375f81840152601f19601f8201169050808301925050505050505081525090507f000000000000000000000000000000000000000000000000000000000000000073ffffffffffffffffffffffffffffffffffffffff1663dc2031378a610c698b61042b565b8b85604051602001610c7b9190611fb0565b6040516020818303038152906040526040518563ffffffff1660e01b8152600401610ca893929190612018565b60206040518083038185885af1158015610cc4573d5f5f3e3d5ffd5b50505050506040513d601f19601f82011682018060405250810190610ce99190612068565b925087837fe2130893f9792447a89b553600c2619692d63b61479e16a0e3735e250ca078d78d8d8b8b888c8c604051610d2897969594939291906120bf565b60405180910390a3505098975050505050505050565b6040517f7fee69a100000000000000000000000000000000000000000000000000000000815260040160405180910390fd5b5f8282810190610d8091906121bb565b90505f8160400151806020019051810190610d9b919061223d565b90505f825f0151806020019051810190610db5919061223d565b905073eeeeeeeeeeeeeeeeeeeeeeeeeeeeeeeeeeeeeeee73ffffffffffffffffffffffffffffffffffffffff168173ffffffffffffffffffffffffffffffffffffffff1603610e1157610e0c828460200151610f63565b610e21565b610e208183856020015161105e565b5b505050505050565b5f5f8573ffffffffffffffffffffffffffffffffffffffff166323b872dd868686604051602401610e5c93929190612268565b6040516020818303038152906040529060e01b6020820180517bffffffffffffffffffffffffffffffffffffffffffffffffffffffff8381831617835250505050604051610eaa9190611d87565b5f604051808303815f865af19150503d805f8114610ee3576040519150601f19603f3d011682016040523d82523d5f602084013e610ee8565b606091505b5091509150818015610f1557505f81511480610f14575080806020019051810190610f1391906122d2565b5b5b610f54576040517f08c379a0000000000000000000000000000000000000000000000000000000008152600401610f4b9061237d565b60405180910390fd5b505050505050565b5f33905090565b5f8273ffffffffffffffffffffffffffffffffffffffff16825f67ffffffffffffffff811115610f9657610f956111cb565b5b6040519080825280601f01601f191660200182016040528015610fc85781602001600182028036833780820191505090505b50604051610fd69190611d87565b5f6040518083038185875af1925050503d805f8114611010576040519150601f19603f3d011682016040523d82523d5f602084013e611015565b606091505b5050905080611059576040517f08c379a00000000000000000000000000000000000000000000000000000000081526004016110509061240b565b60405180910390fd5b505050565b5f5f8473ffffffffffffffffffffffffffffffffffffffff1663a9059cbb858560405160240161108f929190612429565b6040516020818303038152906040529060e01b6020820180517bffffffffffffffffffffffffffffffffffffffffffffffffffffffff83818316178352505050506040516110dd9190611d87565b5f604051808303815f865af19150503d805f8114611116576040519150601f19603f3d011682016040523d82523d5f602084013e61111b565b606091505b509150915081801561114857505f8151148061114757508080602001905181019061114691906122d2565b5b5b611187576040517f08c379a000000000000000000000000000000000000000000000000000000000815260040161117e9061249a565b60405180910390fd5b5050505050565b60405180604001604052805f81526020015f81525090565b5f604051905090565b5f5ffd5b5f5ffd5b5f5ffd5b5f601f19601f8301169050919050565b7f4e487b71000000000000000000000000000000000000000000000000000000005f52604160045260245ffd5b611201826111bb565b810181811067ffffffffffffffff821117156112205761121f6111cb565b5b80604052505050565b5f6112326111a6565b905061123e82826111f8565b919050565b5f67ffffffffffffffff82111561125d5761125c6111cb565b5b602082029050602081019050919050565b5f5ffd5b5f819050919050565b61128481611272565b811461128e575f5ffd5b50565b5f8135905061129f8161127b565b92915050565b5f6112b76112b284611243565b611229565b905080838252602082019050602084028301858111156112da576112d961126e565b5b835b8181101561130357806112ef8882611291565b8452602084019350506020810190506112dc565b5050509392505050565b5f82601f830112611321576113206111b7565b5b81356113318482602086016112a5565b91505092915050565b5f67ffffffffffffffff821115611354576113536111cb565b5b602082029050602081019050919050565b5f5ffd5b5f67ffffffffffffffff821115611383576113826111cb565b5b61138c826111bb565b9050602081019050919050565b828183375f83830152505050565b5f6113b96113b484611369565b611229565b9050828152602081018484840111156113d5576113d4611365565b5b6113e0848285611399565b509392505050565b5f82601f8301126113fc576113fb6111b7565b5b813561140c8482602086016113a7565b91505092915050565b5f6114276114228461133a565b611229565b9050808382526020820190506020840283018581111561144a5761144961126e565b5b835b8181101561149157803567ffffffffffffffff81111561146f5761146e6111b7565b5b80860161147c89826113e8565b8552602085019450505060208101905061144c565b5050509392505050565b5f82601f8301126114af576114ae6111b7565b5b81356114bf848260208601611415565b91505092915050565b5f5f5f606084860312156114df576114de6111af565b5b5f84013567ffffffffffffffff8111156114fc576114fb6111b3565b5b6115088682870161130d565b935050602084013567ffffffffffffffff811115611529576115286111b3565b5b6115358682870161149b565b925050604084013567ffffffffffffffff811115611556576115556111b3565b5b6115628682870161130d565b9150509250925092565b5f67ffffffffffffffff821115611586576115856111cb565b5b602082029050602081019050919050565b5f5ffd5b5f5ffd5b5f819050919050565b6115b18161159f565b81146115bb575f5ffd5b50565b5f813590506115cc816115a8565b92915050565b5f604082840312156115e7576115e6611597565b5b6115f16040611229565b90505f611600848285016115be565b5f830152506020611613848285016115be565b60208301525092915050565b5f61163161162c8461156c565b611229565b905080838252602082019050604084028301858111156116545761165361126e565b5b835b8181101561167d578061166988826115d2565b845260208401935050604081019050611656565b5050509392505050565b5f82601f83011261169b5761169a6111b7565b5b81356116ab84826020860161161f565b91505092915050565b5f5f604083850312156116ca576116c96111af565b5b5f83013567ffffffffffffffff8111156116e7576116e66111b3565b5b6116f38582860161130d565b925050602083013567ffffffffffffffff811115611714576117136111b3565b5b61172085828601611687565b9150509250929050565b5f5f604083850312156117405761173f6111af565b5b5f61174d85828601611291565b925050602083013567ffffffffffffffff81111561176e5761176d6111b3565b5b61177a858286016113e8565b9150509250929050565b61178d81611272565b82525050565b5f6020820190506117a65f830184611784565b92915050565b5f602082840312156117c1576117c06111af565b5b5f6117ce84828501611291565b91505092915050565b6117e08161159f565b82525050565b604082015f8201516117fa5f8501826117d7565b50602082015161180d60208501826117d7565b50505050565b5f6040820190506118265f8301846117e6565b92915050565b5f5ffd5b5f5f83601f840112611845576118446111b7565b5b8235905067ffffffffffffffff8111156118625761186161182c565b5b60208301915083602082028301111561187e5761187d61126e565b5b9250929050565b5f5f83601f84011261189a576118996111b7565b5b8235905067ffffffffffffffff8111156118b7576118b661182c565b5b6020830191508360408202830111156118d3576118d261126e565b5b9250929050565b5f5f5f5f604085870312156118f2576118f16111af565b5b5f85013567ffffffffffffffff81111561190f5761190e6111b3565b5b61191b87828801611830565b9450945050602085013567ffffffffffffffff81111561193e5761193d6111b3565b5b61194a87828801611885565b925092505092959194509250565b5f5f83601f84011261196d5761196c6111b7565b5b8235905067ffffffffffffffff81111561198a5761198961182c565b5b6020830191508360018202830111156119a6576119a561126e565b5b9250929050565b5f5f5f5f5f5f608087890312156119c7576119c66111af565b5b5f6119d489828a01611291565b965050602087013567ffffffffffffffff8111156119f5576119f46111b3565b5b611a0189828a01611958565b9550955050604087013567ffffffffffffffff811115611a2457611a236111b3565b5b611a3089828a01611958565b93509350506060611a4389828a01611291565b9150509295509295509295565b5f5ffd5b5f6101008284031215611a6a57611a69611a50565b5b81905092915050565b5f5f5f6101208486031215611a8b57611a8a6111af565b5b5f611a9886828701611a54565b93505061010084013567ffffffffffffffff811115611aba57611ab96111b3565b5b611ac686828701611958565b92509250509250925092565b5f73ffffffffffffffffffffffffffffffffffffffff82169050919050565b5f611afb82611ad2565b9050919050565b611b0b81611af1565b82525050565b5f602082019050611b245f830184611b02565b92915050565b611b3381611af1565b8114611b3d575f5ffd5b50565b5f81359050611b4e81611b2a565b92915050565b5f5f5f5f5f5f5f60a0888a031215611b6f57611b6e6111af565b5b5f611b7c8a828b01611291565b975050602088013567ffffffffffffffff811115611b9d57611b9c6111b3565b5b611ba98a828b01611958565b9650965050604088013567ffffffffffffffff811115611bcc57611bcb6111b3565b5b611bd88a828b01611958565b94509450506060611beb8a828b01611b40565b9250506080611bfc8a828b01611291565b91505092959891949750929550565b611c148161159f565b82525050565b5f604082019050611c2d5f830185611c0b565b611c3a6020830184611c0b565b9392505050565b5f60208284031215611c5657611c556111af565b5b5f611c6384828501611b40565b91505092915050565b5f5f5f5f60808587031215611c8457611c836111af565b5b5f85013567ffffffffffffffff811115611ca157611ca06111b3565b5b611cad878288016113e8565b9450506020611cbe87828801611291565b9350506040611ccf87828801611291565b925050606085013567ffffffffffffffff811115611cf057611cef6111b3565b5b611cfc878288016113e8565b91505092959194509250565b7f4e487b71000000000000000000000000000000000000000000000000000000005f52603260045260245ffd5b5f81519050919050565b5f81905092915050565b8281835e5f83830152505050565b5f611d6182611d35565b611d6b8185611d3f565b9350611d7b818560208601611d49565b80840191505092915050565b5f611d928284611d57565b915081905092915050565b5f60408284031215611db257611db16111af565b5b5f611dbf848285016115d2565b91505092915050565b7f4e487b71000000000000000000000000000000000000000000000000000000005f52601160045260245ffd5b5f611dff82611272565b9150611e0a83611272565b9250828203905081811115611e2257611e21611dc8565b5b92915050565b5f81519050611e368161127b565b92915050565b5f60208284031215611e5157611e506111af565b5b5f611e5e84828501611e28565b91505092915050565b5f611e7182611272565b9150611e7c83611272565b9250828202611e8a81611272565b91508282048414831517611ea157611ea0611dc8565b5b5092915050565b7f4e487b71000000000000000000000000000000000000000000000000000000005f52601260045260245ffd5b5f611edf82611272565b9150611eea83611272565b925082611efa57611ef9611ea8565b5b828204905092915050565b5f82825260208201905092915050565b5f611f1f82611d35565b611f298185611f05565b9350611f39818560208601611d49565b611f42816111bb565b840191505092915050565b611f5681611272565b82525050565b5f606083015f8301518482035f860152611f768282611f15565b9150506020830151611f8b6020860182611f4d565b5060408301518482036040860152611fa38282611f15565b9150508091505092915050565b5f6020820190508181035f830152611fc88184611f5c565b905092915050565b5f82825260208201905092915050565b5f611fea82611d35565b611ff48185611fd0565b9350612004818560208601611d49565b61200d816111bb565b840191505092915050565b5f60808201905061202b5f8301866117e6565b6120386040830185611784565b818103606083015261204a8184611fe0565b9050949350505050565b5f81519050612062816115a8565b92915050565b5f6020828403121561207d5761207c6111af565b5b5f61208a84828501612054565b91505092915050565b5f61209e8385611fd0565b93506120ab838584611399565b6120b4836111bb565b840190509392505050565b5f60a0820190506120d25f83018a611b02565b6120df6020830189611784565b81810360408301526120f2818789612093565b90506121016060830186611784565b8181036080830152612114818486612093565b905098975050505050505050565b5f6060828403121561213757612136611597565b5b6121416060611229565b90505f82013567ffffffffffffffff8111156121605761215f61159b565b5b61216c848285016113e8565b5f83015250602061217f84828501611291565b602083015250604082013567ffffffffffffffff8111156121a3576121a261159b565b5b6121af848285016113e8565b60408301525092915050565b5f602082840312156121d0576121cf6111af565b5b5f82013567ffffffffffffffff8111156121ed576121ec6111b3565b5b6121f984828501612122565b91505092915050565b5f61220c82611ad2565b9050919050565b61221c81612202565b8114612226575f5ffd5b50565b5f8151905061223781612213565b92915050565b5f60208284031215612252576122516111af565b5b5f61225f84828501612229565b91505092915050565b5f60608201905061227b5f830186611b02565b6122886020830185611b02565b6122956040830184611784565b949350505050565b5f8115159050919050565b6122b18161229d565b81146122bb575f5ffd5b50565b5f815190506122cc816122a8565b92915050565b5f602082840312156122e7576122e66111af565b5b5f6122f4848285016122be565b91505092915050565b5f82825260208201905092915050565b7f5472616e7366657248656c7065723a205452414e534645525f46524f4d5f46415f8201527f494c454400000000000000000000000000000000000000000000000000000000602082015250565b5f6123676024836122fd565b91506123728261230d565b604082019050919050565b5f6020820190508181035f8301526123948161235b565b9050919050565b7f5472616e7366657248656c7065723a204554485f5452414e534645525f4641495f8201527f4c45440000000000000000000000000000000000000000000000000000000000602082015250565b5f6123f56023836122fd565b91506124008261239b565b604082019050919050565b5f6020820190508181035f830152612422816123e9565b9050919050565b5f60408201905061243c5f830185611b02565b6124496020830184611784565b9392505050565b7f5472616e7366657248656c7065723a205452414e534645525f4641494c4544005f82015250565b5f612484601f836122fd565b915061248f82612450565b602082019050919050565b5f6020820190508181035f8301526124b181612478565b905091905056fea2646970667358221220f1d93d205a6d8b50bbe4c97802b4f044536743fed7701736595441efeb6789d564736f6c634300081b0033",
					"opcodes": "PUSH1 0xA0 PUSH1 0x40 MSTORE PUSH1 0x40 MLOAD PUSH2 0x27CD CODESIZE SUB DUP1 PUSH2 0x27CD DUP4 CODECOPY DUP2 DUP2 ADD PUSH1 0x40 MSTORE DUP2 ADD SWAP1 PUSH2 0x25 SWAP2 SWAP1 PUSH2 0x266 JUMP JUMPDEST DUP1 CALLER PUSH0 PUSH20 0xFFFFFFFFFFFFFFFFFFFFFFFFFFFFFFFFFFFFFFFF AND DUP2 PUSH20 0xFFFFFFFFFFFFFFFFFFFFFFFFFFFFFFFFFFFFFFFF AND SUB PUSH2 0x97 JUMPI PUSH0 PUSH1 0x40 MLOAD PUSH32 0x1E4FBDF700000000000000000000000000000000000000000000000000000000 DUP2 MSTORE PUSH1 0x4 ADD PUSH2 0x8E SWAP2 SWAP1 PUSH2 0x2A0 JUMP JUMPDEST PUSH1 0x40 MLOAD DUP1 SWAP2 SUB SWAP1 REVERT JUMPDEST PUSH2 0xA6 DUP2 PUSH2 0x147 PUSH1 0x20 SHL PUSH1 0x20 SHR JUMP JUMPDEST POP PUSH0 PUSH20 0xFFFFFFFFFFFFFFFFFFFFFFFFFFFFFFFFFFFFFFFF AND DUP2 PUSH20 0xFFFFFFFFFFFFFFFFFFFFFFFFFFFFFFFFFFFFFFFF AND SUB PUSH2 0x10C JUMPI PUSH1 0x40 MLOAD PUSH32 0x5008268300000000000000000000000000000000000000000000000000000000 DUP2 MSTORE PUSH1 0x4 ADD PUSH1 0x40 MLOAD DUP1 SWAP2 SUB SWAP1 REVERT JUMPDEST DUP1 PUSH20 0xFFFFFFFFFFFFFFFFFFFFFFFFFFFFFFFFFFFFFFFF AND PUSH1 0x80 DUP2 PUSH20 0xFFFFFFFFFFFFFFFFFFFFFFFFFFFFFFFFFFFFFFFF AND DUP2 MSTORE POP POP POP POP PUSH2 0x2B9 JUMP JUMPDEST PUSH0 PUSH0 PUSH0 SWAP1 SLOAD SWAP1 PUSH2 0x100 EXP SWAP1 DIV PUSH20 0xFFFFFFFFFFFFFFFFFFFFFFFFFFFFFFFFFFFFFFFF AND SWAP1 POP DUP2 PUSH0 PUSH0 PUSH2 0x100 EXP DUP2 SLOAD DUP2 PUSH20 0xFFFFFFFFFFFFFFFFFFFFFFFFFFFFFFFFFFFFFFFF MUL NOT AND SWAP1 DUP4 PUSH20 0xFFFFFFFFFFFFFFFFFFFFFFFFFFFFFFFFFFFFFFFF AND MUL OR SWAP1 SSTORE POP DUP2 PUSH20 0xFFFFFFFFFFFFFFFFFFFFFFFFFFFFFFFFFFFFFFFF AND DUP2 PUSH20 0xFFFFFFFFFFFFFFFFFFFFFFFFFFFFFFFFFFFFFFFF AND PUSH32 0x8BE0079C531659141344CD1FD0A4F28419497F9722A3DAAFE3B4186F6B6457E0 PUSH1 0x40 MLOAD PUSH1 0x40 MLOAD DUP1 SWAP2 SUB SWAP1 LOG3 POP POP JUMP JUMPDEST PUSH0 PUSH0 REVERT JUMPDEST PUSH0 PUSH20 0xFFFFFFFFFFFFFFFFFFFFFFFFFFFFFFFFFFFFFFFF DUP3 AND SWAP1 POP SWAP2 SWAP1 POP JUMP JUMPDEST PUSH0 PUSH2 0x235 DUP3 PUSH2 0x20C JUMP JUMPDEST SWAP1 POP SWAP2 SWAP1 POP JUMP JUMPDEST PUSH2 0x245 DUP2 PUSH2 0x22B JUMP JUMPDEST DUP2 EQ PUSH2 0x24F JUMPI PUSH0 PUSH0 REVERT JUMPDEST POP JUMP JUMPDEST PUSH0 DUP2 MLOAD SWAP1 POP PUSH2 0x260 DUP2 PUSH2 0x23C JUMP JUMPDEST SWAP3 SWAP2 POP POP JUMP JUMPDEST PUSH0 PUSH1 0x20 DUP3 DUP5 SUB SLT ISZERO PUSH2 0x27B JUMPI PUSH2 0x27A PUSH2 0x208 JUMP JUMPDEST JUMPDEST PUSH0 PUSH2 0x288 DUP5 DUP3 DUP6 ADD PUSH2 0x252 JUMP JUMPDEST SWAP2 POP POP SWAP3 SWAP2 POP POP JUMP JUMPDEST PUSH2 0x29A DUP2 PUSH2 0x22B JUMP JUMPDEST DUP3 MSTORE POP POP JUMP JUMPDEST PUSH0 PUSH1 0x20 DUP3 ADD SWAP1 POP PUSH2 0x2B3 PUSH0 DUP4 ADD DUP5 PUSH2 0x291 JUMP JUMPDEST SWAP3 SWAP2 POP POP JUMP JUMPDEST PUSH1 0x80 MLOAD PUSH2 0x24EE PUSH2 0x2DF PUSH0 CODECOPY PUSH0 DUP2 DUP2 PUSH2 0x602 ADD MSTORE DUP2 DUP2 PUSH2 0x835 ADD MSTORE PUSH2 0xC25 ADD MSTORE PUSH2 0x24EE PUSH0 RETURN INVALID PUSH1 0x80 PUSH1 0x40 MSTORE PUSH1 0x4 CALLDATASIZE LT PUSH2 0xC1 JUMPI PUSH0 CALLDATALOAD PUSH1 0xE0 SHR DUP1 PUSH4 0x7904A946 GT PUSH2 0x7E JUMPI DUP1 PUSH4 0xA2798328 GT PUSH2 0x58 JUMPI DUP1 PUSH4 0xA2798328 EQ PUSH2 0x22D JUMPI DUP1 PUSH4 0xBE4F3E8F EQ PUSH2 0x249 JUMPI DUP1 PUSH4 0xF2FDE38B EQ PUSH2 0x286 JUMPI DUP1 PUSH4 0xF95A54C9 EQ PUSH2 0x2AE JUMPI PUSH2 0xC1 JUMP JUMPDEST DUP1 PUSH4 0x7904A946 EQ PUSH2 0x1CB JUMPI DUP1 PUSH4 0x879D182D EQ PUSH2 0x1E7 JUMPI DUP1 PUSH4 0x8DA5CB5B EQ PUSH2 0x203 JUMPI PUSH2 0xC1 JUMP JUMPDEST DUP1 PUSH4 0xC49815B EQ PUSH2 0xC5 JUMPI DUP1 PUSH4 0x59A1AAE1 EQ PUSH2 0xED JUMPI DUP1 PUSH4 0x5BB76937 EQ PUSH2 0x115 JUMPI DUP1 PUSH4 0x67EBB6B2 EQ PUSH2 0x151 JUMPI DUP1 PUSH4 0x715018A6 EQ PUSH2 0x18D JUMPI DUP1 PUSH4 0x75D4D8FC EQ PUSH2 0x1A3 JUMPI JUMPDEST PUSH0 PUSH0 REVERT JUMPDEST CALLVALUE DUP1 ISZERO PUSH2 0xD0 JUMPI PUSH0 PUSH0 REVERT JUMPDEST POP PUSH2 0xEB PUSH1 0x4 DUP1 CALLDATASIZE SUB DUP2 ADD SWAP1 PUSH2 0xE6 SWAP2 SWAP1 PUSH2 0x14C8 JUMP JUMPDEST PUSH2 0x2EA JUMP JUMPDEST STOP JUMPDEST CALLVALUE DUP1 ISZERO PUSH2 0xF8 JUMPI PUSH0 PUSH0 REVERT JUMPDEST POP PUSH2 0x113 PUSH1 0x4 DUP1 CALLDATASIZE SUB DUP2 ADD SWAP1 PUSH2 0x10E SWAP2 SWAP1 PUSH2 0x16B4 JUMP JUMPDEST PUSH2 0x3DD JUMP JUMPDEST STOP JUMPDEST CALLVALUE DUP1 ISZERO PUSH2 0x120 JUMPI PUSH0 PUSH0 REVERT JUMPDEST POP PUSH2 0x13B PUSH1 0x4 DUP1 CALLDATASIZE SUB DUP2 ADD SWAP1 PUSH2 0x136 SWAP2 SWAP1 PUSH2 0x172A JUMP JUMPDEST PUSH2 0x3F3 JUMP JUMPDEST PUSH1 0x40 MLOAD PUSH2 0x148 SWAP2 SWAP1 PUSH2 0x1793 JUMP JUMPDEST PUSH1 0x40 MLOAD DUP1 SWAP2 SUB SWAP1 RETURN JUMPDEST CALLVALUE DUP1 ISZERO PUSH2 0x15C JUMPI PUSH0 PUSH0 REVERT JUMPDEST POP PUSH2 0x177 PUSH1 0x4 DUP1 CALLDATASIZE SUB DUP2 ADD SWAP1 PUSH2 0x172 SWAP2 SWAP1 PUSH2 0x17AC JUMP JUMPDEST PUSH2 0x42B JUMP JUMPDEST PUSH1 0x40 MLOAD PUSH2 0x184 SWAP2 SWAP1 PUSH2 0x1813 JUMP JUMPDEST PUSH1 0x40 MLOAD DUP1 SWAP2 SUB SWAP1 RETURN JUMPDEST CALLVALUE DUP1 ISZERO PUSH2 0x198 JUMPI PUSH0 PUSH0 REVERT JUMPDEST POP PUSH2 0x1A1 PUSH2 0x4C9 JUMP JUMPDEST STOP JUMPDEST CALLVALUE DUP1 ISZERO PUSH2 0x1AE JUMPI PUSH0 PUSH0 REVERT JUMPDEST POP PUSH2 0x1C9 PUSH1 0x4 DUP1 CALLDATASIZE SUB DUP2 ADD SWAP1 PUSH2 0x1C4 SWAP2 SWAP1 PUSH2 0x18DA JUMP JUMPDEST PUSH2 0x4DC JUMP JUMPDEST STOP JUMPDEST PUSH2 0x1E5 PUSH1 0x4 DUP1 CALLDATASIZE SUB DUP2 ADD SWAP1 PUSH2 0x1E0 SWAP2 SWAP1 PUSH2 0x19AD JUMP JUMPDEST PUSH2 0x589 JUMP JUMPDEST STOP JUMPDEST PUSH2 0x201 PUSH1 0x4 DUP1 CALLDATASIZE SUB DUP2 ADD SWAP1 PUSH2 0x1FC SWAP2 SWAP1 PUSH2 0x1A73 JUMP JUMPDEST PUSH2 0x600 JUMP JUMPDEST STOP JUMPDEST CALLVALUE DUP1 ISZERO PUSH2 0x20E JUMPI PUSH0 PUSH0 REVERT JUMPDEST POP PUSH2 0x217 PUSH2 0x710 JUMP JUMPDEST PUSH1 0x40 MLOAD PUSH2 0x224 SWAP2 SWAP1 PUSH2 0x1B11 JUMP JUMPDEST PUSH1 0x40 MLOAD DUP1 SWAP2 SUB SWAP1 RETURN JUMPDEST PUSH2 0x247 PUSH1 0x4 DUP1 CALLDATASIZE SUB DUP2 ADD SWAP1 PUSH2 0x242 SWAP2 SWAP1 PUSH2 0x1B54 JUMP JUMPDEST PUSH2 0x737 JUMP JUMPDEST STOP JUMPDEST CALLVALUE DUP1 ISZERO PUSH2 0x254 JUMPI PUSH0 PUSH0 REVERT JUMPDEST POP PUSH2 0x26F PUSH1 0x4 DUP1 CALLDATASIZE SUB DUP2 ADD SWAP1 PUSH2 0x26A SWAP2 SWAP1 PUSH2 0x17AC JUMP JUMPDEST PUSH2 0x75D JUMP JUMPDEST PUSH1 0x40 MLOAD PUSH2 0x27D SWAP3 SWAP2 SWAP1 PUSH2 0x1C1A JUMP JUMPDEST PUSH1 0x40 MLOAD DUP1 SWAP2 SUB SWAP1 RETURN JUMPDEST CALLVALUE DUP1 ISZERO PUSH2 0x291 JUMPI PUSH0 PUSH0 REVERT JUMPDEST POP PUSH2 0x2AC PUSH1 0x4 DUP1 CALLDATASIZE SUB DUP2 ADD SWAP1 PUSH2 0x2A7 SWAP2 SWAP1 PUSH2 0x1C41 JUMP JUMPDEST PUSH2 0x77D JUMP JUMPDEST STOP JUMPDEST CALLVALUE DUP1 ISZERO PUSH2 0x2B9 JUMPI PUSH0 PUSH0 REVERT JUMPDEST POP PUSH2 0x2D4 PUSH1 0x4 DUP1 CALLDATASIZE SUB DUP2 ADD SWAP1 PUSH2 0x2CF SWAP2 SWAP1 PUSH2 0x1C6C JUMP JUMPDEST PUSH2 0x801 JUMP JUMPDEST PUSH1 0x40 MLOAD PUSH2 0x2E1 SWAP2 SWAP1 PUSH2 0x1793 JUMP JUMPDEST PUSH1 0x40 MLOAD DUP1 SWAP2 SUB SWAP1 RETURN JUMPDEST PUSH2 0x2F2 PUSH2 0x909 JUMP JUMPDEST DUP1 MLOAD DUP4 MLOAD EQ ISZERO DUP1 PUSH2 0x305 JUMPI POP DUP2 MLOAD DUP2 MLOAD EQ ISZERO JUMPDEST ISZERO PUSH2 0x33C JUMPI PUSH1 0x40 MLOAD PUSH32 0x947D5A8400000000000000000000000000000000000000000000000000000000 DUP2 MSTORE PUSH1 0x4 ADD PUSH1 0x40 MLOAD DUP1 SWAP2 SUB SWAP1 REVERT JUMPDEST PUSH0 PUSH0 SWAP1 POP JUMPDEST DUP4 MLOAD DUP2 LT ISZERO PUSH2 0x3D7 JUMPI DUP2 DUP2 DUP2 MLOAD DUP2 LT PUSH2 0x35D JUMPI PUSH2 0x35C PUSH2 0x1D08 JUMP JUMPDEST JUMPDEST PUSH1 0x20 MUL PUSH1 0x20 ADD ADD MLOAD PUSH1 0x2 PUSH0 DUP7 DUP5 DUP2 MLOAD DUP2 LT PUSH2 0x37B JUMPI PUSH2 0x37A PUSH2 0x1D08 JUMP JUMPDEST JUMPDEST PUSH1 0x20 MUL PUSH1 0x20 ADD ADD MLOAD DUP2 MSTORE PUSH1 0x20 ADD SWAP1 DUP2 MSTORE PUSH1 0x20 ADD PUSH0 KECCAK256 DUP5 DUP4 DUP2 MLOAD DUP2 LT PUSH2 0x3A3 JUMPI PUSH2 0x3A2 PUSH2 0x1D08 JUMP JUMPDEST JUMPDEST PUSH1 0x20 MUL PUSH1 0x20 ADD ADD MLOAD PUSH1 0x40 MLOAD PUSH2 0x3B8 SWAP2 SWAP1 PUSH2 0x1D87 JUMP JUMPDEST SWAP1 DUP2 MSTORE PUSH1 0x20 ADD PUSH1 0x40 MLOAD DUP1 SWAP2 SUB SWAP1 KECCAK256 DUP2 SWAP1 SSTORE POP DUP1 DUP1 PUSH1 0x1 ADD SWAP2 POP POP PUSH2 0x341 JUMP JUMPDEST POP POP POP POP JUMP JUMPDEST PUSH2 0x3E5 PUSH2 0x909 JUMP JUMPDEST PUSH2 0x3EF DUP3 DUP3 PUSH2 0x990 JUMP JUMPDEST POP POP JUMP JUMPDEST PUSH1 0x2 PUSH1 0x20 MSTORE DUP2 PUSH0 MSTORE PUSH1 0x40 PUSH0 KECCAK256 DUP2 DUP1 MLOAD PUSH1 0x20 DUP2 ADD DUP3 ADD DUP1 MLOAD DUP5 DUP3 MSTORE PUSH1 0x20 DUP4 ADD PUSH1 0x20 DUP6 ADD KECCAK256 DUP2 DUP4 MSTORE DUP1 SWAP6 POP POP POP POP POP POP PUSH0 SWAP2 POP SWAP2 POP POP SLOAD DUP2 JUMP JUMPDEST PUSH2 0x433 PUSH2 0x118E JUMP JUMPDEST PUSH0 PUSH1 0x1 PUSH0 DUP5 DUP2 MSTORE PUSH1 0x20 ADD SWAP1 DUP2 MSTORE PUSH1 0x20 ADD PUSH0 KECCAK256 PUSH1 0x40 MLOAD DUP1 PUSH1 0x40 ADD PUSH1 0x40 MSTORE SWAP1 DUP2 PUSH0 DUP3 ADD SLOAD DUP2 MSTORE PUSH1 0x20 ADD PUSH1 0x1 DUP3 ADD SLOAD DUP2 MSTORE POP POP SWAP1 POP PUSH0 PUSH0 SHL DUP2 PUSH0 ADD MLOAD EQ DUP1 ISZERO PUSH2 0x47E JUMPI POP PUSH0 PUSH0 SHL DUP2 PUSH1 0x20 ADD MLOAD EQ JUMPDEST ISZERO PUSH2 0x4C0 JUMPI DUP3 PUSH1 0x40 MLOAD PUSH32 0x78D0DBFC00000000000000000000000000000000000000000000000000000000 DUP2 MSTORE PUSH1 0x4 ADD PUSH2 0x4B7 SWAP2 SWAP1 PUSH2 0x1793 JUMP JUMPDEST PUSH1 0x40 MLOAD DUP1 SWAP2 SUB SWAP1 REVERT JUMPDEST DUP1 SWAP2 POP POP SWAP2 SWAP1 POP JUMP JUMPDEST PUSH2 0x4D1 PUSH2 0x909 JUMP JUMPDEST PUSH2 0x4DA PUSH0 PUSH2 0xA4C JUMP JUMPDEST JUMP JUMPDEST PUSH2 0x4E4 PUSH2 0x909 JUMP JUMPDEST PUSH2 0x583 DUP5 DUP5 DUP1 DUP1 PUSH1 0x20 MUL PUSH1 0x20 ADD PUSH1 0x40 MLOAD SWAP1 DUP2 ADD PUSH1 0x40 MSTORE DUP1 SWAP4 SWAP3 SWAP2 SWAP1 DUP2 DUP2 MSTORE PUSH1 0x20 ADD DUP4 DUP4 PUSH1 0x20 MUL DUP1 DUP3 DUP5 CALLDATACOPY PUSH0 DUP2 DUP5 ADD MSTORE PUSH1 0x1F NOT PUSH1 0x1F DUP3 ADD AND SWAP1 POP DUP1 DUP4 ADD SWAP3 POP POP POP POP POP POP POP DUP4 DUP4 DUP1 DUP1 PUSH1 0x20 MUL PUSH1 0x20 ADD PUSH1 0x40 MLOAD SWAP1 DUP2 ADD PUSH1 0x40 MSTORE DUP1 SWAP4 SWAP3 SWAP2 SWAP1 DUP2 DUP2 MSTORE PUSH1 0x20 ADD PUSH0 SWAP1 JUMPDEST DUP3 DUP3 LT ISZERO PUSH2 0x579 JUMPI DUP5 DUP5 DUP4 SWAP1 POP PUSH1 0x40 MUL ADD DUP1 CALLDATASIZE SUB DUP2 ADD SWAP1 PUSH2 0x56A SWAP2 SWAP1 PUSH2 0x1D9D JUMP JUMPDEST DUP2 MSTORE PUSH1 0x20 ADD SWAP1 PUSH1 0x1 ADD SWAP1 PUSH2 0x549 JUMP JUMPDEST POP POP POP POP POP PUSH2 0x990 JUMP JUMPDEST POP POP POP POP JUMP JUMPDEST CALLVALUE DUP2 GT ISZERO PUSH2 0x5C3 JUMPI PUSH1 0x40 MLOAD PUSH32 0xA5FB6BE900000000000000000000000000000000000000000000000000000000 DUP2 MSTORE PUSH1 0x4 ADD PUSH1 0x40 MLOAD DUP1 SWAP2 SUB SWAP1 REVERT JUMPDEST PUSH0 DUP2 CALLVALUE PUSH2 0x5D0 SWAP2 SWAP1 PUSH2 0x1DF5 JUMP JUMPDEST SWAP1 POP PUSH2 0x5F6 PUSH20 0xEEEEEEEEEEEEEEEEEEEEEEEEEEEEEEEEEEEEEEEE DUP4 DUP4 DUP11 DUP11 DUP11 DUP11 DUP11 PUSH2 0xB0D JUMP JUMPDEST POP POP POP POP POP POP POP POP JUMP JUMPDEST PUSH32 0x0 PUSH20 0xFFFFFFFFFFFFFFFFFFFFFFFFFFFFFFFFFFFFFFFF AND CALLER PUSH20 0xFFFFFFFFFFFFFFFFFFFFFFFFFFFFFFFFFFFFFFFF AND EQ PUSH2 0x690 JUMPI CALLER PUSH1 0x40 MLOAD PUSH32 0xD7F7333400000000000000000000000000000000000000000000000000000000 DUP2 MSTORE PUSH1 0x4 ADD PUSH2 0x687 SWAP2 SWAP1 PUSH2 0x1B11 JUMP JUMPDEST PUSH1 0x40 MLOAD DUP1 SWAP2 SUB SWAP1 REVERT JUMPDEST PUSH0 PUSH1 0x1 PUSH0 DUP6 PUSH1 0x20 ADD CALLDATALOAD DUP2 MSTORE PUSH1 0x20 ADD SWAP1 DUP2 MSTORE PUSH1 0x20 ADD PUSH0 KECCAK256 PUSH1 0x40 MLOAD DUP1 PUSH1 0x40 ADD PUSH1 0x40 MSTORE SWAP1 DUP2 PUSH0 DUP3 ADD SLOAD DUP2 MSTORE PUSH1 0x20 ADD PUSH1 0x1 DUP3 ADD SLOAD DUP2 MSTORE POP POP SWAP1 POP DUP4 PUSH1 0x40 ADD PUSH0 ADD CALLDATALOAD DUP2 PUSH0 ADD MLOAD EQ ISZERO DUP1 PUSH2 0x6E9 JUMPI POP DUP4 PUSH1 0x40 ADD PUSH1 0x20 ADD CALLDATALOAD DUP2 PUSH1 0x20 ADD MLOAD EQ ISZERO JUMPDEST ISZERO PUSH2 0x6FE JUMPI PUSH2 0x6F9 DUP5 DUP5 DUP5 PUSH2 0xD3E JUMP JUMPDEST PUSH2 0x70A JUMP JUMPDEST PUSH2 0x709 DUP5 DUP5 DUP5 PUSH2 0xD70 JUMP JUMPDEST JUMPDEST POP POP POP POP JUMP JUMPDEST PUSH0 PUSH0 PUSH0 SWAP1 SLOAD SWAP1 PUSH2 0x100 EXP SWAP1 DIV PUSH20 0xFFFFFFFFFFFFFFFFFFFFFFFFFFFFFFFFFFFFFFFF AND SWAP1 POP SWAP1 JUMP JUMPDEST PUSH2 0x743 DUP3 CALLER ADDRESS DUP5 PUSH2 0xE29 JUMP JUMPDEST PUSH2 0x753 DUP3 DUP3 CALLVALUE DUP11 DUP11 DUP11 DUP11 DUP11 PUSH2 0xB0D JUMP JUMPDEST POP POP POP POP POP POP POP POP JUMP JUMPDEST PUSH1 0x1 PUSH1 0x20 MSTORE DUP1 PUSH0 MSTORE PUSH1 0x40 PUSH0 KECCAK256 PUSH0 SWAP2 POP SWAP1 POP DUP1 PUSH0 ADD SLOAD SWAP1 DUP1 PUSH1 0x1 ADD SLOAD SWAP1 POP DUP3 JUMP JUMPDEST PUSH2 0x785 PUSH2 0x909 JUMP JUMPDEST PUSH0 PUSH20 0xFFFFFFFFFFFFFFFFFFFFFFFFFFFFFFFFFFFFFFFF AND DUP2 PUSH20 0xFFFFFFFFFFFFFFFFFFFFFFFFFFFFFFFFFFFFFFFF AND SUB PUSH2 0x7F5 JUMPI PUSH0 PUSH1 0x40 MLOAD PUSH32 0x1E4FBDF700000000000000000000000000000000000000000000000000000000 DUP2 MSTORE PUSH1 0x4 ADD PUSH2 0x7EC SWAP2 SWAP1 PUSH2 0x1B11 JUMP JUMPDEST PUSH1 0x40 MLOAD DUP1 SWAP2 SUB SWAP1 REVERT JUMPDEST PUSH2 0x7FE DUP2 PUSH2 0xA4C JUMP JUMPDEST POP JUMP JUMPDEST PUSH0 PUSH1 0x2 PUSH0 DUP5 DUP2 MSTORE PUSH1 0x20 ADD SWAP1 DUP2 MSTORE PUSH1 0x20 ADD PUSH0 KECCAK256 DUP3 PUSH1 0x40 MLOAD PUSH2 0x821 SWAP2 SWAP1 PUSH2 0x1D87 JUMP JUMPDEST SWAP1 DUP2 MSTORE PUSH1 0x20 ADD PUSH1 0x40 MLOAD DUP1 SWAP2 SUB SWAP1 KECCAK256 SLOAD PUSH1 0x2 PUSH0 PUSH32 0x0 PUSH20 0xFFFFFFFFFFFFFFFFFFFFFFFFFFFFFFFFFFFFFFFF AND PUSH4 0x4E4BC847 PUSH1 0x40 MLOAD DUP2 PUSH4 0xFFFFFFFF AND PUSH1 0xE0 SHL DUP2 MSTORE PUSH1 0x4 ADD PUSH1 0x20 PUSH1 0x40 MLOAD DUP1 DUP4 SUB DUP2 DUP7 GAS STATICCALL ISZERO DUP1 ISZERO PUSH2 0x89C JUMPI RETURNDATASIZE PUSH0 PUSH0 RETURNDATACOPY RETURNDATASIZE PUSH0 REVERT JUMPDEST POP POP POP POP PUSH1 0x40 MLOAD RETURNDATASIZE PUSH1 0x1F NOT PUSH1 0x1F DUP3 ADD AND DUP3 ADD DUP1 PUSH1 0x40 MSTORE POP DUP2 ADD SWAP1 PUSH2 0x8C0 SWAP2 SWAP1 PUSH2 0x1E3C JUMP JUMPDEST DUP2 MSTORE PUSH1 0x20 ADD SWAP1 DUP2 MSTORE PUSH1 0x20 ADD PUSH0 KECCAK256 DUP7 PUSH1 0x40 MLOAD PUSH2 0x8DB SWAP2 SWAP1 PUSH2 0x1D87 JUMP JUMPDEST SWAP1 DUP2 MSTORE PUSH1 0x20 ADD PUSH1 0x40 MLOAD DUP1 SWAP2 SUB SWAP1 KECCAK256 SLOAD DUP6 PUSH2 0x8F5 SWAP2 SWAP1 PUSH2 0x1E67 JUMP JUMPDEST PUSH2 0x8FF SWAP2 SWAP1 PUSH2 0x1ED5 JUMP JUMPDEST SWAP1 POP SWAP5 SWAP4 POP POP POP POP JUMP JUMPDEST PUSH2 0x911 PUSH2 0xF5C JUMP JUMPDEST PUSH20 0xFFFFFFFFFFFFFFFFFFFFFFFFFFFFFFFFFFFFFFFF AND PUSH2 0x92F PUSH2 0x710 JUMP JUMPDEST PUSH20 0xFFFFFFFFFFFFFFFFFFFFFFFFFFFFFFFFFFFFFFFF AND EQ PUSH2 0x98E JUMPI PUSH2 0x952 PUSH2 0xF5C JUMP JUMPDEST PUSH1 0x40 MLOAD PUSH32 0x118CDAA700000000000000000000000000000000000000000000000000000000 DUP2 MSTORE PUSH1 0x4 ADD PUSH2 0x985 SWAP2 SWAP1 PUSH2 0x1B11 JUMP JUMPDEST PUSH1 0x40 MLOAD DUP1 SWAP2 SUB SWAP1 REVERT JUMPDEST JUMP JUMPDEST PUSH2 0x998 PUSH2 0x909 JUMP JUMPDEST DUP1 MLOAD DUP3 MLOAD EQ PUSH2 0x9D3 JUMPI PUSH1 0x40 MLOAD PUSH32 0x947D5A8400000000000000000000000000000000000000000000000000000000 DUP2 MSTORE PUSH1 0x4 ADD PUSH1 0x40 MLOAD DUP1 SWAP2 SUB SWAP1 REVERT JUMPDEST PUSH0 PUSH0 SWAP1 POP JUMPDEST DUP3 MLOAD DUP2 LT ISZERO PUSH2 0xA47 JUMPI DUP2 DUP2 DUP2 MLOAD DUP2 LT PUSH2 0x9F4 JUMPI PUSH2 0x9F3 PUSH2 0x1D08 JUMP JUMPDEST JUMPDEST PUSH1 0x20 MUL PUSH1 0x20 ADD ADD MLOAD PUSH1 0x1 PUSH0 DUP6 DUP5 DUP2 MLOAD DUP2 LT PUSH2 0xA12 JUMPI PUSH2 0xA11 PUSH2 0x1D08 JUMP JUMPDEST JUMPDEST PUSH1 0x20 MUL PUSH1 0x20 ADD ADD MLOAD DUP2 MSTORE PUSH1 0x20 ADD SWAP1 DUP2 MSTORE PUSH1 0x20 ADD PUSH0 KECCAK256 PUSH0 DUP3 ADD MLOAD DUP2 PUSH0 ADD SSTORE PUSH1 0x20 DUP3 ADD MLOAD DUP2 PUSH1 0x1 ADD SSTORE SWAP1 POP POP DUP1 PUSH1 0x1 ADD SWAP1 POP PUSH2 0x9D8 JUMP JUMPDEST POP POP POP JUMP JUMPDEST PUSH0 PUSH0 PUSH0 SWAP1 SLOAD SWAP1 PUSH2 0x100 EXP SWAP1 DIV PUSH20 0xFFFFFFFFFFFFFFFFFFFFFFFFFFFFFFFFFFFFFFFF AND SWAP1 POP DUP2 PUSH0 PUSH0 PUSH2 0x100 EXP DUP2 SLOAD DUP2 PUSH20 0xFFFFFFFFFFFFFFFFFFFFFFFFFFFFFFFFFFFFFFFF MUL NOT AND SWAP1 DUP4 PUSH20 0xFFFFFFFFFFFFFFFFFFFFFFFFFFFFFFFFFFFFFFFF AND MUL OR SWAP1 SSTORE POP DUP2 PUSH20 0xFFFFFFFFFFFFFFFFFFFFFFFFFFFFFFFFFFFFFFFF AND DUP2 PUSH20 0xFFFFFFFFFFFFFFFFFFFFFFFFFFFFFFFFFFFFFFFF AND PUSH32 0x8BE0079C531659141344CD1FD0A4F28419497F9722A3DAAFE3B4186F6B6457E0 PUSH1 0x40 MLOAD PUSH1 0x40 MLOAD DUP1 SWAP2 SUB SWAP1 LOG3 POP POP JUMP JUMPDEST PUSH0 PUSH0 PUSH2 0xB7D DUP11 PUSH1 0x40 MLOAD PUSH1 0x20 ADD PUSH2 0xB23 SWAP2 SWAP1 PUSH2 0x1B11 JUMP JUMPDEST PUSH1 0x40 MLOAD PUSH1 0x20 DUP2 DUP4 SUB SUB DUP2 MSTORE SWAP1 PUSH1 0x40 MSTORE DUP11 DUP10 DUP10 DUP10 DUP1 DUP1 PUSH1 0x1F ADD PUSH1 0x20 DUP1 SWAP2 DIV MUL PUSH1 0x20 ADD PUSH1 0x40 MLOAD SWAP1 DUP2 ADD PUSH1 0x40 MSTORE DUP1 SWAP4 SWAP3 SWAP2 SWAP1 DUP2 DUP2 MSTORE PUSH1 0x20 ADD DUP4 DUP4 DUP1 DUP3 DUP5 CALLDATACOPY PUSH0 DUP2 DUP5 ADD MSTORE PUSH1 0x1F NOT PUSH1 0x1F DUP3 ADD AND SWAP1 POP DUP1 DUP4 ADD SWAP3 POP POP POP POP POP POP POP PUSH2 0x801 JUMP JUMPDEST SWAP1 POP PUSH0 PUSH1 0x40 MLOAD DUP1 PUSH1 0x60 ADD PUSH1 0x40 MSTORE DUP1 DUP9 DUP9 DUP1 DUP1 PUSH1 0x1F ADD PUSH1 0x20 DUP1 SWAP2 DIV MUL PUSH1 0x20 ADD PUSH1 0x40 MLOAD SWAP1 DUP2 ADD PUSH1 0x40 MSTORE DUP1 SWAP4 SWAP3 SWAP2 SWAP1 DUP2 DUP2 MSTORE PUSH1 0x20 ADD DUP4 DUP4 DUP1 DUP3 DUP5 CALLDATACOPY PUSH0 DUP2 DUP5 ADD MSTORE PUSH1 0x1F NOT PUSH1 0x1F DUP3 ADD AND SWAP1 POP DUP1 DUP4 ADD SWAP3 POP POP POP POP POP POP POP DUP2 MSTORE PUSH1 0x20 ADD DUP4 DUP2 MSTORE PUSH1 0x20 ADD DUP7 DUP7 DUP1 DUP1 PUSH1 0x1F ADD PUSH1 0x20 DUP1 SWAP2 DIV MUL PUSH1 0x20 ADD PUSH1 0x40 MLOAD SWAP1 DUP2 ADD PUSH1 0x40 MSTORE DUP1 SWAP4 SWAP3 SWAP2 SWAP1 DUP2 DUP2 MSTORE PUSH1 0x20 ADD DUP4 DUP4 DUP1 DUP3 DUP5 CALLDATACOPY PUSH0 DUP2 DUP5 ADD MSTORE PUSH1 0x1F NOT PUSH1 0x1F DUP3 ADD AND SWAP1 POP DUP1 DUP4 ADD SWAP3 POP POP POP POP POP POP POP DUP2 MSTORE POP SWAP1 POP PUSH32 0x0 PUSH20 0xFFFFFFFFFFFFFFFFFFFFFFFFFFFFFFFFFFFFFFFF AND PUSH4 0xDC203137 DUP11 PUSH2 0xC69 DUP12 PUSH2 0x42B JUMP JUMPDEST DUP12 DUP6 PUSH1 0x40 MLOAD PUSH1 0x20 ADD PUSH2 0xC7B SWAP2 SWAP1 PUSH2 0x1FB0 JUMP JUMPDEST PUSH1 0x40 MLOAD PUSH1 0x20 DUP2 DUP4 SUB SUB DUP2 MSTORE SWAP1 PUSH1 0x40 MSTORE PUSH1 0x40 MLOAD DUP6 PUSH4 0xFFFFFFFF AND PUSH1 0xE0 SHL DUP2 MSTORE PUSH1 0x4 ADD PUSH2 0xCA8 SWAP4 SWAP3 SWAP2 SWAP1 PUSH2 0x2018 JUMP JUMPDEST PUSH1 0x20 PUSH1 0x40 MLOAD DUP1 DUP4 SUB DUP2 DUP6 DUP9 GAS CALL ISZERO DUP1 ISZERO PUSH2 0xCC4 JUMPI RETURNDATASIZE PUSH0 PUSH0 RETURNDATACOPY RETURNDATASIZE PUSH0 REVERT JUMPDEST POP POP POP POP POP PUSH1 0x40 MLOAD RETURNDATASIZE PUSH1 0x1F NOT PUSH1 0x1F DUP3 ADD AND DUP3 ADD DUP1 PUSH1 0x40 MSTORE POP DUP2 ADD SWAP1 PUSH2 0xCE9 SWAP2 SWAP1 PUSH2 0x2068 JUMP JUMPDEST SWAP3 POP DUP8 DUP4 PUSH32 0xE2130893F9792447A89B553600C2619692D63B61479E16A0E3735E250CA078D7 DUP14 DUP14 DUP12 DUP12 DUP9 DUP13 DUP13 PUSH1 0x40 MLOAD PUSH2 0xD28 SWAP8 SWAP7 SWAP6 SWAP5 SWAP4 SWAP3 SWAP2 SWAP1 PUSH2 0x20BF JUMP JUMPDEST PUSH1 0x40 MLOAD DUP1 SWAP2 SUB SWAP1 LOG3 POP POP SWAP9 SWAP8 POP POP POP POP POP POP POP POP JUMP JUMPDEST PUSH1 0x40 MLOAD PUSH32 0x7FEE69A100000000000000000000000000000000000000000000000000000000 DUP2 MSTORE PUSH1 0x4 ADD PUSH1 0x40 MLOAD DUP1 SWAP2 SUB SWAP1 REVERT JUMPDEST PUSH0 DUP3 DUP3 DUP2 ADD SWAP1 PUSH2 0xD80 SWAP2 SWAP1 PUSH2 0x21BB JUMP JUMPDEST SWAP1 POP PUSH0 DUP2 PUSH1 0x40 ADD MLOAD DUP1 PUSH1 0x20 ADD SWAP1 MLOAD DUP2 ADD SWAP1 PUSH2 0xD9B SWAP2 SWAP1 PUSH2 0x223D JUMP JUMPDEST SWAP1 POP PUSH0 DUP3 PUSH0 ADD MLOAD DUP1 PUSH1 0x20 ADD SWAP1 MLOAD DUP2 ADD SWAP1 PUSH2 0xDB5 SWAP2 SWAP1 PUSH2 0x223D JUMP JUMPDEST SWAP1 POP PUSH20 0xEEEEEEEEEEEEEEEEEEEEEEEEEEEEEEEEEEEEEEEE PUSH20 0xFFFFFFFFFFFFFFFFFFFFFFFFFFFFFFFFFFFFFFFF AND DUP2 PUSH20 0xFFFFFFFFFFFFFFFFFFFFFFFFFFFFFFFFFFFFFFFF AND SUB PUSH2 0xE11 JUMPI PUSH2 0xE0C DUP3 DUP5 PUSH1 0x20 ADD MLOAD PUSH2 0xF63 JUMP JUMPDEST PUSH2 0xE21 JUMP JUMPDEST PUSH2 0xE20 DUP2 DUP4 DUP6 PUSH1 0x20 ADD MLOAD PUSH2 0x105E JUMP JUMPDEST JUMPDEST POP POP POP POP POP POP JUMP JUMPDEST PUSH0 PUSH0 DUP6 PUSH20 0xFFFFFFFFFFFFFFFFFFFFFFFFFFFFFFFFFFFFFFFF AND PUSH4 0x23B872DD DUP7 DUP7 DUP7 PUSH1 0x40 MLOAD PUSH1 0x24 ADD PUSH2 0xE5C SWAP4 SWAP3 SWAP2 SWAP1 PUSH2 0x2268 JUMP JUMPDEST PUSH1 0x40 MLOAD PUSH1 0x20 DUP2 DUP4 SUB SUB DUP2 MSTORE SWAP1 PUSH1 0x40 MSTORE SWAP1 PUSH1 0xE0 SHL PUSH1 0x20 DUP3 ADD DUP1 MLOAD PUSH28 0xFFFFFFFFFFFFFFFFFFFFFFFFFFFFFFFFFFFFFFFFFFFFFFFFFFFFFFFF DUP4 DUP2 DUP4 AND OR DUP4 MSTORE POP POP POP POP PUSH1 0x40 MLOAD PUSH2 0xEAA SWAP2 SWAP1 PUSH2 0x1D87 JUMP JUMPDEST PUSH0 PUSH1 0x40 MLOAD DUP1 DUP4 SUB DUP2 PUSH0 DUP7 GAS CALL SWAP2 POP POP RETURNDATASIZE DUP1 PUSH0 DUP2 EQ PUSH2 0xEE3 JUMPI PUSH1 0x40 MLOAD SWAP2 POP PUSH1 0x1F NOT PUSH1 0x3F RETURNDATASIZE ADD AND DUP3 ADD PUSH1 0x40 MSTORE RETURNDATASIZE DUP3 MSTORE RETURNDATASIZE PUSH0 PUSH1 0x20 DUP5 ADD RETURNDATACOPY PUSH2 0xEE8 JUMP JUMPDEST PUSH1 0x60 SWAP2 POP JUMPDEST POP SWAP2 POP SWAP2 POP DUP2 DUP1 ISZERO PUSH2 0xF15 JUMPI POP PUSH0 DUP2 MLOAD EQ DUP1 PUSH2 0xF14 JUMPI POP DUP1 DUP1 PUSH1 0x20 ADD SWAP1 MLOAD DUP2 ADD SWAP1 PUSH2 0xF13 SWAP2 SWAP1 PUSH2 0x22D2 JUMP JUMPDEST JUMPDEST JUMPDEST PUSH2 0xF54 JUMPI PUSH1 0x40 MLOAD PUSH32 0x8C379A000000000000000000000000000000000000000000000000000000000 DUP2 MSTORE PUSH1 0x4 ADD PUSH2 0xF4B SWAP1 PUSH2 0x237D JUMP JUMPDEST PUSH1 0x40 MLOAD DUP1 SWAP2 SUB SWAP1 REVERT JUMPDEST POP POP POP POP POP POP JUMP JUMPDEST PUSH0 CALLER SWAP1 POP SWAP1 JUMP JUMPDEST PUSH0 DUP3 PUSH20 0xFFFFFFFFFFFFFFFFFFFFFFFFFFFFFFFFFFFFFFFF AND DUP3 PUSH0 PUSH8 0xFFFFFFFFFFFFFFFF DUP2 GT ISZERO PUSH2 0xF96 JUMPI PUSH2 0xF95 PUSH2 0x11CB JUMP JUMPDEST JUMPDEST PUSH1 0x40 MLOAD SWAP1 DUP1 DUP3 MSTORE DUP1 PUSH1 0x1F ADD PUSH1 0x1F NOT AND PUSH1 0x20 ADD DUP3 ADD PUSH1 0x40 MSTORE DUP1 ISZERO PUSH2 0xFC8 JUMPI DUP2 PUSH1 0x20 ADD PUSH1 0x1 DUP3 MUL DUP1 CALLDATASIZE DUP4 CALLDATACOPY DUP1 DUP3 ADD SWAP2 POP POP SWAP1 POP JUMPDEST POP PUSH1 0x40 MLOAD PUSH2 0xFD6 SWAP2 SWAP1 PUSH2 0x1D87 JUMP JUMPDEST PUSH0 PUSH1 0x40 MLOAD DUP1 DUP4 SUB DUP2 DUP6 DUP8 GAS CALL SWAP3 POP POP POP RETURNDATASIZE DUP1 PUSH0 DUP2 EQ PUSH2 0x1010 JUMPI PUSH1 0x40 MLOAD SWAP2 POP PUSH1 0x1F NOT PUSH1 0x3F RETURNDATASIZE ADD AND DUP3 ADD PUSH1 0x40 MSTORE RETURNDATASIZE DUP3 MSTORE RETURNDATASIZE PUSH0 PUSH1 0x20 DUP5 ADD RETURNDATACOPY PUSH2 0x1015 JUMP JUMPDEST PUSH1 0x60 SWAP2 POP JUMPDEST POP POP SWAP1 POP DUP1 PUSH2 0x1059 JUMPI PUSH1 0x40 MLOAD PUSH32 0x8C379A000000000000000000000000000000000000000000000000000000000 DUP2 MSTORE PUSH1 0x4 ADD PUSH2 0x1050 SWAP1 PUSH2 0x240B JUMP JUMPDEST PUSH1 0x40 MLOAD DUP1 SWAP2 SUB SWAP1 REVERT JUMPDEST POP POP POP JUMP JUMPDEST PUSH0 PUSH0 DUP5 PUSH20 0xFFFFFFFFFFFFFFFFFFFFFFFFFFFFFFFFFFFFFFFF AND PUSH4 0xA9059CBB DUP6 DUP6 PUSH1 0x40 MLOAD PUSH1 0x24 ADD PUSH2 0x108F SWAP3 SWAP2 SWAP1 PUSH2 0x2429 JUMP JUMPDEST PUSH1 0x40 MLOAD PUSH1 0x20 DUP2 DUP4 SUB SUB DUP2 MSTORE SWAP1 PUSH1 0x40 MSTORE SWAP1 PUSH1 0xE0 SHL PUSH1 0x20 DUP3 ADD DUP1 MLOAD PUSH28 0xFFFFFFFFFFFFFFFFFFFFFFFFFFFFFFFFFFFFFFFFFFFFFFFFFFFFFFFF DUP4 DUP2 DUP4 AND OR DUP4 MSTORE POP POP POP POP PUSH1 0x40 MLOAD PUSH2 0x10DD SWAP2 SWAP1 PUSH2 0x1D87 JUMP JUMPDEST PUSH0 PUSH1 0x40 MLOAD DUP1 DUP4 SUB DUP2 PUSH0 DUP7 GAS CALL SWAP2 POP POP RETURNDATASIZE DUP1 PUSH0 DUP2 EQ PUSH2 0x1116 JUMPI PUSH1 0x40 MLOAD SWAP2 POP PUSH1 0x1F NOT PUSH1 0x3F RETURNDATASIZE ADD AND DUP3 ADD PUSH1 0x40 MSTORE RETURNDATASIZE DUP3 MSTORE RETURNDATASIZE PUSH0 PUSH1 0x20 DUP5 ADD RETURNDATACOPY PUSH2 0x111B JUMP JUMPDEST PUSH1 0x60 SWAP2 POP JUMPDEST POP SWAP2 POP SWAP2 POP DUP2 DUP1 ISZERO PUSH2 0x1148 JUMPI POP PUSH0 DUP2 MLOAD EQ DUP1 PUSH2 0x1147 JUMPI POP DUP1 DUP1 PUSH1 0x20 ADD SWAP1 MLOAD DUP2 ADD SWAP1 PUSH2 0x1146 SWAP2 SWAP1 PUSH2 0x22D2 JUMP JUMPDEST JUMPDEST JUMPDEST PUSH2 0x1187 JUMPI PUSH1 0x40 MLOAD PUSH32 0x8C379A000000000000000000000000000000000000000000000000000000000 DUP2 MSTORE PUSH1 0x4 ADD PUSH2 0x117E SWAP1 PUSH2 0x249A JUMP JUMPDEST PUSH1 0x40 MLOAD DUP1 SWAP2 SUB SWAP1 REVERT JUMPDEST POP POP POP POP POP JUMP JUMPDEST PUSH1 0x40 MLOAD DUP1 PUSH1 0x40 ADD PUSH1 0x40 MSTORE DUP1 PUSH0 DUP2 MSTORE PUSH1 0x20 ADD PUSH0 DUP2 MSTORE POP SWAP1 JUMP JUMPDEST PUSH0 PUSH1 0x40 MLOAD SWAP1 POP SWAP1 JUMP JUMPDEST PUSH0 PUSH0 REVERT JUMPDEST PUSH0 PUSH0 REVERT JUMPDEST PUSH0 PUSH0 REVERT JUMPDEST PUSH0 PUSH1 0x1F NOT PUSH1 0x1F DUP4 ADD AND SWAP1 POP SWAP2 SWAP1 POP JUMP JUMPDEST PUSH32 0x4E487B7100000000000000000000000000000000000000000000000000000000 PUSH0 MSTORE PUSH1 0x41 PUSH1 0x4 MSTORE PUSH1 0x24 PUSH0 REVERT JUMPDEST PUSH2 0x1201 DUP3 PUSH2 0x11BB JUMP JUMPDEST DUP2 ADD DUP2 DUP2 LT PUSH8 0xFFFFFFFFFFFFFFFF DUP3 GT OR ISZERO PUSH2 0x1220 JUMPI PUSH2 0x121F PUSH2 0x11CB JUMP JUMPDEST JUMPDEST DUP1 PUSH1 0x40 MSTORE POP POP POP JUMP JUMPDEST PUSH0 PUSH2 0x1232 PUSH2 0x11A6 JUMP JUMPDEST SWAP1 POP PUSH2 0x123E DUP3 DUP3 PUSH2 0x11F8 JUMP JUMPDEST SWAP2 SWAP1 POP JUMP JUMPDEST PUSH0 PUSH8 0xFFFFFFFFFFFFFFFF DUP3 GT ISZERO PUSH2 0x125D JUMPI PUSH2 0x125C PUSH2 0x11CB JUMP JUMPDEST JUMPDEST PUSH1 0x20 DUP3 MUL SWAP1 POP PUSH1 0x20 DUP2 ADD SWAP1 POP SWAP2 SWAP1 POP JUMP JUMPDEST PUSH0 PUSH0 REVERT JUMPDEST PUSH0 DUP2 SWAP1 POP SWAP2 SWAP1 POP JUMP JUMPDEST PUSH2 0x1284 DUP2 PUSH2 0x1272 JUMP JUMPDEST DUP2 EQ PUSH2 0x128E JUMPI PUSH0 PUSH0 REVERT JUMPDEST POP JUMP JUMPDEST PUSH0 DUP2 CALLDATALOAD SWAP1 POP PUSH2 0x129F DUP2 PUSH2 0x127B JUMP JUMPDEST SWAP3 SWAP2 POP POP JUMP JUMPDEST PUSH0 PUSH2 0x12B7 PUSH2 0x12B2 DUP5 PUSH2 0x1243 JUMP JUMPDEST PUSH2 0x1229 JUMP JUMPDEST SWAP1 POP DUP1 DUP4 DUP3 MSTORE PUSH1 0x20 DUP3 ADD SWAP1 POP PUSH1 0x20 DUP5 MUL DUP4 ADD DUP6 DUP2 GT ISZERO PUSH2 0x12DA JUMPI PUSH2 0x12D9 PUSH2 0x126E JUMP JUMPDEST JUMPDEST DUP4 JUMPDEST DUP2 DUP2 LT ISZERO PUSH2 0x1303 JUMPI DUP1 PUSH2 0x12EF DUP9 DUP3 PUSH2 0x1291 JUMP JUMPDEST DUP5 MSTORE PUSH1 0x20 DUP5 ADD SWAP4 POP POP PUSH1 0x20 DUP2 ADD SWAP1 POP PUSH2 0x12DC JUMP JUMPDEST POP POP POP SWAP4 SWAP3 POP POP POP JUMP JUMPDEST PUSH0 DUP3 PUSH1 0x1F DUP4 ADD SLT PUSH2 0x1321 JUMPI PUSH2 0x1320 PUSH2 0x11B7 JUMP JUMPDEST JUMPDEST DUP2 CALLDATALOAD PUSH2 0x1331 DUP5 DUP3 PUSH1 0x20 DUP7 ADD PUSH2 0x12A5 JUMP JUMPDEST SWAP2 POP POP SWAP3 SWAP2 POP POP JUMP JUMPDEST PUSH0 PUSH8 0xFFFFFFFFFFFFFFFF DUP3 GT ISZERO PUSH2 0x1354 JUMPI PUSH2 0x1353 PUSH2 0x11CB JUMP JUMPDEST JUMPDEST PUSH1 0x20 DUP3 MUL SWAP1 POP PUSH1 0x20 DUP2 ADD SWAP1 POP SWAP2 SWAP1 POP JUMP JUMPDEST PUSH0 PUSH0 REVERT JUMPDEST PUSH0 PUSH8 0xFFFFFFFFFFFFFFFF DUP3 GT ISZERO PUSH2 0x1383 JUMPI PUSH2 0x1382 PUSH2 0x11CB JUMP JUMPDEST JUMPDEST PUSH2 0x138C DUP3 PUSH2 0x11BB JUMP JUMPDEST SWAP1 POP PUSH1 0x20 DUP2 ADD SWAP1 POP SWAP2 SWAP1 POP JUMP JUMPDEST DUP3 DUP2 DUP4 CALLDATACOPY PUSH0 DUP4 DUP4 ADD MSTORE POP POP POP JUMP JUMPDEST PUSH0 PUSH2 0x13B9 PUSH2 0x13B4 DUP5 PUSH2 0x1369 JUMP JUMPDEST PUSH2 0x1229 JUMP JUMPDEST SWAP1 POP DUP3 DUP2 MSTORE PUSH1 0x20 DUP2 ADD DUP5 DUP5 DUP5 ADD GT ISZERO PUSH2 0x13D5 JUMPI PUSH2 0x13D4 PUSH2 0x1365 JUMP JUMPDEST JUMPDEST PUSH2 0x13E0 DUP5 DUP3 DUP6 PUSH2 0x1399 JUMP JUMPDEST POP SWAP4 SWAP3 POP POP POP JUMP JUMPDEST PUSH0 DUP3 PUSH1 0x1F DUP4 ADD SLT PUSH2 0x13FC JUMPI PUSH2 0x13FB PUSH2 0x11B7 JUMP JUMPDEST JUMPDEST DUP2 CALLDATALOAD PUSH2 0x140C DUP5 DUP3 PUSH1 0x20 DUP7 ADD PUSH2 0x13A7 JUMP JUMPDEST SWAP2 POP POP SWAP3 SWAP2 POP POP JUMP JUMPDEST PUSH0 PUSH2 0x1427 PUSH2 0x1422 DUP5 PUSH2 0x133A JUMP JUMPDEST PUSH2 0x1229 JUMP JUMPDEST SWAP1 POP DUP1 DUP4 DUP3 MSTORE PUSH1 0x20 DUP3 ADD SWAP1 POP PUSH1 0x20 DUP5 MUL DUP4 ADD DUP6 DUP2 GT ISZERO PUSH2 0x144A JUMPI PUSH2 0x1449 PUSH2 0x126E JUMP JUMPDEST JUMPDEST DUP4 JUMPDEST DUP2 DUP2 LT ISZERO PUSH2 0x1491 JUMPI DUP1 CALLDATALOAD PUSH8 0xFFFFFFFFFFFFFFFF DUP2 GT ISZERO PUSH2 0x146F JUMPI PUSH2 0x146E PUSH2 0x11B7 JUMP JUMPDEST JUMPDEST DUP1 DUP7 ADD PUSH2 0x147C DUP10 DUP3 PUSH2 0x13E8 JUMP JUMPDEST DUP6 MSTORE PUSH1 0x20 DUP6 ADD SWAP5 POP POP POP PUSH1 0x20 DUP2 ADD SWAP1 POP PUSH2 0x144C JUMP JUMPDEST POP POP POP SWAP4 SWAP3 POP POP POP JUMP JUMPDEST PUSH0 DUP3 PUSH1 0x1F DUP4 ADD SLT PUSH2 0x14AF JUMPI PUSH2 0x14AE PUSH2 0x11B7 JUMP JUMPDEST JUMPDEST DUP2 CALLDATALOAD PUSH2 0x14BF DUP5 DUP3 PUSH1 0x20 DUP7 ADD PUSH2 0x1415 JUMP JUMPDEST SWAP2 POP POP SWAP3 SWAP2 POP POP JUMP JUMPDEST PUSH0 PUSH0 PUSH0 PUSH1 0x60 DUP5 DUP7 SUB SLT ISZERO PUSH2 0x14DF JUMPI PUSH2 0x14DE PUSH2 0x11AF JUMP JUMPDEST JUMPDEST PUSH0 DUP5 ADD CALLDATALOAD PUSH8 0xFFFFFFFFFFFFFFFF DUP2 GT ISZERO PUSH2 0x14FC JUMPI PUSH2 0x14FB PUSH2 0x11B3 JUMP JUMPDEST JUMPDEST PUSH2 0x1508 DUP7 DUP3 DUP8 ADD PUSH2 0x130D JUMP JUMPDEST SWAP4 POP POP PUSH1 0x20 DUP5 ADD CALLDATALOAD PUSH8 0xFFFFFFFFFFFFFFFF DUP2 GT ISZERO PUSH2 0x1529 JUMPI PUSH2 0x1528 PUSH2 0x11B3 JUMP JUMPDEST JUMPDEST PUSH2 0x1535 DUP7 DUP3 DUP8 ADD PUSH2 0x149B JUMP JUMPDEST SWAP3 POP POP PUSH1 0x40 DUP5 ADD CALLDATALOAD PUSH8 0xFFFFFFFFFFFFFFFF DUP2 GT ISZERO PUSH2 0x1556 JUMPI PUSH2 0x1555 PUSH2 0x11B3 JUMP JUMPDEST JUMPDEST PUSH2 0x1562 DUP7 DUP3 DUP8 ADD PUSH2 0x130D JUMP JUMPDEST SWAP2 POP POP SWAP3 POP SWAP3 POP SWAP3 JUMP JUMPDEST PUSH0 PUSH8 0xFFFFFFFFFFFFFFFF DUP3 GT ISZERO PUSH2 0x1586 JUMPI PUSH2 0x1585 PUSH2 0x11CB JUMP JUMPDEST JUMPDEST PUSH1 0x20 DUP3 MUL SWAP1 POP PUSH1 0x20 DUP2 ADD SWAP1 POP SWAP2 SWAP1 POP JUMP JUMPDEST PUSH0 PUSH0 REVERT JUMPDEST PUSH0 PUSH0 REVERT JUMPDEST PUSH0 DUP2 SWAP1 POP SWAP2 SWAP1 POP JUMP JUMPDEST PUSH2 0x15B1 DUP2 PUSH2 0x159F JUMP JUMPDEST DUP2 EQ PUSH2 0x15BB JUMPI PUSH0 PUSH0 REVERT JUMPDEST POP JUMP JUMPDEST PUSH0 DUP2 CALLDATALOAD SWAP1 POP PUSH2 0x15CC DUP2 PUSH2 0x15A8 JUMP JUMPDEST SWAP3 SWAP2 POP POP JUMP JUMPDEST PUSH0 PUSH1 0x40 DUP3 DUP5 SUB SLT ISZERO PUSH2 0x15E7 JUMPI PUSH2 0x15E6 PUSH2 0x1597 JUMP JUMPDEST JUMPDEST PUSH2 0x15F1 PUSH1 0x40 PUSH2 0x1229 JUMP JUMPDEST SWAP1 POP PUSH0 PUSH2 0x1600 DUP5 DUP3 DUP6 ADD PUSH2 0x15BE JUMP JUMPDEST PUSH0 DUP4 ADD MSTORE POP PUSH1 0x20 PUSH2 0x1613 DUP5 DUP3 DUP6 ADD PUSH2 0x15BE JUMP JUMPDEST PUSH1 0x20 DUP4 ADD MSTORE POP SWAP3 SWAP2 POP POP JUMP JUMPDEST PUSH0 PUSH2 0x1631 PUSH2 0x162C DUP5 PUSH2 0x156C JUMP JUMPDEST PUSH2 0x1229 JUMP JUMPDEST SWAP1 POP DUP1 DUP4 DUP3 MSTORE PUSH1 0x20 DUP3 ADD SWAP1 POP PUSH1 0x40 DUP5 MUL DUP4 ADD DUP6 DUP2 GT ISZERO PUSH2 0x1654 JUMPI PUSH2 0x1653 PUSH2 0x126E JUMP JUMPDEST JUMPDEST DUP4 JUMPDEST DUP2 DUP2 LT ISZERO PUSH2 0x167D JUMPI DUP1 PUSH2 0x1669 DUP9 DUP3 PUSH2 0x15D2 JUMP JUMPDEST DUP5 MSTORE PUSH1 0x20 DUP5 ADD SWAP4 POP POP PUSH1 0x40 DUP2 ADD SWAP1 POP PUSH2 0x1656 JUMP JUMPDEST POP POP POP SWAP4 SWAP3 POP POP POP JUMP JUMPDEST PUSH0 DUP3 PUSH1 0x1F DUP4 ADD SLT PUSH2 0x169B JUMPI PUSH2 0x169A PUSH2 0x11B7 JUMP JUMPDEST JUMPDEST DUP2 CALLDATALOAD PUSH2 0x16AB DUP5 DUP3 PUSH1 0x20 DUP7 ADD PUSH2 0x161F JUMP JUMPDEST SWAP2 POP POP SWAP3 SWAP2 POP POP JUMP JUMPDEST PUSH0 PUSH0 PUSH1 0x40 DUP4 DUP6 SUB SLT ISZERO PUSH2 0x16CA JUMPI PUSH2 0x16C9 PUSH2 0x11AF JUMP JUMPDEST JUMPDEST PUSH0 DUP4 ADD CALLDATALOAD PUSH8 0xFFFFFFFFFFFFFFFF DUP2 GT ISZERO PUSH2 0x16E7 JUMPI PUSH2 0x16E6 PUSH2 0x11B3 JUMP JUMPDEST JUMPDEST PUSH2 0x16F3 DUP6 DUP3 DUP7 ADD PUSH2 0x130D JUMP JUMPDEST SWAP3 POP POP PUSH1 0x20 DUP4 ADD CALLDATALOAD PUSH8 0xFFFFFFFFFFFFFFFF DUP2 GT ISZERO PUSH2 0x1714 JUMPI PUSH2 0x1713 PUSH2 0x11B3 JUMP JUMPDEST JUMPDEST PUSH2 0x1720 DUP6 DUP3 DUP7 ADD PUSH2 0x1687 JUMP JUMPDEST SWAP2 POP POP SWAP3 POP SWAP3 SWAP1 POP JUMP JUMPDEST PUSH0 PUSH0 PUSH1 0x40 DUP4 DUP6 SUB SLT ISZERO PUSH2 0x1740 JUMPI PUSH2 0x173F PUSH2 0x11AF JUMP JUMPDEST JUMPDEST PUSH0 PUSH2 0x174D DUP6 DUP3 DUP7 ADD PUSH2 0x1291 JUMP JUMPDEST SWAP3 POP POP PUSH1 0x20 DUP4 ADD CALLDATALOAD PUSH8 0xFFFFFFFFFFFFFFFF DUP2 GT ISZERO PUSH2 0x176E JUMPI PUSH2 0x176D PUSH2 0x11B3 JUMP JUMPDEST JUMPDEST PUSH2 0x177A DUP6 DUP3 DUP7 ADD PUSH2 0x13E8 JUMP JUMPDEST SWAP2 POP POP SWAP3 POP SWAP3 SWAP1 POP JUMP JUMPDEST PUSH2 0x178D DUP2 PUSH2 0x1272 JUMP JUMPDEST DUP3 MSTORE POP POP JUMP JUMPDEST PUSH0 PUSH1 0x20 DUP3 ADD SWAP1 POP PUSH2 0x17A6 PUSH0 DUP4 ADD DUP5 PUSH2 0x1784 JUMP JUMPDEST SWAP3 SWAP2 POP POP JUMP JUMPDEST PUSH0 PUSH1 0x20 DUP3 DUP5 SUB SLT ISZERO PUSH2 0x17C1 JUMPI PUSH2 0x17C0 PUSH2 0x11AF JUMP JUMPDEST JUMPDEST PUSH0 PUSH2 0x17CE DUP5 DUP3 DUP6 ADD PUSH2 0x1291 JUMP JUMPDEST SWAP2 POP POP SWAP3 SWAP2 POP POP JUMP JUMPDEST PUSH2 0x17E0 DUP2 PUSH2 0x159F JUMP JUMPDEST DUP3 MSTORE POP POP JUMP JUMPDEST PUSH1 0x40 DUP3 ADD PUSH0 DUP3 ADD MLOAD PUSH2 0x17FA PUSH0 DUP6 ADD DUP3 PUSH2 0x17D7 JUMP JUMPDEST POP PUSH1 0x20 DUP3 ADD MLOAD PUSH2 0x180D PUSH1 0x20 DUP6 ADD DUP3 PUSH2 0x17D7 JUMP JUMPDEST POP POP POP POP JUMP JUMPDEST PUSH0 PUSH1 0x40 DUP3 ADD SWAP1 POP PUSH2 0x1826 PUSH0 DUP4 ADD DUP5 PUSH2 0x17E6 JUMP JUMPDEST SWAP3 SWAP2 POP POP JUMP JUMPDEST PUSH0 PUSH0 REVERT JUMPDEST PUSH0 PUSH0 DUP4 PUSH1 0x1F DUP5 ADD SLT PUSH2 0x1845 JUMPI PUSH2 0x1844 PUSH2 0x11B7 JUMP JUMPDEST JUMPDEST DUP3 CALLDATALOAD SWAP1 POP PUSH8 0xFFFFFFFFFFFFFFFF DUP2 GT ISZERO PUSH2 0x1862 JUMPI PUSH2 0x1861 PUSH2 0x182C JUMP JUMPDEST JUMPDEST PUSH1 0x20 DUP4 ADD SWAP2 POP DUP4 PUSH1 0x20 DUP3 MUL DUP4 ADD GT ISZERO PUSH2 0x187E JUMPI PUSH2 0x187D PUSH2 0x126E JUMP JUMPDEST JUMPDEST SWAP3 POP SWAP3 SWAP1 POP JUMP JUMPDEST PUSH0 PUSH0 DUP4 PUSH1 0x1F DUP5 ADD SLT PUSH2 0x189A JUMPI PUSH2 0x1899 PUSH2 0x11B7 JUMP JUMPDEST JUMPDEST DUP3 CALLDATALOAD SWAP1 POP PUSH8 0xFFFFFFFFFFFFFFFF DUP2 GT ISZERO PUSH2 0x18B7 JUMPI PUSH2 0x18B6 PUSH2 0x182C JUMP JUMPDEST JUMPDEST PUSH1 0x20 DUP4 ADD SWAP2 POP DUP4 PUSH1 0x40 DUP3 MUL DUP4 ADD GT ISZERO PUSH2 0x18D3 JUMPI PUSH2 0x18D2 PUSH2 0x126E JUMP JUMPDEST JUMPDEST SWAP3 POP SWAP3 SWAP1 POP JUMP JUMPDEST PUSH0 PUSH0 PUSH0 PUSH0 PUSH1 0x40 DUP6 DUP8 SUB SLT ISZERO PUSH2 0x18F2 JUMPI PUSH2 0x18F1 PUSH2 0x11AF JUMP JUMPDEST JUMPDEST PUSH0 DUP6 ADD CALLDATALOAD PUSH8 0xFFFFFFFFFFFFFFFF DUP2 GT ISZERO PUSH2 0x190F JUMPI PUSH2 0x190E PUSH2 0x11B3 JUMP JUMPDEST JUMPDEST PUSH2 0x191B DUP8 DUP3 DUP9 ADD PUSH2 0x1830 JUMP JUMPDEST SWAP5 POP SWAP5 POP POP PUSH1 0x20 DUP6 ADD CALLDATALOAD PUSH8 0xFFFFFFFFFFFFFFFF DUP2 GT ISZERO PUSH2 0x193E JUMPI PUSH2 0x193D PUSH2 0x11B3 JUMP JUMPDEST JUMPDEST PUSH2 0x194A DUP8 DUP3 DUP9 ADD PUSH2 0x1885 JUMP JUMPDEST SWAP3 POP SWAP3 POP POP SWAP3 SWAP6 SWAP2 SWAP5 POP SWAP3 POP JUMP JUMPDEST PUSH0 PUSH0 DUP4 PUSH1 0x1F DUP5 ADD SLT PUSH2 0x196D JUMPI PUSH2 0x196C PUSH2 0x11B7 JUMP JUMPDEST JUMPDEST DUP3 CALLDATALOAD SWAP1 POP PUSH8 0xFFFFFFFFFFFFFFFF DUP2 GT ISZERO PUSH2 0x198A JUMPI PUSH2 0x1989 PUSH2 0x182C JUMP JUMPDEST JUMPDEST PUSH1 0x20 DUP4 ADD SWAP2 POP DUP4 PUSH1 0x1 DUP3 MUL DUP4 ADD GT ISZERO PUSH2 0x19A6 JUMPI PUSH2 0x19A5 PUSH2 0x126E JUMP JUMPDEST JUMPDEST SWAP3 POP SWAP3 SWAP1 POP JUMP JUMPDEST PUSH0 PUSH0 PUSH0 PUSH0 PUSH0 PUSH0 PUSH1 0x80 DUP8 DUP10 SUB SLT ISZERO PUSH2 0x19C7 JUMPI PUSH2 0x19C6 PUSH2 0x11AF JUMP JUMPDEST JUMPDEST PUSH0 PUSH2 0x19D4 DUP10 DUP3 DUP11 ADD PUSH2 0x1291 JUMP JUMPDEST SWAP7 POP POP PUSH1 0x20 DUP8 ADD CALLDATALOAD PUSH8 0xFFFFFFFFFFFFFFFF DUP2 GT ISZERO PUSH2 0x19F5 JUMPI PUSH2 0x19F4 PUSH2 0x11B3 JUMP JUMPDEST JUMPDEST PUSH2 0x1A01 DUP10 DUP3 DUP11 ADD PUSH2 0x1958 JUMP JUMPDEST SWAP6 POP SWAP6 POP POP PUSH1 0x40 DUP8 ADD CALLDATALOAD PUSH8 0xFFFFFFFFFFFFFFFF DUP2 GT ISZERO PUSH2 0x1A24 JUMPI PUSH2 0x1A23 PUSH2 0x11B3 JUMP JUMPDEST JUMPDEST PUSH2 0x1A30 DUP10 DUP3 DUP11 ADD PUSH2 0x1958 JUMP JUMPDEST SWAP4 POP SWAP4 POP POP PUSH1 0x60 PUSH2 0x1A43 DUP10 DUP3 DUP11 ADD PUSH2 0x1291 JUMP JUMPDEST SWAP2 POP POP SWAP3 SWAP6 POP SWAP3 SWAP6 POP SWAP3 SWAP6 JUMP JUMPDEST PUSH0 PUSH0 REVERT JUMPDEST PUSH0 PUSH2 0x100 DUP3 DUP5 SUB SLT ISZERO PUSH2 0x1A6A JUMPI PUSH2 0x1A69 PUSH2 0x1A50 JUMP JUMPDEST JUMPDEST DUP2 SWAP1 POP SWAP3 SWAP2 POP POP JUMP JUMPDEST PUSH0 PUSH0 PUSH0 PUSH2 0x120 DUP5 DUP7 SUB SLT ISZERO PUSH2 0x1A8B JUMPI PUSH2 0x1A8A PUSH2 0x11AF JUMP JUMPDEST JUMPDEST PUSH0 PUSH2 0x1A98 DUP7 DUP3 DUP8 ADD PUSH2 0x1A54 JUMP JUMPDEST SWAP4 POP POP PUSH2 0x100 DUP5 ADD CALLDATALOAD PUSH8 0xFFFFFFFFFFFFFFFF DUP2 GT ISZERO PUSH2 0x1ABA JUMPI PUSH2 0x1AB9 PUSH2 0x11B3 JUMP JUMPDEST JUMPDEST PUSH2 0x1AC6 DUP7 DUP3 DUP8 ADD PUSH2 0x1958 JUMP JUMPDEST SWAP3 POP SWAP3 POP POP SWAP3 POP SWAP3 POP SWAP3 JUMP JUMPDEST PUSH0 PUSH20 0xFFFFFFFFFFFFFFFFFFFFFFFFFFFFFFFFFFFFFFFF DUP3 AND SWAP1 POP SWAP2 SWAP1 POP JUMP JUMPDEST PUSH0 PUSH2 0x1AFB DUP3 PUSH2 0x1AD2 JUMP JUMPDEST SWAP1 POP SWAP2 SWAP1 POP JUMP JUMPDEST PUSH2 0x1B0B DUP2 PUSH2 0x1AF1 JUMP JUMPDEST DUP3 MSTORE POP POP JUMP JUMPDEST PUSH0 PUSH1 0x20 DUP3 ADD SWAP1 POP PUSH2 0x1B24 PUSH0 DUP4 ADD DUP5 PUSH2 0x1B02 JUMP JUMPDEST SWAP3 SWAP2 POP POP JUMP JUMPDEST PUSH2 0x1B33 DUP2 PUSH2 0x1AF1 JUMP JUMPDEST DUP2 EQ PUSH2 0x1B3D JUMPI PUSH0 PUSH0 REVERT JUMPDEST POP JUMP JUMPDEST PUSH0 DUP2 CALLDATALOAD SWAP1 POP PUSH2 0x1B4E DUP2 PUSH2 0x1B2A JUMP JUMPDEST SWAP3 SWAP2 POP POP JUMP JUMPDEST PUSH0 PUSH0 PUSH0 PUSH0 PUSH0 PUSH0 PUSH0 PUSH1 0xA0 DUP9 DUP11 SUB SLT ISZERO PUSH2 0x1B6F JUMPI PUSH2 0x1B6E PUSH2 0x11AF JUMP JUMPDEST JUMPDEST PUSH0 PUSH2 0x1B7C DUP11 DUP3 DUP12 ADD PUSH2 0x1291 JUMP JUMPDEST SWAP8 POP POP PUSH1 0x20 DUP9 ADD CALLDATALOAD PUSH8 0xFFFFFFFFFFFFFFFF DUP2 GT ISZERO PUSH2 0x1B9D JUMPI PUSH2 0x1B9C PUSH2 0x11B3 JUMP JUMPDEST JUMPDEST PUSH2 0x1BA9 DUP11 DUP3 DUP12 ADD PUSH2 0x1958 JUMP JUMPDEST SWAP7 POP SWAP7 POP POP PUSH1 0x40 DUP9 ADD CALLDATALOAD PUSH8 0xFFFFFFFFFFFFFFFF DUP2 GT ISZERO PUSH2 0x1BCC JUMPI PUSH2 0x1BCB PUSH2 0x11B3 JUMP JUMPDEST JUMPDEST PUSH2 0x1BD8 DUP11 DUP3 DUP12 ADD PUSH2 0x1958 JUMP JUMPDEST SWAP5 POP SWAP5 POP POP PUSH1 0x60 PUSH2 0x1BEB DUP11 DUP3 DUP12 ADD PUSH2 0x1B40 JUMP JUMPDEST SWAP3 POP POP PUSH1 0x80 PUSH2 0x1BFC DUP11 DUP3 DUP12 ADD PUSH2 0x1291 JUMP JUMPDEST SWAP2 POP POP SWAP3 SWAP6 SWAP9 SWAP2 SWAP5 SWAP8 POP SWAP3 SWAP6 POP JUMP JUMPDEST PUSH2 0x1C14 DUP2 PUSH2 0x159F JUMP JUMPDEST DUP3 MSTORE POP POP JUMP JUMPDEST PUSH0 PUSH1 0x40 DUP3 ADD SWAP1 POP PUSH2 0x1C2D PUSH0 DUP4 ADD DUP6 PUSH2 0x1C0B JUMP JUMPDEST PUSH2 0x1C3A PUSH1 0x20 DUP4 ADD DUP5 PUSH2 0x1C0B JUMP JUMPDEST SWAP4 SWAP3 POP POP POP JUMP JUMPDEST PUSH0 PUSH1 0x20 DUP3 DUP5 SUB SLT ISZERO PUSH2 0x1C56 JUMPI PUSH2 0x1C55 PUSH2 0x11AF JUMP JUMPDEST JUMPDEST PUSH0 PUSH2 0x1C63 DUP5 DUP3 DUP6 ADD PUSH2 0x1B40 JUMP JUMPDEST SWAP2 POP POP SWAP3 SWAP2 POP POP JUMP JUMPDEST PUSH0 PUSH0 PUSH0 PUSH0 PUSH1 0x80 DUP6 DUP8 SUB SLT ISZERO PUSH2 0x1C84 JUMPI PUSH2 0x1C83 PUSH2 0x11AF JUMP JUMPDEST JUMPDEST PUSH0 DUP6 ADD CALLDATALOAD PUSH8 0xFFFFFFFFFFFFFFFF DUP2 GT ISZERO PUSH2 0x1CA1 JUMPI PUSH2 0x1CA0 PUSH2 0x11B3 JUMP JUMPDEST JUMPDEST PUSH2 0x1CAD DUP8 DUP3 DUP9 ADD PUSH2 0x13E8 JUMP JUMPDEST SWAP5 POP POP PUSH1 0x20 PUSH2 0x1CBE DUP8 DUP3 DUP9 ADD PUSH2 0x1291 JUMP JUMPDEST SWAP4 POP POP PUSH1 0x40 PUSH2 0x1CCF DUP8 DUP3 DUP9 ADD PUSH2 0x1291 JUMP JUMPDEST SWAP3 POP POP PUSH1 0x60 DUP6 ADD CALLDATALOAD PUSH8 0xFFFFFFFFFFFFFFFF DUP2 GT ISZERO PUSH2 0x1CF0 JUMPI PUSH2 0x1CEF PUSH2 0x11B3 JUMP JUMPDEST JUMPDEST PUSH2 0x1CFC DUP8 DUP3 DUP9 ADD PUSH2 0x13E8 JUMP JUMPDEST SWAP2 POP POP SWAP3 SWAP6 SWAP2 SWAP5 POP SWAP3 POP JUMP JUMPDEST PUSH32 0x4E487B7100000000000000000000000000000000000000000000000000000000 PUSH0 MSTORE PUSH1 0x32 PUSH1 0x4 MSTORE PUSH1 0x24 PUSH0 REVERT JUMPDEST PUSH0 DUP2 MLOAD SWAP1 POP SWAP2 SWAP1 POP JUMP JUMPDEST PUSH0 DUP2 SWAP1 POP SWAP3 SWAP2 POP POP JUMP JUMPDEST DUP3 DUP2 DUP4 MCOPY PUSH0 DUP4 DUP4 ADD MSTORE POP POP POP JUMP JUMPDEST PUSH0 PUSH2 0x1D61 DUP3 PUSH2 0x1D35 JUMP JUMPDEST PUSH2 0x1D6B DUP2 DUP6 PUSH2 0x1D3F JUMP JUMPDEST SWAP4 POP PUSH2 0x1D7B DUP2 DUP6 PUSH1 0x20 DUP7 ADD PUSH2 0x1D49 JUMP JUMPDEST DUP1 DUP5 ADD SWAP2 POP POP SWAP3 SWAP2 POP POP JUMP JUMPDEST PUSH0 PUSH2 0x1D92 DUP3 DUP5 PUSH2 0x1D57 JUMP JUMPDEST SWAP2 POP DUP2 SWAP1 POP SWAP3 SWAP2 POP POP JUMP JUMPDEST PUSH0 PUSH1 0x40 DUP3 DUP5 SUB SLT ISZERO PUSH2 0x1DB2 JUMPI PUSH2 0x1DB1 PUSH2 0x11AF JUMP JUMPDEST JUMPDEST PUSH0 PUSH2 0x1DBF DUP5 DUP3 DUP6 ADD PUSH2 0x15D2 JUMP JUMPDEST SWAP2 POP POP SWAP3 SWAP2 POP POP JUMP JUMPDEST PUSH32 0x4E487B7100000000000000000000000000000000000000000000000000000000 PUSH0 MSTORE PUSH1 0x11 PUSH1 0x4 MSTORE PUSH1 0x24 PUSH0 REVERT JUMPDEST PUSH0 PUSH2 0x1DFF DUP3 PUSH2 0x1272 JUMP JUMPDEST SWAP2 POP PUSH2 0x1E0A DUP4 PUSH2 0x1272 JUMP JUMPDEST SWAP3 POP DUP3 DUP3 SUB SWAP1 POP DUP2 DUP2 GT ISZERO PUSH2 0x1E22 JUMPI PUSH2 0x1E21 PUSH2 0x1DC8 JUMP JUMPDEST JUMPDEST SWAP3 SWAP2 POP POP JUMP JUMPDEST PUSH0 DUP2 MLOAD SWAP1 POP PUSH2 0x1E36 DUP2 PUSH2 0x127B JUMP JUMPDEST SWAP3 SWAP2 POP POP JUMP JUMPDEST PUSH0 PUSH1 0x20 DUP3 DUP5 SUB SLT ISZERO PUSH2 0x1E51 JUMPI PUSH2 0x1E50 PUSH2 0x11AF JUMP JUMPDEST JUMPDEST PUSH0 PUSH2 0x1E5E DUP5 DUP3 DUP6 ADD PUSH2 0x1E28 JUMP JUMPDEST SWAP2 POP POP SWAP3 SWAP2 POP POP JUMP JUMPDEST PUSH0 PUSH2 0x1E71 DUP3 PUSH2 0x1272 JUMP JUMPDEST SWAP2 POP PUSH2 0x1E7C DUP4 PUSH2 0x1272 JUMP JUMPDEST SWAP3 POP DUP3 DUP3 MUL PUSH2 0x1E8A DUP2 PUSH2 0x1272 JUMP JUMPDEST SWAP2 POP DUP3 DUP3 DIV DUP5 EQ DUP4 ISZERO OR PUSH2 0x1EA1 JUMPI PUSH2 0x1EA0 PUSH2 0x1DC8 JUMP JUMPDEST JUMPDEST POP SWAP3 SWAP2 POP POP JUMP JUMPDEST PUSH32 0x4E487B7100000000000000000000000000000000000000000000000000000000 PUSH0 MSTORE PUSH1 0x12 PUSH1 0x4 MSTORE PUSH1 0x24 PUSH0 REVERT JUMPDEST PUSH0 PUSH2 0x1EDF DUP3 PUSH2 0x1272 JUMP JUMPDEST SWAP2 POP PUSH2 0x1EEA DUP4 PUSH2 0x1272 JUMP JUMPDEST SWAP3 POP DUP3 PUSH2 0x1EFA JUMPI PUSH2 0x1EF9 PUSH2 0x1EA8 JUMP JUMPDEST JUMPDEST DUP3 DUP3 DIV SWAP1 POP SWAP3 SWAP2 POP POP JUMP JUMPDEST PUSH0 DUP3 DUP3 MSTORE PUSH1 0x20 DUP3 ADD SWAP1 POP SWAP3 SWAP2 POP POP JUMP JUMPDEST PUSH0 PUSH2 0x1F1F DUP3 PUSH2 0x1D35 JUMP JUMPDEST PUSH2 0x1F29 DUP2 DUP6 PUSH2 0x1F05 JUMP JUMPDEST SWAP4 POP PUSH2 0x1F39 DUP2 DUP6 PUSH1 0x20 DUP7 ADD PUSH2 0x1D49 JUMP JUMPDEST PUSH2 0x1F42 DUP2 PUSH2 0x11BB JUMP JUMPDEST DUP5 ADD SWAP2 POP POP SWAP3 SWAP2 POP POP JUMP JUMPDEST PUSH2 0x1F56 DUP2 PUSH2 0x1272 JUMP JUMPDEST DUP3 MSTORE POP POP JUMP JUMPDEST PUSH0 PUSH1 0x60 DUP4 ADD PUSH0 DUP4 ADD MLOAD DUP5 DUP3 SUB PUSH0 DUP7 ADD MSTORE PUSH2 0x1F76 DUP3 DUP3 PUSH2 0x1F15 JUMP JUMPDEST SWAP2 POP POP PUSH1 0x20 DUP4 ADD MLOAD PUSH2 0x1F8B PUSH1 0x20 DUP7 ADD DUP3 PUSH2 0x1F4D JUMP JUMPDEST POP PUSH1 0x40 DUP4 ADD MLOAD DUP5 DUP3 SUB PUSH1 0x40 DUP7 ADD MSTORE PUSH2 0x1FA3 DUP3 DUP3 PUSH2 0x1F15 JUMP JUMPDEST SWAP2 POP POP DUP1 SWAP2 POP POP SWAP3 SWAP2 POP POP JUMP JUMPDEST PUSH0 PUSH1 0x20 DUP3 ADD SWAP1 POP DUP2 DUP2 SUB PUSH0 DUP4 ADD MSTORE PUSH2 0x1FC8 DUP2 DUP5 PUSH2 0x1F5C JUMP JUMPDEST SWAP1 POP SWAP3 SWAP2 POP POP JUMP JUMPDEST PUSH0 DUP3 DUP3 MSTORE PUSH1 0x20 DUP3 ADD SWAP1 POP SWAP3 SWAP2 POP POP JUMP JUMPDEST PUSH0 PUSH2 0x1FEA DUP3 PUSH2 0x1D35 JUMP JUMPDEST PUSH2 0x1FF4 DUP2 DUP6 PUSH2 0x1FD0 JUMP JUMPDEST SWAP4 POP PUSH2 0x2004 DUP2 DUP6 PUSH1 0x20 DUP7 ADD PUSH2 0x1D49 JUMP JUMPDEST PUSH2 0x200D DUP2 PUSH2 0x11BB JUMP JUMPDEST DUP5 ADD SWAP2 POP POP SWAP3 SWAP2 POP POP JUMP JUMPDEST PUSH0 PUSH1 0x80 DUP3 ADD SWAP1 POP PUSH2 0x202B PUSH0 DUP4 ADD DUP7 PUSH2 0x17E6 JUMP JUMPDEST PUSH2 0x2038 PUSH1 0x40 DUP4 ADD DUP6 PUSH2 0x1784 JUMP JUMPDEST DUP2 DUP2 SUB PUSH1 0x60 DUP4 ADD MSTORE PUSH2 0x204A DUP2 DUP5 PUSH2 0x1FE0 JUMP JUMPDEST SWAP1 POP SWAP5 SWAP4 POP POP POP POP JUMP JUMPDEST PUSH0 DUP2 MLOAD SWAP1 POP PUSH2 0x2062 DUP2 PUSH2 0x15A8 JUMP JUMPDEST SWAP3 SWAP2 POP POP JUMP JUMPDEST PUSH0 PUSH1 0x20 DUP3 DUP5 SUB SLT ISZERO PUSH2 0x207D JUMPI PUSH2 0x207C PUSH2 0x11AF JUMP JUMPDEST JUMPDEST PUSH0 PUSH2 0x208A DUP5 DUP3 DUP6 ADD PUSH2 0x2054 JUMP JUMPDEST SWAP2 POP POP SWAP3 SWAP2 POP POP JUMP JUMPDEST PUSH0 PUSH2 0x209E DUP4 DUP6 PUSH2 0x1FD0 JUMP JUMPDEST SWAP4 POP PUSH2 0x20AB DUP4 DUP6 DUP5 PUSH2 0x1399 JUMP JUMPDEST PUSH2 0x20B4 DUP4 PUSH2 0x11BB JUMP JUMPDEST DUP5 ADD SWAP1 POP SWAP4 SWAP3 POP POP POP JUMP JUMPDEST PUSH0 PUSH1 0xA0 DUP3 ADD SWAP1 POP PUSH2 0x20D2 PUSH0 DUP4 ADD DUP11 PUSH2 0x1B02 JUMP JUMPDEST PUSH2 0x20DF PUSH1 0x20 DUP4 ADD DUP10 PUSH2 0x1784 JUMP JUMPDEST DUP2 DUP2 SUB PUSH1 0x40 DUP4 ADD MSTORE PUSH2 0x20F2 DUP2 DUP8 DUP10 PUSH2 0x2093 JUMP JUMPDEST SWAP1 POP PUSH2 0x2101 PUSH1 0x60 DUP4 ADD DUP7 PUSH2 0x1784 JUMP JUMPDEST DUP2 DUP2 SUB PUSH1 0x80 DUP4 ADD MSTORE PUSH2 0x2114 DUP2 DUP5 DUP7 PUSH2 0x2093 JUMP JUMPDEST SWAP1 POP SWAP9 SWAP8 POP POP POP POP POP POP POP POP JUMP JUMPDEST PUSH0 PUSH1 0x60 DUP3 DUP5 SUB SLT ISZERO PUSH2 0x2137 JUMPI PUSH2 0x2136 PUSH2 0x1597 JUMP JUMPDEST JUMPDEST PUSH2 0x2141 PUSH1 0x60 PUSH2 0x1229 JUMP JUMPDEST SWAP1 POP PUSH0 DUP3 ADD CALLDATALOAD PUSH8 0xFFFFFFFFFFFFFFFF DUP2 GT ISZERO PUSH2 0x2160 JUMPI PUSH2 0x215F PUSH2 0x159B JUMP JUMPDEST JUMPDEST PUSH2 0x216C DUP5 DUP3 DUP6 ADD PUSH2 0x13E8 JUMP JUMPDEST PUSH0 DUP4 ADD MSTORE POP PUSH1 0x20 PUSH2 0x217F DUP5 DUP3 DUP6 ADD PUSH2 0x1291 JUMP JUMPDEST PUSH1 0x20 DUP4 ADD MSTORE POP PUSH1 0x40 DUP3 ADD CALLDATALOAD PUSH8 0xFFFFFFFFFFFFFFFF DUP2 GT ISZERO PUSH2 0x21A3 JUMPI PUSH2 0x21A2 PUSH2 0x159B JUMP JUMPDEST JUMPDEST PUSH2 0x21AF DUP5 DUP3 DUP6 ADD PUSH2 0x13E8 JUMP JUMPDEST PUSH1 0x40 DUP4 ADD MSTORE POP SWAP3 SWAP2 POP POP JUMP JUMPDEST PUSH0 PUSH1 0x20 DUP3 DUP5 SUB SLT ISZERO PUSH2 0x21D0 JUMPI PUSH2 0x21CF PUSH2 0x11AF JUMP JUMPDEST JUMPDEST PUSH0 DUP3 ADD CALLDATALOAD PUSH8 0xFFFFFFFFFFFFFFFF DUP2 GT ISZERO PUSH2 0x21ED JUMPI PUSH2 0x21EC PUSH2 0x11B3 JUMP JUMPDEST JUMPDEST PUSH2 0x21F9 DUP5 DUP3 DUP6 ADD PUSH2 0x2122 JUMP JUMPDEST SWAP2 POP POP SWAP3 SWAP2 POP POP JUMP JUMPDEST PUSH0 PUSH2 0x220C DUP3 PUSH2 0x1AD2 JUMP JUMPDEST SWAP1 POP SWAP2 SWAP1 POP JUMP JUMPDEST PUSH2 0x221C DUP2 PUSH2 0x2202 JUMP JUMPDEST DUP2 EQ PUSH2 0x2226 JUMPI PUSH0 PUSH0 REVERT JUMPDEST POP JUMP JUMPDEST PUSH0 DUP2 MLOAD SWAP1 POP PUSH2 0x2237 DUP2 PUSH2 0x2213 JUMP JUMPDEST SWAP3 SWAP2 POP POP JUMP JUMPDEST PUSH0 PUSH1 0x20 DUP3 DUP5 SUB SLT ISZERO PUSH2 0x2252 JUMPI PUSH2 0x2251 PUSH2 0x11AF JUMP JUMPDEST JUMPDEST PUSH0 PUSH2 0x225F DUP5 DUP3 DUP6 ADD PUSH2 0x2229 JUMP JUMPDEST SWAP2 POP POP SWAP3 SWAP2 POP POP JUMP JUMPDEST PUSH0 PUSH1 0x60 DUP3 ADD SWAP1 POP PUSH2 0x227B PUSH0 DUP4 ADD DUP7 PUSH2 0x1B02 JUMP JUMPDEST PUSH2 0x2288 PUSH1 0x20 DUP4 ADD DUP6 PUSH2 0x1B02 JUMP JUMPDEST PUSH2 0x2295 PUSH1 0x40 DUP4 ADD DUP5 PUSH2 0x1784 JUMP JUMPDEST SWAP5 SWAP4 POP POP POP POP JUMP JUMPDEST PUSH0 DUP2 ISZERO ISZERO SWAP1 POP SWAP2 SWAP1 POP JUMP JUMPDEST PUSH2 0x22B1 DUP2 PUSH2 0x229D JUMP JUMPDEST DUP2 EQ PUSH2 0x22BB JUMPI PUSH0 PUSH0 REVERT JUMPDEST POP JUMP JUMPDEST PUSH0 DUP2 MLOAD SWAP1 POP PUSH2 0x22CC DUP2 PUSH2 0x22A8 JUMP JUMPDEST SWAP3 SWAP2 POP POP JUMP JUMPDEST PUSH0 PUSH1 0x20 DUP3 DUP5 SUB SLT ISZERO PUSH2 0x22E7 JUMPI PUSH2 0x22E6 PUSH2 0x11AF JUMP JUMPDEST JUMPDEST PUSH0 PUSH2 0x22F4 DUP5 DUP3 DUP6 ADD PUSH2 0x22BE JUMP JUMPDEST SWAP2 POP POP SWAP3 SWAP2 POP POP JUMP JUMPDEST PUSH0 DUP3 DUP3 MSTORE PUSH1 0x20 DUP3 ADD SWAP1 POP SWAP3 SWAP2 POP POP JUMP JUMPDEST PUSH32 0x5472616E7366657248656C7065723A205452414E534645525F46524F4D5F4641 PUSH0 DUP3 ADD MSTORE PUSH32 0x494C454400000000000000000000000000000000000000000000000000000000 PUSH1 0x20 DUP3 ADD MSTORE POP JUMP JUMPDEST PUSH0 PUSH2 0x2367 PUSH1 0x24 DUP4 PUSH2 0x22FD JUMP JUMPDEST SWAP2 POP PUSH2 0x2372 DUP3 PUSH2 0x230D JUMP JUMPDEST PUSH1 0x40 DUP3 ADD SWAP1 POP SWAP2 SWAP1 POP JUMP JUMPDEST PUSH0 PUSH1 0x20 DUP3 ADD SWAP1 POP DUP2 DUP2 SUB PUSH0 DUP4 ADD MSTORE PUSH2 0x2394 DUP2 PUSH2 0x235B JUMP JUMPDEST SWAP1 POP SWAP2 SWAP1 POP JUMP JUMPDEST PUSH32 0x5472616E7366657248656C7065723A204554485F5452414E534645525F464149 PUSH0 DUP3 ADD MSTORE PUSH32 0x4C45440000000000000000000000000000000000000000000000000000000000 PUSH1 0x20 DUP3 ADD MSTORE POP JUMP JUMPDEST PUSH0 PUSH2 0x23F5 PUSH1 0x23 DUP4 PUSH2 0x22FD JUMP JUMPDEST SWAP2 POP PUSH2 0x2400 DUP3 PUSH2 0x239B JUMP JUMPDEST PUSH1 0x40 DUP3 ADD SWAP1 POP SWAP2 SWAP1 POP JUMP JUMPDEST PUSH0 PUSH1 0x20 DUP3 ADD SWAP1 POP DUP2 DUP2 SUB PUSH0 DUP4 ADD MSTORE PUSH2 0x2422 DUP2 PUSH2 0x23E9 JUMP JUMPDEST SWAP1 POP SWAP2 SWAP1 POP JUMP JUMPDEST PUSH0 PUSH1 0x40 DUP3 ADD SWAP1 POP PUSH2 0x243C PUSH0 DUP4 ADD DUP6 PUSH2 0x1B02 JUMP JUMPDEST PUSH2 0x2449 PUSH1 0x20 DUP4 ADD DUP5 PUSH2 0x1784 JUMP JUMPDEST SWAP4 SWAP3 POP POP POP JUMP JUMPDEST PUSH32 0x5472616E7366657248656C7065723A205452414E534645525F4641494C454400 PUSH0 DUP3 ADD MSTORE POP JUMP JUMPDEST PUSH0 PUSH2 0x2484 PUSH1 0x1F DUP4 PUSH2 0x22FD JUMP JUMPDEST SWAP2 POP PUSH2 0x248F DUP3 PUSH2 0x2450 JUMP JUMPDEST PUSH1 0x20 DUP3 ADD SWAP1 POP SWAP2 SWAP1 POP JUMP JUMPDEST PUSH0 PUSH1 0x20 DUP3 ADD SWAP1 POP DUP2 DUP2 SUB PUSH0 DUP4 ADD MSTORE PUSH2 0x24B1 DUP2 PUSH2 0x2478 JUMP JUMPDEST SWAP1 POP SWAP2 SWAP1 POP JUMP INVALID LOG2 PUSH5 0x6970667358 0x22 SLT KECCAK256 CALL 0xD9 RETURNDATASIZE KECCAK256 GAS PUSH14 0x8B50BBE4C97802B4F044536743FE 0xD7 PUSH17 0x1736595441EFEB6789D564736F6C634300 ADDMOD SHL STOP CALLER "
				},
				"gasEstimates": {
					"creation": {
						"codeDepositCost": "1890800",
						"executionCost": "infinite",
						"totalCost": "infinite"
					},
					"external": {
						"calculateDestinationTokenAmount(bytes,uint256,uint256,bytes)": "infinite",
						"getPeer(uint256)": "infinite",
						"owner()": "2581",
						"peers(uint256)": "infinite",
						"receiveMessage((uint256,uint256,(bytes32,bytes32),uint256,(bytes32,bytes32),bytes32),bytes)": "infinite",
						"renounceOwnership()": "infinite",
						"setPeers(uint256[],(bytes32,bytes32)[])": "infinite",
						"setSwapAddress(uint256[],(bytes32,bytes32)[])": "infinite",
						"setTokenPrice(uint256[],bytes[],uint256[])": "infinite",
						"swap(uint256,bytes,bytes,address,uint256)": "infinite",
						"swap(uint256,bytes,bytes,uint256)": "infinite",
						"tokenPrice(uint256,bytes)": "infinite",
						"transferOwnership(address)": "infinite"
					},
					"internal": {
						"_receiveMessageFromPeer(struct EquitoMessage calldata,bytes calldata)": "infinite",
						"_swap(address,uint256,uint256,uint256,bytes calldata,bytes calldata)": "infinite"
					}
				},
				"methodIdentifiers": {
					"calculateDestinationTokenAmount(bytes,uint256,uint256,bytes)": "f95a54c9",
					"getPeer(uint256)": "67ebb6b2",
					"owner()": "8da5cb5b",
					"peers(uint256)": "be4f3e8f",
					"receiveMessage((uint256,uint256,(bytes32,bytes32),uint256,(bytes32,bytes32),bytes32),bytes)": "879d182d",
					"renounceOwnership()": "715018a6",
					"setPeers(uint256[],(bytes32,bytes32)[])": "59a1aae1",
					"setSwapAddress(uint256[],(bytes32,bytes32)[])": "75d4d8fc",
					"setTokenPrice(uint256[],bytes[],uint256[])": "0c49815b",
					"swap(uint256,bytes,bytes,address,uint256)": "a2798328",
					"swap(uint256,bytes,bytes,uint256)": "7904a946",
					"tokenPrice(uint256,bytes)": "5bb76937",
					"transferOwnership(address)": "f2fde38b"
				}
			},
			"storageLayout": {
				"storage": [
					{
						"astId": 8,
						"contract": "src/examples/CrossChainSwap.sol:CrossChainSwap",
						"label": "_owner",
						"offset": 0,
						"slot": "0",
						"type": "t_address"
					},
					{
						"astId": 204,
						"contract": "src/examples/CrossChainSwap.sol:CrossChainSwap",
						"label": "peers",
						"offset": 0,
						"slot": "1",
						"type": "t_mapping(t_uint256,t_struct(bytes64)944_storage)"
					},
					{
						"astId": 475,
						"contract": "src/examples/CrossChainSwap.sol:CrossChainSwap",
						"label": "tokenPrice",
						"offset": 0,
						"slot": "2",
						"type": "t_mapping(t_uint256,t_mapping(t_bytes_memory_ptr,t_uint256))"
					}
				],
				"types": {
					"t_address": {
						"encoding": "inplace",
						"label": "address",
						"numberOfBytes": "20"
					},
					"t_bytes32": {
						"encoding": "inplace",
						"label": "bytes32",
						"numberOfBytes": "32"
					},
					"t_bytes_memory_ptr": {
						"encoding": "bytes",
						"label": "bytes",
						"numberOfBytes": "32"
					},
					"t_mapping(t_bytes_memory_ptr,t_uint256)": {
						"encoding": "mapping",
						"key": "t_bytes_memory_ptr",
						"label": "mapping(bytes => uint256)",
						"numberOfBytes": "32",
						"value": "t_uint256"
					},
					"t_mapping(t_uint256,t_mapping(t_bytes_memory_ptr,t_uint256))": {
						"encoding": "mapping",
						"key": "t_uint256",
						"label": "mapping(uint256 => mapping(bytes => uint256))",
						"numberOfBytes": "32",
						"value": "t_mapping(t_bytes_memory_ptr,t_uint256)"
					},
					"t_mapping(t_uint256,t_struct(bytes64)944_storage)": {
						"encoding": "mapping",
						"key": "t_uint256",
						"label": "mapping(uint256 => struct bytes64)",
						"numberOfBytes": "32",
						"value": "t_struct(bytes64)944_storage"
					},
					"t_struct(bytes64)944_storage": {
						"encoding": "inplace",
						"label": "struct bytes64",
						"members": [
							{
								"astId": 941,
								"contract": "src/examples/CrossChainSwap.sol:CrossChainSwap",
								"label": "lower",
								"offset": 0,
								"slot": "0",
								"type": "t_bytes32"
							},
							{
								"astId": 943,
								"contract": "src/examples/CrossChainSwap.sol:CrossChainSwap",
								"label": "upper",
								"offset": 0,
								"slot": "1",
								"type": "t_bytes32"
							}
						],
						"numberOfBytes": "64"
					},
					"t_uint256": {
						"encoding": "inplace",
						"label": "uint256",
						"numberOfBytes": "32"
					}
				}
			},
			"userdoc": {
				"errors": {
					"InsufficientValueSent()": [
						{
							"notice": "Thrown when the amount of ether sent with the transaction is insufficient."
						}
					],
					"InvalidLength()": [
						{
							"notice": "Thrown when the lengths of arrays are invalid."
						}
					],
					"InvalidMessageSender()": [
						{
							"notice": "Thrown when the sender of a message is invalid."
						}
					],
					"InvalidPeer(uint256)": [
						{
							"notice": "Thrown when a Peer address is not found in the mapping, given a chain selector."
						}
					],
					"InvalidRouter(address)": [
						{
							"notice": "Thrown when the router address is invalid."
						}
					],
					"RouterAddressCannotBeZero()": [
						{
							"notice": "Thrown when the router address is zero."
						}
					]
				},
				"events": {
					"SwapRequested(bytes32,uint256,address,uint256,bytes,uint256,bytes)": {
						"notice": "Event emitted when a token swap is requested."
					}
				},
				"kind": "user",
				"methods": {
					"calculateDestinationTokenAmount(bytes,uint256,uint256,bytes)": {
						"notice": "Calculate the destination token amount given the source token amount and destination token."
					},
					"constructor": {
						"notice": "Constructor to initialize the CrossChainSwap contract."
					},
					"getPeer(uint256)": {
						"notice": "Returns the peer address for a given chain selector."
					},
					"receiveMessage((uint256,uint256,(bytes32,bytes32),uint256,(bytes32,bytes32),bytes32),bytes)": {
						"notice": "Receives a cross-chain message from the Router Contract.         It is a wrapper function for the `_receiveMessage` functions, that need to be overridden.         Only the Router Contract is allowed to call this function."
					},
					"setPeers(uint256[],(bytes32,bytes32)[])": {
						"notice": "Allows the owner to set the peer addresses for different chain selectors."
					},
					"setSwapAddress(uint256[],(bytes32,bytes32)[])": {
						"notice": "Update the addresses of the EquitoReceiver contracts on the destination chains."
					},
					"setTokenPrice(uint256[],bytes[],uint256[])": {
						"notice": "Update the prices of supported tokens on different chains."
					},
					"swap(uint256,bytes,bytes,address,uint256)": {
						"notice": "Swap ERC20 tokens from the source chain to any token on the destination chain."
					},
					"swap(uint256,bytes,bytes,uint256)": {
						"notice": "Swap native tokens from the source chain to any token on the destination chain."
					},
					"tokenPrice(uint256,bytes)": {
						"notice": "Mapping to store the prices of supported tokens on different chains."
					}
				},
				"notice": "This contract facilitates token swaps between different blockchains using the Equito protocol.",
				"version": 1
			}
		}
	}
}