{
	"src/examples/PingPong.sol": {
		"PingPong": {
			"abi": [
				{
					"inputs": [
						{
							"internalType": "address",
							"name": "_router",
							"type": "address"
						}
					],
					"stateMutability": "nonpayable",
					"type": "constructor"
				},
				{
					"inputs": [],
					"name": "InvalidLength",
					"type": "error"
				},
				{
					"inputs": [],
					"name": "InvalidMessageSender",
					"type": "error"
				},
				{
					"inputs": [],
					"name": "InvalidMessageType",
					"type": "error"
				},
				{
					"inputs": [
						{
							"internalType": "uint256",
							"name": "chainSelector",
							"type": "uint256"
						}
					],
					"name": "InvalidPeer",
					"type": "error"
				},
				{
					"inputs": [
						{
							"internalType": "address",
							"name": "router",
							"type": "address"
						}
					],
					"name": "InvalidRouter",
					"type": "error"
				},
				{
					"inputs": [
						{
							"internalType": "address",
							"name": "owner",
							"type": "address"
						}
					],
					"name": "OwnableInvalidOwner",
					"type": "error"
				},
				{
					"inputs": [
						{
							"internalType": "address",
							"name": "account",
							"type": "address"
						}
					],
					"name": "OwnableUnauthorizedAccount",
					"type": "error"
				},
				{
					"inputs": [],
					"name": "RouterAddressCannotBeZero",
					"type": "error"
				},
				{
					"inputs": [],
					"name": "RouterAlreadySet",
					"type": "error"
				},
				{
					"anonymous": false,
					"inputs": [
						{
							"indexed": true,
							"internalType": "address",
							"name": "previousOwner",
							"type": "address"
						},
						{
							"indexed": true,
							"internalType": "address",
							"name": "newOwner",
							"type": "address"
						}
					],
					"name": "OwnershipTransferred",
					"type": "event"
				},
				{
					"anonymous": false,
					"inputs": [
						{
							"indexed": true,
							"internalType": "uint256",
							"name": "sourceChainSelector",
							"type": "uint256"
						},
						{
							"indexed": false,
							"internalType": "bytes32",
							"name": "messageHash",
							"type": "bytes32"
						}
					],
					"name": "PingReceived",
					"type": "event"
				},
				{
					"anonymous": false,
					"inputs": [
						{
							"indexed": true,
							"internalType": "uint256",
							"name": "destinationChainSelector",
							"type": "uint256"
						},
						{
							"indexed": false,
							"internalType": "bytes32",
							"name": "messageHash",
							"type": "bytes32"
						}
					],
					"name": "PingSent",
					"type": "event"
				},
				{
					"anonymous": false,
					"inputs": [
						{
							"indexed": true,
							"internalType": "uint256",
							"name": "sourceChainSelector",
							"type": "uint256"
						},
						{
							"indexed": false,
							"internalType": "bytes32",
							"name": "messageHash",
							"type": "bytes32"
						}
					],
					"name": "PongReceived",
					"type": "event"
				},
				{
					"anonymous": false,
					"inputs": [
						{
							"indexed": true,
							"internalType": "uint256",
							"name": "destinationChainSelector",
							"type": "uint256"
						},
						{
							"indexed": false,
							"internalType": "bytes32",
							"name": "messageHash",
							"type": "bytes32"
						}
					],
					"name": "PongSent",
					"type": "event"
				},
				{
					"inputs": [
						{
							"internalType": "uint256",
							"name": "chainSelector",
							"type": "uint256"
						}
					],
					"name": "getPeer",
					"outputs": [
						{
							"components": [
								{
									"internalType": "bytes32",
									"name": "lower",
									"type": "bytes32"
								},
								{
									"internalType": "bytes32",
									"name": "upper",
									"type": "bytes32"
								}
							],
							"internalType": "struct bytes64",
							"name": "",
							"type": "tuple"
						}
					],
					"stateMutability": "view",
					"type": "function"
				},
				{
					"inputs": [],
					"name": "owner",
					"outputs": [
						{
							"internalType": "address",
							"name": "",
							"type": "address"
						}
					],
					"stateMutability": "view",
					"type": "function"
				},
				{
					"inputs": [
						{
							"internalType": "uint256",
							"name": "",
							"type": "uint256"
						}
					],
					"name": "peers",
					"outputs": [
						{
							"internalType": "bytes32",
							"name": "lower",
							"type": "bytes32"
						},
						{
							"internalType": "bytes32",
							"name": "upper",
							"type": "bytes32"
						}
					],
					"stateMutability": "view",
					"type": "function"
				},
				{
					"inputs": [
						{
							"components": [
								{
									"internalType": "uint256",
									"name": "blockNumber",
									"type": "uint256"
								},
								{
									"internalType": "uint256",
									"name": "sourceChainSelector",
									"type": "uint256"
								},
								{
									"components": [
										{
											"internalType": "bytes32",
											"name": "lower",
											"type": "bytes32"
										},
										{
											"internalType": "bytes32",
											"name": "upper",
											"type": "bytes32"
										}
									],
									"internalType": "struct bytes64",
									"name": "sender",
									"type": "tuple"
								},
								{
									"internalType": "uint256",
									"name": "destinationChainSelector",
									"type": "uint256"
								},
								{
									"components": [
										{
											"internalType": "bytes32",
											"name": "lower",
											"type": "bytes32"
										},
										{
											"internalType": "bytes32",
											"name": "upper",
											"type": "bytes32"
										}
									],
									"internalType": "struct bytes64",
									"name": "receiver",
									"type": "tuple"
								},
								{
									"internalType": "bytes32",
									"name": "hashedData",
									"type": "bytes32"
								}
							],
							"internalType": "struct EquitoMessage",
							"name": "message",
							"type": "tuple"
						},
						{
							"internalType": "bytes",
							"name": "messageData",
							"type": "bytes"
						}
					],
					"name": "receiveMessage",
					"outputs": [],
					"stateMutability": "payable",
					"type": "function"
				},
				{
					"inputs": [],
					"name": "renounceOwnership",
					"outputs": [],
					"stateMutability": "nonpayable",
					"type": "function"
				},
				{
					"inputs": [
						{
							"internalType": "uint256",
							"name": "destinationChainSelector",
							"type": "uint256"
						},
						{
							"internalType": "string",
							"name": "message",
							"type": "string"
						}
					],
					"name": "sendPing",
					"outputs": [],
					"stateMutability": "payable",
					"type": "function"
				},
				{
					"inputs": [
						{
							"internalType": "uint256[]",
							"name": "chainSelectors",
							"type": "uint256[]"
						},
						{
							"components": [
								{
									"internalType": "bytes32",
									"name": "lower",
									"type": "bytes32"
								},
								{
									"internalType": "bytes32",
									"name": "upper",
									"type": "bytes32"
								}
							],
							"internalType": "struct bytes64[]",
							"name": "addresses",
							"type": "tuple[]"
						}
					],
					"name": "setPeers",
					"outputs": [],
					"stateMutability": "nonpayable",
					"type": "function"
				},
				{
					"inputs": [
						{
							"internalType": "address",
							"name": "newOwner",
							"type": "address"
						}
					],
					"name": "transferOwnership",
					"outputs": [],
					"stateMutability": "nonpayable",
					"type": "function"
				}
			],
			"devdoc": {
				"errors": {
					"InvalidPeer(uint256)": [
						{
							"params": {
								"chainSelector": "The chain selector for which the peer address is requested."
							}
						}
					],
					"InvalidRouter(address)": [
						{
							"params": {
								"router": "The address of the router that caused the error."
							}
						}
					],
					"OwnableInvalidOwner(address)": [
						{
							"details": "The owner is not a valid owner account. (eg. `address(0)`)"
						}
					],
					"OwnableUnauthorizedAccount(address)": [
						{
							"details": "The caller account is not authorized to perform an operation."
						}
					]
				},
				"events": {
					"PingReceived(uint256,bytes32)": {
						"params": {
							"messageHash": "The ping message hash.",
							"sourceChainSelector": "The identifier of the source chain."
						}
					},
					"PingSent(uint256,bytes32)": {
						"params": {
							"destinationChainSelector": "The identifier of the destination chain.",
							"messageHash": "The ping message hash."
						}
					},
					"PongReceived(uint256,bytes32)": {
						"params": {
							"messageHash": "The pong message hash.",
							"sourceChainSelector": "The identifier of the source chain."
						}
					},
					"PongSent(uint256,bytes32)": {
						"params": {
							"destinationChainSelector": "The identifier of the destination chain.",
							"messageHash": "The pong message hash."
						}
					}
				},
				"kind": "dev",
				"methods": {
					"constructor": {
						"params": {
							"_router": "The address of the router contract."
						}
					},
					"getPeer(uint256)": {
						"details": "Throws an error if the chain selector is not found in the mapping.",
						"params": {
							"chainSelector": "The chain selector for which the peer address is requested."
						},
						"returns": {
							"_0": "The peer address for the given chain selector."
						}
					},
					"owner()": {
						"details": "Returns the address of the current owner."
					},
					"receiveMessage((uint256,uint256,(bytes32,bytes32),uint256,(bytes32,bytes32),bytes32),bytes)": {
						"params": {
							"message": "The Equito message received.",
							"messageData": "The data of the message received."
						}
					},
					"renounceOwnership()": {
						"details": "Leaves the contract without owner. It will not be possible to call `onlyOwner` functions. Can only be called by the current owner. NOTE: Renouncing ownership will leave the contract without an owner, thereby disabling any functionality that is only available to the owner."
					},
					"sendPing(uint256,string)": {
						"params": {
							"destinationChainSelector": "The identifier of the destination chain.",
							"message": "The ping message."
						}
					},
					"setPeers(uint256[],(bytes32,bytes32)[])": {
						"params": {
							"addresses": "The list of addresses corresponding to the chain selectors.",
							"chainSelectors": "The list of chain selectors."
						}
					},
					"transferOwnership(address)": {
						"details": "Transfers ownership of the contract to a new account (`newOwner`). Can only be called by the current owner."
					}
				},
				"title": "PingPong",
				"version": 1
			},
			"evm": {
				"assembly": "    /* \"src/examples/PingPong.sol\":346:3921  contract PingPong is EquitoApp {... */\n  mstore(0x40, 0xa0)\n    /* \"src/examples/PingPong.sol\":1912:1962  constructor(address _router) EquitoApp(_router) {} */\n  callvalue\n  dup1\n  iszero\n  tag_1\n  jumpi\n  revert(0x00, 0x00)\ntag_1:\n  pop\n  mload(0x40)\n  sub(codesize, bytecodeSize)\n  dup1\n  bytecodeSize\n  dup4\n  codecopy\n  dup2\n  dup2\n  add\n  0x40\n  mstore\n  dup2\n  add\n  swap1\n  tag_2\n  swap2\n  swap1\n  tag_3\n  jump\t// in\ntag_2:\n    /* \"src/examples/PingPong.sol\":1951:1958  _router */\n  dup1\n    /* \"src/EquitoApp.sol\":1033:1043  msg.sender */\n  caller\n    /* \"@openzeppelin/contracts/access/Ownable.sol\":1297:1298  0 */\n  0x00\n    /* \"@openzeppelin/contracts/access/Ownable.sol\":1273:1299  initialOwner == address(0) */\n  0xffffffffffffffffffffffffffffffffffffffff\n  and\n    /* \"@openzeppelin/contracts/access/Ownable.sol\":1273:1285  initialOwner */\n  dup2\n    /* \"@openzeppelin/contracts/access/Ownable.sol\":1273:1299  initialOwner == address(0) */\n  0xffffffffffffffffffffffffffffffffffffffff\n  and\n  sub\n    /* \"@openzeppelin/contracts/access/Ownable.sol\":1269:1364  if (initialOwner == address(0)) {... */\n  tag_8\n  jumpi\n    /* \"@openzeppelin/contracts/access/Ownable.sol\":1350:1351  0 */\n  0x00\n    /* \"@openzeppelin/contracts/access/Ownable.sol\":1322:1353  OwnableInvalidOwner(address(0)) */\n  mload(0x40)\n  0x1e4fbdf700000000000000000000000000000000000000000000000000000000\n  dup2\n  mstore\n  0x04\n  add\n  tag_9\n  swap2\n  swap1\n  tag_10\n  jump\t// in\ntag_9:\n  mload(0x40)\n  dup1\n  swap2\n  sub\n  swap1\n  revert\n    /* \"@openzeppelin/contracts/access/Ownable.sol\":1269:1364  if (initialOwner == address(0)) {... */\ntag_8:\n    /* \"@openzeppelin/contracts/access/Ownable.sol\":1373:1405  _transferOwnership(initialOwner) */\n  tag_11\n    /* \"@openzeppelin/contracts/access/Ownable.sol\":1392:1404  initialOwner */\n  dup2\n    /* \"@openzeppelin/contracts/access/Ownable.sol\":1373:1391  _transferOwnership */\n  shl(0x20, tag_12)\n    /* \"@openzeppelin/contracts/access/Ownable.sol\":1373:1405  _transferOwnership(initialOwner) */\n  0x20\n  shr\n  jump\t// in\ntag_11:\n    /* \"@openzeppelin/contracts/access/Ownable.sol\":1225:1412  constructor(address initialOwner) {... */\n  pop\n    /* \"src/EquitoApp.sol\":1078:1079  0 */\n  0x00\n    /* \"src/EquitoApp.sol\":1059:1080  _router == address(0) */\n  0xffffffffffffffffffffffffffffffffffffffff\n  and\n    /* \"src/EquitoApp.sol\":1059:1066  _router */\n  dup2\n    /* \"src/EquitoApp.sol\":1059:1080  _router == address(0) */\n  0xffffffffffffffffffffffffffffffffffffffff\n  and\n  sub\n    /* \"src/EquitoApp.sol\":1055:1148  if (_router == address(0)) {... */\n  tag_14\n  jumpi\n    /* \"src/EquitoApp.sol\":1103:1137  Errors.RouterAddressCannotBeZero() */\n  mload(0x40)\n  0x5008268300000000000000000000000000000000000000000000000000000000\n  dup2\n  mstore\n  0x04\n  add\n  mload(0x40)\n  dup1\n  swap2\n  sub\n  swap1\n  revert\n    /* \"src/EquitoApp.sol\":1055:1148  if (_router == address(0)) {... */\ntag_14:\n    /* \"src/EquitoApp.sol\":1174:1181  _router */\n  dup1\n    /* \"src/EquitoApp.sol\":1157:1182  router = IRouter(_router) */\n  0xffffffffffffffffffffffffffffffffffffffff\n  and\n  0x80\n  dup2\n  0xffffffffffffffffffffffffffffffffffffffff\n  and\n  dup2\n  mstore\n  pop\n  pop\n    /* \"src/EquitoApp.sol\":996:1189  constructor(address _router) Ownable(msg.sender) {... */\n  pop\n    /* \"src/examples/PingPong.sol\":1912:1962  constructor(address _router) EquitoApp(_router) {} */\n  pop\n    /* \"src/examples/PingPong.sol\":346:3921  contract PingPong is EquitoApp {... */\n  jump(tag_16)\n    /* \"@openzeppelin/contracts/access/Ownable.sol\":2912:3099  function _transferOwnership(address newOwner) internal virtual {... */\ntag_12:\n    /* \"@openzeppelin/contracts/access/Ownable.sol\":2985:3001  address oldOwner */\n  0x00\n    /* \"@openzeppelin/contracts/access/Ownable.sol\":3004:3010  _owner */\n  0x00\n  0x00\n  swap1\n  sload\n  swap1\n  0x0100\n  exp\n  swap1\n  div\n  0xffffffffffffffffffffffffffffffffffffffff\n  and\n    /* \"@openzeppelin/contracts/access/Ownable.sol\":2985:3010  address oldOwner = _owner */\n  swap1\n  pop\n    /* \"@openzeppelin/contracts/access/Ownable.sol\":3029:3037  newOwner */\n  dup2\n    /* \"@openzeppelin/contracts/access/Ownable.sol\":3020:3026  _owner */\n  0x00\n  0x00\n    /* \"@openzeppelin/contracts/access/Ownable.sol\":3020:3037  _owner = newOwner */\n  0x0100\n  exp\n  dup2\n  sload\n  dup2\n  0xffffffffffffffffffffffffffffffffffffffff\n  mul\n  not\n  and\n  swap1\n  dup4\n  0xffffffffffffffffffffffffffffffffffffffff\n  and\n  mul\n  or\n  swap1\n  sstore\n  pop\n    /* \"@openzeppelin/contracts/access/Ownable.sol\":3083:3091  newOwner */\n  dup2\n    /* \"@openzeppelin/contracts/access/Ownable.sol\":3052:3092  OwnershipTransferred(oldOwner, newOwner) */\n  0xffffffffffffffffffffffffffffffffffffffff\n  and\n    /* \"@openzeppelin/contracts/access/Ownable.sol\":3073:3081  oldOwner */\n  dup2\n    /* \"@openzeppelin/contracts/access/Ownable.sol\":3052:3092  OwnershipTransferred(oldOwner, newOwner) */\n  0xffffffffffffffffffffffffffffffffffffffff\n  and\n  0x8be0079c531659141344cd1fd0a4f28419497f9722a3daafe3b4186f6b6457e0\n  mload(0x40)\n  mload(0x40)\n  dup1\n  swap2\n  sub\n  swap1\n  log3\n    /* \"@openzeppelin/contracts/access/Ownable.sol\":2975:3099  {... */\n  pop\n    /* \"@openzeppelin/contracts/access/Ownable.sol\":2912:3099  function _transferOwnership(address newOwner) internal virtual {... */\n  pop\n  jump\t// out\n    /* \"#utility.yul\":88:205   */\ntag_19:\n    /* \"#utility.yul\":197:198   */\n  0x00\n    /* \"#utility.yul\":194:195   */\n  0x00\n    /* \"#utility.yul\":187:199   */\n  revert\n    /* \"#utility.yul\":334:460   */\ntag_21:\n    /* \"#utility.yul\":371:378   */\n  0x00\n    /* \"#utility.yul\":411:453   */\n  0xffffffffffffffffffffffffffffffffffffffff\n    /* \"#utility.yul\":404:409   */\n  dup3\n    /* \"#utility.yul\":400:454   */\n  and\n    /* \"#utility.yul\":389:454   */\n  swap1\n  pop\n    /* \"#utility.yul\":334:460   */\n  swap2\n  swap1\n  pop\n  jump\t// out\n    /* \"#utility.yul\":466:562   */\ntag_22:\n    /* \"#utility.yul\":503:510   */\n  0x00\n    /* \"#utility.yul\":532:556   */\n  tag_32\n    /* \"#utility.yul\":550:555   */\n  dup3\n    /* \"#utility.yul\":532:556   */\n  tag_21\n  jump\t// in\ntag_32:\n    /* \"#utility.yul\":521:556   */\n  swap1\n  pop\n    /* \"#utility.yul\":466:562   */\n  swap2\n  swap1\n  pop\n  jump\t// out\n    /* \"#utility.yul\":568:690   */\ntag_23:\n    /* \"#utility.yul\":641:665   */\n  tag_34\n    /* \"#utility.yul\":659:664   */\n  dup2\n    /* \"#utility.yul\":641:665   */\n  tag_22\n  jump\t// in\ntag_34:\n    /* \"#utility.yul\":634:639   */\n  dup2\n    /* \"#utility.yul\":631:666   */\n  eq\n    /* \"#utility.yul\":621:684   */\n  tag_35\n  jumpi\n    /* \"#utility.yul\":680:681   */\n  0x00\n    /* \"#utility.yul\":677:678   */\n  0x00\n    /* \"#utility.yul\":670:682   */\n  revert\n    /* \"#utility.yul\":621:684   */\ntag_35:\n    /* \"#utility.yul\":568:690   */\n  pop\n  jump\t// out\n    /* \"#utility.yul\":696:839   */\ntag_24:\n    /* \"#utility.yul\":753:758   */\n  0x00\n    /* \"#utility.yul\":784:790   */\n  dup2\n    /* \"#utility.yul\":778:791   */\n  mload\n    /* \"#utility.yul\":769:791   */\n  swap1\n  pop\n    /* \"#utility.yul\":800:833   */\n  tag_37\n    /* \"#utility.yul\":827:832   */\n  dup2\n    /* \"#utility.yul\":800:833   */\n  tag_23\n  jump\t// in\ntag_37:\n    /* \"#utility.yul\":696:839   */\n  swap3\n  swap2\n  pop\n  pop\n  jump\t// out\n    /* \"#utility.yul\":845:1196   */\ntag_3:\n    /* \"#utility.yul\":915:921   */\n  0x00\n    /* \"#utility.yul\":964:966   */\n  0x20\n    /* \"#utility.yul\":952:961   */\n  dup3\n    /* \"#utility.yul\":943:950   */\n  dup5\n    /* \"#utility.yul\":939:962   */\n  sub\n    /* \"#utility.yul\":935:967   */\n  slt\n    /* \"#utility.yul\":932:1051   */\n  iszero\n  tag_39\n  jumpi\n    /* \"#utility.yul\":970:1049   */\n  tag_40\n  tag_19\n  jump\t// in\ntag_40:\n    /* \"#utility.yul\":932:1051   */\ntag_39:\n    /* \"#utility.yul\":1090:1091   */\n  0x00\n    /* \"#utility.yul\":1115:1179   */\n  tag_41\n    /* \"#utility.yul\":1171:1178   */\n  dup5\n    /* \"#utility.yul\":1162:1168   */\n  dup3\n    /* \"#utility.yul\":1151:1160   */\n  dup6\n    /* \"#utility.yul\":1147:1169   */\n  add\n    /* \"#utility.yul\":1115:1179   */\n  tag_24\n  jump\t// in\ntag_41:\n    /* \"#utility.yul\":1105:1179   */\n  swap2\n  pop\n    /* \"#utility.yul\":1061:1189   */\n  pop\n    /* \"#utility.yul\":845:1196   */\n  swap3\n  swap2\n  pop\n  pop\n  jump\t// out\n    /* \"#utility.yul\":1202:1320   */\ntag_25:\n    /* \"#utility.yul\":1289:1313   */\n  tag_43\n    /* \"#utility.yul\":1307:1312   */\n  dup2\n    /* \"#utility.yul\":1289:1313   */\n  tag_22\n  jump\t// in\ntag_43:\n    /* \"#utility.yul\":1284:1287   */\n  dup3\n    /* \"#utility.yul\":1277:1314   */\n  mstore\n    /* \"#utility.yul\":1202:1320   */\n  pop\n  pop\n  jump\t// out\n    /* \"#utility.yul\":1326:1548   */\ntag_10:\n    /* \"#utility.yul\":1419:1423   */\n  0x00\n    /* \"#utility.yul\":1457:1459   */\n  0x20\n    /* \"#utility.yul\":1446:1455   */\n  dup3\n    /* \"#utility.yul\":1442:1460   */\n  add\n    /* \"#utility.yul\":1434:1460   */\n  swap1\n  pop\n    /* \"#utility.yul\":1470:1541   */\n  tag_45\n    /* \"#utility.yul\":1538:1539   */\n  0x00\n    /* \"#utility.yul\":1527:1536   */\n  dup4\n    /* \"#utility.yul\":1523:1540   */\n  add\n    /* \"#utility.yul\":1514:1520   */\n  dup5\n    /* \"#utility.yul\":1470:1541   */\n  tag_25\n  jump\t// in\ntag_45:\n    /* \"#utility.yul\":1326:1548   */\n  swap3\n  swap2\n  pop\n  pop\n  jump\t// out\n    /* \"src/examples/PingPong.sol\":346:3921  contract PingPong is EquitoApp {... */\ntag_16:\n  mload(0x80)\n  codecopy(0x00, dataOffset(sub_0), dataSize(sub_0))\n  0x00\n  assignImmutable(\"0x69e3c6522a2f8bf12e780ae53c30e69d48d224ea00c92026278c398148e8df91\")\n  return(0x00, dataSize(sub_0))\nstop\n\nsub_0: assembly {\n        /* \"src/examples/PingPong.sol\":346:3921  contract PingPong is EquitoApp {... */\n      mstore(0x40, 0x80)\n      jumpi(tag_1, lt(calldatasize, 0x04))\n      shr(0xe0, calldataload(0x00))\n      dup1\n      0x8da5cb5b\n      gt\n      tag_10\n      jumpi\n      dup1\n      0x8da5cb5b\n      eq\n      tag_6\n      jumpi\n      dup1\n      0xbe4f3e8f\n      eq\n      tag_7\n      jumpi\n      dup1\n      0xcf0af879\n      eq\n      tag_8\n      jumpi\n      dup1\n      0xf2fde38b\n      eq\n      tag_9\n      jumpi\n      jump(tag_1)\n    tag_10:\n      dup1\n      0x59a1aae1\n      eq\n      tag_2\n      jumpi\n      dup1\n      0x67ebb6b2\n      eq\n      tag_3\n      jumpi\n      dup1\n      0x715018a6\n      eq\n      tag_4\n      jumpi\n      dup1\n      0x879d182d\n      eq\n      tag_5\n      jumpi\n    tag_1:\n      revert(0x00, 0x00)\n        /* \"src/EquitoApp.sol\":1632:1783  function setPeers(uint256[] memory chainSelectors, bytes64[] memory addresses) external onlyOwner {... */\n    tag_2:\n      callvalue\n      dup1\n      iszero\n      tag_11\n      jumpi\n      revert(0x00, 0x00)\n    tag_11:\n      pop\n      tag_12\n      0x04\n      dup1\n      calldatasize\n      sub\n      dup2\n      add\n      swap1\n      tag_13\n      swap2\n      swap1\n      tag_14\n      jump\t// in\n    tag_13:\n      tag_15\n      jump\t// in\n    tag_12:\n      stop\n        /* \"src/EquitoApp.sol\":2873:3197  function getPeer(... */\n    tag_3:\n      callvalue\n      dup1\n      iszero\n      tag_16\n      jumpi\n      revert(0x00, 0x00)\n    tag_16:\n      pop\n      tag_17\n      0x04\n      dup1\n      calldatasize\n      sub\n      dup2\n      add\n      swap1\n      tag_18\n      swap2\n      swap1\n      tag_19\n      jump\t// in\n    tag_18:\n      tag_20\n      jump\t// in\n    tag_17:\n      mload(0x40)\n      tag_21\n      swap2\n      swap1\n      tag_22\n      jump\t// in\n    tag_21:\n      mload(0x40)\n      dup1\n      swap2\n      sub\n      swap1\n      return\n        /* \"@openzeppelin/contracts/access/Ownable.sol\":2293:2394  function renounceOwnership() public virtual onlyOwner {... */\n    tag_4:\n      callvalue\n      dup1\n      iszero\n      tag_23\n      jumpi\n      revert(0x00, 0x00)\n    tag_23:\n      pop\n      tag_24\n      tag_25\n      jump\t// in\n    tag_24:\n      stop\n        /* \"src/EquitoApp.sol\":3570:4049  function receiveMessage(... */\n    tag_5:\n      tag_26\n      0x04\n      dup1\n      calldatasize\n      sub\n      dup2\n      add\n      swap1\n      tag_27\n      swap2\n      swap1\n      tag_28\n      jump\t// in\n    tag_27:\n      tag_29\n      jump\t// in\n    tag_26:\n      stop\n        /* \"@openzeppelin/contracts/access/Ownable.sol\":1638:1723  function owner() public view virtual returns (address) {... */\n    tag_6:\n      callvalue\n      dup1\n      iszero\n      tag_30\n      jumpi\n      revert(0x00, 0x00)\n    tag_30:\n      pop\n      tag_31\n      tag_32\n      jump\t// in\n    tag_31:\n      mload(0x40)\n      tag_33\n      swap2\n      swap1\n      tag_34\n      jump\t// in\n    tag_33:\n      mload(0x40)\n      dup1\n      swap2\n      sub\n      swap1\n      return\n        /* \"src/EquitoApp.sol\":811:851  mapping(uint256 => bytes64) public peers */\n    tag_7:\n      callvalue\n      dup1\n      iszero\n      tag_35\n      jumpi\n      revert(0x00, 0x00)\n    tag_35:\n      pop\n      tag_36\n      0x04\n      dup1\n      calldatasize\n      sub\n      dup2\n      add\n      swap1\n      tag_37\n      swap2\n      swap1\n      tag_19\n      jump\t// in\n    tag_37:\n      tag_38\n      jump\t// in\n    tag_36:\n      mload(0x40)\n      tag_39\n      swap3\n      swap2\n      swap1\n      tag_40\n      jump\t// in\n    tag_39:\n      mload(0x40)\n      dup1\n      swap2\n      sub\n      swap1\n      return\n        /* \"src/examples/PingPong.sol\":2170:2594  function sendPing(... */\n    tag_8:\n      tag_41\n      0x04\n      dup1\n      calldatasize\n      sub\n      dup2\n      add\n      swap1\n      tag_42\n      swap2\n      swap1\n      tag_43\n      jump\t// in\n    tag_42:\n      tag_44\n      jump\t// in\n    tag_41:\n      stop\n        /* \"@openzeppelin/contracts/access/Ownable.sol\":2543:2758  function transferOwnership(address newOwner) public virtual onlyOwner {... */\n    tag_9:\n      callvalue\n      dup1\n      iszero\n      tag_45\n      jumpi\n      revert(0x00, 0x00)\n    tag_45:\n      pop\n      tag_46\n      0x04\n      dup1\n      calldatasize\n      sub\n      dup2\n      add\n      swap1\n      tag_47\n      swap2\n      swap1\n      tag_48\n      jump\t// in\n    tag_47:\n      tag_49\n      jump\t// in\n    tag_46:\n      stop\n        /* \"src/EquitoApp.sol\":1632:1783  function setPeers(uint256[] memory chainSelectors, bytes64[] memory addresses) external onlyOwner {... */\n    tag_15:\n        /* \"@openzeppelin/contracts/access/Ownable.sol\":1531:1544  _checkOwner() */\n      tag_51\n        /* \"@openzeppelin/contracts/access/Ownable.sol\":1531:1542  _checkOwner */\n      tag_52\n        /* \"@openzeppelin/contracts/access/Ownable.sol\":1531:1544  _checkOwner() */\n      jump\t// in\n    tag_51:\n        /* \"src/EquitoApp.sol\":1740:1776  _setPeers(chainSelectors, addresses) */\n      tag_54\n        /* \"src/EquitoApp.sol\":1750:1764  chainSelectors */\n      dup3\n        /* \"src/EquitoApp.sol\":1766:1775  addresses */\n      dup3\n        /* \"src/EquitoApp.sol\":1740:1749  _setPeers */\n      tag_55\n        /* \"src/EquitoApp.sol\":1740:1776  _setPeers(chainSelectors, addresses) */\n      jump\t// in\n    tag_54:\n        /* \"src/EquitoApp.sol\":1632:1783  function setPeers(uint256[] memory chainSelectors, bytes64[] memory addresses) external onlyOwner {... */\n      pop\n      pop\n      jump\t// out\n        /* \"src/EquitoApp.sol\":2873:3197  function getPeer(... */\n    tag_20:\n        /* \"src/EquitoApp.sol\":2953:2967  bytes64 memory */\n      tag_56\n      tag_57\n      jump\t// in\n    tag_56:\n        /* \"src/EquitoApp.sol\":2979:3005  bytes64 memory peerAddress */\n      0x00\n        /* \"src/EquitoApp.sol\":3008:3013  peers */\n      0x01\n        /* \"src/EquitoApp.sol\":3008:3028  peers[chainSelector] */\n      0x00\n        /* \"src/EquitoApp.sol\":3014:3027  chainSelector */\n      dup5\n        /* \"src/EquitoApp.sol\":3008:3028  peers[chainSelector] */\n      dup2\n      mstore\n      0x20\n      add\n      swap1\n      dup2\n      mstore\n      0x20\n      add\n      0x00\n      keccak256\n        /* \"src/EquitoApp.sol\":2979:3028  bytes64 memory peerAddress = peers[chainSelector] */\n      mload(0x40)\n      dup1\n      0x40\n      add\n      0x40\n      mstore\n      swap1\n      dup2\n      0x00\n      dup3\n      add\n      sload\n      dup2\n      mstore\n      0x20\n      add\n      0x01\n      dup3\n      add\n      sload\n      dup2\n      mstore\n      pop\n      pop\n      swap1\n      pop\n        /* \"src/EquitoApp.sol\":3063:3067  0x00 */\n      0x00\n        /* \"src/EquitoApp.sol\":3042:3067  peerAddress.lower == 0x00 */\n      0x00\n      shl\n        /* \"src/EquitoApp.sol\":3042:3053  peerAddress */\n      dup2\n        /* \"src/EquitoApp.sol\":3042:3059  peerAddress.lower */\n      0x00\n      add\n      mload\n        /* \"src/EquitoApp.sol\":3042:3067  peerAddress.lower == 0x00 */\n      eq\n        /* \"src/EquitoApp.sol\":3042:3096  peerAddress.lower == 0x00 && peerAddress.upper == 0x00 */\n      dup1\n      iszero\n      tag_59\n      jumpi\n      pop\n        /* \"src/EquitoApp.sol\":3092:3096  0x00 */\n      0x00\n        /* \"src/EquitoApp.sol\":3071:3096  peerAddress.upper == 0x00 */\n      0x00\n      shl\n        /* \"src/EquitoApp.sol\":3071:3082  peerAddress */\n      dup2\n        /* \"src/EquitoApp.sol\":3071:3088  peerAddress.upper */\n      0x20\n      add\n      mload\n        /* \"src/EquitoApp.sol\":3071:3096  peerAddress.upper == 0x00 */\n      eq\n        /* \"src/EquitoApp.sol\":3042:3096  peerAddress.lower == 0x00 && peerAddress.upper == 0x00 */\n    tag_59:\n        /* \"src/EquitoApp.sol\":3038:3163  if (peerAddress.lower == 0x00 && peerAddress.upper == 0x00) {... */\n      iszero\n      tag_60\n      jumpi\n        /* \"src/EquitoApp.sol\":3138:3151  chainSelector */\n      dup3\n        /* \"src/EquitoApp.sol\":3119:3152  Errors.InvalidPeer(chainSelector) */\n      mload(0x40)\n      0x78d0dbfc00000000000000000000000000000000000000000000000000000000\n      dup2\n      mstore\n      0x04\n      add\n      tag_61\n      swap2\n      swap1\n      tag_62\n      jump\t// in\n    tag_61:\n      mload(0x40)\n      dup1\n      swap2\n      sub\n      swap1\n      revert\n        /* \"src/EquitoApp.sol\":3038:3163  if (peerAddress.lower == 0x00 && peerAddress.upper == 0x00) {... */\n    tag_60:\n        /* \"src/EquitoApp.sol\":3179:3190  peerAddress */\n      dup1\n        /* \"src/EquitoApp.sol\":3172:3190  return peerAddress */\n      swap2\n      pop\n      pop\n        /* \"src/EquitoApp.sol\":2873:3197  function getPeer(... */\n      swap2\n      swap1\n      pop\n      jump\t// out\n        /* \"@openzeppelin/contracts/access/Ownable.sol\":2293:2394  function renounceOwnership() public virtual onlyOwner {... */\n    tag_25:\n        /* \"@openzeppelin/contracts/access/Ownable.sol\":1531:1544  _checkOwner() */\n      tag_64\n        /* \"@openzeppelin/contracts/access/Ownable.sol\":1531:1542  _checkOwner */\n      tag_52\n        /* \"@openzeppelin/contracts/access/Ownable.sol\":1531:1544  _checkOwner() */\n      jump\t// in\n    tag_64:\n        /* \"@openzeppelin/contracts/access/Ownable.sol\":2357:2387  _transferOwnership(address(0)) */\n      tag_66\n        /* \"@openzeppelin/contracts/access/Ownable.sol\":2384:2385  0 */\n      0x00\n        /* \"@openzeppelin/contracts/access/Ownable.sol\":2357:2375  _transferOwnership */\n      tag_67\n        /* \"@openzeppelin/contracts/access/Ownable.sol\":2357:2387  _transferOwnership(address(0)) */\n      jump\t// in\n    tag_66:\n        /* \"@openzeppelin/contracts/access/Ownable.sol\":2293:2394  function renounceOwnership() public virtual onlyOwner {... */\n      jump\t// out\n        /* \"src/EquitoApp.sol\":3570:4049  function receiveMessage(... */\n    tag_29:\n        /* \"src/EquitoApp.sol\":1326:1332  router */\n      immutable(\"0x69e3c6522a2f8bf12e780ae53c30e69d48d224ea00c92026278c398148e8df91\")\n        /* \"src/EquitoApp.sol\":1304:1333  msg.sender != address(router) */\n      0xffffffffffffffffffffffffffffffffffffffff\n      and\n        /* \"src/EquitoApp.sol\":1304:1314  msg.sender */\n      caller\n        /* \"src/EquitoApp.sol\":1304:1333  msg.sender != address(router) */\n      0xffffffffffffffffffffffffffffffffffffffff\n      and\n      eq\n        /* \"src/EquitoApp.sol\":1300:1374  if (msg.sender != address(router)) revert Errors.InvalidRouter(msg.sender) */\n      tag_69\n      jumpi\n        /* \"src/EquitoApp.sol\":1363:1373  msg.sender */\n      caller\n        /* \"src/EquitoApp.sol\":1342:1374  Errors.InvalidRouter(msg.sender) */\n      mload(0x40)\n      0xd7f7333400000000000000000000000000000000000000000000000000000000\n      dup2\n      mstore\n      0x04\n      add\n      tag_70\n      swap2\n      swap1\n      tag_34\n      jump\t// in\n    tag_70:\n      mload(0x40)\n      dup1\n      swap2\n      sub\n      swap1\n      revert\n        /* \"src/EquitoApp.sol\":1300:1374  if (msg.sender != address(router)) revert Errors.InvalidRouter(msg.sender) */\n    tag_69:\n        /* \"src/EquitoApp.sol\":3723:3749  bytes64 memory peerAddress */\n      0x00\n        /* \"src/EquitoApp.sol\":3752:3757  peers */\n      0x01\n        /* \"src/EquitoApp.sol\":3752:3786  peers[message.sourceChainSelector] */\n      0x00\n        /* \"src/EquitoApp.sol\":3758:3765  message */\n      dup6\n        /* \"src/EquitoApp.sol\":3758:3785  message.sourceChainSelector */\n      0x20\n      add\n      calldataload\n        /* \"src/EquitoApp.sol\":3752:3786  peers[message.sourceChainSelector] */\n      dup2\n      mstore\n      0x20\n      add\n      swap1\n      dup2\n      mstore\n      0x20\n      add\n      0x00\n      keccak256\n        /* \"src/EquitoApp.sol\":3723:3786  bytes64 memory peerAddress = peers[message.sourceChainSelector] */\n      mload(0x40)\n      dup1\n      0x40\n      add\n      0x40\n      mstore\n      swap1\n      dup2\n      0x00\n      dup3\n      add\n      sload\n      dup2\n      mstore\n      0x20\n      add\n      0x01\n      dup3\n      add\n      sload\n      dup2\n      mstore\n      pop\n      pop\n      swap1\n      pop\n        /* \"src/EquitoApp.sol\":3827:3834  message */\n      dup4\n        /* \"src/EquitoApp.sol\":3827:3841  message.sender */\n      0x40\n      add\n        /* \"src/EquitoApp.sol\":3827:3847  message.sender.lower */\n      0x00\n      add\n      calldataload\n        /* \"src/EquitoApp.sol\":3806:3817  peerAddress */\n      dup2\n        /* \"src/EquitoApp.sol\":3806:3823  peerAddress.lower */\n      0x00\n      add\n      mload\n        /* \"src/EquitoApp.sol\":3806:3847  peerAddress.lower != message.sender.lower */\n      eq\n      iszero\n        /* \"src/EquitoApp.sol\":3806:3892  peerAddress.lower != message.sender.lower || peerAddress.upper != message.sender.upper */\n      dup1\n      tag_72\n      jumpi\n      pop\n        /* \"src/EquitoApp.sol\":3872:3879  message */\n      dup4\n        /* \"src/EquitoApp.sol\":3872:3886  message.sender */\n      0x40\n      add\n        /* \"src/EquitoApp.sol\":3872:3892  message.sender.upper */\n      0x20\n      add\n      calldataload\n        /* \"src/EquitoApp.sol\":3851:3862  peerAddress */\n      dup2\n        /* \"src/EquitoApp.sol\":3851:3868  peerAddress.upper */\n      0x20\n      add\n      mload\n        /* \"src/EquitoApp.sol\":3851:3892  peerAddress.upper != message.sender.upper */\n      eq\n      iszero\n        /* \"src/EquitoApp.sol\":3806:3892  peerAddress.lower != message.sender.lower || peerAddress.upper != message.sender.upper */\n    tag_72:\n        /* \"src/EquitoApp.sol\":3802:4043  if (peerAddress.lower != message.sender.lower || peerAddress.upper != message.sender.upper) {... */\n      iszero\n      tag_73\n      jumpi\n        /* \"src/EquitoApp.sol\":3908:3956  _receiveMessageFromNonPeer(message, messageData) */\n      tag_74\n        /* \"src/EquitoApp.sol\":3935:3942  message */\n      dup5\n        /* \"src/EquitoApp.sol\":3944:3955  messageData */\n      dup5\n      dup5\n        /* \"src/EquitoApp.sol\":3908:3934  _receiveMessageFromNonPeer */\n      tag_75\n        /* \"src/EquitoApp.sol\":3908:3956  _receiveMessageFromNonPeer(message, messageData) */\n      jump\t// in\n    tag_74:\n        /* \"src/EquitoApp.sol\":3802:4043  if (peerAddress.lower != message.sender.lower || peerAddress.upper != message.sender.upper) {... */\n      jump(tag_76)\n    tag_73:\n        /* \"src/EquitoApp.sol\":3987:4032  _receiveMessageFromPeer(message, messageData) */\n      tag_77\n        /* \"src/EquitoApp.sol\":4011:4018  message */\n      dup5\n        /* \"src/EquitoApp.sol\":4020:4031  messageData */\n      dup5\n      dup5\n        /* \"src/EquitoApp.sol\":3987:4010  _receiveMessageFromPeer */\n      tag_78\n        /* \"src/EquitoApp.sol\":3987:4032  _receiveMessageFromPeer(message, messageData) */\n      jump\t// in\n    tag_77:\n        /* \"src/EquitoApp.sol\":3802:4043  if (peerAddress.lower != message.sender.lower || peerAddress.upper != message.sender.upper) {... */\n    tag_76:\n        /* \"src/EquitoApp.sol\":3713:4049  {... */\n      pop\n        /* \"src/EquitoApp.sol\":3570:4049  function receiveMessage(... */\n      pop\n      pop\n      pop\n      jump\t// out\n        /* \"@openzeppelin/contracts/access/Ownable.sol\":1638:1723  function owner() public view virtual returns (address) {... */\n    tag_32:\n        /* \"@openzeppelin/contracts/access/Ownable.sol\":1684:1691  address */\n      0x00\n        /* \"@openzeppelin/contracts/access/Ownable.sol\":1710:1716  _owner */\n      0x00\n      0x00\n      swap1\n      sload\n      swap1\n      0x0100\n      exp\n      swap1\n      div\n      0xffffffffffffffffffffffffffffffffffffffff\n      and\n        /* \"@openzeppelin/contracts/access/Ownable.sol\":1703:1716  return _owner */\n      swap1\n      pop\n        /* \"@openzeppelin/contracts/access/Ownable.sol\":1638:1723  function owner() public view virtual returns (address) {... */\n      swap1\n      jump\t// out\n        /* \"src/EquitoApp.sol\":811:851  mapping(uint256 => bytes64) public peers */\n    tag_38:\n      mstore(0x20, 0x01)\n      dup1\n      0x00\n      mstore\n      keccak256(0x00, 0x40)\n      0x00\n      swap2\n      pop\n      swap1\n      pop\n      dup1\n      0x00\n      add\n      sload\n      swap1\n      dup1\n      0x01\n      add\n      sload\n      swap1\n      pop\n      dup3\n      jump\t// out\n        /* \"src/examples/PingPong.sol\":2170:2594  function sendPing(... */\n    tag_44:\n        /* \"src/examples/PingPong.sol\":2296:2313  bytes memory data */\n      0x00\n        /* \"src/examples/PingPong.sol\":2335:2342  message */\n      dup3\n      dup3\n        /* \"src/examples/PingPong.sol\":2316:2343  abi.encode(\"ping\", message) */\n      add(0x20, mload(0x40))\n      tag_81\n      swap3\n      swap2\n      swap1\n      tag_82\n      jump\t// in\n    tag_81:\n      mload(0x40)\n      0x20\n      dup2\n      dup4\n      sub\n      sub\n      dup2\n      mstore\n      swap1\n      0x40\n      mstore\n        /* \"src/examples/PingPong.sol\":2296:2343  bytes memory data = abi.encode(\"ping\", message) */\n      swap1\n      pop\n        /* \"src/examples/PingPong.sol\":2354:2373  bytes32 messageHash */\n      0x00\n        /* \"src/examples/PingPong.sol\":2376:2382  router */\n      immutable(\"0x69e3c6522a2f8bf12e780ae53c30e69d48d224ea00c92026278c398148e8df91\")\n        /* \"src/examples/PingPong.sol\":2376:2394  router.sendMessage */\n      0xffffffffffffffffffffffffffffffffffffffff\n      and\n      0xdc203137\n        /* \"src/examples/PingPong.sol\":2402:2411  msg.value */\n      callvalue\n        /* \"src/examples/PingPong.sol\":2426:2459  getPeer(destinationChainSelector) */\n      tag_83\n        /* \"src/examples/PingPong.sol\":2434:2458  destinationChainSelector */\n      dup9\n        /* \"src/examples/PingPong.sol\":2426:2433  getPeer */\n      tag_20\n        /* \"src/examples/PingPong.sol\":2426:2459  getPeer(destinationChainSelector) */\n      jump\t// in\n    tag_83:\n        /* \"src/examples/PingPong.sol\":2473:2497  destinationChainSelector */\n      dup9\n        /* \"src/examples/PingPong.sol\":2511:2515  data */\n      dup7\n        /* \"src/examples/PingPong.sol\":2376:2525  router.sendMessage{value: msg.value}(... */\n      mload(0x40)\n      dup6\n      0xffffffff\n      and\n      0xe0\n      shl\n      dup2\n      mstore\n      0x04\n      add\n      tag_84\n      swap4\n      swap3\n      swap2\n      swap1\n      tag_85\n      jump\t// in\n    tag_84:\n      0x20\n      mload(0x40)\n      dup1\n      dup4\n      sub\n      dup2\n      dup6\n      dup9\n      gas\n      call\n      iszero\n      dup1\n      iszero\n      tag_87\n      jumpi\n      returndatacopy(0x00, 0x00, returndatasize)\n      revert(0x00, returndatasize)\n    tag_87:\n      pop\n      pop\n      pop\n      pop\n      pop\n      mload(0x40)\n      returndatasize\n      not(0x1f)\n      0x1f\n      dup3\n      add\n      and\n      dup3\n      add\n      dup1\n      0x40\n      mstore\n      pop\n      dup2\n      add\n      swap1\n      tag_88\n      swap2\n      swap1\n      tag_89\n      jump\t// in\n    tag_88:\n        /* \"src/examples/PingPong.sol\":2354:2525  bytes32 messageHash = router.sendMessage{value: msg.value}(... */\n      swap1\n      pop\n        /* \"src/examples/PingPong.sol\":2549:2573  destinationChainSelector */\n      dup5\n        /* \"src/examples/PingPong.sol\":2540:2587  PingSent(destinationChainSelector, messageHash) */\n      0x9a0713d13bd9cc10bb3e581ae825f6cc721a6cb23feac011ad8e5a7dab79f4a1\n        /* \"src/examples/PingPong.sol\":2575:2586  messageHash */\n      dup3\n        /* \"src/examples/PingPong.sol\":2540:2587  PingSent(destinationChainSelector, messageHash) */\n      mload(0x40)\n      tag_90\n      swap2\n      swap1\n      tag_91\n      jump\t// in\n    tag_90:\n      mload(0x40)\n      dup1\n      swap2\n      sub\n      swap1\n      log2\n        /* \"src/examples/PingPong.sol\":2286:2594  {... */\n      pop\n      pop\n        /* \"src/examples/PingPong.sol\":2170:2594  function sendPing(... */\n      pop\n      pop\n      pop\n      jump\t// out\n        /* \"@openzeppelin/contracts/access/Ownable.sol\":2543:2758  function transferOwnership(address newOwner) public virtual onlyOwner {... */\n    tag_49:\n        /* \"@openzeppelin/contracts/access/Ownable.sol\":1531:1544  _checkOwner() */\n      tag_93\n        /* \"@openzeppelin/contracts/access/Ownable.sol\":1531:1542  _checkOwner */\n      tag_52\n        /* \"@openzeppelin/contracts/access/Ownable.sol\":1531:1544  _checkOwner() */\n      jump\t// in\n    tag_93:\n        /* \"@openzeppelin/contracts/access/Ownable.sol\":2647:2648  0 */\n      0x00\n        /* \"@openzeppelin/contracts/access/Ownable.sol\":2627:2649  newOwner == address(0) */\n      0xffffffffffffffffffffffffffffffffffffffff\n      and\n        /* \"@openzeppelin/contracts/access/Ownable.sol\":2627:2635  newOwner */\n      dup2\n        /* \"@openzeppelin/contracts/access/Ownable.sol\":2627:2649  newOwner == address(0) */\n      0xffffffffffffffffffffffffffffffffffffffff\n      and\n      sub\n        /* \"@openzeppelin/contracts/access/Ownable.sol\":2623:2714  if (newOwner == address(0)) {... */\n      tag_95\n      jumpi\n        /* \"@openzeppelin/contracts/access/Ownable.sol\":2700:2701  0 */\n      0x00\n        /* \"@openzeppelin/contracts/access/Ownable.sol\":2672:2703  OwnableInvalidOwner(address(0)) */\n      mload(0x40)\n      0x1e4fbdf700000000000000000000000000000000000000000000000000000000\n      dup2\n      mstore\n      0x04\n      add\n      tag_96\n      swap2\n      swap1\n      tag_34\n      jump\t// in\n    tag_96:\n      mload(0x40)\n      dup1\n      swap2\n      sub\n      swap1\n      revert\n        /* \"@openzeppelin/contracts/access/Ownable.sol\":2623:2714  if (newOwner == address(0)) {... */\n    tag_95:\n        /* \"@openzeppelin/contracts/access/Ownable.sol\":2723:2751  _transferOwnership(newOwner) */\n      tag_97\n        /* \"@openzeppelin/contracts/access/Ownable.sol\":2742:2750  newOwner */\n      dup2\n        /* \"@openzeppelin/contracts/access/Ownable.sol\":2723:2741  _transferOwnership */\n      tag_67\n        /* \"@openzeppelin/contracts/access/Ownable.sol\":2723:2751  _transferOwnership(newOwner) */\n      jump\t// in\n    tag_97:\n        /* \"@openzeppelin/contracts/access/Ownable.sol\":2543:2758  function transferOwnership(address newOwner) public virtual onlyOwner {... */\n      pop\n      jump\t// out\n        /* \"@openzeppelin/contracts/access/Ownable.sol\":1796:1958  function _checkOwner() internal view virtual {... */\n    tag_52:\n        /* \"@openzeppelin/contracts/access/Ownable.sol\":1866:1878  _msgSender() */\n      tag_99\n        /* \"@openzeppelin/contracts/access/Ownable.sol\":1866:1876  _msgSender */\n      tag_100\n        /* \"@openzeppelin/contracts/access/Ownable.sol\":1866:1878  _msgSender() */\n      jump\t// in\n    tag_99:\n        /* \"@openzeppelin/contracts/access/Ownable.sol\":1855:1878  owner() != _msgSender() */\n      0xffffffffffffffffffffffffffffffffffffffff\n      and\n        /* \"@openzeppelin/contracts/access/Ownable.sol\":1855:1862  owner() */\n      tag_101\n        /* \"@openzeppelin/contracts/access/Ownable.sol\":1855:1860  owner */\n      tag_32\n        /* \"@openzeppelin/contracts/access/Ownable.sol\":1855:1862  owner() */\n      jump\t// in\n    tag_101:\n        /* \"@openzeppelin/contracts/access/Ownable.sol\":1855:1878  owner() != _msgSender() */\n      0xffffffffffffffffffffffffffffffffffffffff\n      and\n      eq\n        /* \"@openzeppelin/contracts/access/Ownable.sol\":1851:1952  if (owner() != _msgSender()) {... */\n      tag_102\n      jumpi\n        /* \"@openzeppelin/contracts/access/Ownable.sol\":1928:1940  _msgSender() */\n      tag_103\n        /* \"@openzeppelin/contracts/access/Ownable.sol\":1928:1938  _msgSender */\n      tag_100\n        /* \"@openzeppelin/contracts/access/Ownable.sol\":1928:1940  _msgSender() */\n      jump\t// in\n    tag_103:\n        /* \"@openzeppelin/contracts/access/Ownable.sol\":1901:1941  OwnableUnauthorizedAccount(_msgSender()) */\n      mload(0x40)\n      0x118cdaa700000000000000000000000000000000000000000000000000000000\n      dup2\n      mstore\n      0x04\n      add\n      tag_104\n      swap2\n      swap1\n      tag_34\n      jump\t// in\n    tag_104:\n      mload(0x40)\n      dup1\n      swap2\n      sub\n      swap1\n      revert\n        /* \"@openzeppelin/contracts/access/Ownable.sol\":1851:1952  if (owner() != _msgSender()) {... */\n    tag_102:\n        /* \"@openzeppelin/contracts/access/Ownable.sol\":1796:1958  function _checkOwner() internal view virtual {... */\n      jump\t// out\n        /* \"src/EquitoApp.sol\":2211:2566  function _setPeers(uint256[] memory chainSelectors, bytes64[] memory addresses) internal virtual onlyOwner {... */\n    tag_55:\n        /* \"@openzeppelin/contracts/access/Ownable.sol\":1531:1544  _checkOwner() */\n      tag_106\n        /* \"@openzeppelin/contracts/access/Ownable.sol\":1531:1542  _checkOwner */\n      tag_52\n        /* \"@openzeppelin/contracts/access/Ownable.sol\":1531:1544  _checkOwner() */\n      jump\t// in\n    tag_106:\n        /* \"src/EquitoApp.sol\":2357:2366  addresses */\n      dup1\n        /* \"src/EquitoApp.sol\":2357:2373  addresses.length */\n      mload\n        /* \"src/EquitoApp.sol\":2332:2346  chainSelectors */\n      dup3\n        /* \"src/EquitoApp.sol\":2332:2353  chainSelectors.length */\n      mload\n        /* \"src/EquitoApp.sol\":2332:2373  chainSelectors.length != addresses.length */\n      eq\n        /* \"src/EquitoApp.sol\":2328:2404  if (chainSelectors.length != addresses.length) revert Errors.InvalidLength() */\n      tag_108\n      jumpi\n        /* \"src/EquitoApp.sol\":2382:2404  Errors.InvalidLength() */\n      mload(0x40)\n      0x947d5a8400000000000000000000000000000000000000000000000000000000\n      dup2\n      mstore\n      0x04\n      add\n      mload(0x40)\n      dup1\n      swap2\n      sub\n      swap1\n      revert\n        /* \"src/EquitoApp.sol\":2328:2404  if (chainSelectors.length != addresses.length) revert Errors.InvalidLength() */\n    tag_108:\n        /* \"src/EquitoApp.sol\":2420:2429  uint256 i */\n      0x00\n        /* \"src/EquitoApp.sol\":2432:2433  0 */\n      0x00\n        /* \"src/EquitoApp.sol\":2420:2433  uint256 i = 0 */\n      swap1\n      pop\n        /* \"src/EquitoApp.sol\":2415:2560  for (uint256 i = 0; i < chainSelectors.length; ) {... */\n    tag_109:\n        /* \"src/EquitoApp.sol\":2439:2453  chainSelectors */\n      dup3\n        /* \"src/EquitoApp.sol\":2439:2460  chainSelectors.length */\n      mload\n        /* \"src/EquitoApp.sol\":2435:2436  i */\n      dup2\n        /* \"src/EquitoApp.sol\":2435:2460  i < chainSelectors.length */\n      lt\n        /* \"src/EquitoApp.sol\":2415:2560  for (uint256 i = 0; i < chainSelectors.length; ) {... */\n      iszero\n      tag_110\n      jumpi\n        /* \"src/EquitoApp.sol\":2505:2514  addresses */\n      dup2\n        /* \"src/EquitoApp.sol\":2515:2516  i */\n      dup2\n        /* \"src/EquitoApp.sol\":2505:2517  addresses[i] */\n      dup2\n      mload\n      dup2\n      lt\n      tag_112\n      jumpi\n      tag_113\n      tag_114\n      jump\t// in\n    tag_113:\n    tag_112:\n      0x20\n      mul\n      0x20\n      add\n      add\n      mload\n        /* \"src/EquitoApp.sol\":2478:2483  peers */\n      0x01\n        /* \"src/EquitoApp.sol\":2478:2502  peers[chainSelectors[i]] */\n      0x00\n        /* \"src/EquitoApp.sol\":2484:2498  chainSelectors */\n      dup6\n        /* \"src/EquitoApp.sol\":2499:2500  i */\n      dup5\n        /* \"src/EquitoApp.sol\":2484:2501  chainSelectors[i] */\n      dup2\n      mload\n      dup2\n      lt\n      tag_115\n      jumpi\n      tag_116\n      tag_114\n      jump\t// in\n    tag_116:\n    tag_115:\n      0x20\n      mul\n      0x20\n      add\n      add\n      mload\n        /* \"src/EquitoApp.sol\":2478:2502  peers[chainSelectors[i]] */\n      dup2\n      mstore\n      0x20\n      add\n      swap1\n      dup2\n      mstore\n      0x20\n      add\n      0x00\n      keccak256\n        /* \"src/EquitoApp.sol\":2478:2517  peers[chainSelectors[i]] = addresses[i] */\n      0x00\n      dup3\n      add\n      mload\n      dup2\n      0x00\n      add\n      sstore\n      0x20\n      dup3\n      add\n      mload\n      dup2\n      0x01\n      add\n      sstore\n      swap1\n      pop\n      pop\n        /* \"src/EquitoApp.sol\":2544:2547  ++i */\n      dup1\n      0x01\n      add\n      swap1\n      pop\n        /* \"src/EquitoApp.sol\":2415:2560  for (uint256 i = 0; i < chainSelectors.length; ) {... */\n      jump(tag_109)\n    tag_110:\n      pop\n        /* \"src/EquitoApp.sol\":2211:2566  function _setPeers(uint256[] memory chainSelectors, bytes64[] memory addresses) internal virtual onlyOwner {... */\n      pop\n      pop\n      jump\t// out\n        /* \"@openzeppelin/contracts/access/Ownable.sol\":2912:3099  function _transferOwnership(address newOwner) internal virtual {... */\n    tag_67:\n        /* \"@openzeppelin/contracts/access/Ownable.sol\":2985:3001  address oldOwner */\n      0x00\n        /* \"@openzeppelin/contracts/access/Ownable.sol\":3004:3010  _owner */\n      0x00\n      0x00\n      swap1\n      sload\n      swap1\n      0x0100\n      exp\n      swap1\n      div\n      0xffffffffffffffffffffffffffffffffffffffff\n      and\n        /* \"@openzeppelin/contracts/access/Ownable.sol\":2985:3010  address oldOwner = _owner */\n      swap1\n      pop\n        /* \"@openzeppelin/contracts/access/Ownable.sol\":3029:3037  newOwner */\n      dup2\n        /* \"@openzeppelin/contracts/access/Ownable.sol\":3020:3026  _owner */\n      0x00\n      0x00\n        /* \"@openzeppelin/contracts/access/Ownable.sol\":3020:3037  _owner = newOwner */\n      0x0100\n      exp\n      dup2\n      sload\n      dup2\n      0xffffffffffffffffffffffffffffffffffffffff\n      mul\n      not\n      and\n      swap1\n      dup4\n      0xffffffffffffffffffffffffffffffffffffffff\n      and\n      mul\n      or\n      swap1\n      sstore\n      pop\n        /* \"@openzeppelin/contracts/access/Ownable.sol\":3083:3091  newOwner */\n      dup2\n        /* \"@openzeppelin/contracts/access/Ownable.sol\":3052:3092  OwnershipTransferred(oldOwner, newOwner) */\n      0xffffffffffffffffffffffffffffffffffffffff\n      and\n        /* \"@openzeppelin/contracts/access/Ownable.sol\":3073:3081  oldOwner */\n      dup2\n        /* \"@openzeppelin/contracts/access/Ownable.sol\":3052:3092  OwnershipTransferred(oldOwner, newOwner) */\n      0xffffffffffffffffffffffffffffffffffffffff\n      and\n      0x8be0079c531659141344cd1fd0a4f28419497f9722a3daafe3b4186f6b6457e0\n      mload(0x40)\n      mload(0x40)\n      dup1\n      swap2\n      sub\n      swap1\n      log3\n        /* \"@openzeppelin/contracts/access/Ownable.sol\":2975:3099  {... */\n      pop\n        /* \"@openzeppelin/contracts/access/Ownable.sol\":2912:3099  function _transferOwnership(address newOwner) internal virtual {... */\n      pop\n      jump\t// out\n        /* \"src/EquitoApp.sol\":4643:4835  function _receiveMessageFromNonPeer(... */\n    tag_75:\n        /* \"src/EquitoApp.sol\":4799:4828  Errors.InvalidMessageSender() */\n      mload(0x40)\n      0x7fee69a100000000000000000000000000000000000000000000000000000000\n      dup2\n      mstore\n      0x04\n      add\n      mload(0x40)\n      dup1\n      swap2\n      sub\n      swap1\n      revert\n        /* \"src/examples/PingPong.sol\":2780:3919  function _receiveMessageFromPeer(... */\n    tag_78:\n        /* \"src/examples/PingPong.sol\":2924:2949  string memory messageType */\n      0x00\n        /* \"src/examples/PingPong.sol\":2951:2972  string memory payload */\n      0x00\n        /* \"src/examples/PingPong.sol\":3000:3011  messageData */\n      dup4\n      dup4\n        /* \"src/examples/PingPong.sol\":2976:3051  abi.decode(... */\n      dup2\n      add\n      swap1\n      tag_120\n      swap2\n      swap1\n      tag_121\n      jump\t// in\n    tag_120:\n        /* \"src/examples/PingPong.sol\":2923:3051  (string memory messageType, string memory payload) = abi.decode(... */\n      swap2\n      pop\n      swap2\n      pop\n        /* \"src/examples/PingPong.sol\":3109:3122  bytes(\"ping\") */\n      mload(0x40)\n      dup1\n      0x40\n      add\n      0x40\n      mstore\n      dup1\n      0x04\n      dup2\n      mstore\n      0x20\n      add\n      0x70696e6700000000000000000000000000000000000000000000000000000000\n      dup2\n      mstore\n      pop\n        /* \"src/examples/PingPong.sol\":3099:3123  keccak256(bytes(\"ping\")) */\n      dup1\n      mload\n      swap1\n      0x20\n      add\n      keccak256\n        /* \"src/examples/PingPong.sol\":3082:3093  messageType */\n      dup3\n        /* \"src/examples/PingPong.sol\":3066:3095  keccak256(bytes(messageType)) */\n      dup1\n      mload\n      swap1\n      0x20\n      add\n      keccak256\n        /* \"src/examples/PingPong.sol\":3066:3123  keccak256(bytes(messageType)) == keccak256(bytes(\"ping\")) */\n      sub\n        /* \"src/examples/PingPong.sol\":3062:3913  if (keccak256(bytes(messageType)) == keccak256(bytes(\"ping\"))) {... */\n      tag_122\n      jumpi\n        /* \"src/examples/PingPong.sol\":3174:3181  message */\n      dup5\n        /* \"src/examples/PingPong.sol\":3174:3201  message.sourceChainSelector */\n      0x20\n      add\n      calldataload\n        /* \"src/examples/PingPong.sol\":3144:3263  PingReceived(... */\n      0x6a2ebcadb5c7a5390e43397830460b8d60144a607eb92002834d6affbf448993\n        /* \"src/examples/PingPong.sol\":3240:3247  message */\n      dup7\n        /* \"src/examples/PingPong.sol\":3229:3248  abi.encode(message) */\n      add(0x20, mload(0x40))\n      tag_123\n      swap2\n      swap1\n      tag_124\n      jump\t// in\n    tag_123:\n      mload(0x40)\n      0x20\n      dup2\n      dup4\n      sub\n      sub\n      dup2\n      mstore\n      swap1\n      0x40\n      mstore\n        /* \"src/examples/PingPong.sol\":3219:3249  keccak256(abi.encode(message)) */\n      dup1\n      mload\n      swap1\n      0x20\n      add\n      keccak256\n        /* \"src/examples/PingPong.sol\":3144:3263  PingReceived(... */\n      mload(0x40)\n      tag_125\n      swap2\n      swap1\n      tag_91\n      jump\t// in\n    tag_125:\n      mload(0x40)\n      dup1\n      swap2\n      sub\n      swap1\n      log2\n        /* \"src/examples/PingPong.sol\":3303:3320  bytes memory data */\n      0x00\n        /* \"src/examples/PingPong.sol\":3342:3349  payload */\n      dup2\n        /* \"src/examples/PingPong.sol\":3323:3350  abi.encode(\"pong\", payload) */\n      add(0x20, mload(0x40))\n      tag_126\n      swap2\n      swap1\n      tag_127\n      jump\t// in\n    tag_126:\n      mload(0x40)\n      0x20\n      dup2\n      dup4\n      sub\n      sub\n      dup2\n      mstore\n      swap1\n      0x40\n      mstore\n        /* \"src/examples/PingPong.sol\":3303:3350  bytes memory data = abi.encode(\"pong\", payload) */\n      swap1\n      pop\n        /* \"src/examples/PingPong.sol\":3364:3383  bytes32 messageHash */\n      0x00\n        /* \"src/examples/PingPong.sol\":3386:3392  router */\n      immutable(\"0x69e3c6522a2f8bf12e780ae53c30e69d48d224ea00c92026278c398148e8df91\")\n        /* \"src/examples/PingPong.sol\":3386:3404  router.sendMessage */\n      0xffffffffffffffffffffffffffffffffffffffff\n      and\n      0xdc203137\n        /* \"src/examples/PingPong.sol\":3412:3421  msg.value */\n      callvalue\n        /* \"src/examples/PingPong.sol\":3440:3476  getPeer(message.sourceChainSelector) */\n      tag_128\n        /* \"src/examples/PingPong.sol\":3448:3455  message */\n      dup11\n        /* \"src/examples/PingPong.sol\":3448:3475  message.sourceChainSelector */\n      0x20\n      add\n      calldataload\n        /* \"src/examples/PingPong.sol\":3440:3447  getPeer */\n      tag_20\n        /* \"src/examples/PingPong.sol\":3440:3476  getPeer(message.sourceChainSelector) */\n      jump\t// in\n    tag_128:\n        /* \"src/examples/PingPong.sol\":3494:3501  message */\n      dup11\n        /* \"src/examples/PingPong.sol\":3494:3521  message.sourceChainSelector */\n      0x20\n      add\n      calldataload\n        /* \"src/examples/PingPong.sol\":3539:3543  data */\n      dup7\n        /* \"src/examples/PingPong.sol\":3386:3557  router.sendMessage{value: msg.value}(... */\n      mload(0x40)\n      dup6\n      0xffffffff\n      and\n      0xe0\n      shl\n      dup2\n      mstore\n      0x04\n      add\n      tag_129\n      swap4\n      swap3\n      swap2\n      swap1\n      tag_85\n      jump\t// in\n    tag_129:\n      0x20\n      mload(0x40)\n      dup1\n      dup4\n      sub\n      dup2\n      dup6\n      dup9\n      gas\n      call\n      iszero\n      dup1\n      iszero\n      tag_131\n      jumpi\n      returndatacopy(0x00, 0x00, returndatasize)\n      revert(0x00, returndatasize)\n    tag_131:\n      pop\n      pop\n      pop\n      pop\n      pop\n      mload(0x40)\n      returndatasize\n      not(0x1f)\n      0x1f\n      dup3\n      add\n      and\n      dup3\n      add\n      dup1\n      0x40\n      mstore\n      pop\n      dup2\n      add\n      swap1\n      tag_132\n      swap2\n      swap1\n      tag_89\n      jump\t// in\n    tag_132:\n        /* \"src/examples/PingPong.sol\":3364:3557  bytes32 messageHash = router.sendMessage{value: msg.value}(... */\n      swap1\n      pop\n        /* \"src/examples/PingPong.sol\":3585:3592  message */\n      dup7\n        /* \"src/examples/PingPong.sol\":3585:3612  message.sourceChainSelector */\n      0x20\n      add\n      calldataload\n        /* \"src/examples/PingPong.sol\":3576:3626  PongSent(message.sourceChainSelector, messageHash) */\n      0xf6eb543d49fe714b0e42cc5c6d367792f2c7d330650c3991d2dc463c1392d2a7\n        /* \"src/examples/PingPong.sol\":3614:3625  messageHash */\n      dup3\n        /* \"src/examples/PingPong.sol\":3576:3626  PongSent(message.sourceChainSelector, messageHash) */\n      mload(0x40)\n      tag_133\n      swap2\n      swap1\n      tag_91\n      jump\t// in\n    tag_133:\n      mload(0x40)\n      dup1\n      swap2\n      sub\n      swap1\n      log2\n        /* \"src/examples/PingPong.sol\":3125:3637  {... */\n      pop\n      pop\n        /* \"src/examples/PingPong.sol\":3062:3913  if (keccak256(bytes(messageType)) == keccak256(bytes(\"ping\"))) {... */\n      jump(tag_134)\n    tag_122:\n        /* \"src/examples/PingPong.sol\":3690:3703  bytes(\"pong\") */\n      mload(0x40)\n      dup1\n      0x40\n      add\n      0x40\n      mstore\n      dup1\n      0x04\n      dup2\n      mstore\n      0x20\n      add\n      0x706f6e6700000000000000000000000000000000000000000000000000000000\n      dup2\n      mstore\n      pop\n        /* \"src/examples/PingPong.sol\":3680:3704  keccak256(bytes(\"pong\")) */\n      dup1\n      mload\n      swap1\n      0x20\n      add\n      keccak256\n        /* \"src/examples/PingPong.sol\":3663:3674  messageType */\n      dup3\n        /* \"src/examples/PingPong.sol\":3647:3676  keccak256(bytes(messageType)) */\n      dup1\n      mload\n      swap1\n      0x20\n      add\n      keccak256\n        /* \"src/examples/PingPong.sol\":3647:3704  keccak256(bytes(messageType)) == keccak256(bytes(\"pong\")) */\n      sub\n        /* \"src/examples/PingPong.sol\":3643:3913  if (keccak256(bytes(messageType)) == keccak256(bytes(\"pong\"))) {... */\n      tag_135\n      jumpi\n        /* \"src/examples/PingPong.sol\":3755:3762  message */\n      dup5\n        /* \"src/examples/PingPong.sol\":3755:3782  message.sourceChainSelector */\n      0x20\n      add\n      calldataload\n        /* \"src/examples/PingPong.sol\":3725:3844  PongReceived(... */\n      0x7c0a7b5aa66c3b2e7d4d3377188f735e87372f7d0bbba37829e260f6f53f9377\n        /* \"src/examples/PingPong.sol\":3821:3828  message */\n      dup7\n        /* \"src/examples/PingPong.sol\":3810:3829  abi.encode(message) */\n      add(0x20, mload(0x40))\n      tag_136\n      swap2\n      swap1\n      tag_124\n      jump\t// in\n    tag_136:\n      mload(0x40)\n      0x20\n      dup2\n      dup4\n      sub\n      sub\n      dup2\n      mstore\n      swap1\n      0x40\n      mstore\n        /* \"src/examples/PingPong.sol\":3800:3830  keccak256(abi.encode(message)) */\n      dup1\n      mload\n      swap1\n      0x20\n      add\n      keccak256\n        /* \"src/examples/PingPong.sol\":3725:3844  PongReceived(... */\n      mload(0x40)\n      tag_137\n      swap2\n      swap1\n      tag_91\n      jump\t// in\n    tag_137:\n      mload(0x40)\n      dup1\n      swap2\n      sub\n      swap1\n      log2\n        /* \"src/examples/PingPong.sol\":3643:3913  if (keccak256(bytes(messageType)) == keccak256(bytes(\"pong\"))) {... */\n      jump(tag_138)\n    tag_135:\n        /* \"src/examples/PingPong.sol\":3882:3902  InvalidMessageType() */\n      mload(0x40)\n      0x5b60892f00000000000000000000000000000000000000000000000000000000\n      dup2\n      mstore\n      0x04\n      add\n      mload(0x40)\n      dup1\n      swap2\n      sub\n      swap1\n      revert\n        /* \"src/examples/PingPong.sol\":3643:3913  if (keccak256(bytes(messageType)) == keccak256(bytes(\"pong\"))) {... */\n    tag_138:\n        /* \"src/examples/PingPong.sol\":3062:3913  if (keccak256(bytes(messageType)) == keccak256(bytes(\"ping\"))) {... */\n    tag_134:\n        /* \"src/examples/PingPong.sol\":2913:3919  {... */\n      pop\n      pop\n        /* \"src/examples/PingPong.sol\":2780:3919  function _receiveMessageFromPeer(... */\n      pop\n      pop\n      pop\n      jump\t// out\n        /* \"@openzeppelin/contracts/utils/Context.sol\":656:752  function _msgSender() internal view virtual returns (address) {... */\n    tag_100:\n        /* \"@openzeppelin/contracts/utils/Context.sol\":709:716  address */\n      0x00\n        /* \"@openzeppelin/contracts/utils/Context.sol\":735:745  msg.sender */\n      caller\n        /* \"@openzeppelin/contracts/utils/Context.sol\":728:745  return msg.sender */\n      swap1\n      pop\n        /* \"@openzeppelin/contracts/utils/Context.sol\":656:752  function _msgSender() internal view virtual returns (address) {... */\n      swap1\n      jump\t// out\n    tag_57:\n      mload(0x40)\n      dup1\n      0x40\n      add\n      0x40\n      mstore\n      dup1\n      0x00\n      dup2\n      mstore\n      0x20\n      add\n      0x00\n      dup2\n      mstore\n      pop\n      swap1\n      jump\t// out\n        /* \"#utility.yul\":7:82   */\n    tag_140:\n        /* \"#utility.yul\":40:46   */\n      0x00\n        /* \"#utility.yul\":73:75   */\n      0x40\n        /* \"#utility.yul\":67:76   */\n      mload\n        /* \"#utility.yul\":57:76   */\n      swap1\n      pop\n        /* \"#utility.yul\":7:82   */\n      swap1\n      jump\t// out\n        /* \"#utility.yul\":88:205   */\n    tag_141:\n        /* \"#utility.yul\":197:198   */\n      0x00\n        /* \"#utility.yul\":194:195   */\n      0x00\n        /* \"#utility.yul\":187:199   */\n      revert\n        /* \"#utility.yul\":211:328   */\n    tag_142:\n        /* \"#utility.yul\":320:321   */\n      0x00\n        /* \"#utility.yul\":317:318   */\n      0x00\n        /* \"#utility.yul\":310:322   */\n      revert\n        /* \"#utility.yul\":334:451   */\n    tag_143:\n        /* \"#utility.yul\":443:444   */\n      0x00\n        /* \"#utility.yul\":440:441   */\n      0x00\n        /* \"#utility.yul\":433:445   */\n      revert\n        /* \"#utility.yul\":457:559   */\n    tag_144:\n        /* \"#utility.yul\":498:504   */\n      0x00\n        /* \"#utility.yul\":549:551   */\n      0x1f\n        /* \"#utility.yul\":545:552   */\n      not\n        /* \"#utility.yul\":540:542   */\n      0x1f\n        /* \"#utility.yul\":533:538   */\n      dup4\n        /* \"#utility.yul\":529:543   */\n      add\n        /* \"#utility.yul\":525:553   */\n      and\n        /* \"#utility.yul\":515:553   */\n      swap1\n      pop\n        /* \"#utility.yul\":457:559   */\n      swap2\n      swap1\n      pop\n      jump\t// out\n        /* \"#utility.yul\":565:745   */\n    tag_145:\n        /* \"#utility.yul\":613:690   */\n      0x4e487b7100000000000000000000000000000000000000000000000000000000\n        /* \"#utility.yul\":610:611   */\n      0x00\n        /* \"#utility.yul\":603:691   */\n      mstore\n        /* \"#utility.yul\":710:714   */\n      0x41\n        /* \"#utility.yul\":707:708   */\n      0x04\n        /* \"#utility.yul\":700:715   */\n      mstore\n        /* \"#utility.yul\":734:738   */\n      0x24\n        /* \"#utility.yul\":731:732   */\n      0x00\n        /* \"#utility.yul\":724:739   */\n      revert\n        /* \"#utility.yul\":751:1032   */\n    tag_146:\n        /* \"#utility.yul\":834:861   */\n      tag_210\n        /* \"#utility.yul\":856:860   */\n      dup3\n        /* \"#utility.yul\":834:861   */\n      tag_144\n      jump\t// in\n    tag_210:\n        /* \"#utility.yul\":826:832   */\n      dup2\n        /* \"#utility.yul\":822:862   */\n      add\n        /* \"#utility.yul\":964:970   */\n      dup2\n        /* \"#utility.yul\":952:962   */\n      dup2\n        /* \"#utility.yul\":949:971   */\n      lt\n        /* \"#utility.yul\":928:946   */\n      0xffffffffffffffff\n        /* \"#utility.yul\":916:926   */\n      dup3\n        /* \"#utility.yul\":913:947   */\n      gt\n        /* \"#utility.yul\":910:972   */\n      or\n        /* \"#utility.yul\":907:995   */\n      iszero\n      tag_211\n      jumpi\n        /* \"#utility.yul\":975:993   */\n      tag_212\n      tag_145\n      jump\t// in\n    tag_212:\n        /* \"#utility.yul\":907:995   */\n    tag_211:\n        /* \"#utility.yul\":1015:1025   */\n      dup1\n        /* \"#utility.yul\":1011:1013   */\n      0x40\n        /* \"#utility.yul\":1004:1026   */\n      mstore\n        /* \"#utility.yul\":794:1032   */\n      pop\n        /* \"#utility.yul\":751:1032   */\n      pop\n      pop\n      jump\t// out\n        /* \"#utility.yul\":1038:1167   */\n    tag_147:\n        /* \"#utility.yul\":1072:1078   */\n      0x00\n        /* \"#utility.yul\":1099:1119   */\n      tag_214\n      tag_140\n      jump\t// in\n    tag_214:\n        /* \"#utility.yul\":1089:1119   */\n      swap1\n      pop\n        /* \"#utility.yul\":1128:1161   */\n      tag_215\n        /* \"#utility.yul\":1156:1160   */\n      dup3\n        /* \"#utility.yul\":1148:1154   */\n      dup3\n        /* \"#utility.yul\":1128:1161   */\n      tag_146\n      jump\t// in\n    tag_215:\n        /* \"#utility.yul\":1038:1167   */\n      swap2\n      swap1\n      pop\n      jump\t// out\n        /* \"#utility.yul\":1173:1484   */\n    tag_148:\n        /* \"#utility.yul\":1250:1254   */\n      0x00\n        /* \"#utility.yul\":1340:1358   */\n      0xffffffffffffffff\n        /* \"#utility.yul\":1332:1338   */\n      dup3\n        /* \"#utility.yul\":1329:1359   */\n      gt\n        /* \"#utility.yul\":1326:1382   */\n      iszero\n      tag_217\n      jumpi\n        /* \"#utility.yul\":1362:1380   */\n      tag_218\n      tag_145\n      jump\t// in\n    tag_218:\n        /* \"#utility.yul\":1326:1382   */\n    tag_217:\n        /* \"#utility.yul\":1412:1416   */\n      0x20\n        /* \"#utility.yul\":1404:1410   */\n      dup3\n        /* \"#utility.yul\":1400:1417   */\n      mul\n        /* \"#utility.yul\":1392:1417   */\n      swap1\n      pop\n        /* \"#utility.yul\":1472:1476   */\n      0x20\n        /* \"#utility.yul\":1466:1470   */\n      dup2\n        /* \"#utility.yul\":1462:1477   */\n      add\n        /* \"#utility.yul\":1454:1477   */\n      swap1\n      pop\n        /* \"#utility.yul\":1173:1484   */\n      swap2\n      swap1\n      pop\n      jump\t// out\n        /* \"#utility.yul\":1490:1607   */\n    tag_149:\n        /* \"#utility.yul\":1599:1600   */\n      0x00\n        /* \"#utility.yul\":1596:1597   */\n      0x00\n        /* \"#utility.yul\":1589:1601   */\n      revert\n        /* \"#utility.yul\":1613:1690   */\n    tag_150:\n        /* \"#utility.yul\":1650:1657   */\n      0x00\n        /* \"#utility.yul\":1679:1684   */\n      dup2\n        /* \"#utility.yul\":1668:1684   */\n      swap1\n      pop\n        /* \"#utility.yul\":1613:1690   */\n      swap2\n      swap1\n      pop\n      jump\t// out\n        /* \"#utility.yul\":1696:1818   */\n    tag_151:\n        /* \"#utility.yul\":1769:1793   */\n      tag_222\n        /* \"#utility.yul\":1787:1792   */\n      dup2\n        /* \"#utility.yul\":1769:1793   */\n      tag_150\n      jump\t// in\n    tag_222:\n        /* \"#utility.yul\":1762:1767   */\n      dup2\n        /* \"#utility.yul\":1759:1794   */\n      eq\n        /* \"#utility.yul\":1749:1812   */\n      tag_223\n      jumpi\n        /* \"#utility.yul\":1808:1809   */\n      0x00\n        /* \"#utility.yul\":1805:1806   */\n      0x00\n        /* \"#utility.yul\":1798:1810   */\n      revert\n        /* \"#utility.yul\":1749:1812   */\n    tag_223:\n        /* \"#utility.yul\":1696:1818   */\n      pop\n      jump\t// out\n        /* \"#utility.yul\":1824:1963   */\n    tag_152:\n        /* \"#utility.yul\":1870:1875   */\n      0x00\n        /* \"#utility.yul\":1908:1914   */\n      dup2\n        /* \"#utility.yul\":1895:1915   */\n      calldataload\n        /* \"#utility.yul\":1886:1915   */\n      swap1\n      pop\n        /* \"#utility.yul\":1924:1957   */\n      tag_225\n        /* \"#utility.yul\":1951:1956   */\n      dup2\n        /* \"#utility.yul\":1924:1957   */\n      tag_151\n      jump\t// in\n    tag_225:\n        /* \"#utility.yul\":1824:1963   */\n      swap3\n      swap2\n      pop\n      pop\n      jump\t// out\n        /* \"#utility.yul\":1986:2696   */\n    tag_153:\n        /* \"#utility.yul\":2082:2087   */\n      0x00\n        /* \"#utility.yul\":2107:2188   */\n      tag_227\n        /* \"#utility.yul\":2123:2187   */\n      tag_228\n        /* \"#utility.yul\":2180:2186   */\n      dup5\n        /* \"#utility.yul\":2123:2187   */\n      tag_148\n      jump\t// in\n    tag_228:\n        /* \"#utility.yul\":2107:2188   */\n      tag_147\n      jump\t// in\n    tag_227:\n        /* \"#utility.yul\":2098:2188   */\n      swap1\n      pop\n        /* \"#utility.yul\":2208:2213   */\n      dup1\n        /* \"#utility.yul\":2237:2243   */\n      dup4\n        /* \"#utility.yul\":2230:2235   */\n      dup3\n        /* \"#utility.yul\":2223:2244   */\n      mstore\n        /* \"#utility.yul\":2271:2275   */\n      0x20\n        /* \"#utility.yul\":2264:2269   */\n      dup3\n        /* \"#utility.yul\":2260:2276   */\n      add\n        /* \"#utility.yul\":2253:2276   */\n      swap1\n      pop\n        /* \"#utility.yul\":2324:2328   */\n      0x20\n        /* \"#utility.yul\":2316:2322   */\n      dup5\n        /* \"#utility.yul\":2312:2329   */\n      mul\n        /* \"#utility.yul\":2304:2310   */\n      dup4\n        /* \"#utility.yul\":2300:2330   */\n      add\n        /* \"#utility.yul\":2353:2356   */\n      dup6\n        /* \"#utility.yul\":2345:2351   */\n      dup2\n        /* \"#utility.yul\":2342:2357   */\n      gt\n        /* \"#utility.yul\":2339:2461   */\n      iszero\n      tag_229\n      jumpi\n        /* \"#utility.yul\":2372:2451   */\n      tag_230\n      tag_149\n      jump\t// in\n    tag_230:\n        /* \"#utility.yul\":2339:2461   */\n    tag_229:\n        /* \"#utility.yul\":2487:2493   */\n      dup4\n        /* \"#utility.yul\":2470:2690   */\n    tag_231:\n        /* \"#utility.yul\":2504:2510   */\n      dup2\n        /* \"#utility.yul\":2499:2502   */\n      dup2\n        /* \"#utility.yul\":2496:2511   */\n      lt\n        /* \"#utility.yul\":2470:2690   */\n      iszero\n      tag_233\n      jumpi\n        /* \"#utility.yul\":2579:2582   */\n      dup1\n        /* \"#utility.yul\":2608:2645   */\n      tag_234\n        /* \"#utility.yul\":2641:2644   */\n      dup9\n        /* \"#utility.yul\":2629:2639   */\n      dup3\n        /* \"#utility.yul\":2608:2645   */\n      tag_152\n      jump\t// in\n    tag_234:\n        /* \"#utility.yul\":2603:2606   */\n      dup5\n        /* \"#utility.yul\":2596:2646   */\n      mstore\n        /* \"#utility.yul\":2675:2679   */\n      0x20\n        /* \"#utility.yul\":2670:2673   */\n      dup5\n        /* \"#utility.yul\":2666:2680   */\n      add\n        /* \"#utility.yul\":2659:2680   */\n      swap4\n      pop\n        /* \"#utility.yul\":2546:2690   */\n      pop\n        /* \"#utility.yul\":2530:2534   */\n      0x20\n        /* \"#utility.yul\":2525:2528   */\n      dup2\n        /* \"#utility.yul\":2521:2535   */\n      add\n        /* \"#utility.yul\":2514:2535   */\n      swap1\n      pop\n        /* \"#utility.yul\":2470:2690   */\n      jump(tag_231)\n    tag_233:\n        /* \"#utility.yul\":2474:2495   */\n      pop\n        /* \"#utility.yul\":2088:2696   */\n      pop\n      pop\n        /* \"#utility.yul\":1986:2696   */\n      swap4\n      swap3\n      pop\n      pop\n      pop\n      jump\t// out\n        /* \"#utility.yul\":2719:3089   */\n    tag_154:\n        /* \"#utility.yul\":2790:2795   */\n      0x00\n        /* \"#utility.yul\":2839:2842   */\n      dup3\n        /* \"#utility.yul\":2832:2836   */\n      0x1f\n        /* \"#utility.yul\":2824:2830   */\n      dup4\n        /* \"#utility.yul\":2820:2837   */\n      add\n        /* \"#utility.yul\":2816:2843   */\n      slt\n        /* \"#utility.yul\":2806:2928   */\n      tag_236\n      jumpi\n        /* \"#utility.yul\":2847:2926   */\n      tag_237\n      tag_143\n      jump\t// in\n    tag_237:\n        /* \"#utility.yul\":2806:2928   */\n    tag_236:\n        /* \"#utility.yul\":2964:2970   */\n      dup2\n        /* \"#utility.yul\":2951:2971   */\n      calldataload\n        /* \"#utility.yul\":2989:3083   */\n      tag_238\n        /* \"#utility.yul\":3079:3082   */\n      dup5\n        /* \"#utility.yul\":3071:3077   */\n      dup3\n        /* \"#utility.yul\":3064:3068   */\n      0x20\n        /* \"#utility.yul\":3056:3062   */\n      dup7\n        /* \"#utility.yul\":3052:3069   */\n      add\n        /* \"#utility.yul\":2989:3083   */\n      tag_153\n      jump\t// in\n    tag_238:\n        /* \"#utility.yul\":2980:3083   */\n      swap2\n      pop\n        /* \"#utility.yul\":2796:3089   */\n      pop\n        /* \"#utility.yul\":2719:3089   */\n      swap3\n      swap2\n      pop\n      pop\n      jump\t// out\n        /* \"#utility.yul\":3095:3430   */\n    tag_155:\n        /* \"#utility.yul\":3196:3200   */\n      0x00\n        /* \"#utility.yul\":3286:3304   */\n      0xffffffffffffffff\n        /* \"#utility.yul\":3278:3284   */\n      dup3\n        /* \"#utility.yul\":3275:3305   */\n      gt\n        /* \"#utility.yul\":3272:3328   */\n      iszero\n      tag_240\n      jumpi\n        /* \"#utility.yul\":3308:3326   */\n      tag_241\n      tag_145\n      jump\t// in\n    tag_241:\n        /* \"#utility.yul\":3272:3328   */\n    tag_240:\n        /* \"#utility.yul\":3358:3362   */\n      0x20\n        /* \"#utility.yul\":3350:3356   */\n      dup3\n        /* \"#utility.yul\":3346:3363   */\n      mul\n        /* \"#utility.yul\":3338:3363   */\n      swap1\n      pop\n        /* \"#utility.yul\":3418:3422   */\n      0x20\n        /* \"#utility.yul\":3412:3416   */\n      dup2\n        /* \"#utility.yul\":3408:3423   */\n      add\n        /* \"#utility.yul\":3400:3423   */\n      swap1\n      pop\n        /* \"#utility.yul\":3095:3430   */\n      swap2\n      swap1\n      pop\n      jump\t// out\n        /* \"#utility.yul\":3436:3553   */\n    tag_156:\n        /* \"#utility.yul\":3545:3546   */\n      0x00\n        /* \"#utility.yul\":3542:3543   */\n      0x00\n        /* \"#utility.yul\":3535:3547   */\n      revert\n        /* \"#utility.yul\":3682:3759   */\n    tag_158:\n        /* \"#utility.yul\":3719:3726   */\n      0x00\n        /* \"#utility.yul\":3748:3753   */\n      dup2\n        /* \"#utility.yul\":3737:3753   */\n      swap1\n      pop\n        /* \"#utility.yul\":3682:3759   */\n      swap2\n      swap1\n      pop\n      jump\t// out\n        /* \"#utility.yul\":3765:3887   */\n    tag_159:\n        /* \"#utility.yul\":3838:3862   */\n      tag_246\n        /* \"#utility.yul\":3856:3861   */\n      dup2\n        /* \"#utility.yul\":3838:3862   */\n      tag_158\n      jump\t// in\n    tag_246:\n        /* \"#utility.yul\":3831:3836   */\n      dup2\n        /* \"#utility.yul\":3828:3863   */\n      eq\n        /* \"#utility.yul\":3818:3881   */\n      tag_247\n      jumpi\n        /* \"#utility.yul\":3877:3878   */\n      0x00\n        /* \"#utility.yul\":3874:3875   */\n      0x00\n        /* \"#utility.yul\":3867:3879   */\n      revert\n        /* \"#utility.yul\":3818:3881   */\n    tag_247:\n        /* \"#utility.yul\":3765:3887   */\n      pop\n      jump\t// out\n        /* \"#utility.yul\":3893:4032   */\n    tag_160:\n        /* \"#utility.yul\":3939:3944   */\n      0x00\n        /* \"#utility.yul\":3977:3983   */\n      dup2\n        /* \"#utility.yul\":3964:3984   */\n      calldataload\n        /* \"#utility.yul\":3955:3984   */\n      swap1\n      pop\n        /* \"#utility.yul\":3993:4026   */\n      tag_249\n        /* \"#utility.yul\":4020:4025   */\n      dup2\n        /* \"#utility.yul\":3993:4026   */\n      tag_159\n      jump\t// in\n    tag_249:\n        /* \"#utility.yul\":3893:4032   */\n      swap3\n      swap2\n      pop\n      pop\n      jump\t// out\n        /* \"#utility.yul\":4060:4635   */\n    tag_161:\n        /* \"#utility.yul\":4133:4138   */\n      0x00\n        /* \"#utility.yul\":4177:4181   */\n      0x40\n        /* \"#utility.yul\":4165:4174   */\n      dup3\n        /* \"#utility.yul\":4160:4163   */\n      dup5\n        /* \"#utility.yul\":4156:4175   */\n      sub\n        /* \"#utility.yul\":4152:4182   */\n      slt\n        /* \"#utility.yul\":4149:4266   */\n      iszero\n      tag_251\n      jumpi\n        /* \"#utility.yul\":4185:4264   */\n      tag_252\n      tag_156\n      jump\t// in\n    tag_252:\n        /* \"#utility.yul\":4149:4266   */\n    tag_251:\n        /* \"#utility.yul\":4284:4305   */\n      tag_253\n        /* \"#utility.yul\":4300:4304   */\n      0x40\n        /* \"#utility.yul\":4284:4305   */\n      tag_147\n      jump\t// in\n    tag_253:\n        /* \"#utility.yul\":4275:4305   */\n      swap1\n      pop\n        /* \"#utility.yul\":4365:4366   */\n      0x00\n        /* \"#utility.yul\":4405:4454   */\n      tag_254\n        /* \"#utility.yul\":4450:4453   */\n      dup5\n        /* \"#utility.yul\":4441:4447   */\n      dup3\n        /* \"#utility.yul\":4430:4439   */\n      dup6\n        /* \"#utility.yul\":4426:4448   */\n      add\n        /* \"#utility.yul\":4405:4454   */\n      tag_160\n      jump\t// in\n    tag_254:\n        /* \"#utility.yul\":4398:4402   */\n      0x00\n        /* \"#utility.yul\":4391:4396   */\n      dup4\n        /* \"#utility.yul\":4387:4403   */\n      add\n        /* \"#utility.yul\":4380:4455   */\n      mstore\n        /* \"#utility.yul\":4315:4466   */\n      pop\n        /* \"#utility.yul\":4526:4528   */\n      0x20\n        /* \"#utility.yul\":4567:4616   */\n      tag_255\n        /* \"#utility.yul\":4612:4615   */\n      dup5\n        /* \"#utility.yul\":4603:4609   */\n      dup3\n        /* \"#utility.yul\":4592:4601   */\n      dup6\n        /* \"#utility.yul\":4588:4610   */\n      add\n        /* \"#utility.yul\":4567:4616   */\n      tag_160\n      jump\t// in\n    tag_255:\n        /* \"#utility.yul\":4560:4564   */\n      0x20\n        /* \"#utility.yul\":4553:4558   */\n      dup4\n        /* \"#utility.yul\":4549:4565   */\n      add\n        /* \"#utility.yul\":4542:4617   */\n      mstore\n        /* \"#utility.yul\":4476:4628   */\n      pop\n        /* \"#utility.yul\":4060:4635   */\n      swap3\n      swap2\n      pop\n      pop\n      jump\t// out\n        /* \"#utility.yul\":4665:5447   */\n    tag_162:\n        /* \"#utility.yul\":4785:4790   */\n      0x00\n        /* \"#utility.yul\":4810:4915   */\n      tag_257\n        /* \"#utility.yul\":4826:4914   */\n      tag_258\n        /* \"#utility.yul\":4907:4913   */\n      dup5\n        /* \"#utility.yul\":4826:4914   */\n      tag_155\n      jump\t// in\n    tag_258:\n        /* \"#utility.yul\":4810:4915   */\n      tag_147\n      jump\t// in\n    tag_257:\n        /* \"#utility.yul\":4801:4915   */\n      swap1\n      pop\n        /* \"#utility.yul\":4935:4940   */\n      dup1\n        /* \"#utility.yul\":4964:4970   */\n      dup4\n        /* \"#utility.yul\":4957:4962   */\n      dup3\n        /* \"#utility.yul\":4950:4971   */\n      mstore\n        /* \"#utility.yul\":4998:5002   */\n      0x20\n        /* \"#utility.yul\":4991:4996   */\n      dup3\n        /* \"#utility.yul\":4987:5003   */\n      add\n        /* \"#utility.yul\":4980:5003   */\n      swap1\n      pop\n        /* \"#utility.yul\":5051:5055   */\n      0x40\n        /* \"#utility.yul\":5043:5049   */\n      dup5\n        /* \"#utility.yul\":5039:5056   */\n      mul\n        /* \"#utility.yul\":5031:5037   */\n      dup4\n        /* \"#utility.yul\":5027:5057   */\n      add\n        /* \"#utility.yul\":5080:5083   */\n      dup6\n        /* \"#utility.yul\":5072:5078   */\n      dup2\n        /* \"#utility.yul\":5069:5084   */\n      gt\n        /* \"#utility.yul\":5066:5188   */\n      iszero\n      tag_259\n      jumpi\n        /* \"#utility.yul\":5099:5178   */\n      tag_260\n      tag_149\n      jump\t// in\n    tag_260:\n        /* \"#utility.yul\":5066:5188   */\n    tag_259:\n        /* \"#utility.yul\":5214:5220   */\n      dup4\n        /* \"#utility.yul\":5197:5441   */\n    tag_261:\n        /* \"#utility.yul\":5231:5237   */\n      dup2\n        /* \"#utility.yul\":5226:5229   */\n      dup2\n        /* \"#utility.yul\":5223:5238   */\n      lt\n        /* \"#utility.yul\":5197:5441   */\n      iszero\n      tag_263\n      jumpi\n        /* \"#utility.yul\":5306:5309   */\n      dup1\n        /* \"#utility.yul\":5335:5396   */\n      tag_264\n        /* \"#utility.yul\":5392:5395   */\n      dup9\n        /* \"#utility.yul\":5380:5390   */\n      dup3\n        /* \"#utility.yul\":5335:5396   */\n      tag_161\n      jump\t// in\n    tag_264:\n        /* \"#utility.yul\":5330:5333   */\n      dup5\n        /* \"#utility.yul\":5323:5397   */\n      mstore\n        /* \"#utility.yul\":5426:5430   */\n      0x20\n        /* \"#utility.yul\":5421:5424   */\n      dup5\n        /* \"#utility.yul\":5417:5431   */\n      add\n        /* \"#utility.yul\":5410:5431   */\n      swap4\n      pop\n        /* \"#utility.yul\":5273:5441   */\n      pop\n        /* \"#utility.yul\":5257:5261   */\n      0x40\n        /* \"#utility.yul\":5252:5255   */\n      dup2\n        /* \"#utility.yul\":5248:5262   */\n      add\n        /* \"#utility.yul\":5241:5262   */\n      swap1\n      pop\n        /* \"#utility.yul\":5197:5441   */\n      jump(tag_261)\n    tag_263:\n        /* \"#utility.yul\":5201:5222   */\n      pop\n        /* \"#utility.yul\":4791:5447   */\n      pop\n      pop\n        /* \"#utility.yul\":4665:5447   */\n      swap4\n      swap3\n      pop\n      pop\n      pop\n      jump\t// out\n        /* \"#utility.yul\":5477:5895   */\n    tag_163:\n        /* \"#utility.yul\":5572:5577   */\n      0x00\n        /* \"#utility.yul\":5621:5624   */\n      dup3\n        /* \"#utility.yul\":5614:5618   */\n      0x1f\n        /* \"#utility.yul\":5606:5612   */\n      dup4\n        /* \"#utility.yul\":5602:5619   */\n      add\n        /* \"#utility.yul\":5598:5625   */\n      slt\n        /* \"#utility.yul\":5588:5710   */\n      tag_266\n      jumpi\n        /* \"#utility.yul\":5629:5708   */\n      tag_267\n      tag_143\n      jump\t// in\n    tag_267:\n        /* \"#utility.yul\":5588:5710   */\n    tag_266:\n        /* \"#utility.yul\":5746:5752   */\n      dup2\n        /* \"#utility.yul\":5733:5753   */\n      calldataload\n        /* \"#utility.yul\":5771:5889   */\n      tag_268\n        /* \"#utility.yul\":5885:5888   */\n      dup5\n        /* \"#utility.yul\":5877:5883   */\n      dup3\n        /* \"#utility.yul\":5870:5874   */\n      0x20\n        /* \"#utility.yul\":5862:5868   */\n      dup7\n        /* \"#utility.yul\":5858:5875   */\n      add\n        /* \"#utility.yul\":5771:5889   */\n      tag_162\n      jump\t// in\n    tag_268:\n        /* \"#utility.yul\":5762:5889   */\n      swap2\n      pop\n        /* \"#utility.yul\":5578:5895   */\n      pop\n        /* \"#utility.yul\":5477:5895   */\n      swap3\n      swap2\n      pop\n      pop\n      jump\t// out\n        /* \"#utility.yul\":5901:6843   */\n    tag_14:\n        /* \"#utility.yul\":6043:6049   */\n      0x00\n        /* \"#utility.yul\":6051:6057   */\n      0x00\n        /* \"#utility.yul\":6100:6102   */\n      0x40\n        /* \"#utility.yul\":6088:6097   */\n      dup4\n        /* \"#utility.yul\":6079:6086   */\n      dup6\n        /* \"#utility.yul\":6075:6098   */\n      sub\n        /* \"#utility.yul\":6071:6103   */\n      slt\n        /* \"#utility.yul\":6068:6187   */\n      iszero\n      tag_270\n      jumpi\n        /* \"#utility.yul\":6106:6185   */\n      tag_271\n      tag_141\n      jump\t// in\n    tag_271:\n        /* \"#utility.yul\":6068:6187   */\n    tag_270:\n        /* \"#utility.yul\":6254:6255   */\n      0x00\n        /* \"#utility.yul\":6243:6252   */\n      dup4\n        /* \"#utility.yul\":6239:6256   */\n      add\n        /* \"#utility.yul\":6226:6257   */\n      calldataload\n        /* \"#utility.yul\":6284:6302   */\n      0xffffffffffffffff\n        /* \"#utility.yul\":6276:6282   */\n      dup2\n        /* \"#utility.yul\":6273:6303   */\n      gt\n        /* \"#utility.yul\":6270:6387   */\n      iszero\n      tag_272\n      jumpi\n        /* \"#utility.yul\":6306:6385   */\n      tag_273\n      tag_142\n      jump\t// in\n    tag_273:\n        /* \"#utility.yul\":6270:6387   */\n    tag_272:\n        /* \"#utility.yul\":6411:6489   */\n      tag_274\n        /* \"#utility.yul\":6481:6488   */\n      dup6\n        /* \"#utility.yul\":6472:6478   */\n      dup3\n        /* \"#utility.yul\":6461:6470   */\n      dup7\n        /* \"#utility.yul\":6457:6479   */\n      add\n        /* \"#utility.yul\":6411:6489   */\n      tag_154\n      jump\t// in\n    tag_274:\n        /* \"#utility.yul\":6401:6489   */\n      swap3\n      pop\n        /* \"#utility.yul\":6197:6499   */\n      pop\n        /* \"#utility.yul\":6566:6568   */\n      0x20\n        /* \"#utility.yul\":6555:6564   */\n      dup4\n        /* \"#utility.yul\":6551:6569   */\n      add\n        /* \"#utility.yul\":6538:6570   */\n      calldataload\n        /* \"#utility.yul\":6597:6615   */\n      0xffffffffffffffff\n        /* \"#utility.yul\":6589:6595   */\n      dup2\n        /* \"#utility.yul\":6586:6616   */\n      gt\n        /* \"#utility.yul\":6583:6700   */\n      iszero\n      tag_275\n      jumpi\n        /* \"#utility.yul\":6619:6698   */\n      tag_276\n      tag_142\n      jump\t// in\n    tag_276:\n        /* \"#utility.yul\":6583:6700   */\n    tag_275:\n        /* \"#utility.yul\":6724:6826   */\n      tag_277\n        /* \"#utility.yul\":6818:6825   */\n      dup6\n        /* \"#utility.yul\":6809:6815   */\n      dup3\n        /* \"#utility.yul\":6798:6807   */\n      dup7\n        /* \"#utility.yul\":6794:6816   */\n      add\n        /* \"#utility.yul\":6724:6826   */\n      tag_163\n      jump\t// in\n    tag_277:\n        /* \"#utility.yul\":6714:6826   */\n      swap2\n      pop\n        /* \"#utility.yul\":6509:6836   */\n      pop\n        /* \"#utility.yul\":5901:6843   */\n      swap3\n      pop\n      swap3\n      swap1\n      pop\n      jump\t// out\n        /* \"#utility.yul\":6849:7178   */\n    tag_19:\n        /* \"#utility.yul\":6908:6914   */\n      0x00\n        /* \"#utility.yul\":6957:6959   */\n      0x20\n        /* \"#utility.yul\":6945:6954   */\n      dup3\n        /* \"#utility.yul\":6936:6943   */\n      dup5\n        /* \"#utility.yul\":6932:6955   */\n      sub\n        /* \"#utility.yul\":6928:6960   */\n      slt\n        /* \"#utility.yul\":6925:7044   */\n      iszero\n      tag_279\n      jumpi\n        /* \"#utility.yul\":6963:7042   */\n      tag_280\n      tag_141\n      jump\t// in\n    tag_280:\n        /* \"#utility.yul\":6925:7044   */\n    tag_279:\n        /* \"#utility.yul\":7083:7084   */\n      0x00\n        /* \"#utility.yul\":7108:7161   */\n      tag_281\n        /* \"#utility.yul\":7153:7160   */\n      dup5\n        /* \"#utility.yul\":7144:7150   */\n      dup3\n        /* \"#utility.yul\":7133:7142   */\n      dup6\n        /* \"#utility.yul\":7129:7151   */\n      add\n        /* \"#utility.yul\":7108:7161   */\n      tag_152\n      jump\t// in\n    tag_281:\n        /* \"#utility.yul\":7098:7161   */\n      swap2\n      pop\n        /* \"#utility.yul\":7054:7171   */\n      pop\n        /* \"#utility.yul\":6849:7178   */\n      swap3\n      swap2\n      pop\n      pop\n      jump\t// out\n        /* \"#utility.yul\":7184:7292   */\n    tag_164:\n        /* \"#utility.yul\":7261:7285   */\n      tag_283\n        /* \"#utility.yul\":7279:7284   */\n      dup2\n        /* \"#utility.yul\":7261:7285   */\n      tag_158\n      jump\t// in\n    tag_283:\n        /* \"#utility.yul\":7256:7259   */\n      dup3\n        /* \"#utility.yul\":7249:7286   */\n      mstore\n        /* \"#utility.yul\":7184:7292   */\n      pop\n      pop\n      jump\t// out\n        /* \"#utility.yul\":7338:7845   */\n    tag_165:\n        /* \"#utility.yul\":7483:7487   */\n      0x40\n        /* \"#utility.yul\":7478:7481   */\n      dup3\n        /* \"#utility.yul\":7474:7488   */\n      add\n        /* \"#utility.yul\":7571:7575   */\n      0x00\n        /* \"#utility.yul\":7564:7569   */\n      dup3\n        /* \"#utility.yul\":7560:7576   */\n      add\n        /* \"#utility.yul\":7554:7577   */\n      mload\n        /* \"#utility.yul\":7590:7653   */\n      tag_285\n        /* \"#utility.yul\":7647:7651   */\n      0x00\n        /* \"#utility.yul\":7642:7645   */\n      dup6\n        /* \"#utility.yul\":7638:7652   */\n      add\n        /* \"#utility.yul\":7624:7636   */\n      dup3\n        /* \"#utility.yul\":7590:7653   */\n      tag_164\n      jump\t// in\n    tag_285:\n        /* \"#utility.yul\":7498:7663   */\n      pop\n        /* \"#utility.yul\":7746:7750   */\n      0x20\n        /* \"#utility.yul\":7739:7744   */\n      dup3\n        /* \"#utility.yul\":7735:7751   */\n      add\n        /* \"#utility.yul\":7729:7752   */\n      mload\n        /* \"#utility.yul\":7765:7828   */\n      tag_286\n        /* \"#utility.yul\":7822:7826   */\n      0x20\n        /* \"#utility.yul\":7817:7820   */\n      dup6\n        /* \"#utility.yul\":7813:7827   */\n      add\n        /* \"#utility.yul\":7799:7811   */\n      dup3\n        /* \"#utility.yul\":7765:7828   */\n      tag_164\n      jump\t// in\n    tag_286:\n        /* \"#utility.yul\":7673:7838   */\n      pop\n        /* \"#utility.yul\":7452:7845   */\n      pop\n        /* \"#utility.yul\":7338:7845   */\n      pop\n      pop\n      jump\t// out\n        /* \"#utility.yul\":7851:8169   */\n    tag_22:\n        /* \"#utility.yul\":7992:7996   */\n      0x00\n        /* \"#utility.yul\":8030:8032   */\n      0x40\n        /* \"#utility.yul\":8019:8028   */\n      dup3\n        /* \"#utility.yul\":8015:8033   */\n      add\n        /* \"#utility.yul\":8007:8033   */\n      swap1\n      pop\n        /* \"#utility.yul\":8043:8162   */\n      tag_288\n        /* \"#utility.yul\":8159:8160   */\n      0x00\n        /* \"#utility.yul\":8148:8157   */\n      dup4\n        /* \"#utility.yul\":8144:8161   */\n      add\n        /* \"#utility.yul\":8135:8141   */\n      dup5\n        /* \"#utility.yul\":8043:8162   */\n      tag_165\n      jump\t// in\n    tag_288:\n        /* \"#utility.yul\":7851:8169   */\n      swap3\n      swap2\n      pop\n      pop\n      jump\t// out\n        /* \"#utility.yul\":8175:8292   */\n    tag_166:\n        /* \"#utility.yul\":8284:8285   */\n      0x00\n        /* \"#utility.yul\":8281:8282   */\n      0x00\n        /* \"#utility.yul\":8274:8286   */\n      revert\n        /* \"#utility.yul\":8326:8563   */\n    tag_167:\n        /* \"#utility.yul\":8404:8409   */\n      0x00\n        /* \"#utility.yul\":8445:8448   */\n      0x0100\n        /* \"#utility.yul\":8436:8442   */\n      dup3\n        /* \"#utility.yul\":8431:8434   */\n      dup5\n        /* \"#utility.yul\":8427:8443   */\n      sub\n        /* \"#utility.yul\":8423:8449   */\n      slt\n        /* \"#utility.yul\":8420:8533   */\n      iszero\n      tag_291\n      jumpi\n        /* \"#utility.yul\":8452:8531   */\n      tag_292\n      tag_166\n      jump\t// in\n    tag_292:\n        /* \"#utility.yul\":8420:8533   */\n    tag_291:\n        /* \"#utility.yul\":8551:8557   */\n      dup2\n        /* \"#utility.yul\":8542:8557   */\n      swap1\n      pop\n        /* \"#utility.yul\":8326:8563   */\n      swap3\n      swap2\n      pop\n      pop\n      jump\t// out\n        /* \"#utility.yul\":8569:8686   */\n    tag_168:\n        /* \"#utility.yul\":8678:8679   */\n      0x00\n        /* \"#utility.yul\":8675:8676   */\n      0x00\n        /* \"#utility.yul\":8668:8680   */\n      revert\n        /* \"#utility.yul\":8705:9257   */\n    tag_169:\n        /* \"#utility.yul\":8762:8770   */\n      0x00\n        /* \"#utility.yul\":8772:8778   */\n      0x00\n        /* \"#utility.yul\":8822:8825   */\n      dup4\n        /* \"#utility.yul\":8815:8819   */\n      0x1f\n        /* \"#utility.yul\":8807:8813   */\n      dup5\n        /* \"#utility.yul\":8803:8820   */\n      add\n        /* \"#utility.yul\":8799:8826   */\n      slt\n        /* \"#utility.yul\":8789:8911   */\n      tag_295\n      jumpi\n        /* \"#utility.yul\":8830:8909   */\n      tag_296\n      tag_143\n      jump\t// in\n    tag_296:\n        /* \"#utility.yul\":8789:8911   */\n    tag_295:\n        /* \"#utility.yul\":8943:8949   */\n      dup3\n        /* \"#utility.yul\":8930:8950   */\n      calldataload\n        /* \"#utility.yul\":8920:8950   */\n      swap1\n      pop\n        /* \"#utility.yul\":8973:8991   */\n      0xffffffffffffffff\n        /* \"#utility.yul\":8965:8971   */\n      dup2\n        /* \"#utility.yul\":8962:8992   */\n      gt\n        /* \"#utility.yul\":8959:9076   */\n      iszero\n      tag_297\n      jumpi\n        /* \"#utility.yul\":8995:9074   */\n      tag_298\n      tag_168\n      jump\t// in\n    tag_298:\n        /* \"#utility.yul\":8959:9076   */\n    tag_297:\n        /* \"#utility.yul\":9109:9113   */\n      0x20\n        /* \"#utility.yul\":9101:9107   */\n      dup4\n        /* \"#utility.yul\":9097:9114   */\n      add\n        /* \"#utility.yul\":9085:9114   */\n      swap2\n      pop\n        /* \"#utility.yul\":9163:9166   */\n      dup4\n        /* \"#utility.yul\":9155:9159   */\n      0x01\n        /* \"#utility.yul\":9147:9153   */\n      dup3\n        /* \"#utility.yul\":9143:9160   */\n      mul\n        /* \"#utility.yul\":9133:9141   */\n      dup4\n        /* \"#utility.yul\":9129:9161   */\n      add\n        /* \"#utility.yul\":9126:9167   */\n      gt\n        /* \"#utility.yul\":9123:9251   */\n      iszero\n      tag_299\n      jumpi\n        /* \"#utility.yul\":9170:9249   */\n      tag_300\n      tag_149\n      jump\t// in\n    tag_300:\n        /* \"#utility.yul\":9123:9251   */\n    tag_299:\n        /* \"#utility.yul\":8705:9257   */\n      swap3\n      pop\n      swap3\n      swap1\n      pop\n      jump\t// out\n        /* \"#utility.yul\":9263:10001   */\n    tag_28:\n        /* \"#utility.yul\":9374:9380   */\n      0x00\n        /* \"#utility.yul\":9382:9388   */\n      0x00\n        /* \"#utility.yul\":9390:9396   */\n      0x00\n        /* \"#utility.yul\":9439:9442   */\n      0x0120\n        /* \"#utility.yul\":9427:9436   */\n      dup5\n        /* \"#utility.yul\":9418:9425   */\n      dup7\n        /* \"#utility.yul\":9414:9437   */\n      sub\n        /* \"#utility.yul\":9410:9443   */\n      slt\n        /* \"#utility.yul\":9407:9527   */\n      iszero\n      tag_302\n      jumpi\n        /* \"#utility.yul\":9446:9525   */\n      tag_303\n      tag_141\n      jump\t// in\n    tag_303:\n        /* \"#utility.yul\":9407:9527   */\n    tag_302:\n        /* \"#utility.yul\":9566:9567   */\n      0x00\n        /* \"#utility.yul\":9591:9676   */\n      tag_304\n        /* \"#utility.yul\":9668:9675   */\n      dup7\n        /* \"#utility.yul\":9659:9665   */\n      dup3\n        /* \"#utility.yul\":9648:9657   */\n      dup8\n        /* \"#utility.yul\":9644:9666   */\n      add\n        /* \"#utility.yul\":9591:9676   */\n      tag_167\n      jump\t// in\n    tag_304:\n        /* \"#utility.yul\":9581:9676   */\n      swap4\n      pop\n        /* \"#utility.yul\":9537:9686   */\n      pop\n        /* \"#utility.yul\":9753:9756   */\n      0x0100\n        /* \"#utility.yul\":9742:9751   */\n      dup5\n        /* \"#utility.yul\":9738:9757   */\n      add\n        /* \"#utility.yul\":9725:9758   */\n      calldataload\n        /* \"#utility.yul\":9785:9803   */\n      0xffffffffffffffff\n        /* \"#utility.yul\":9777:9783   */\n      dup2\n        /* \"#utility.yul\":9774:9804   */\n      gt\n        /* \"#utility.yul\":9771:9888   */\n      iszero\n      tag_305\n      jumpi\n        /* \"#utility.yul\":9807:9886   */\n      tag_306\n      tag_142\n      jump\t// in\n    tag_306:\n        /* \"#utility.yul\":9771:9888   */\n    tag_305:\n        /* \"#utility.yul\":9920:9984   */\n      tag_307\n        /* \"#utility.yul\":9976:9983   */\n      dup7\n        /* \"#utility.yul\":9967:9973   */\n      dup3\n        /* \"#utility.yul\":9956:9965   */\n      dup8\n        /* \"#utility.yul\":9952:9974   */\n      add\n        /* \"#utility.yul\":9920:9984   */\n      tag_169\n      jump\t// in\n    tag_307:\n        /* \"#utility.yul\":9902:9984   */\n      swap3\n      pop\n      swap3\n      pop\n        /* \"#utility.yul\":9696:9994   */\n      pop\n        /* \"#utility.yul\":9263:10001   */\n      swap3\n      pop\n      swap3\n      pop\n      swap3\n      jump\t// out\n        /* \"#utility.yul\":10007:10133   */\n    tag_170:\n        /* \"#utility.yul\":10044:10051   */\n      0x00\n        /* \"#utility.yul\":10084:10126   */\n      0xffffffffffffffffffffffffffffffffffffffff\n        /* \"#utility.yul\":10077:10082   */\n      dup3\n        /* \"#utility.yul\":10073:10127   */\n      and\n        /* \"#utility.yul\":10062:10127   */\n      swap1\n      pop\n        /* \"#utility.yul\":10007:10133   */\n      swap2\n      swap1\n      pop\n      jump\t// out\n        /* \"#utility.yul\":10139:10235   */\n    tag_171:\n        /* \"#utility.yul\":10176:10183   */\n      0x00\n        /* \"#utility.yul\":10205:10229   */\n      tag_310\n        /* \"#utility.yul\":10223:10228   */\n      dup3\n        /* \"#utility.yul\":10205:10229   */\n      tag_170\n      jump\t// in\n    tag_310:\n        /* \"#utility.yul\":10194:10229   */\n      swap1\n      pop\n        /* \"#utility.yul\":10139:10235   */\n      swap2\n      swap1\n      pop\n      jump\t// out\n        /* \"#utility.yul\":10241:10359   */\n    tag_172:\n        /* \"#utility.yul\":10328:10352   */\n      tag_312\n        /* \"#utility.yul\":10346:10351   */\n      dup2\n        /* \"#utility.yul\":10328:10352   */\n      tag_171\n      jump\t// in\n    tag_312:\n        /* \"#utility.yul\":10323:10326   */\n      dup3\n        /* \"#utility.yul\":10316:10353   */\n      mstore\n        /* \"#utility.yul\":10241:10359   */\n      pop\n      pop\n      jump\t// out\n        /* \"#utility.yul\":10365:10587   */\n    tag_34:\n        /* \"#utility.yul\":10458:10462   */\n      0x00\n        /* \"#utility.yul\":10496:10498   */\n      0x20\n        /* \"#utility.yul\":10485:10494   */\n      dup3\n        /* \"#utility.yul\":10481:10499   */\n      add\n        /* \"#utility.yul\":10473:10499   */\n      swap1\n      pop\n        /* \"#utility.yul\":10509:10580   */\n      tag_314\n        /* \"#utility.yul\":10577:10578   */\n      0x00\n        /* \"#utility.yul\":10566:10575   */\n      dup4\n        /* \"#utility.yul\":10562:10579   */\n      add\n        /* \"#utility.yul\":10553:10559   */\n      dup5\n        /* \"#utility.yul\":10509:10580   */\n      tag_172\n      jump\t// in\n    tag_314:\n        /* \"#utility.yul\":10365:10587   */\n      swap3\n      swap2\n      pop\n      pop\n      jump\t// out\n        /* \"#utility.yul\":10593:10711   */\n    tag_173:\n        /* \"#utility.yul\":10680:10704   */\n      tag_316\n        /* \"#utility.yul\":10698:10703   */\n      dup2\n        /* \"#utility.yul\":10680:10704   */\n      tag_158\n      jump\t// in\n    tag_316:\n        /* \"#utility.yul\":10675:10678   */\n      dup3\n        /* \"#utility.yul\":10668:10705   */\n      mstore\n        /* \"#utility.yul\":10593:10711   */\n      pop\n      pop\n      jump\t// out\n        /* \"#utility.yul\":10717:11049   */\n    tag_40:\n        /* \"#utility.yul\":10838:10842   */\n      0x00\n        /* \"#utility.yul\":10876:10878   */\n      0x40\n        /* \"#utility.yul\":10865:10874   */\n      dup3\n        /* \"#utility.yul\":10861:10879   */\n      add\n        /* \"#utility.yul\":10853:10879   */\n      swap1\n      pop\n        /* \"#utility.yul\":10889:10960   */\n      tag_318\n        /* \"#utility.yul\":10957:10958   */\n      0x00\n        /* \"#utility.yul\":10946:10955   */\n      dup4\n        /* \"#utility.yul\":10942:10959   */\n      add\n        /* \"#utility.yul\":10933:10939   */\n      dup6\n        /* \"#utility.yul\":10889:10960   */\n      tag_173\n      jump\t// in\n    tag_318:\n        /* \"#utility.yul\":10970:11042   */\n      tag_319\n        /* \"#utility.yul\":11038:11040   */\n      0x20\n        /* \"#utility.yul\":11027:11036   */\n      dup4\n        /* \"#utility.yul\":11023:11041   */\n      add\n        /* \"#utility.yul\":11014:11020   */\n      dup5\n        /* \"#utility.yul\":10970:11042   */\n      tag_173\n      jump\t// in\n    tag_319:\n        /* \"#utility.yul\":10717:11049   */\n      swap4\n      swap3\n      pop\n      pop\n      pop\n      jump\t// out\n        /* \"#utility.yul\":11069:11622   */\n    tag_174:\n        /* \"#utility.yul\":11127:11135   */\n      0x00\n        /* \"#utility.yul\":11137:11143   */\n      0x00\n        /* \"#utility.yul\":11187:11190   */\n      dup4\n        /* \"#utility.yul\":11180:11184   */\n      0x1f\n        /* \"#utility.yul\":11172:11178   */\n      dup5\n        /* \"#utility.yul\":11168:11185   */\n      add\n        /* \"#utility.yul\":11164:11191   */\n      slt\n        /* \"#utility.yul\":11154:11276   */\n      tag_321\n      jumpi\n        /* \"#utility.yul\":11195:11274   */\n      tag_322\n      tag_143\n      jump\t// in\n    tag_322:\n        /* \"#utility.yul\":11154:11276   */\n    tag_321:\n        /* \"#utility.yul\":11308:11314   */\n      dup3\n        /* \"#utility.yul\":11295:11315   */\n      calldataload\n        /* \"#utility.yul\":11285:11315   */\n      swap1\n      pop\n        /* \"#utility.yul\":11338:11356   */\n      0xffffffffffffffff\n        /* \"#utility.yul\":11330:11336   */\n      dup2\n        /* \"#utility.yul\":11327:11357   */\n      gt\n        /* \"#utility.yul\":11324:11441   */\n      iszero\n      tag_323\n      jumpi\n        /* \"#utility.yul\":11360:11439   */\n      tag_324\n      tag_168\n      jump\t// in\n    tag_324:\n        /* \"#utility.yul\":11324:11441   */\n    tag_323:\n        /* \"#utility.yul\":11474:11478   */\n      0x20\n        /* \"#utility.yul\":11466:11472   */\n      dup4\n        /* \"#utility.yul\":11462:11479   */\n      add\n        /* \"#utility.yul\":11450:11479   */\n      swap2\n      pop\n        /* \"#utility.yul\":11528:11531   */\n      dup4\n        /* \"#utility.yul\":11520:11524   */\n      0x01\n        /* \"#utility.yul\":11512:11518   */\n      dup3\n        /* \"#utility.yul\":11508:11525   */\n      mul\n        /* \"#utility.yul\":11498:11506   */\n      dup4\n        /* \"#utility.yul\":11494:11526   */\n      add\n        /* \"#utility.yul\":11491:11532   */\n      gt\n        /* \"#utility.yul\":11488:11616   */\n      iszero\n      tag_325\n      jumpi\n        /* \"#utility.yul\":11535:11614   */\n      tag_326\n      tag_149\n      jump\t// in\n    tag_326:\n        /* \"#utility.yul\":11488:11616   */\n    tag_325:\n        /* \"#utility.yul\":11069:11622   */\n      swap3\n      pop\n      swap3\n      swap1\n      pop\n      jump\t// out\n        /* \"#utility.yul\":11628:12302   */\n    tag_43:\n        /* \"#utility.yul\":11708:11714   */\n      0x00\n        /* \"#utility.yul\":11716:11722   */\n      0x00\n        /* \"#utility.yul\":11724:11730   */\n      0x00\n        /* \"#utility.yul\":11773:11775   */\n      0x40\n        /* \"#utility.yul\":11761:11770   */\n      dup5\n        /* \"#utility.yul\":11752:11759   */\n      dup7\n        /* \"#utility.yul\":11748:11771   */\n      sub\n        /* \"#utility.yul\":11744:11776   */\n      slt\n        /* \"#utility.yul\":11741:11860   */\n      iszero\n      tag_328\n      jumpi\n        /* \"#utility.yul\":11779:11858   */\n      tag_329\n      tag_141\n      jump\t// in\n    tag_329:\n        /* \"#utility.yul\":11741:11860   */\n    tag_328:\n        /* \"#utility.yul\":11899:11900   */\n      0x00\n        /* \"#utility.yul\":11924:11977   */\n      tag_330\n        /* \"#utility.yul\":11969:11976   */\n      dup7\n        /* \"#utility.yul\":11960:11966   */\n      dup3\n        /* \"#utility.yul\":11949:11958   */\n      dup8\n        /* \"#utility.yul\":11945:11967   */\n      add\n        /* \"#utility.yul\":11924:11977   */\n      tag_152\n      jump\t// in\n    tag_330:\n        /* \"#utility.yul\":11914:11977   */\n      swap4\n      pop\n        /* \"#utility.yul\":11870:11987   */\n      pop\n        /* \"#utility.yul\":12054:12056   */\n      0x20\n        /* \"#utility.yul\":12043:12052   */\n      dup5\n        /* \"#utility.yul\":12039:12057   */\n      add\n        /* \"#utility.yul\":12026:12058   */\n      calldataload\n        /* \"#utility.yul\":12085:12103   */\n      0xffffffffffffffff\n        /* \"#utility.yul\":12077:12083   */\n      dup2\n        /* \"#utility.yul\":12074:12104   */\n      gt\n        /* \"#utility.yul\":12071:12188   */\n      iszero\n      tag_331\n      jumpi\n        /* \"#utility.yul\":12107:12186   */\n      tag_332\n      tag_142\n      jump\t// in\n    tag_332:\n        /* \"#utility.yul\":12071:12188   */\n    tag_331:\n        /* \"#utility.yul\":12220:12285   */\n      tag_333\n        /* \"#utility.yul\":12277:12284   */\n      dup7\n        /* \"#utility.yul\":12268:12274   */\n      dup3\n        /* \"#utility.yul\":12257:12266   */\n      dup8\n        /* \"#utility.yul\":12253:12275   */\n      add\n        /* \"#utility.yul\":12220:12285   */\n      tag_174\n      jump\t// in\n    tag_333:\n        /* \"#utility.yul\":12202:12285   */\n      swap3\n      pop\n      swap3\n      pop\n        /* \"#utility.yul\":11997:12295   */\n      pop\n        /* \"#utility.yul\":11628:12302   */\n      swap3\n      pop\n      swap3\n      pop\n      swap3\n      jump\t// out\n        /* \"#utility.yul\":12308:12430   */\n    tag_175:\n        /* \"#utility.yul\":12381:12405   */\n      tag_335\n        /* \"#utility.yul\":12399:12404   */\n      dup2\n        /* \"#utility.yul\":12381:12405   */\n      tag_171\n      jump\t// in\n    tag_335:\n        /* \"#utility.yul\":12374:12379   */\n      dup2\n        /* \"#utility.yul\":12371:12406   */\n      eq\n        /* \"#utility.yul\":12361:12424   */\n      tag_336\n      jumpi\n        /* \"#utility.yul\":12420:12421   */\n      0x00\n        /* \"#utility.yul\":12417:12418   */\n      0x00\n        /* \"#utility.yul\":12410:12422   */\n      revert\n        /* \"#utility.yul\":12361:12424   */\n    tag_336:\n        /* \"#utility.yul\":12308:12430   */\n      pop\n      jump\t// out\n        /* \"#utility.yul\":12436:12575   */\n    tag_176:\n        /* \"#utility.yul\":12482:12487   */\n      0x00\n        /* \"#utility.yul\":12520:12526   */\n      dup2\n        /* \"#utility.yul\":12507:12527   */\n      calldataload\n        /* \"#utility.yul\":12498:12527   */\n      swap1\n      pop\n        /* \"#utility.yul\":12536:12569   */\n      tag_338\n        /* \"#utility.yul\":12563:12568   */\n      dup2\n        /* \"#utility.yul\":12536:12569   */\n      tag_175\n      jump\t// in\n    tag_338:\n        /* \"#utility.yul\":12436:12575   */\n      swap3\n      swap2\n      pop\n      pop\n      jump\t// out\n        /* \"#utility.yul\":12581:12910   */\n    tag_48:\n        /* \"#utility.yul\":12640:12646   */\n      0x00\n        /* \"#utility.yul\":12689:12691   */\n      0x20\n        /* \"#utility.yul\":12677:12686   */\n      dup3\n        /* \"#utility.yul\":12668:12675   */\n      dup5\n        /* \"#utility.yul\":12664:12687   */\n      sub\n        /* \"#utility.yul\":12660:12692   */\n      slt\n        /* \"#utility.yul\":12657:12776   */\n      iszero\n      tag_340\n      jumpi\n        /* \"#utility.yul\":12695:12774   */\n      tag_341\n      tag_141\n      jump\t// in\n    tag_341:\n        /* \"#utility.yul\":12657:12776   */\n    tag_340:\n        /* \"#utility.yul\":12815:12816   */\n      0x00\n        /* \"#utility.yul\":12840:12893   */\n      tag_342\n        /* \"#utility.yul\":12885:12892   */\n      dup5\n        /* \"#utility.yul\":12876:12882   */\n      dup3\n        /* \"#utility.yul\":12865:12874   */\n      dup6\n        /* \"#utility.yul\":12861:12883   */\n      add\n        /* \"#utility.yul\":12840:12893   */\n      tag_176\n      jump\t// in\n    tag_342:\n        /* \"#utility.yul\":12830:12893   */\n      swap2\n      pop\n        /* \"#utility.yul\":12786:12903   */\n      pop\n        /* \"#utility.yul\":12581:12910   */\n      swap3\n      swap2\n      pop\n      pop\n      jump\t// out\n        /* \"#utility.yul\":12916:13034   */\n    tag_177:\n        /* \"#utility.yul\":13003:13027   */\n      tag_344\n        /* \"#utility.yul\":13021:13026   */\n      dup2\n        /* \"#utility.yul\":13003:13027   */\n      tag_150\n      jump\t// in\n    tag_344:\n        /* \"#utility.yul\":12998:13001   */\n      dup3\n        /* \"#utility.yul\":12991:13028   */\n      mstore\n        /* \"#utility.yul\":12916:13034   */\n      pop\n      pop\n      jump\t// out\n        /* \"#utility.yul\":13040:13262   */\n    tag_62:\n        /* \"#utility.yul\":13133:13137   */\n      0x00\n        /* \"#utility.yul\":13171:13173   */\n      0x20\n        /* \"#utility.yul\":13160:13169   */\n      dup3\n        /* \"#utility.yul\":13156:13174   */\n      add\n        /* \"#utility.yul\":13148:13174   */\n      swap1\n      pop\n        /* \"#utility.yul\":13184:13255   */\n      tag_346\n        /* \"#utility.yul\":13252:13253   */\n      0x00\n        /* \"#utility.yul\":13241:13250   */\n      dup4\n        /* \"#utility.yul\":13237:13254   */\n      add\n        /* \"#utility.yul\":13228:13234   */\n      dup5\n        /* \"#utility.yul\":13184:13255   */\n      tag_177\n      jump\t// in\n    tag_346:\n        /* \"#utility.yul\":13040:13262   */\n      swap3\n      swap2\n      pop\n      pop\n      jump\t// out\n        /* \"#utility.yul\":13268:13437   */\n    tag_178:\n        /* \"#utility.yul\":13352:13363   */\n      0x00\n        /* \"#utility.yul\":13386:13392   */\n      dup3\n        /* \"#utility.yul\":13381:13384   */\n      dup3\n        /* \"#utility.yul\":13374:13393   */\n      mstore\n        /* \"#utility.yul\":13426:13430   */\n      0x20\n        /* \"#utility.yul\":13421:13424   */\n      dup3\n        /* \"#utility.yul\":13417:13431   */\n      add\n        /* \"#utility.yul\":13402:13431   */\n      swap1\n      pop\n        /* \"#utility.yul\":13268:13437   */\n      swap3\n      swap2\n      pop\n      pop\n      jump\t// out\n        /* \"#utility.yul\":13443:13597   */\n    tag_179:\n        /* \"#utility.yul\":13583:13589   */\n      0x70696e6700000000000000000000000000000000000000000000000000000000\n        /* \"#utility.yul\":13579:13580   */\n      0x00\n        /* \"#utility.yul\":13571:13577   */\n      dup3\n        /* \"#utility.yul\":13567:13581   */\n      add\n        /* \"#utility.yul\":13560:13590   */\n      mstore\n        /* \"#utility.yul\":13443:13597   */\n      pop\n      jump\t// out\n        /* \"#utility.yul\":13603:13968   */\n    tag_180:\n        /* \"#utility.yul\":13745:13748   */\n      0x00\n        /* \"#utility.yul\":13766:13832   */\n      tag_350\n        /* \"#utility.yul\":13830:13831   */\n      0x04\n        /* \"#utility.yul\":13825:13828   */\n      dup4\n        /* \"#utility.yul\":13766:13832   */\n      tag_178\n      jump\t// in\n    tag_350:\n        /* \"#utility.yul\":13759:13832   */\n      swap2\n      pop\n        /* \"#utility.yul\":13841:13934   */\n      tag_351\n        /* \"#utility.yul\":13930:13933   */\n      dup3\n        /* \"#utility.yul\":13841:13934   */\n      tag_179\n      jump\t// in\n    tag_351:\n        /* \"#utility.yul\":13959:13961   */\n      0x20\n        /* \"#utility.yul\":13954:13957   */\n      dup3\n        /* \"#utility.yul\":13950:13962   */\n      add\n        /* \"#utility.yul\":13943:13962   */\n      swap1\n      pop\n        /* \"#utility.yul\":13603:13968   */\n      swap2\n      swap1\n      pop\n      jump\t// out\n        /* \"#utility.yul\":13974:14122   */\n    tag_181:\n        /* \"#utility.yul\":14072:14078   */\n      dup3\n        /* \"#utility.yul\":14067:14070   */\n      dup2\n        /* \"#utility.yul\":14062:14065   */\n      dup4\n        /* \"#utility.yul\":14049:14079   */\n      calldatacopy\n        /* \"#utility.yul\":14113:14114   */\n      0x00\n        /* \"#utility.yul\":14104:14110   */\n      dup4\n        /* \"#utility.yul\":14099:14102   */\n      dup4\n        /* \"#utility.yul\":14095:14111   */\n      add\n        /* \"#utility.yul\":14088:14115   */\n      mstore\n        /* \"#utility.yul\":13974:14122   */\n      pop\n      pop\n      pop\n      jump\t// out\n        /* \"#utility.yul\":14152:14469   */\n    tag_182:\n        /* \"#utility.yul\":14250:14253   */\n      0x00\n        /* \"#utility.yul\":14271:14342   */\n      tag_354\n        /* \"#utility.yul\":14335:14341   */\n      dup4\n        /* \"#utility.yul\":14330:14333   */\n      dup6\n        /* \"#utility.yul\":14271:14342   */\n      tag_178\n      jump\t// in\n    tag_354:\n        /* \"#utility.yul\":14264:14342   */\n      swap4\n      pop\n        /* \"#utility.yul\":14352:14408   */\n      tag_355\n        /* \"#utility.yul\":14401:14407   */\n      dup4\n        /* \"#utility.yul\":14396:14399   */\n      dup6\n        /* \"#utility.yul\":14389:14394   */\n      dup5\n        /* \"#utility.yul\":14352:14408   */\n      tag_181\n      jump\t// in\n    tag_355:\n        /* \"#utility.yul\":14433:14462   */\n      tag_356\n        /* \"#utility.yul\":14455:14461   */\n      dup4\n        /* \"#utility.yul\":14433:14462   */\n      tag_144\n      jump\t// in\n    tag_356:\n        /* \"#utility.yul\":14428:14431   */\n      dup5\n        /* \"#utility.yul\":14424:14463   */\n      add\n        /* \"#utility.yul\":14417:14463   */\n      swap1\n      pop\n        /* \"#utility.yul\":14152:14469   */\n      swap4\n      swap3\n      pop\n      pop\n      pop\n      jump\t// out\n        /* \"#utility.yul\":14475:15115   */\n    tag_82:\n        /* \"#utility.yul\":14699:14703   */\n      0x00\n        /* \"#utility.yul\":14737:14739   */\n      0x40\n        /* \"#utility.yul\":14726:14735   */\n      dup3\n        /* \"#utility.yul\":14722:14740   */\n      add\n        /* \"#utility.yul\":14714:14740   */\n      swap1\n      pop\n        /* \"#utility.yul\":14786:14795   */\n      dup2\n        /* \"#utility.yul\":14780:14784   */\n      dup2\n        /* \"#utility.yul\":14776:14796   */\n      sub\n        /* \"#utility.yul\":14772:14773   */\n      0x00\n        /* \"#utility.yul\":14761:14770   */\n      dup4\n        /* \"#utility.yul\":14757:14774   */\n      add\n        /* \"#utility.yul\":14750:14797   */\n      mstore\n        /* \"#utility.yul\":14814:14945   */\n      tag_358\n        /* \"#utility.yul\":14940:14944   */\n      dup2\n        /* \"#utility.yul\":14814:14945   */\n      tag_180\n      jump\t// in\n    tag_358:\n        /* \"#utility.yul\":14806:14945   */\n      swap1\n      pop\n        /* \"#utility.yul\":14992:15001   */\n      dup2\n        /* \"#utility.yul\":14986:14990   */\n      dup2\n        /* \"#utility.yul\":14982:15002   */\n      sub\n        /* \"#utility.yul\":14977:14979   */\n      0x20\n        /* \"#utility.yul\":14966:14975   */\n      dup4\n        /* \"#utility.yul\":14962:14980   */\n      add\n        /* \"#utility.yul\":14955:15003   */\n      mstore\n        /* \"#utility.yul\":15020:15108   */\n      tag_359\n        /* \"#utility.yul\":15103:15107   */\n      dup2\n        /* \"#utility.yul\":15094:15100   */\n      dup5\n        /* \"#utility.yul\":15086:15092   */\n      dup7\n        /* \"#utility.yul\":15020:15108   */\n      tag_182\n      jump\t// in\n    tag_359:\n        /* \"#utility.yul\":15012:15108   */\n      swap1\n      pop\n        /* \"#utility.yul\":14475:15115   */\n      swap4\n      swap3\n      pop\n      pop\n      pop\n      jump\t// out\n        /* \"#utility.yul\":15121:15219   */\n    tag_183:\n        /* \"#utility.yul\":15172:15178   */\n      0x00\n        /* \"#utility.yul\":15206:15211   */\n      dup2\n        /* \"#utility.yul\":15200:15212   */\n      mload\n        /* \"#utility.yul\":15190:15212   */\n      swap1\n      pop\n        /* \"#utility.yul\":15121:15219   */\n      swap2\n      swap1\n      pop\n      jump\t// out\n        /* \"#utility.yul\":15225:15393   */\n    tag_184:\n        /* \"#utility.yul\":15308:15319   */\n      0x00\n        /* \"#utility.yul\":15342:15348   */\n      dup3\n        /* \"#utility.yul\":15337:15340   */\n      dup3\n        /* \"#utility.yul\":15330:15349   */\n      mstore\n        /* \"#utility.yul\":15382:15386   */\n      0x20\n        /* \"#utility.yul\":15377:15380   */\n      dup3\n        /* \"#utility.yul\":15373:15387   */\n      add\n        /* \"#utility.yul\":15358:15387   */\n      swap1\n      pop\n        /* \"#utility.yul\":15225:15393   */\n      swap3\n      swap2\n      pop\n      pop\n      jump\t// out\n        /* \"#utility.yul\":15399:15538   */\n    tag_185:\n        /* \"#utility.yul\":15488:15494   */\n      dup3\n        /* \"#utility.yul\":15483:15486   */\n      dup2\n        /* \"#utility.yul\":15478:15481   */\n      dup4\n        /* \"#utility.yul\":15472:15495   */\n      mcopy\n        /* \"#utility.yul\":15529:15530   */\n      0x00\n        /* \"#utility.yul\":15520:15526   */\n      dup4\n        /* \"#utility.yul\":15515:15518   */\n      dup4\n        /* \"#utility.yul\":15511:15527   */\n      add\n        /* \"#utility.yul\":15504:15531   */\n      mstore\n        /* \"#utility.yul\":15399:15538   */\n      pop\n      pop\n      pop\n      jump\t// out\n        /* \"#utility.yul\":15544:15917   */\n    tag_186:\n        /* \"#utility.yul\":15630:15633   */\n      0x00\n        /* \"#utility.yul\":15658:15696   */\n      tag_364\n        /* \"#utility.yul\":15690:15695   */\n      dup3\n        /* \"#utility.yul\":15658:15696   */\n      tag_183\n      jump\t// in\n    tag_364:\n        /* \"#utility.yul\":15712:15782   */\n      tag_365\n        /* \"#utility.yul\":15775:15781   */\n      dup2\n        /* \"#utility.yul\":15770:15773   */\n      dup6\n        /* \"#utility.yul\":15712:15782   */\n      tag_184\n      jump\t// in\n    tag_365:\n        /* \"#utility.yul\":15705:15782   */\n      swap4\n      pop\n        /* \"#utility.yul\":15791:15856   */\n      tag_366\n        /* \"#utility.yul\":15849:15855   */\n      dup2\n        /* \"#utility.yul\":15844:15847   */\n      dup6\n        /* \"#utility.yul\":15837:15841   */\n      0x20\n        /* \"#utility.yul\":15830:15835   */\n      dup7\n        /* \"#utility.yul\":15826:15842   */\n      add\n        /* \"#utility.yul\":15791:15856   */\n      tag_185\n      jump\t// in\n    tag_366:\n        /* \"#utility.yul\":15881:15910   */\n      tag_367\n        /* \"#utility.yul\":15903:15909   */\n      dup2\n        /* \"#utility.yul\":15881:15910   */\n      tag_144\n      jump\t// in\n    tag_367:\n        /* \"#utility.yul\":15876:15879   */\n      dup5\n        /* \"#utility.yul\":15872:15911   */\n      add\n        /* \"#utility.yul\":15865:15911   */\n      swap2\n      pop\n        /* \"#utility.yul\":15634:15917   */\n      pop\n        /* \"#utility.yul\":15544:15917   */\n      swap3\n      swap2\n      pop\n      pop\n      jump\t// out\n        /* \"#utility.yul\":15923:16549   */\n    tag_85:\n        /* \"#utility.yul\":16138:16142   */\n      0x00\n        /* \"#utility.yul\":16176:16179   */\n      0x80\n        /* \"#utility.yul\":16165:16174   */\n      dup3\n        /* \"#utility.yul\":16161:16180   */\n      add\n        /* \"#utility.yul\":16153:16180   */\n      swap1\n      pop\n        /* \"#utility.yul\":16190:16309   */\n      tag_369\n        /* \"#utility.yul\":16306:16307   */\n      0x00\n        /* \"#utility.yul\":16295:16304   */\n      dup4\n        /* \"#utility.yul\":16291:16308   */\n      add\n        /* \"#utility.yul\":16282:16288   */\n      dup7\n        /* \"#utility.yul\":16190:16309   */\n      tag_165\n      jump\t// in\n    tag_369:\n        /* \"#utility.yul\":16319:16391   */\n      tag_370\n        /* \"#utility.yul\":16387:16389   */\n      0x40\n        /* \"#utility.yul\":16376:16385   */\n      dup4\n        /* \"#utility.yul\":16372:16390   */\n      add\n        /* \"#utility.yul\":16363:16369   */\n      dup6\n        /* \"#utility.yul\":16319:16391   */\n      tag_177\n      jump\t// in\n    tag_370:\n        /* \"#utility.yul\":16438:16447   */\n      dup2\n        /* \"#utility.yul\":16432:16436   */\n      dup2\n        /* \"#utility.yul\":16428:16448   */\n      sub\n        /* \"#utility.yul\":16423:16425   */\n      0x60\n        /* \"#utility.yul\":16412:16421   */\n      dup4\n        /* \"#utility.yul\":16408:16426   */\n      add\n        /* \"#utility.yul\":16401:16449   */\n      mstore\n        /* \"#utility.yul\":16466:16542   */\n      tag_371\n        /* \"#utility.yul\":16537:16541   */\n      dup2\n        /* \"#utility.yul\":16528:16534   */\n      dup5\n        /* \"#utility.yul\":16466:16542   */\n      tag_186\n      jump\t// in\n    tag_371:\n        /* \"#utility.yul\":16458:16542   */\n      swap1\n      pop\n        /* \"#utility.yul\":15923:16549   */\n      swap5\n      swap4\n      pop\n      pop\n      pop\n      pop\n      jump\t// out\n        /* \"#utility.yul\":16555:16698   */\n    tag_187:\n        /* \"#utility.yul\":16612:16617   */\n      0x00\n        /* \"#utility.yul\":16643:16649   */\n      dup2\n        /* \"#utility.yul\":16637:16650   */\n      mload\n        /* \"#utility.yul\":16628:16650   */\n      swap1\n      pop\n        /* \"#utility.yul\":16659:16692   */\n      tag_373\n        /* \"#utility.yul\":16686:16691   */\n      dup2\n        /* \"#utility.yul\":16659:16692   */\n      tag_159\n      jump\t// in\n    tag_373:\n        /* \"#utility.yul\":16555:16698   */\n      swap3\n      swap2\n      pop\n      pop\n      jump\t// out\n        /* \"#utility.yul\":16704:17055   */\n    tag_89:\n        /* \"#utility.yul\":16774:16780   */\n      0x00\n        /* \"#utility.yul\":16823:16825   */\n      0x20\n        /* \"#utility.yul\":16811:16820   */\n      dup3\n        /* \"#utility.yul\":16802:16809   */\n      dup5\n        /* \"#utility.yul\":16798:16821   */\n      sub\n        /* \"#utility.yul\":16794:16826   */\n      slt\n        /* \"#utility.yul\":16791:16910   */\n      iszero\n      tag_375\n      jumpi\n        /* \"#utility.yul\":16829:16908   */\n      tag_376\n      tag_141\n      jump\t// in\n    tag_376:\n        /* \"#utility.yul\":16791:16910   */\n    tag_375:\n        /* \"#utility.yul\":16949:16950   */\n      0x00\n        /* \"#utility.yul\":16974:17038   */\n      tag_377\n        /* \"#utility.yul\":17030:17037   */\n      dup5\n        /* \"#utility.yul\":17021:17027   */\n      dup3\n        /* \"#utility.yul\":17010:17019   */\n      dup6\n        /* \"#utility.yul\":17006:17028   */\n      add\n        /* \"#utility.yul\":16974:17038   */\n      tag_187\n      jump\t// in\n    tag_377:\n        /* \"#utility.yul\":16964:17038   */\n      swap2\n      pop\n        /* \"#utility.yul\":16920:17048   */\n      pop\n        /* \"#utility.yul\":16704:17055   */\n      swap3\n      swap2\n      pop\n      pop\n      jump\t// out\n        /* \"#utility.yul\":17061:17283   */\n    tag_91:\n        /* \"#utility.yul\":17154:17158   */\n      0x00\n        /* \"#utility.yul\":17192:17194   */\n      0x20\n        /* \"#utility.yul\":17181:17190   */\n      dup3\n        /* \"#utility.yul\":17177:17195   */\n      add\n        /* \"#utility.yul\":17169:17195   */\n      swap1\n      pop\n        /* \"#utility.yul\":17205:17276   */\n      tag_379\n        /* \"#utility.yul\":17273:17274   */\n      0x00\n        /* \"#utility.yul\":17262:17271   */\n      dup4\n        /* \"#utility.yul\":17258:17275   */\n      add\n        /* \"#utility.yul\":17249:17255   */\n      dup5\n        /* \"#utility.yul\":17205:17276   */\n      tag_173\n      jump\t// in\n    tag_379:\n        /* \"#utility.yul\":17061:17283   */\n      swap3\n      swap2\n      pop\n      pop\n      jump\t// out\n        /* \"#utility.yul\":17289:17469   */\n    tag_114:\n        /* \"#utility.yul\":17337:17414   */\n      0x4e487b7100000000000000000000000000000000000000000000000000000000\n        /* \"#utility.yul\":17334:17335   */\n      0x00\n        /* \"#utility.yul\":17327:17415   */\n      mstore\n        /* \"#utility.yul\":17434:17438   */\n      0x32\n        /* \"#utility.yul\":17431:17432   */\n      0x04\n        /* \"#utility.yul\":17424:17439   */\n      mstore\n        /* \"#utility.yul\":17458:17462   */\n      0x24\n        /* \"#utility.yul\":17455:17456   */\n      0x00\n        /* \"#utility.yul\":17448:17463   */\n      revert\n        /* \"#utility.yul\":17475:17592   */\n    tag_188:\n        /* \"#utility.yul\":17584:17585   */\n      0x00\n        /* \"#utility.yul\":17581:17582   */\n      0x00\n        /* \"#utility.yul\":17574:17586   */\n      revert\n        /* \"#utility.yul\":17598:17906   */\n    tag_189:\n        /* \"#utility.yul\":17660:17664   */\n      0x00\n        /* \"#utility.yul\":17750:17768   */\n      0xffffffffffffffff\n        /* \"#utility.yul\":17742:17748   */\n      dup3\n        /* \"#utility.yul\":17739:17769   */\n      gt\n        /* \"#utility.yul\":17736:17792   */\n      iszero\n      tag_383\n      jumpi\n        /* \"#utility.yul\":17772:17790   */\n      tag_384\n      tag_145\n      jump\t// in\n    tag_384:\n        /* \"#utility.yul\":17736:17792   */\n    tag_383:\n        /* \"#utility.yul\":17810:17839   */\n      tag_385\n        /* \"#utility.yul\":17832:17838   */\n      dup3\n        /* \"#utility.yul\":17810:17839   */\n      tag_144\n      jump\t// in\n    tag_385:\n        /* \"#utility.yul\":17802:17839   */\n      swap1\n      pop\n        /* \"#utility.yul\":17894:17898   */\n      0x20\n        /* \"#utility.yul\":17888:17892   */\n      dup2\n        /* \"#utility.yul\":17884:17899   */\n      add\n        /* \"#utility.yul\":17876:17899   */\n      swap1\n      pop\n        /* \"#utility.yul\":17598:17906   */\n      swap2\n      swap1\n      pop\n      jump\t// out\n        /* \"#utility.yul\":17912:18337   */\n    tag_190:\n        /* \"#utility.yul\":17990:17995   */\n      0x00\n        /* \"#utility.yul\":18015:18081   */\n      tag_387\n        /* \"#utility.yul\":18031:18080   */\n      tag_388\n        /* \"#utility.yul\":18073:18079   */\n      dup5\n        /* \"#utility.yul\":18031:18080   */\n      tag_189\n      jump\t// in\n    tag_388:\n        /* \"#utility.yul\":18015:18081   */\n      tag_147\n      jump\t// in\n    tag_387:\n        /* \"#utility.yul\":18006:18081   */\n      swap1\n      pop\n        /* \"#utility.yul\":18104:18110   */\n      dup3\n        /* \"#utility.yul\":18097:18102   */\n      dup2\n        /* \"#utility.yul\":18090:18111   */\n      mstore\n        /* \"#utility.yul\":18142:18146   */\n      0x20\n        /* \"#utility.yul\":18135:18140   */\n      dup2\n        /* \"#utility.yul\":18131:18147   */\n      add\n        /* \"#utility.yul\":18180:18183   */\n      dup5\n        /* \"#utility.yul\":18171:18177   */\n      dup5\n        /* \"#utility.yul\":18166:18169   */\n      dup5\n        /* \"#utility.yul\":18162:18178   */\n      add\n        /* \"#utility.yul\":18159:18184   */\n      gt\n        /* \"#utility.yul\":18156:18268   */\n      iszero\n      tag_389\n      jumpi\n        /* \"#utility.yul\":18187:18266   */\n      tag_390\n      tag_188\n      jump\t// in\n    tag_390:\n        /* \"#utility.yul\":18156:18268   */\n    tag_389:\n        /* \"#utility.yul\":18277:18331   */\n      tag_391\n        /* \"#utility.yul\":18324:18330   */\n      dup5\n        /* \"#utility.yul\":18319:18322   */\n      dup3\n        /* \"#utility.yul\":18314:18317   */\n      dup6\n        /* \"#utility.yul\":18277:18331   */\n      tag_181\n      jump\t// in\n    tag_391:\n        /* \"#utility.yul\":17996:18337   */\n      pop\n        /* \"#utility.yul\":17912:18337   */\n      swap4\n      swap3\n      pop\n      pop\n      pop\n      jump\t// out\n        /* \"#utility.yul\":18357:18697   */\n    tag_191:\n        /* \"#utility.yul\":18413:18418   */\n      0x00\n        /* \"#utility.yul\":18462:18465   */\n      dup3\n        /* \"#utility.yul\":18455:18459   */\n      0x1f\n        /* \"#utility.yul\":18447:18453   */\n      dup4\n        /* \"#utility.yul\":18443:18460   */\n      add\n        /* \"#utility.yul\":18439:18466   */\n      slt\n        /* \"#utility.yul\":18429:18551   */\n      tag_393\n      jumpi\n        /* \"#utility.yul\":18470:18549   */\n      tag_394\n      tag_143\n      jump\t// in\n    tag_394:\n        /* \"#utility.yul\":18429:18551   */\n    tag_393:\n        /* \"#utility.yul\":18587:18593   */\n      dup2\n        /* \"#utility.yul\":18574:18594   */\n      calldataload\n        /* \"#utility.yul\":18612:18691   */\n      tag_395\n        /* \"#utility.yul\":18687:18690   */\n      dup5\n        /* \"#utility.yul\":18679:18685   */\n      dup3\n        /* \"#utility.yul\":18672:18676   */\n      0x20\n        /* \"#utility.yul\":18664:18670   */\n      dup7\n        /* \"#utility.yul\":18660:18677   */\n      add\n        /* \"#utility.yul\":18612:18691   */\n      tag_190\n      jump\t// in\n    tag_395:\n        /* \"#utility.yul\":18603:18691   */\n      swap2\n      pop\n        /* \"#utility.yul\":18419:18697   */\n      pop\n        /* \"#utility.yul\":18357:18697   */\n      swap3\n      swap2\n      pop\n      pop\n      jump\t// out\n        /* \"#utility.yul\":18703:19537   */\n    tag_121:\n        /* \"#utility.yul\":18791:18797   */\n      0x00\n        /* \"#utility.yul\":18799:18805   */\n      0x00\n        /* \"#utility.yul\":18848:18850   */\n      0x40\n        /* \"#utility.yul\":18836:18845   */\n      dup4\n        /* \"#utility.yul\":18827:18834   */\n      dup6\n        /* \"#utility.yul\":18823:18846   */\n      sub\n        /* \"#utility.yul\":18819:18851   */\n      slt\n        /* \"#utility.yul\":18816:18935   */\n      iszero\n      tag_397\n      jumpi\n        /* \"#utility.yul\":18854:18933   */\n      tag_398\n      tag_141\n      jump\t// in\n    tag_398:\n        /* \"#utility.yul\":18816:18935   */\n    tag_397:\n        /* \"#utility.yul\":19002:19003   */\n      0x00\n        /* \"#utility.yul\":18991:19000   */\n      dup4\n        /* \"#utility.yul\":18987:19004   */\n      add\n        /* \"#utility.yul\":18974:19005   */\n      calldataload\n        /* \"#utility.yul\":19032:19050   */\n      0xffffffffffffffff\n        /* \"#utility.yul\":19024:19030   */\n      dup2\n        /* \"#utility.yul\":19021:19051   */\n      gt\n        /* \"#utility.yul\":19018:19135   */\n      iszero\n      tag_399\n      jumpi\n        /* \"#utility.yul\":19054:19133   */\n      tag_400\n      tag_142\n      jump\t// in\n    tag_400:\n        /* \"#utility.yul\":19018:19135   */\n    tag_399:\n        /* \"#utility.yul\":19159:19222   */\n      tag_401\n        /* \"#utility.yul\":19214:19221   */\n      dup6\n        /* \"#utility.yul\":19205:19211   */\n      dup3\n        /* \"#utility.yul\":19194:19203   */\n      dup7\n        /* \"#utility.yul\":19190:19212   */\n      add\n        /* \"#utility.yul\":19159:19222   */\n      tag_191\n      jump\t// in\n    tag_401:\n        /* \"#utility.yul\":19149:19222   */\n      swap3\n      pop\n        /* \"#utility.yul\":18945:19232   */\n      pop\n        /* \"#utility.yul\":19299:19301   */\n      0x20\n        /* \"#utility.yul\":19288:19297   */\n      dup4\n        /* \"#utility.yul\":19284:19302   */\n      add\n        /* \"#utility.yul\":19271:19303   */\n      calldataload\n        /* \"#utility.yul\":19330:19348   */\n      0xffffffffffffffff\n        /* \"#utility.yul\":19322:19328   */\n      dup2\n        /* \"#utility.yul\":19319:19349   */\n      gt\n        /* \"#utility.yul\":19316:19433   */\n      iszero\n      tag_402\n      jumpi\n        /* \"#utility.yul\":19352:19431   */\n      tag_403\n      tag_142\n      jump\t// in\n    tag_403:\n        /* \"#utility.yul\":19316:19433   */\n    tag_402:\n        /* \"#utility.yul\":19457:19520   */\n      tag_404\n        /* \"#utility.yul\":19512:19519   */\n      dup6\n        /* \"#utility.yul\":19503:19509   */\n      dup3\n        /* \"#utility.yul\":19492:19501   */\n      dup7\n        /* \"#utility.yul\":19488:19510   */\n      add\n        /* \"#utility.yul\":19457:19520   */\n      tag_191\n      jump\t// in\n    tag_404:\n        /* \"#utility.yul\":19447:19520   */\n      swap2\n      pop\n        /* \"#utility.yul\":19242:19530   */\n      pop\n        /* \"#utility.yul\":18703:19537   */\n      swap3\n      pop\n      swap3\n      swap1\n      pop\n      jump\t// out\n        /* \"#utility.yul\":19543:19665   */\n    tag_192:\n        /* \"#utility.yul\":19595:19600   */\n      0x00\n        /* \"#utility.yul\":19620:19659   */\n      tag_406\n        /* \"#utility.yul\":19655:19657   */\n      0x20\n        /* \"#utility.yul\":19650:19653   */\n      dup5\n        /* \"#utility.yul\":19646:19658   */\n      add\n        /* \"#utility.yul\":19641:19644   */\n      dup5\n        /* \"#utility.yul\":19620:19659   */\n      tag_152\n      jump\t// in\n    tag_406:\n        /* \"#utility.yul\":19611:19659   */\n      swap1\n      pop\n        /* \"#utility.yul\":19543:19665   */\n      swap3\n      swap2\n      pop\n      pop\n      jump\t// out\n        /* \"#utility.yul\":19671:19779   */\n    tag_193:\n        /* \"#utility.yul\":19748:19772   */\n      tag_408\n        /* \"#utility.yul\":19766:19771   */\n      dup2\n        /* \"#utility.yul\":19748:19772   */\n      tag_150\n      jump\t// in\n    tag_408:\n        /* \"#utility.yul\":19743:19746   */\n      dup3\n        /* \"#utility.yul\":19736:19773   */\n      mstore\n        /* \"#utility.yul\":19671:19779   */\n      pop\n      pop\n      jump\t// out\n        /* \"#utility.yul\":19785:19897   */\n    tag_194:\n        /* \"#utility.yul\":19863:19868   */\n      0x00\n        /* \"#utility.yul\":19888:19891   */\n      dup3\n        /* \"#utility.yul\":19879:19891   */\n      swap1\n      pop\n        /* \"#utility.yul\":19785:19897   */\n      swap3\n      swap2\n      pop\n      pop\n      jump\t// out\n        /* \"#utility.yul\":19903:20025   */\n    tag_195:\n        /* \"#utility.yul\":19955:19960   */\n      0x00\n        /* \"#utility.yul\":19980:20019   */\n      tag_411\n        /* \"#utility.yul\":20015:20017   */\n      0x20\n        /* \"#utility.yul\":20010:20013   */\n      dup5\n        /* \"#utility.yul\":20006:20018   */\n      add\n        /* \"#utility.yul\":20001:20004   */\n      dup5\n        /* \"#utility.yul\":19980:20019   */\n      tag_160\n      jump\t// in\n    tag_411:\n        /* \"#utility.yul\":19971:20019   */\n      swap1\n      pop\n        /* \"#utility.yul\":19903:20025   */\n      swap3\n      swap2\n      pop\n      pop\n      jump\t// out\n        /* \"#utility.yul\":20071:20624   */\n    tag_196:\n        /* \"#utility.yul\":20208:20212   */\n      0x40\n        /* \"#utility.yul\":20203:20206   */\n      dup3\n        /* \"#utility.yul\":20199:20213   */\n      add\n        /* \"#utility.yul\":20279:20329   */\n      tag_413\n        /* \"#utility.yul\":20323:20327   */\n      0x00\n        /* \"#utility.yul\":20316:20321   */\n      dup4\n        /* \"#utility.yul\":20312:20328   */\n      add\n        /* \"#utility.yul\":20305:20310   */\n      dup4\n        /* \"#utility.yul\":20279:20329   */\n      tag_195\n      jump\t// in\n    tag_413:\n        /* \"#utility.yul\":20342:20405   */\n      tag_414\n        /* \"#utility.yul\":20399:20403   */\n      0x00\n        /* \"#utility.yul\":20394:20397   */\n      dup6\n        /* \"#utility.yul\":20390:20404   */\n      add\n        /* \"#utility.yul\":20376:20388   */\n      dup3\n        /* \"#utility.yul\":20342:20405   */\n      tag_164\n      jump\t// in\n    tag_414:\n        /* \"#utility.yul\":20223:20415   */\n      pop\n        /* \"#utility.yul\":20481:20531   */\n      tag_415\n        /* \"#utility.yul\":20525:20529   */\n      0x20\n        /* \"#utility.yul\":20518:20523   */\n      dup4\n        /* \"#utility.yul\":20514:20530   */\n      add\n        /* \"#utility.yul\":20507:20512   */\n      dup4\n        /* \"#utility.yul\":20481:20531   */\n      tag_195\n      jump\t// in\n    tag_415:\n        /* \"#utility.yul\":20544:20607   */\n      tag_416\n        /* \"#utility.yul\":20601:20605   */\n      0x20\n        /* \"#utility.yul\":20596:20599   */\n      dup6\n        /* \"#utility.yul\":20592:20606   */\n      add\n        /* \"#utility.yul\":20578:20590   */\n      dup3\n        /* \"#utility.yul\":20544:20607   */\n      tag_164\n      jump\t// in\n    tag_416:\n        /* \"#utility.yul\":20425:20617   */\n      pop\n        /* \"#utility.yul\":20177:20624   */\n      pop\n        /* \"#utility.yul\":20071:20624   */\n      pop\n      pop\n      jump\t// out\n        /* \"#utility.yul\":20682:22267   */\n    tag_197:\n        /* \"#utility.yul\":20841:20847   */\n      0x0100\n        /* \"#utility.yul\":20836:20839   */\n      dup3\n        /* \"#utility.yul\":20832:20848   */\n      add\n        /* \"#utility.yul\":20920:20970   */\n      tag_418\n        /* \"#utility.yul\":20964:20968   */\n      0x00\n        /* \"#utility.yul\":20957:20962   */\n      dup4\n        /* \"#utility.yul\":20953:20969   */\n      add\n        /* \"#utility.yul\":20946:20951   */\n      dup4\n        /* \"#utility.yul\":20920:20970   */\n      tag_192\n      jump\t// in\n    tag_418:\n        /* \"#utility.yul\":20983:21046   */\n      tag_419\n        /* \"#utility.yul\":21040:21044   */\n      0x00\n        /* \"#utility.yul\":21035:21038   */\n      dup6\n        /* \"#utility.yul\":21031:21045   */\n      add\n        /* \"#utility.yul\":21017:21029   */\n      dup3\n        /* \"#utility.yul\":20983:21046   */\n      tag_193\n      jump\t// in\n    tag_419:\n        /* \"#utility.yul\":20858:21056   */\n      pop\n        /* \"#utility.yul\":21136:21186   */\n      tag_420\n        /* \"#utility.yul\":21180:21184   */\n      0x20\n        /* \"#utility.yul\":21173:21178   */\n      dup4\n        /* \"#utility.yul\":21169:21185   */\n      add\n        /* \"#utility.yul\":21162:21167   */\n      dup4\n        /* \"#utility.yul\":21136:21186   */\n      tag_192\n      jump\t// in\n    tag_420:\n        /* \"#utility.yul\":21199:21262   */\n      tag_421\n        /* \"#utility.yul\":21256:21260   */\n      0x20\n        /* \"#utility.yul\":21251:21254   */\n      dup6\n        /* \"#utility.yul\":21247:21261   */\n      add\n        /* \"#utility.yul\":21233:21245   */\n      dup3\n        /* \"#utility.yul\":21199:21262   */\n      tag_193\n      jump\t// in\n    tag_421:\n        /* \"#utility.yul\":21066:21272   */\n      pop\n        /* \"#utility.yul\":21339:21415   */\n      tag_422\n        /* \"#utility.yul\":21409:21413   */\n      0x40\n        /* \"#utility.yul\":21402:21407   */\n      dup4\n        /* \"#utility.yul\":21398:21414   */\n      add\n        /* \"#utility.yul\":21391:21396   */\n      dup4\n        /* \"#utility.yul\":21339:21415   */\n      tag_194\n      jump\t// in\n    tag_422:\n        /* \"#utility.yul\":21428:21541   */\n      tag_423\n        /* \"#utility.yul\":21535:21539   */\n      0x40\n        /* \"#utility.yul\":21530:21533   */\n      dup6\n        /* \"#utility.yul\":21526:21540   */\n      add\n        /* \"#utility.yul\":21512:21524   */\n      dup3\n        /* \"#utility.yul\":21428:21541   */\n      tag_196\n      jump\t// in\n    tag_423:\n        /* \"#utility.yul\":21282:21551   */\n      pop\n        /* \"#utility.yul\":21636:21686   */\n      tag_424\n        /* \"#utility.yul\":21680:21684   */\n      0x80\n        /* \"#utility.yul\":21673:21678   */\n      dup4\n        /* \"#utility.yul\":21669:21685   */\n      add\n        /* \"#utility.yul\":21662:21667   */\n      dup4\n        /* \"#utility.yul\":21636:21686   */\n      tag_192\n      jump\t// in\n    tag_424:\n        /* \"#utility.yul\":21699:21762   */\n      tag_425\n        /* \"#utility.yul\":21756:21760   */\n      0x80\n        /* \"#utility.yul\":21751:21754   */\n      dup6\n        /* \"#utility.yul\":21747:21761   */\n      add\n        /* \"#utility.yul\":21733:21745   */\n      dup3\n        /* \"#utility.yul\":21699:21762   */\n      tag_193\n      jump\t// in\n    tag_425:\n        /* \"#utility.yul\":21561:21772   */\n      pop\n        /* \"#utility.yul\":21841:21917   */\n      tag_426\n        /* \"#utility.yul\":21911:21915   */\n      0xa0\n        /* \"#utility.yul\":21904:21909   */\n      dup4\n        /* \"#utility.yul\":21900:21916   */\n      add\n        /* \"#utility.yul\":21893:21898   */\n      dup4\n        /* \"#utility.yul\":21841:21917   */\n      tag_194\n      jump\t// in\n    tag_426:\n        /* \"#utility.yul\":21930:22043   */\n      tag_427\n        /* \"#utility.yul\":22037:22041   */\n      0xa0\n        /* \"#utility.yul\":22032:22035   */\n      dup6\n        /* \"#utility.yul\":22028:22042   */\n      add\n        /* \"#utility.yul\":22014:22026   */\n      dup3\n        /* \"#utility.yul\":21930:22043   */\n      tag_196\n      jump\t// in\n    tag_427:\n        /* \"#utility.yul\":21782:22053   */\n      pop\n        /* \"#utility.yul\":22124:22174   */\n      tag_428\n        /* \"#utility.yul\":22168:22172   */\n      0xe0\n        /* \"#utility.yul\":22161:22166   */\n      dup4\n        /* \"#utility.yul\":22157:22173   */\n      add\n        /* \"#utility.yul\":22150:22155   */\n      dup4\n        /* \"#utility.yul\":22124:22174   */\n      tag_195\n      jump\t// in\n    tag_428:\n        /* \"#utility.yul\":22187:22250   */\n      tag_429\n        /* \"#utility.yul\":22244:22248   */\n      0xe0\n        /* \"#utility.yul\":22239:22242   */\n      dup6\n        /* \"#utility.yul\":22235:22249   */\n      add\n        /* \"#utility.yul\":22221:22233   */\n      dup3\n        /* \"#utility.yul\":22187:22250   */\n      tag_164\n      jump\t// in\n    tag_429:\n        /* \"#utility.yul\":22063:22260   */\n      pop\n        /* \"#utility.yul\":20810:22267   */\n      pop\n        /* \"#utility.yul\":20682:22267   */\n      pop\n      pop\n      jump\t// out\n        /* \"#utility.yul\":22273:22620   */\n    tag_124:\n        /* \"#utility.yul\":22428:22432   */\n      0x00\n        /* \"#utility.yul\":22466:22469   */\n      0x0100\n        /* \"#utility.yul\":22455:22464   */\n      dup3\n        /* \"#utility.yul\":22451:22470   */\n      add\n        /* \"#utility.yul\":22443:22470   */\n      swap1\n      pop\n        /* \"#utility.yul\":22480:22613   */\n      tag_431\n        /* \"#utility.yul\":22610:22611   */\n      0x00\n        /* \"#utility.yul\":22599:22608   */\n      dup4\n        /* \"#utility.yul\":22595:22612   */\n      add\n        /* \"#utility.yul\":22586:22592   */\n      dup5\n        /* \"#utility.yul\":22480:22613   */\n      tag_197\n      jump\t// in\n    tag_431:\n        /* \"#utility.yul\":22273:22620   */\n      swap3\n      swap2\n      pop\n      pop\n      jump\t// out\n        /* \"#utility.yul\":22626:22780   */\n    tag_198:\n        /* \"#utility.yul\":22766:22772   */\n      0x706f6e6700000000000000000000000000000000000000000000000000000000\n        /* \"#utility.yul\":22762:22763   */\n      0x00\n        /* \"#utility.yul\":22754:22760   */\n      dup3\n        /* \"#utility.yul\":22750:22764   */\n      add\n        /* \"#utility.yul\":22743:22773   */\n      mstore\n        /* \"#utility.yul\":22626:22780   */\n      pop\n      jump\t// out\n        /* \"#utility.yul\":22786:23151   */\n    tag_199:\n        /* \"#utility.yul\":22928:22931   */\n      0x00\n        /* \"#utility.yul\":22949:23015   */\n      tag_434\n        /* \"#utility.yul\":23013:23014   */\n      0x04\n        /* \"#utility.yul\":23008:23011   */\n      dup4\n        /* \"#utility.yul\":22949:23015   */\n      tag_178\n      jump\t// in\n    tag_434:\n        /* \"#utility.yul\":22942:23015   */\n      swap2\n      pop\n        /* \"#utility.yul\":23024:23117   */\n      tag_435\n        /* \"#utility.yul\":23113:23116   */\n      dup3\n        /* \"#utility.yul\":23024:23117   */\n      tag_198\n      jump\t// in\n    tag_435:\n        /* \"#utility.yul\":23142:23144   */\n      0x20\n        /* \"#utility.yul\":23137:23140   */\n      dup3\n        /* \"#utility.yul\":23133:23145   */\n      add\n        /* \"#utility.yul\":23126:23145   */\n      swap1\n      pop\n        /* \"#utility.yul\":22786:23151   */\n      swap2\n      swap1\n      pop\n      jump\t// out\n        /* \"#utility.yul\":23157:23256   */\n    tag_200:\n        /* \"#utility.yul\":23209:23215   */\n      0x00\n        /* \"#utility.yul\":23243:23248   */\n      dup2\n        /* \"#utility.yul\":23237:23249   */\n      mload\n        /* \"#utility.yul\":23227:23249   */\n      swap1\n      pop\n        /* \"#utility.yul\":23157:23256   */\n      swap2\n      swap1\n      pop\n      jump\t// out\n        /* \"#utility.yul\":23262:23639   */\n    tag_201:\n        /* \"#utility.yul\":23350:23353   */\n      0x00\n        /* \"#utility.yul\":23378:23417   */\n      tag_438\n        /* \"#utility.yul\":23411:23416   */\n      dup3\n        /* \"#utility.yul\":23378:23417   */\n      tag_200\n      jump\t// in\n    tag_438:\n        /* \"#utility.yul\":23433:23504   */\n      tag_439\n        /* \"#utility.yul\":23497:23503   */\n      dup2\n        /* \"#utility.yul\":23492:23495   */\n      dup6\n        /* \"#utility.yul\":23433:23504   */\n      tag_178\n      jump\t// in\n    tag_439:\n        /* \"#utility.yul\":23426:23504   */\n      swap4\n      pop\n        /* \"#utility.yul\":23513:23578   */\n      tag_440\n        /* \"#utility.yul\":23571:23577   */\n      dup2\n        /* \"#utility.yul\":23566:23569   */\n      dup6\n        /* \"#utility.yul\":23559:23563   */\n      0x20\n        /* \"#utility.yul\":23552:23557   */\n      dup7\n        /* \"#utility.yul\":23548:23564   */\n      add\n        /* \"#utility.yul\":23513:23578   */\n      tag_185\n      jump\t// in\n    tag_440:\n        /* \"#utility.yul\":23603:23632   */\n      tag_441\n        /* \"#utility.yul\":23625:23631   */\n      dup2\n        /* \"#utility.yul\":23603:23632   */\n      tag_144\n      jump\t// in\n    tag_441:\n        /* \"#utility.yul\":23598:23601   */\n      dup5\n        /* \"#utility.yul\":23594:23633   */\n      add\n        /* \"#utility.yul\":23587:23633   */\n      swap2\n      pop\n        /* \"#utility.yul\":23354:23639   */\n      pop\n        /* \"#utility.yul\":23262:23639   */\n      swap3\n      swap2\n      pop\n      pop\n      jump\t// out\n        /* \"#utility.yul\":23645:24265   */\n    tag_127:\n        /* \"#utility.yul\":23859:23863   */\n      0x00\n        /* \"#utility.yul\":23897:23899   */\n      0x40\n        /* \"#utility.yul\":23886:23895   */\n      dup3\n        /* \"#utility.yul\":23882:23900   */\n      add\n        /* \"#utility.yul\":23874:23900   */\n      swap1\n      pop\n        /* \"#utility.yul\":23946:23955   */\n      dup2\n        /* \"#utility.yul\":23940:23944   */\n      dup2\n        /* \"#utility.yul\":23936:23956   */\n      sub\n        /* \"#utility.yul\":23932:23933   */\n      0x00\n        /* \"#utility.yul\":23921:23930   */\n      dup4\n        /* \"#utility.yul\":23917:23934   */\n      add\n        /* \"#utility.yul\":23910:23957   */\n      mstore\n        /* \"#utility.yul\":23974:24105   */\n      tag_443\n        /* \"#utility.yul\":24100:24104   */\n      dup2\n        /* \"#utility.yul\":23974:24105   */\n      tag_199\n      jump\t// in\n    tag_443:\n        /* \"#utility.yul\":23966:24105   */\n      swap1\n      pop\n        /* \"#utility.yul\":24152:24161   */\n      dup2\n        /* \"#utility.yul\":24146:24150   */\n      dup2\n        /* \"#utility.yul\":24142:24162   */\n      sub\n        /* \"#utility.yul\":24137:24139   */\n      0x20\n        /* \"#utility.yul\":24126:24135   */\n      dup4\n        /* \"#utility.yul\":24122:24140   */\n      add\n        /* \"#utility.yul\":24115:24163   */\n      mstore\n        /* \"#utility.yul\":24180:24258   */\n      tag_444\n        /* \"#utility.yul\":24253:24257   */\n      dup2\n        /* \"#utility.yul\":24244:24250   */\n      dup5\n        /* \"#utility.yul\":24180:24258   */\n      tag_201\n      jump\t// in\n    tag_444:\n        /* \"#utility.yul\":24172:24258   */\n      swap1\n      pop\n        /* \"#utility.yul\":23645:24265   */\n      swap3\n      swap2\n      pop\n      pop\n      jump\t// out\n\n    auxdata: 0xa2646970667358221220c4e984ccf71df328b8bbb549850e0b485cf41842e465d342112c58d4af8131e364736f6c634300081b0033\n}\n",
				"bytecode": {
					"linkReferences": {},
					"object": "60a060405234801561000f575f5ffd5b5060405161191638038061191683398181016040528101906100319190610272565b80335f73ffffffffffffffffffffffffffffffffffffffff168173ffffffffffffffffffffffffffffffffffffffff16036100a3575f6040517f1e4fbdf700000000000000000000000000000000000000000000000000000000815260040161009a91906102ac565b60405180910390fd5b6100b28161015360201b60201c565b505f73ffffffffffffffffffffffffffffffffffffffff168173ffffffffffffffffffffffffffffffffffffffff1603610118576040517f5008268300000000000000000000000000000000000000000000000000000000815260040160405180910390fd5b8073ffffffffffffffffffffffffffffffffffffffff1660808173ffffffffffffffffffffffffffffffffffffffff168152505050506102c5565b5f5f5f9054906101000a900473ffffffffffffffffffffffffffffffffffffffff169050815f5f6101000a81548173ffffffffffffffffffffffffffffffffffffffff021916908373ffffffffffffffffffffffffffffffffffffffff1602179055508173ffffffffffffffffffffffffffffffffffffffff168173ffffffffffffffffffffffffffffffffffffffff167f8be0079c531659141344cd1fd0a4f28419497f9722a3daafe3b4186f6b6457e060405160405180910390a35050565b5f5ffd5b5f73ffffffffffffffffffffffffffffffffffffffff82169050919050565b5f61024182610218565b9050919050565b61025181610237565b811461025b575f5ffd5b50565b5f8151905061026c81610248565b92915050565b5f6020828403121561028757610286610214565b5b5f6102948482850161025e565b91505092915050565b6102a681610237565b82525050565b5f6020820190506102bf5f83018461029d565b92915050565b60805161162b6102eb5f395f818161028801528181610405015261088c015261162b5ff3fe60806040526004361061007a575f3560e01c80638da5cb5b1161004d5780638da5cb5b14610114578063be4f3e8f1461013e578063cf0af8791461017b578063f2fde38b146101975761007a565b806359a1aae11461007e57806367ebb6b2146100a6578063715018a6146100e2578063879d182d146100f8575b5f5ffd5b348015610089575f5ffd5b506100a4600480360381019061009f9190610d60565b6101bf565b005b3480156100b1575f5ffd5b506100cc60048036038101906100c79190610dd6565b6101d5565b6040516100d99190610e3d565b60405180910390f35b3480156100ed575f5ffd5b506100f6610273565b005b610112600480360381019061010d9190610ed2565b610286565b005b34801561011f575f5ffd5b50610128610396565b6040516101359190610f70565b60405180910390f35b348015610149575f5ffd5b50610164600480360381019061015f9190610dd6565b6103bd565b604051610172929190610f98565b60405180910390f35b61019560048036038101906101909190611014565b6103dd565b005b3480156101a2575f5ffd5b506101bd60048036038101906101b8919061109b565b6104eb565b005b6101c761056f565b6101d182826105f6565b5050565b6101dd610a70565b5f60015f8481526020019081526020015f206040518060400160405290815f820154815260200160018201548152505090505f5f1b815f015114801561022857505f5f1b8160200151145b1561026a57826040517f78d0dbfc00000000000000000000000000000000000000000000000000000000815260040161026191906110d5565b60405180910390fd5b80915050919050565b61027b61056f565b6102845f6106b2565b565b7f000000000000000000000000000000000000000000000000000000000000000073ffffffffffffffffffffffffffffffffffffffff163373ffffffffffffffffffffffffffffffffffffffff161461031657336040517fd7f7333400000000000000000000000000000000000000000000000000000000815260040161030d9190610f70565b60405180910390fd5b5f60015f856020013581526020019081526020015f206040518060400160405290815f82015481526020016001820154815250509050836040015f0135815f015114158061036f57508360400160200135816020015114155b156103845761037f848484610773565b610390565b61038f8484846107a5565b5b50505050565b5f5f5f9054906101000a900473ffffffffffffffffffffffffffffffffffffffff16905090565b6001602052805f5260405f205f91509050805f0154908060010154905082565b5f82826040516020016103f1929190611182565b60405160208183030381529060405290505f7f000000000000000000000000000000000000000000000000000000000000000073ffffffffffffffffffffffffffffffffffffffff1663dc20313734610449886101d5565b88866040518563ffffffff1660e01b815260040161046993929190611217565b60206040518083038185885af1158015610485573d5f5f3e3d5ffd5b50505050506040513d601f19601f820116820180604052508101906104aa9190611267565b9050847f9a0713d13bd9cc10bb3e581ae825f6cc721a6cb23feac011ad8e5a7dab79f4a1826040516104dc9190611292565b60405180910390a25050505050565b6104f361056f565b5f73ffffffffffffffffffffffffffffffffffffffff168173ffffffffffffffffffffffffffffffffffffffff1603610563575f6040517f1e4fbdf700000000000000000000000000000000000000000000000000000000815260040161055a9190610f70565b60405180910390fd5b61056c816106b2565b50565b610577610a69565b73ffffffffffffffffffffffffffffffffffffffff16610595610396565b73ffffffffffffffffffffffffffffffffffffffff16146105f4576105b8610a69565b6040517f118cdaa70000000000000000000000000000000000000000000000000000000081526004016105eb9190610f70565b60405180910390fd5b565b6105fe61056f565b8051825114610639576040517f947d5a8400000000000000000000000000000000000000000000000000000000815260040160405180910390fd5b5f5f90505b82518110156106ad5781818151811061065a576106596112ab565b5b602002602001015160015f858481518110610678576106776112ab565b5b602002602001015181526020019081526020015f205f820151815f01556020820151816001015590505080600101905061063e565b505050565b5f5f5f9054906101000a900473ffffffffffffffffffffffffffffffffffffffff169050815f5f6101000a81548173ffffffffffffffffffffffffffffffffffffffff021916908373ffffffffffffffffffffffffffffffffffffffff1602179055508173ffffffffffffffffffffffffffffffffffffffff168173ffffffffffffffffffffffffffffffffffffffff167f8be0079c531659141344cd1fd0a4f28419497f9722a3daafe3b4186f6b6457e060405160405180910390a35050565b6040517f7fee69a100000000000000000000000000000000000000000000000000000000815260040160405180910390fd5b5f5f83838101906107b6919061137a565b915091506040518060400160405280600481526020017f70696e67000000000000000000000000000000000000000000000000000000008152508051906020012082805190602001200361097e5784602001357f6a2ebcadb5c7a5390e43397830460b8d60144a607eb92002834d6affbf4489938660405160200161083b919061151c565b6040516020818303038152906040528051906020012060405161085e9190611292565b60405180910390a25f8160405160200161087891906115c2565b60405160208183030381529060405290505f7f000000000000000000000000000000000000000000000000000000000000000073ffffffffffffffffffffffffffffffffffffffff1663dc203137346108d48a602001356101d5565b8a60200135866040518563ffffffff1660e01b81526004016108f893929190611217565b60206040518083038185885af1158015610914573d5f5f3e3d5ffd5b50505050506040513d601f19601f820116820180604052508101906109399190611267565b905086602001357ff6eb543d49fe714b0e42cc5c6d367792f2c7d330650c3991d2dc463c1392d2a78260405161096f9190611292565b60405180910390a25050610a62565b6040518060400160405280600481526020017f706f6e670000000000000000000000000000000000000000000000000000000081525080519060200120828051906020012003610a2f5784602001357f7c0a7b5aa66c3b2e7d4d3377188f735e87372f7d0bbba37829e260f6f53f9377866040516020016109ff919061151c565b60405160208183030381529060405280519060200120604051610a229190611292565b60405180910390a2610a61565b6040517f5b60892f00000000000000000000000000000000000000000000000000000000815260040160405180910390fd5b5b5050505050565b5f33905090565b60405180604001604052805f81526020015f81525090565b5f604051905090565b5f5ffd5b5f5ffd5b5f5ffd5b5f601f19601f8301169050919050565b7f4e487b71000000000000000000000000000000000000000000000000000000005f52604160045260245ffd5b610ae382610a9d565b810181811067ffffffffffffffff82111715610b0257610b01610aad565b5b80604052505050565b5f610b14610a88565b9050610b208282610ada565b919050565b5f67ffffffffffffffff821115610b3f57610b3e610aad565b5b602082029050602081019050919050565b5f5ffd5b5f819050919050565b610b6681610b54565b8114610b70575f5ffd5b50565b5f81359050610b8181610b5d565b92915050565b5f610b99610b9484610b25565b610b0b565b90508083825260208201905060208402830185811115610bbc57610bbb610b50565b5b835b81811015610be55780610bd18882610b73565b845260208401935050602081019050610bbe565b5050509392505050565b5f82601f830112610c0357610c02610a99565b5b8135610c13848260208601610b87565b91505092915050565b5f67ffffffffffffffff821115610c3657610c35610aad565b5b602082029050602081019050919050565b5f5ffd5b5f819050919050565b610c5d81610c4b565b8114610c67575f5ffd5b50565b5f81359050610c7881610c54565b92915050565b5f60408284031215610c9357610c92610c47565b5b610c9d6040610b0b565b90505f610cac84828501610c6a565b5f830152506020610cbf84828501610c6a565b60208301525092915050565b5f610cdd610cd884610c1c565b610b0b565b90508083825260208201905060408402830185811115610d0057610cff610b50565b5b835b81811015610d295780610d158882610c7e565b845260208401935050604081019050610d02565b5050509392505050565b5f82601f830112610d4757610d46610a99565b5b8135610d57848260208601610ccb565b91505092915050565b5f5f60408385031215610d7657610d75610a91565b5b5f83013567ffffffffffffffff811115610d9357610d92610a95565b5b610d9f85828601610bef565b925050602083013567ffffffffffffffff811115610dc057610dbf610a95565b5b610dcc85828601610d33565b9150509250929050565b5f60208284031215610deb57610dea610a91565b5b5f610df884828501610b73565b91505092915050565b610e0a81610c4b565b82525050565b604082015f820151610e245f850182610e01565b506020820151610e376020850182610e01565b50505050565b5f604082019050610e505f830184610e10565b92915050565b5f5ffd5b5f6101008284031215610e7057610e6f610e56565b5b81905092915050565b5f5ffd5b5f5f83601f840112610e9257610e91610a99565b5b8235905067ffffffffffffffff811115610eaf57610eae610e79565b5b602083019150836001820283011115610ecb57610eca610b50565b5b9250929050565b5f5f5f6101208486031215610eea57610ee9610a91565b5b5f610ef786828701610e5a565b93505061010084013567ffffffffffffffff811115610f1957610f18610a95565b5b610f2586828701610e7d565b92509250509250925092565b5f73ffffffffffffffffffffffffffffffffffffffff82169050919050565b5f610f5a82610f31565b9050919050565b610f6a81610f50565b82525050565b5f602082019050610f835f830184610f61565b92915050565b610f9281610c4b565b82525050565b5f604082019050610fab5f830185610f89565b610fb86020830184610f89565b9392505050565b5f5f83601f840112610fd457610fd3610a99565b5b8235905067ffffffffffffffff811115610ff157610ff0610e79565b5b60208301915083600182028301111561100d5761100c610b50565b5b9250929050565b5f5f5f6040848603121561102b5761102a610a91565b5b5f61103886828701610b73565b935050602084013567ffffffffffffffff81111561105957611058610a95565b5b61106586828701610fbf565b92509250509250925092565b61107a81610f50565b8114611084575f5ffd5b50565b5f8135905061109581611071565b92915050565b5f602082840312156110b0576110af610a91565b5b5f6110bd84828501611087565b91505092915050565b6110cf81610b54565b82525050565b5f6020820190506110e85f8301846110c6565b92915050565b5f82825260208201905092915050565b7f70696e67000000000000000000000000000000000000000000000000000000005f82015250565b5f6111326004836110ee565b915061113d826110fe565b602082019050919050565b828183375f83830152505050565b5f61116183856110ee565b935061116e838584611148565b61117783610a9d565b840190509392505050565b5f6040820190508181035f83015261119981611126565b905081810360208301526111ae818486611156565b90509392505050565b5f81519050919050565b5f82825260208201905092915050565b8281835e5f83830152505050565b5f6111e9826111b7565b6111f381856111c1565b93506112038185602086016111d1565b61120c81610a9d565b840191505092915050565b5f60808201905061122a5f830186610e10565b61123760408301856110c6565b818103606083015261124981846111df565b9050949350505050565b5f8151905061126181610c54565b92915050565b5f6020828403121561127c5761127b610a91565b5b5f61128984828501611253565b91505092915050565b5f6020820190506112a55f830184610f89565b92915050565b7f4e487b71000000000000000000000000000000000000000000000000000000005f52603260045260245ffd5b5f5ffd5b5f67ffffffffffffffff8211156112f6576112f5610aad565b5b6112ff82610a9d565b9050602081019050919050565b5f61131e611319846112dc565b610b0b565b90508281526020810184848401111561133a576113396112d8565b5b611345848285611148565b509392505050565b5f82601f83011261136157611360610a99565b5b813561137184826020860161130c565b91505092915050565b5f5f604083850312156113905761138f610a91565b5b5f83013567ffffffffffffffff8111156113ad576113ac610a95565b5b6113b98582860161134d565b925050602083013567ffffffffffffffff8111156113da576113d9610a95565b5b6113e68582860161134d565b9150509250929050565b5f6113fe6020840184610b73565b905092915050565b61140f81610b54565b82525050565b5f82905092915050565b5f61142d6020840184610c6a565b905092915050565b604082016114455f83018361141f565b6114515f850182610e01565b5061145f602083018361141f565b61146c6020850182610e01565b50505050565b61010082016114835f8301836113f0565b61148f5f850182611406565b5061149d60208301836113f0565b6114aa6020850182611406565b506114b86040830183611415565b6114c56040850182611435565b506114d360808301836113f0565b6114e06080850182611406565b506114ee60a0830183611415565b6114fb60a0850182611435565b5061150960e083018361141f565b61151660e0850182610e01565b50505050565b5f610100820190506115305f830184611472565b92915050565b7f706f6e67000000000000000000000000000000000000000000000000000000005f82015250565b5f61156a6004836110ee565b915061157582611536565b602082019050919050565b5f81519050919050565b5f61159482611580565b61159e81856110ee565b93506115ae8185602086016111d1565b6115b781610a9d565b840191505092915050565b5f6040820190508181035f8301526115d98161155e565b905081810360208301526115ed818461158a565b90509291505056fea2646970667358221220c4e984ccf71df328b8bbb549850e0b485cf41842e465d342112c58d4af8131e364736f6c634300081b0033",
					"opcodes": "PUSH1 0xA0 PUSH1 0x40 MSTORE CALLVALUE DUP1 ISZERO PUSH2 0xF JUMPI PUSH0 PUSH0 REVERT JUMPDEST POP PUSH1 0x40 MLOAD PUSH2 0x1916 CODESIZE SUB DUP1 PUSH2 0x1916 DUP4 CODECOPY DUP2 DUP2 ADD PUSH1 0x40 MSTORE DUP2 ADD SWAP1 PUSH2 0x31 SWAP2 SWAP1 PUSH2 0x272 JUMP JUMPDEST DUP1 CALLER PUSH0 PUSH20 0xFFFFFFFFFFFFFFFFFFFFFFFFFFFFFFFFFFFFFFFF AND DUP2 PUSH20 0xFFFFFFFFFFFFFFFFFFFFFFFFFFFFFFFFFFFFFFFF AND SUB PUSH2 0xA3 JUMPI PUSH0 PUSH1 0x40 MLOAD PUSH32 0x1E4FBDF700000000000000000000000000000000000000000000000000000000 DUP2 MSTORE PUSH1 0x4 ADD PUSH2 0x9A SWAP2 SWAP1 PUSH2 0x2AC JUMP JUMPDEST PUSH1 0x40 MLOAD DUP1 SWAP2 SUB SWAP1 REVERT JUMPDEST PUSH2 0xB2 DUP2 PUSH2 0x153 PUSH1 0x20 SHL PUSH1 0x20 SHR JUMP JUMPDEST POP PUSH0 PUSH20 0xFFFFFFFFFFFFFFFFFFFFFFFFFFFFFFFFFFFFFFFF AND DUP2 PUSH20 0xFFFFFFFFFFFFFFFFFFFFFFFFFFFFFFFFFFFFFFFF AND SUB PUSH2 0x118 JUMPI PUSH1 0x40 MLOAD PUSH32 0x5008268300000000000000000000000000000000000000000000000000000000 DUP2 MSTORE PUSH1 0x4 ADD PUSH1 0x40 MLOAD DUP1 SWAP2 SUB SWAP1 REVERT JUMPDEST DUP1 PUSH20 0xFFFFFFFFFFFFFFFFFFFFFFFFFFFFFFFFFFFFFFFF AND PUSH1 0x80 DUP2 PUSH20 0xFFFFFFFFFFFFFFFFFFFFFFFFFFFFFFFFFFFFFFFF AND DUP2 MSTORE POP POP POP POP PUSH2 0x2C5 JUMP JUMPDEST PUSH0 PUSH0 PUSH0 SWAP1 SLOAD SWAP1 PUSH2 0x100 EXP SWAP1 DIV PUSH20 0xFFFFFFFFFFFFFFFFFFFFFFFFFFFFFFFFFFFFFFFF AND SWAP1 POP DUP2 PUSH0 PUSH0 PUSH2 0x100 EXP DUP2 SLOAD DUP2 PUSH20 0xFFFFFFFFFFFFFFFFFFFFFFFFFFFFFFFFFFFFFFFF MUL NOT AND SWAP1 DUP4 PUSH20 0xFFFFFFFFFFFFFFFFFFFFFFFFFFFFFFFFFFFFFFFF AND MUL OR SWAP1 SSTORE POP DUP2 PUSH20 0xFFFFFFFFFFFFFFFFFFFFFFFFFFFFFFFFFFFFFFFF AND DUP2 PUSH20 0xFFFFFFFFFFFFFFFFFFFFFFFFFFFFFFFFFFFFFFFF AND PUSH32 0x8BE0079C531659141344CD1FD0A4F28419497F9722A3DAAFE3B4186F6B6457E0 PUSH1 0x40 MLOAD PUSH1 0x40 MLOAD DUP1 SWAP2 SUB SWAP1 LOG3 POP POP JUMP JUMPDEST PUSH0 PUSH0 REVERT JUMPDEST PUSH0 PUSH20 0xFFFFFFFFFFFFFFFFFFFFFFFFFFFFFFFFFFFFFFFF DUP3 AND SWAP1 POP SWAP2 SWAP1 POP JUMP JUMPDEST PUSH0 PUSH2 0x241 DUP3 PUSH2 0x218 JUMP JUMPDEST SWAP1 POP SWAP2 SWAP1 POP JUMP JUMPDEST PUSH2 0x251 DUP2 PUSH2 0x237 JUMP JUMPDEST DUP2 EQ PUSH2 0x25B JUMPI PUSH0 PUSH0 REVERT JUMPDEST POP JUMP JUMPDEST PUSH0 DUP2 MLOAD SWAP1 POP PUSH2 0x26C DUP2 PUSH2 0x248 JUMP JUMPDEST SWAP3 SWAP2 POP POP JUMP JUMPDEST PUSH0 PUSH1 0x20 DUP3 DUP5 SUB SLT ISZERO PUSH2 0x287 JUMPI PUSH2 0x286 PUSH2 0x214 JUMP JUMPDEST JUMPDEST PUSH0 PUSH2 0x294 DUP5 DUP3 DUP6 ADD PUSH2 0x25E JUMP JUMPDEST SWAP2 POP POP SWAP3 SWAP2 POP POP JUMP JUMPDEST PUSH2 0x2A6 DUP2 PUSH2 0x237 JUMP JUMPDEST DUP3 MSTORE POP POP JUMP JUMPDEST PUSH0 PUSH1 0x20 DUP3 ADD SWAP1 POP PUSH2 0x2BF PUSH0 DUP4 ADD DUP5 PUSH2 0x29D JUMP JUMPDEST SWAP3 SWAP2 POP POP JUMP JUMPDEST PUSH1 0x80 MLOAD PUSH2 0x162B PUSH2 0x2EB PUSH0 CODECOPY PUSH0 DUP2 DUP2 PUSH2 0x288 ADD MSTORE DUP2 DUP2 PUSH2 0x405 ADD MSTORE PUSH2 0x88C ADD MSTORE PUSH2 0x162B PUSH0 RETURN INVALID PUSH1 0x80 PUSH1 0x40 MSTORE PUSH1 0x4 CALLDATASIZE LT PUSH2 0x7A JUMPI PUSH0 CALLDATALOAD PUSH1 0xE0 SHR DUP1 PUSH4 0x8DA5CB5B GT PUSH2 0x4D JUMPI DUP1 PUSH4 0x8DA5CB5B EQ PUSH2 0x114 JUMPI DUP1 PUSH4 0xBE4F3E8F EQ PUSH2 0x13E JUMPI DUP1 PUSH4 0xCF0AF879 EQ PUSH2 0x17B JUMPI DUP1 PUSH4 0xF2FDE38B EQ PUSH2 0x197 JUMPI PUSH2 0x7A JUMP JUMPDEST DUP1 PUSH4 0x59A1AAE1 EQ PUSH2 0x7E JUMPI DUP1 PUSH4 0x67EBB6B2 EQ PUSH2 0xA6 JUMPI DUP1 PUSH4 0x715018A6 EQ PUSH2 0xE2 JUMPI DUP1 PUSH4 0x879D182D EQ PUSH2 0xF8 JUMPI JUMPDEST PUSH0 PUSH0 REVERT JUMPDEST CALLVALUE DUP1 ISZERO PUSH2 0x89 JUMPI PUSH0 PUSH0 REVERT JUMPDEST POP PUSH2 0xA4 PUSH1 0x4 DUP1 CALLDATASIZE SUB DUP2 ADD SWAP1 PUSH2 0x9F SWAP2 SWAP1 PUSH2 0xD60 JUMP JUMPDEST PUSH2 0x1BF JUMP JUMPDEST STOP JUMPDEST CALLVALUE DUP1 ISZERO PUSH2 0xB1 JUMPI PUSH0 PUSH0 REVERT JUMPDEST POP PUSH2 0xCC PUSH1 0x4 DUP1 CALLDATASIZE SUB DUP2 ADD SWAP1 PUSH2 0xC7 SWAP2 SWAP1 PUSH2 0xDD6 JUMP JUMPDEST PUSH2 0x1D5 JUMP JUMPDEST PUSH1 0x40 MLOAD PUSH2 0xD9 SWAP2 SWAP1 PUSH2 0xE3D JUMP JUMPDEST PUSH1 0x40 MLOAD DUP1 SWAP2 SUB SWAP1 RETURN JUMPDEST CALLVALUE DUP1 ISZERO PUSH2 0xED JUMPI PUSH0 PUSH0 REVERT JUMPDEST POP PUSH2 0xF6 PUSH2 0x273 JUMP JUMPDEST STOP JUMPDEST PUSH2 0x112 PUSH1 0x4 DUP1 CALLDATASIZE SUB DUP2 ADD SWAP1 PUSH2 0x10D SWAP2 SWAP1 PUSH2 0xED2 JUMP JUMPDEST PUSH2 0x286 JUMP JUMPDEST STOP JUMPDEST CALLVALUE DUP1 ISZERO PUSH2 0x11F JUMPI PUSH0 PUSH0 REVERT JUMPDEST POP PUSH2 0x128 PUSH2 0x396 JUMP JUMPDEST PUSH1 0x40 MLOAD PUSH2 0x135 SWAP2 SWAP1 PUSH2 0xF70 JUMP JUMPDEST PUSH1 0x40 MLOAD DUP1 SWAP2 SUB SWAP1 RETURN JUMPDEST CALLVALUE DUP1 ISZERO PUSH2 0x149 JUMPI PUSH0 PUSH0 REVERT JUMPDEST POP PUSH2 0x164 PUSH1 0x4 DUP1 CALLDATASIZE SUB DUP2 ADD SWAP1 PUSH2 0x15F SWAP2 SWAP1 PUSH2 0xDD6 JUMP JUMPDEST PUSH2 0x3BD JUMP JUMPDEST PUSH1 0x40 MLOAD PUSH2 0x172 SWAP3 SWAP2 SWAP1 PUSH2 0xF98 JUMP JUMPDEST PUSH1 0x40 MLOAD DUP1 SWAP2 SUB SWAP1 RETURN JUMPDEST PUSH2 0x195 PUSH1 0x4 DUP1 CALLDATASIZE SUB DUP2 ADD SWAP1 PUSH2 0x190 SWAP2 SWAP1 PUSH2 0x1014 JUMP JUMPDEST PUSH2 0x3DD JUMP JUMPDEST STOP JUMPDEST CALLVALUE DUP1 ISZERO PUSH2 0x1A2 JUMPI PUSH0 PUSH0 REVERT JUMPDEST POP PUSH2 0x1BD PUSH1 0x4 DUP1 CALLDATASIZE SUB DUP2 ADD SWAP1 PUSH2 0x1B8 SWAP2 SWAP1 PUSH2 0x109B JUMP JUMPDEST PUSH2 0x4EB JUMP JUMPDEST STOP JUMPDEST PUSH2 0x1C7 PUSH2 0x56F JUMP JUMPDEST PUSH2 0x1D1 DUP3 DUP3 PUSH2 0x5F6 JUMP JUMPDEST POP POP JUMP JUMPDEST PUSH2 0x1DD PUSH2 0xA70 JUMP JUMPDEST PUSH0 PUSH1 0x1 PUSH0 DUP5 DUP2 MSTORE PUSH1 0x20 ADD SWAP1 DUP2 MSTORE PUSH1 0x20 ADD PUSH0 KECCAK256 PUSH1 0x40 MLOAD DUP1 PUSH1 0x40 ADD PUSH1 0x40 MSTORE SWAP1 DUP2 PUSH0 DUP3 ADD SLOAD DUP2 MSTORE PUSH1 0x20 ADD PUSH1 0x1 DUP3 ADD SLOAD DUP2 MSTORE POP POP SWAP1 POP PUSH0 PUSH0 SHL DUP2 PUSH0 ADD MLOAD EQ DUP1 ISZERO PUSH2 0x228 JUMPI POP PUSH0 PUSH0 SHL DUP2 PUSH1 0x20 ADD MLOAD EQ JUMPDEST ISZERO PUSH2 0x26A JUMPI DUP3 PUSH1 0x40 MLOAD PUSH32 0x78D0DBFC00000000000000000000000000000000000000000000000000000000 DUP2 MSTORE PUSH1 0x4 ADD PUSH2 0x261 SWAP2 SWAP1 PUSH2 0x10D5 JUMP JUMPDEST PUSH1 0x40 MLOAD DUP1 SWAP2 SUB SWAP1 REVERT JUMPDEST DUP1 SWAP2 POP POP SWAP2 SWAP1 POP JUMP JUMPDEST PUSH2 0x27B PUSH2 0x56F JUMP JUMPDEST PUSH2 0x284 PUSH0 PUSH2 0x6B2 JUMP JUMPDEST JUMP JUMPDEST PUSH32 0x0 PUSH20 0xFFFFFFFFFFFFFFFFFFFFFFFFFFFFFFFFFFFFFFFF AND CALLER PUSH20 0xFFFFFFFFFFFFFFFFFFFFFFFFFFFFFFFFFFFFFFFF AND EQ PUSH2 0x316 JUMPI CALLER PUSH1 0x40 MLOAD PUSH32 0xD7F7333400000000000000000000000000000000000000000000000000000000 DUP2 MSTORE PUSH1 0x4 ADD PUSH2 0x30D SWAP2 SWAP1 PUSH2 0xF70 JUMP JUMPDEST PUSH1 0x40 MLOAD DUP1 SWAP2 SUB SWAP1 REVERT JUMPDEST PUSH0 PUSH1 0x1 PUSH0 DUP6 PUSH1 0x20 ADD CALLDATALOAD DUP2 MSTORE PUSH1 0x20 ADD SWAP1 DUP2 MSTORE PUSH1 0x20 ADD PUSH0 KECCAK256 PUSH1 0x40 MLOAD DUP1 PUSH1 0x40 ADD PUSH1 0x40 MSTORE SWAP1 DUP2 PUSH0 DUP3 ADD SLOAD DUP2 MSTORE PUSH1 0x20 ADD PUSH1 0x1 DUP3 ADD SLOAD DUP2 MSTORE POP POP SWAP1 POP DUP4 PUSH1 0x40 ADD PUSH0 ADD CALLDATALOAD DUP2 PUSH0 ADD MLOAD EQ ISZERO DUP1 PUSH2 0x36F JUMPI POP DUP4 PUSH1 0x40 ADD PUSH1 0x20 ADD CALLDATALOAD DUP2 PUSH1 0x20 ADD MLOAD EQ ISZERO JUMPDEST ISZERO PUSH2 0x384 JUMPI PUSH2 0x37F DUP5 DUP5 DUP5 PUSH2 0x773 JUMP JUMPDEST PUSH2 0x390 JUMP JUMPDEST PUSH2 0x38F DUP5 DUP5 DUP5 PUSH2 0x7A5 JUMP JUMPDEST JUMPDEST POP POP POP POP JUMP JUMPDEST PUSH0 PUSH0 PUSH0 SWAP1 SLOAD SWAP1 PUSH2 0x100 EXP SWAP1 DIV PUSH20 0xFFFFFFFFFFFFFFFFFFFFFFFFFFFFFFFFFFFFFFFF AND SWAP1 POP SWAP1 JUMP JUMPDEST PUSH1 0x1 PUSH1 0x20 MSTORE DUP1 PUSH0 MSTORE PUSH1 0x40 PUSH0 KECCAK256 PUSH0 SWAP2 POP SWAP1 POP DUP1 PUSH0 ADD SLOAD SWAP1 DUP1 PUSH1 0x1 ADD SLOAD SWAP1 POP DUP3 JUMP JUMPDEST PUSH0 DUP3 DUP3 PUSH1 0x40 MLOAD PUSH1 0x20 ADD PUSH2 0x3F1 SWAP3 SWAP2 SWAP1 PUSH2 0x1182 JUMP JUMPDEST PUSH1 0x40 MLOAD PUSH1 0x20 DUP2 DUP4 SUB SUB DUP2 MSTORE SWAP1 PUSH1 0x40 MSTORE SWAP1 POP PUSH0 PUSH32 0x0 PUSH20 0xFFFFFFFFFFFFFFFFFFFFFFFFFFFFFFFFFFFFFFFF AND PUSH4 0xDC203137 CALLVALUE PUSH2 0x449 DUP9 PUSH2 0x1D5 JUMP JUMPDEST DUP9 DUP7 PUSH1 0x40 MLOAD DUP6 PUSH4 0xFFFFFFFF AND PUSH1 0xE0 SHL DUP2 MSTORE PUSH1 0x4 ADD PUSH2 0x469 SWAP4 SWAP3 SWAP2 SWAP1 PUSH2 0x1217 JUMP JUMPDEST PUSH1 0x20 PUSH1 0x40 MLOAD DUP1 DUP4 SUB DUP2 DUP6 DUP9 GAS CALL ISZERO DUP1 ISZERO PUSH2 0x485 JUMPI RETURNDATASIZE PUSH0 PUSH0 RETURNDATACOPY RETURNDATASIZE PUSH0 REVERT JUMPDEST POP POP POP POP POP PUSH1 0x40 MLOAD RETURNDATASIZE PUSH1 0x1F NOT PUSH1 0x1F DUP3 ADD AND DUP3 ADD DUP1 PUSH1 0x40 MSTORE POP DUP2 ADD SWAP1 PUSH2 0x4AA SWAP2 SWAP1 PUSH2 0x1267 JUMP JUMPDEST SWAP1 POP DUP5 PUSH32 0x9A0713D13BD9CC10BB3E581AE825F6CC721A6CB23FEAC011AD8E5A7DAB79F4A1 DUP3 PUSH1 0x40 MLOAD PUSH2 0x4DC SWAP2 SWAP1 PUSH2 0x1292 JUMP JUMPDEST PUSH1 0x40 MLOAD DUP1 SWAP2 SUB SWAP1 LOG2 POP POP POP POP POP JUMP JUMPDEST PUSH2 0x4F3 PUSH2 0x56F JUMP JUMPDEST PUSH0 PUSH20 0xFFFFFFFFFFFFFFFFFFFFFFFFFFFFFFFFFFFFFFFF AND DUP2 PUSH20 0xFFFFFFFFFFFFFFFFFFFFFFFFFFFFFFFFFFFFFFFF AND SUB PUSH2 0x563 JUMPI PUSH0 PUSH1 0x40 MLOAD PUSH32 0x1E4FBDF700000000000000000000000000000000000000000000000000000000 DUP2 MSTORE PUSH1 0x4 ADD PUSH2 0x55A SWAP2 SWAP1 PUSH2 0xF70 JUMP JUMPDEST PUSH1 0x40 MLOAD DUP1 SWAP2 SUB SWAP1 REVERT JUMPDEST PUSH2 0x56C DUP2 PUSH2 0x6B2 JUMP JUMPDEST POP JUMP JUMPDEST PUSH2 0x577 PUSH2 0xA69 JUMP JUMPDEST PUSH20 0xFFFFFFFFFFFFFFFFFFFFFFFFFFFFFFFFFFFFFFFF AND PUSH2 0x595 PUSH2 0x396 JUMP JUMPDEST PUSH20 0xFFFFFFFFFFFFFFFFFFFFFFFFFFFFFFFFFFFFFFFF AND EQ PUSH2 0x5F4 JUMPI PUSH2 0x5B8 PUSH2 0xA69 JUMP JUMPDEST PUSH1 0x40 MLOAD PUSH32 0x118CDAA700000000000000000000000000000000000000000000000000000000 DUP2 MSTORE PUSH1 0x4 ADD PUSH2 0x5EB SWAP2 SWAP1 PUSH2 0xF70 JUMP JUMPDEST PUSH1 0x40 MLOAD DUP1 SWAP2 SUB SWAP1 REVERT JUMPDEST JUMP JUMPDEST PUSH2 0x5FE PUSH2 0x56F JUMP JUMPDEST DUP1 MLOAD DUP3 MLOAD EQ PUSH2 0x639 JUMPI PUSH1 0x40 MLOAD PUSH32 0x947D5A8400000000000000000000000000000000000000000000000000000000 DUP2 MSTORE PUSH1 0x4 ADD PUSH1 0x40 MLOAD DUP1 SWAP2 SUB SWAP1 REVERT JUMPDEST PUSH0 PUSH0 SWAP1 POP JUMPDEST DUP3 MLOAD DUP2 LT ISZERO PUSH2 0x6AD JUMPI DUP2 DUP2 DUP2 MLOAD DUP2 LT PUSH2 0x65A JUMPI PUSH2 0x659 PUSH2 0x12AB JUMP JUMPDEST JUMPDEST PUSH1 0x20 MUL PUSH1 0x20 ADD ADD MLOAD PUSH1 0x1 PUSH0 DUP6 DUP5 DUP2 MLOAD DUP2 LT PUSH2 0x678 JUMPI PUSH2 0x677 PUSH2 0x12AB JUMP JUMPDEST JUMPDEST PUSH1 0x20 MUL PUSH1 0x20 ADD ADD MLOAD DUP2 MSTORE PUSH1 0x20 ADD SWAP1 DUP2 MSTORE PUSH1 0x20 ADD PUSH0 KECCAK256 PUSH0 DUP3 ADD MLOAD DUP2 PUSH0 ADD SSTORE PUSH1 0x20 DUP3 ADD MLOAD DUP2 PUSH1 0x1 ADD SSTORE SWAP1 POP POP DUP1 PUSH1 0x1 ADD SWAP1 POP PUSH2 0x63E JUMP JUMPDEST POP POP POP JUMP JUMPDEST PUSH0 PUSH0 PUSH0 SWAP1 SLOAD SWAP1 PUSH2 0x100 EXP SWAP1 DIV PUSH20 0xFFFFFFFFFFFFFFFFFFFFFFFFFFFFFFFFFFFFFFFF AND SWAP1 POP DUP2 PUSH0 PUSH0 PUSH2 0x100 EXP DUP2 SLOAD DUP2 PUSH20 0xFFFFFFFFFFFFFFFFFFFFFFFFFFFFFFFFFFFFFFFF MUL NOT AND SWAP1 DUP4 PUSH20 0xFFFFFFFFFFFFFFFFFFFFFFFFFFFFFFFFFFFFFFFF AND MUL OR SWAP1 SSTORE POP DUP2 PUSH20 0xFFFFFFFFFFFFFFFFFFFFFFFFFFFFFFFFFFFFFFFF AND DUP2 PUSH20 0xFFFFFFFFFFFFFFFFFFFFFFFFFFFFFFFFFFFFFFFF AND PUSH32 0x8BE0079C531659141344CD1FD0A4F28419497F9722A3DAAFE3B4186F6B6457E0 PUSH1 0x40 MLOAD PUSH1 0x40 MLOAD DUP1 SWAP2 SUB SWAP1 LOG3 POP POP JUMP JUMPDEST PUSH1 0x40 MLOAD PUSH32 0x7FEE69A100000000000000000000000000000000000000000000000000000000 DUP2 MSTORE PUSH1 0x4 ADD PUSH1 0x40 MLOAD DUP1 SWAP2 SUB SWAP1 REVERT JUMPDEST PUSH0 PUSH0 DUP4 DUP4 DUP2 ADD SWAP1 PUSH2 0x7B6 SWAP2 SWAP1 PUSH2 0x137A JUMP JUMPDEST SWAP2 POP SWAP2 POP PUSH1 0x40 MLOAD DUP1 PUSH1 0x40 ADD PUSH1 0x40 MSTORE DUP1 PUSH1 0x4 DUP2 MSTORE PUSH1 0x20 ADD PUSH32 0x70696E6700000000000000000000000000000000000000000000000000000000 DUP2 MSTORE POP DUP1 MLOAD SWAP1 PUSH1 0x20 ADD KECCAK256 DUP3 DUP1 MLOAD SWAP1 PUSH1 0x20 ADD KECCAK256 SUB PUSH2 0x97E JUMPI DUP5 PUSH1 0x20 ADD CALLDATALOAD PUSH32 0x6A2EBCADB5C7A5390E43397830460B8D60144A607EB92002834D6AFFBF448993 DUP7 PUSH1 0x40 MLOAD PUSH1 0x20 ADD PUSH2 0x83B SWAP2 SWAP1 PUSH2 0x151C JUMP JUMPDEST PUSH1 0x40 MLOAD PUSH1 0x20 DUP2 DUP4 SUB SUB DUP2 MSTORE SWAP1 PUSH1 0x40 MSTORE DUP1 MLOAD SWAP1 PUSH1 0x20 ADD KECCAK256 PUSH1 0x40 MLOAD PUSH2 0x85E SWAP2 SWAP1 PUSH2 0x1292 JUMP JUMPDEST PUSH1 0x40 MLOAD DUP1 SWAP2 SUB SWAP1 LOG2 PUSH0 DUP2 PUSH1 0x40 MLOAD PUSH1 0x20 ADD PUSH2 0x878 SWAP2 SWAP1 PUSH2 0x15C2 JUMP JUMPDEST PUSH1 0x40 MLOAD PUSH1 0x20 DUP2 DUP4 SUB SUB DUP2 MSTORE SWAP1 PUSH1 0x40 MSTORE SWAP1 POP PUSH0 PUSH32 0x0 PUSH20 0xFFFFFFFFFFFFFFFFFFFFFFFFFFFFFFFFFFFFFFFF AND PUSH4 0xDC203137 CALLVALUE PUSH2 0x8D4 DUP11 PUSH1 0x20 ADD CALLDATALOAD PUSH2 0x1D5 JUMP JUMPDEST DUP11 PUSH1 0x20 ADD CALLDATALOAD DUP7 PUSH1 0x40 MLOAD DUP6 PUSH4 0xFFFFFFFF AND PUSH1 0xE0 SHL DUP2 MSTORE PUSH1 0x4 ADD PUSH2 0x8F8 SWAP4 SWAP3 SWAP2 SWAP1 PUSH2 0x1217 JUMP JUMPDEST PUSH1 0x20 PUSH1 0x40 MLOAD DUP1 DUP4 SUB DUP2 DUP6 DUP9 GAS CALL ISZERO DUP1 ISZERO PUSH2 0x914 JUMPI RETURNDATASIZE PUSH0 PUSH0 RETURNDATACOPY RETURNDATASIZE PUSH0 REVERT JUMPDEST POP POP POP POP POP PUSH1 0x40 MLOAD RETURNDATASIZE PUSH1 0x1F NOT PUSH1 0x1F DUP3 ADD AND DUP3 ADD DUP1 PUSH1 0x40 MSTORE POP DUP2 ADD SWAP1 PUSH2 0x939 SWAP2 SWAP1 PUSH2 0x1267 JUMP JUMPDEST SWAP1 POP DUP7 PUSH1 0x20 ADD CALLDATALOAD PUSH32 0xF6EB543D49FE714B0E42CC5C6D367792F2C7D330650C3991D2DC463C1392D2A7 DUP3 PUSH1 0x40 MLOAD PUSH2 0x96F SWAP2 SWAP1 PUSH2 0x1292 JUMP JUMPDEST PUSH1 0x40 MLOAD DUP1 SWAP2 SUB SWAP1 LOG2 POP POP PUSH2 0xA62 JUMP JUMPDEST PUSH1 0x40 MLOAD DUP1 PUSH1 0x40 ADD PUSH1 0x40 MSTORE DUP1 PUSH1 0x4 DUP2 MSTORE PUSH1 0x20 ADD PUSH32 0x706F6E6700000000000000000000000000000000000000000000000000000000 DUP2 MSTORE POP DUP1 MLOAD SWAP1 PUSH1 0x20 ADD KECCAK256 DUP3 DUP1 MLOAD SWAP1 PUSH1 0x20 ADD KECCAK256 SUB PUSH2 0xA2F JUMPI DUP5 PUSH1 0x20 ADD CALLDATALOAD PUSH32 0x7C0A7B5AA66C3B2E7D4D3377188F735E87372F7D0BBBA37829E260F6F53F9377 DUP7 PUSH1 0x40 MLOAD PUSH1 0x20 ADD PUSH2 0x9FF SWAP2 SWAP1 PUSH2 0x151C JUMP JUMPDEST PUSH1 0x40 MLOAD PUSH1 0x20 DUP2 DUP4 SUB SUB DUP2 MSTORE SWAP1 PUSH1 0x40 MSTORE DUP1 MLOAD SWAP1 PUSH1 0x20 ADD KECCAK256 PUSH1 0x40 MLOAD PUSH2 0xA22 SWAP2 SWAP1 PUSH2 0x1292 JUMP JUMPDEST PUSH1 0x40 MLOAD DUP1 SWAP2 SUB SWAP1 LOG2 PUSH2 0xA61 JUMP JUMPDEST PUSH1 0x40 MLOAD PUSH32 0x5B60892F00000000000000000000000000000000000000000000000000000000 DUP2 MSTORE PUSH1 0x4 ADD PUSH1 0x40 MLOAD DUP1 SWAP2 SUB SWAP1 REVERT JUMPDEST JUMPDEST POP POP POP POP POP JUMP JUMPDEST PUSH0 CALLER SWAP1 POP SWAP1 JUMP JUMPDEST PUSH1 0x40 MLOAD DUP1 PUSH1 0x40 ADD PUSH1 0x40 MSTORE DUP1 PUSH0 DUP2 MSTORE PUSH1 0x20 ADD PUSH0 DUP2 MSTORE POP SWAP1 JUMP JUMPDEST PUSH0 PUSH1 0x40 MLOAD SWAP1 POP SWAP1 JUMP JUMPDEST PUSH0 PUSH0 REVERT JUMPDEST PUSH0 PUSH0 REVERT JUMPDEST PUSH0 PUSH0 REVERT JUMPDEST PUSH0 PUSH1 0x1F NOT PUSH1 0x1F DUP4 ADD AND SWAP1 POP SWAP2 SWAP1 POP JUMP JUMPDEST PUSH32 0x4E487B7100000000000000000000000000000000000000000000000000000000 PUSH0 MSTORE PUSH1 0x41 PUSH1 0x4 MSTORE PUSH1 0x24 PUSH0 REVERT JUMPDEST PUSH2 0xAE3 DUP3 PUSH2 0xA9D JUMP JUMPDEST DUP2 ADD DUP2 DUP2 LT PUSH8 0xFFFFFFFFFFFFFFFF DUP3 GT OR ISZERO PUSH2 0xB02 JUMPI PUSH2 0xB01 PUSH2 0xAAD JUMP JUMPDEST JUMPDEST DUP1 PUSH1 0x40 MSTORE POP POP POP JUMP JUMPDEST PUSH0 PUSH2 0xB14 PUSH2 0xA88 JUMP JUMPDEST SWAP1 POP PUSH2 0xB20 DUP3 DUP3 PUSH2 0xADA JUMP JUMPDEST SWAP2 SWAP1 POP JUMP JUMPDEST PUSH0 PUSH8 0xFFFFFFFFFFFFFFFF DUP3 GT ISZERO PUSH2 0xB3F JUMPI PUSH2 0xB3E PUSH2 0xAAD JUMP JUMPDEST JUMPDEST PUSH1 0x20 DUP3 MUL SWAP1 POP PUSH1 0x20 DUP2 ADD SWAP1 POP SWAP2 SWAP1 POP JUMP JUMPDEST PUSH0 PUSH0 REVERT JUMPDEST PUSH0 DUP2 SWAP1 POP SWAP2 SWAP1 POP JUMP JUMPDEST PUSH2 0xB66 DUP2 PUSH2 0xB54 JUMP JUMPDEST DUP2 EQ PUSH2 0xB70 JUMPI PUSH0 PUSH0 REVERT JUMPDEST POP JUMP JUMPDEST PUSH0 DUP2 CALLDATALOAD SWAP1 POP PUSH2 0xB81 DUP2 PUSH2 0xB5D JUMP JUMPDEST SWAP3 SWAP2 POP POP JUMP JUMPDEST PUSH0 PUSH2 0xB99 PUSH2 0xB94 DUP5 PUSH2 0xB25 JUMP JUMPDEST PUSH2 0xB0B JUMP JUMPDEST SWAP1 POP DUP1 DUP4 DUP3 MSTORE PUSH1 0x20 DUP3 ADD SWAP1 POP PUSH1 0x20 DUP5 MUL DUP4 ADD DUP6 DUP2 GT ISZERO PUSH2 0xBBC JUMPI PUSH2 0xBBB PUSH2 0xB50 JUMP JUMPDEST JUMPDEST DUP4 JUMPDEST DUP2 DUP2 LT ISZERO PUSH2 0xBE5 JUMPI DUP1 PUSH2 0xBD1 DUP9 DUP3 PUSH2 0xB73 JUMP JUMPDEST DUP5 MSTORE PUSH1 0x20 DUP5 ADD SWAP4 POP POP PUSH1 0x20 DUP2 ADD SWAP1 POP PUSH2 0xBBE JUMP JUMPDEST POP POP POP SWAP4 SWAP3 POP POP POP JUMP JUMPDEST PUSH0 DUP3 PUSH1 0x1F DUP4 ADD SLT PUSH2 0xC03 JUMPI PUSH2 0xC02 PUSH2 0xA99 JUMP JUMPDEST JUMPDEST DUP2 CALLDATALOAD PUSH2 0xC13 DUP5 DUP3 PUSH1 0x20 DUP7 ADD PUSH2 0xB87 JUMP JUMPDEST SWAP2 POP POP SWAP3 SWAP2 POP POP JUMP JUMPDEST PUSH0 PUSH8 0xFFFFFFFFFFFFFFFF DUP3 GT ISZERO PUSH2 0xC36 JUMPI PUSH2 0xC35 PUSH2 0xAAD JUMP JUMPDEST JUMPDEST PUSH1 0x20 DUP3 MUL SWAP1 POP PUSH1 0x20 DUP2 ADD SWAP1 POP SWAP2 SWAP1 POP JUMP JUMPDEST PUSH0 PUSH0 REVERT JUMPDEST PUSH0 DUP2 SWAP1 POP SWAP2 SWAP1 POP JUMP JUMPDEST PUSH2 0xC5D DUP2 PUSH2 0xC4B JUMP JUMPDEST DUP2 EQ PUSH2 0xC67 JUMPI PUSH0 PUSH0 REVERT JUMPDEST POP JUMP JUMPDEST PUSH0 DUP2 CALLDATALOAD SWAP1 POP PUSH2 0xC78 DUP2 PUSH2 0xC54 JUMP JUMPDEST SWAP3 SWAP2 POP POP JUMP JUMPDEST PUSH0 PUSH1 0x40 DUP3 DUP5 SUB SLT ISZERO PUSH2 0xC93 JUMPI PUSH2 0xC92 PUSH2 0xC47 JUMP JUMPDEST JUMPDEST PUSH2 0xC9D PUSH1 0x40 PUSH2 0xB0B JUMP JUMPDEST SWAP1 POP PUSH0 PUSH2 0xCAC DUP5 DUP3 DUP6 ADD PUSH2 0xC6A JUMP JUMPDEST PUSH0 DUP4 ADD MSTORE POP PUSH1 0x20 PUSH2 0xCBF DUP5 DUP3 DUP6 ADD PUSH2 0xC6A JUMP JUMPDEST PUSH1 0x20 DUP4 ADD MSTORE POP SWAP3 SWAP2 POP POP JUMP JUMPDEST PUSH0 PUSH2 0xCDD PUSH2 0xCD8 DUP5 PUSH2 0xC1C JUMP JUMPDEST PUSH2 0xB0B JUMP JUMPDEST SWAP1 POP DUP1 DUP4 DUP3 MSTORE PUSH1 0x20 DUP3 ADD SWAP1 POP PUSH1 0x40 DUP5 MUL DUP4 ADD DUP6 DUP2 GT ISZERO PUSH2 0xD00 JUMPI PUSH2 0xCFF PUSH2 0xB50 JUMP JUMPDEST JUMPDEST DUP4 JUMPDEST DUP2 DUP2 LT ISZERO PUSH2 0xD29 JUMPI DUP1 PUSH2 0xD15 DUP9 DUP3 PUSH2 0xC7E JUMP JUMPDEST DUP5 MSTORE PUSH1 0x20 DUP5 ADD SWAP4 POP POP PUSH1 0x40 DUP2 ADD SWAP1 POP PUSH2 0xD02 JUMP JUMPDEST POP POP POP SWAP4 SWAP3 POP POP POP JUMP JUMPDEST PUSH0 DUP3 PUSH1 0x1F DUP4 ADD SLT PUSH2 0xD47 JUMPI PUSH2 0xD46 PUSH2 0xA99 JUMP JUMPDEST JUMPDEST DUP2 CALLDATALOAD PUSH2 0xD57 DUP5 DUP3 PUSH1 0x20 DUP7 ADD PUSH2 0xCCB JUMP JUMPDEST SWAP2 POP POP SWAP3 SWAP2 POP POP JUMP JUMPDEST PUSH0 PUSH0 PUSH1 0x40 DUP4 DUP6 SUB SLT ISZERO PUSH2 0xD76 JUMPI PUSH2 0xD75 PUSH2 0xA91 JUMP JUMPDEST JUMPDEST PUSH0 DUP4 ADD CALLDATALOAD PUSH8 0xFFFFFFFFFFFFFFFF DUP2 GT ISZERO PUSH2 0xD93 JUMPI PUSH2 0xD92 PUSH2 0xA95 JUMP JUMPDEST JUMPDEST PUSH2 0xD9F DUP6 DUP3 DUP7 ADD PUSH2 0xBEF JUMP JUMPDEST SWAP3 POP POP PUSH1 0x20 DUP4 ADD CALLDATALOAD PUSH8 0xFFFFFFFFFFFFFFFF DUP2 GT ISZERO PUSH2 0xDC0 JUMPI PUSH2 0xDBF PUSH2 0xA95 JUMP JUMPDEST JUMPDEST PUSH2 0xDCC DUP6 DUP3 DUP7 ADD PUSH2 0xD33 JUMP JUMPDEST SWAP2 POP POP SWAP3 POP SWAP3 SWAP1 POP JUMP JUMPDEST PUSH0 PUSH1 0x20 DUP3 DUP5 SUB SLT ISZERO PUSH2 0xDEB JUMPI PUSH2 0xDEA PUSH2 0xA91 JUMP JUMPDEST JUMPDEST PUSH0 PUSH2 0xDF8 DUP5 DUP3 DUP6 ADD PUSH2 0xB73 JUMP JUMPDEST SWAP2 POP POP SWAP3 SWAP2 POP POP JUMP JUMPDEST PUSH2 0xE0A DUP2 PUSH2 0xC4B JUMP JUMPDEST DUP3 MSTORE POP POP JUMP JUMPDEST PUSH1 0x40 DUP3 ADD PUSH0 DUP3 ADD MLOAD PUSH2 0xE24 PUSH0 DUP6 ADD DUP3 PUSH2 0xE01 JUMP JUMPDEST POP PUSH1 0x20 DUP3 ADD MLOAD PUSH2 0xE37 PUSH1 0x20 DUP6 ADD DUP3 PUSH2 0xE01 JUMP JUMPDEST POP POP POP POP JUMP JUMPDEST PUSH0 PUSH1 0x40 DUP3 ADD SWAP1 POP PUSH2 0xE50 PUSH0 DUP4 ADD DUP5 PUSH2 0xE10 JUMP JUMPDEST SWAP3 SWAP2 POP POP JUMP JUMPDEST PUSH0 PUSH0 REVERT JUMPDEST PUSH0 PUSH2 0x100 DUP3 DUP5 SUB SLT ISZERO PUSH2 0xE70 JUMPI PUSH2 0xE6F PUSH2 0xE56 JUMP JUMPDEST JUMPDEST DUP2 SWAP1 POP SWAP3 SWAP2 POP POP JUMP JUMPDEST PUSH0 PUSH0 REVERT JUMPDEST PUSH0 PUSH0 DUP4 PUSH1 0x1F DUP5 ADD SLT PUSH2 0xE92 JUMPI PUSH2 0xE91 PUSH2 0xA99 JUMP JUMPDEST JUMPDEST DUP3 CALLDATALOAD SWAP1 POP PUSH8 0xFFFFFFFFFFFFFFFF DUP2 GT ISZERO PUSH2 0xEAF JUMPI PUSH2 0xEAE PUSH2 0xE79 JUMP JUMPDEST JUMPDEST PUSH1 0x20 DUP4 ADD SWAP2 POP DUP4 PUSH1 0x1 DUP3 MUL DUP4 ADD GT ISZERO PUSH2 0xECB JUMPI PUSH2 0xECA PUSH2 0xB50 JUMP JUMPDEST JUMPDEST SWAP3 POP SWAP3 SWAP1 POP JUMP JUMPDEST PUSH0 PUSH0 PUSH0 PUSH2 0x120 DUP5 DUP7 SUB SLT ISZERO PUSH2 0xEEA JUMPI PUSH2 0xEE9 PUSH2 0xA91 JUMP JUMPDEST JUMPDEST PUSH0 PUSH2 0xEF7 DUP7 DUP3 DUP8 ADD PUSH2 0xE5A JUMP JUMPDEST SWAP4 POP POP PUSH2 0x100 DUP5 ADD CALLDATALOAD PUSH8 0xFFFFFFFFFFFFFFFF DUP2 GT ISZERO PUSH2 0xF19 JUMPI PUSH2 0xF18 PUSH2 0xA95 JUMP JUMPDEST JUMPDEST PUSH2 0xF25 DUP7 DUP3 DUP8 ADD PUSH2 0xE7D JUMP JUMPDEST SWAP3 POP SWAP3 POP POP SWAP3 POP SWAP3 POP SWAP3 JUMP JUMPDEST PUSH0 PUSH20 0xFFFFFFFFFFFFFFFFFFFFFFFFFFFFFFFFFFFFFFFF DUP3 AND SWAP1 POP SWAP2 SWAP1 POP JUMP JUMPDEST PUSH0 PUSH2 0xF5A DUP3 PUSH2 0xF31 JUMP JUMPDEST SWAP1 POP SWAP2 SWAP1 POP JUMP JUMPDEST PUSH2 0xF6A DUP2 PUSH2 0xF50 JUMP JUMPDEST DUP3 MSTORE POP POP JUMP JUMPDEST PUSH0 PUSH1 0x20 DUP3 ADD SWAP1 POP PUSH2 0xF83 PUSH0 DUP4 ADD DUP5 PUSH2 0xF61 JUMP JUMPDEST SWAP3 SWAP2 POP POP JUMP JUMPDEST PUSH2 0xF92 DUP2 PUSH2 0xC4B JUMP JUMPDEST DUP3 MSTORE POP POP JUMP JUMPDEST PUSH0 PUSH1 0x40 DUP3 ADD SWAP1 POP PUSH2 0xFAB PUSH0 DUP4 ADD DUP6 PUSH2 0xF89 JUMP JUMPDEST PUSH2 0xFB8 PUSH1 0x20 DUP4 ADD DUP5 PUSH2 0xF89 JUMP JUMPDEST SWAP4 SWAP3 POP POP POP JUMP JUMPDEST PUSH0 PUSH0 DUP4 PUSH1 0x1F DUP5 ADD SLT PUSH2 0xFD4 JUMPI PUSH2 0xFD3 PUSH2 0xA99 JUMP JUMPDEST JUMPDEST DUP3 CALLDATALOAD SWAP1 POP PUSH8 0xFFFFFFFFFFFFFFFF DUP2 GT ISZERO PUSH2 0xFF1 JUMPI PUSH2 0xFF0 PUSH2 0xE79 JUMP JUMPDEST JUMPDEST PUSH1 0x20 DUP4 ADD SWAP2 POP DUP4 PUSH1 0x1 DUP3 MUL DUP4 ADD GT ISZERO PUSH2 0x100D JUMPI PUSH2 0x100C PUSH2 0xB50 JUMP JUMPDEST JUMPDEST SWAP3 POP SWAP3 SWAP1 POP JUMP JUMPDEST PUSH0 PUSH0 PUSH0 PUSH1 0x40 DUP5 DUP7 SUB SLT ISZERO PUSH2 0x102B JUMPI PUSH2 0x102A PUSH2 0xA91 JUMP JUMPDEST JUMPDEST PUSH0 PUSH2 0x1038 DUP7 DUP3 DUP8 ADD PUSH2 0xB73 JUMP JUMPDEST SWAP4 POP POP PUSH1 0x20 DUP5 ADD CALLDATALOAD PUSH8 0xFFFFFFFFFFFFFFFF DUP2 GT ISZERO PUSH2 0x1059 JUMPI PUSH2 0x1058 PUSH2 0xA95 JUMP JUMPDEST JUMPDEST PUSH2 0x1065 DUP7 DUP3 DUP8 ADD PUSH2 0xFBF JUMP JUMPDEST SWAP3 POP SWAP3 POP POP SWAP3 POP SWAP3 POP SWAP3 JUMP JUMPDEST PUSH2 0x107A DUP2 PUSH2 0xF50 JUMP JUMPDEST DUP2 EQ PUSH2 0x1084 JUMPI PUSH0 PUSH0 REVERT JUMPDEST POP JUMP JUMPDEST PUSH0 DUP2 CALLDATALOAD SWAP1 POP PUSH2 0x1095 DUP2 PUSH2 0x1071 JUMP JUMPDEST SWAP3 SWAP2 POP POP JUMP JUMPDEST PUSH0 PUSH1 0x20 DUP3 DUP5 SUB SLT ISZERO PUSH2 0x10B0 JUMPI PUSH2 0x10AF PUSH2 0xA91 JUMP JUMPDEST JUMPDEST PUSH0 PUSH2 0x10BD DUP5 DUP3 DUP6 ADD PUSH2 0x1087 JUMP JUMPDEST SWAP2 POP POP SWAP3 SWAP2 POP POP JUMP JUMPDEST PUSH2 0x10CF DUP2 PUSH2 0xB54 JUMP JUMPDEST DUP3 MSTORE POP POP JUMP JUMPDEST PUSH0 PUSH1 0x20 DUP3 ADD SWAP1 POP PUSH2 0x10E8 PUSH0 DUP4 ADD DUP5 PUSH2 0x10C6 JUMP JUMPDEST SWAP3 SWAP2 POP POP JUMP JUMPDEST PUSH0 DUP3 DUP3 MSTORE PUSH1 0x20 DUP3 ADD SWAP1 POP SWAP3 SWAP2 POP POP JUMP JUMPDEST PUSH32 0x70696E6700000000000000000000000000000000000000000000000000000000 PUSH0 DUP3 ADD MSTORE POP JUMP JUMPDEST PUSH0 PUSH2 0x1132 PUSH1 0x4 DUP4 PUSH2 0x10EE JUMP JUMPDEST SWAP2 POP PUSH2 0x113D DUP3 PUSH2 0x10FE JUMP JUMPDEST PUSH1 0x20 DUP3 ADD SWAP1 POP SWAP2 SWAP1 POP JUMP JUMPDEST DUP3 DUP2 DUP4 CALLDATACOPY PUSH0 DUP4 DUP4 ADD MSTORE POP POP POP JUMP JUMPDEST PUSH0 PUSH2 0x1161 DUP4 DUP6 PUSH2 0x10EE JUMP JUMPDEST SWAP4 POP PUSH2 0x116E DUP4 DUP6 DUP5 PUSH2 0x1148 JUMP JUMPDEST PUSH2 0x1177 DUP4 PUSH2 0xA9D JUMP JUMPDEST DUP5 ADD SWAP1 POP SWAP4 SWAP3 POP POP POP JUMP JUMPDEST PUSH0 PUSH1 0x40 DUP3 ADD SWAP1 POP DUP2 DUP2 SUB PUSH0 DUP4 ADD MSTORE PUSH2 0x1199 DUP2 PUSH2 0x1126 JUMP JUMPDEST SWAP1 POP DUP2 DUP2 SUB PUSH1 0x20 DUP4 ADD MSTORE PUSH2 0x11AE DUP2 DUP5 DUP7 PUSH2 0x1156 JUMP JUMPDEST SWAP1 POP SWAP4 SWAP3 POP POP POP JUMP JUMPDEST PUSH0 DUP2 MLOAD SWAP1 POP SWAP2 SWAP1 POP JUMP JUMPDEST PUSH0 DUP3 DUP3 MSTORE PUSH1 0x20 DUP3 ADD SWAP1 POP SWAP3 SWAP2 POP POP JUMP JUMPDEST DUP3 DUP2 DUP4 MCOPY PUSH0 DUP4 DUP4 ADD MSTORE POP POP POP JUMP JUMPDEST PUSH0 PUSH2 0x11E9 DUP3 PUSH2 0x11B7 JUMP JUMPDEST PUSH2 0x11F3 DUP2 DUP6 PUSH2 0x11C1 JUMP JUMPDEST SWAP4 POP PUSH2 0x1203 DUP2 DUP6 PUSH1 0x20 DUP7 ADD PUSH2 0x11D1 JUMP JUMPDEST PUSH2 0x120C DUP2 PUSH2 0xA9D JUMP JUMPDEST DUP5 ADD SWAP2 POP POP SWAP3 SWAP2 POP POP JUMP JUMPDEST PUSH0 PUSH1 0x80 DUP3 ADD SWAP1 POP PUSH2 0x122A PUSH0 DUP4 ADD DUP7 PUSH2 0xE10 JUMP JUMPDEST PUSH2 0x1237 PUSH1 0x40 DUP4 ADD DUP6 PUSH2 0x10C6 JUMP JUMPDEST DUP2 DUP2 SUB PUSH1 0x60 DUP4 ADD MSTORE PUSH2 0x1249 DUP2 DUP5 PUSH2 0x11DF JUMP JUMPDEST SWAP1 POP SWAP5 SWAP4 POP POP POP POP JUMP JUMPDEST PUSH0 DUP2 MLOAD SWAP1 POP PUSH2 0x1261 DUP2 PUSH2 0xC54 JUMP JUMPDEST SWAP3 SWAP2 POP POP JUMP JUMPDEST PUSH0 PUSH1 0x20 DUP3 DUP5 SUB SLT ISZERO PUSH2 0x127C JUMPI PUSH2 0x127B PUSH2 0xA91 JUMP JUMPDEST JUMPDEST PUSH0 PUSH2 0x1289 DUP5 DUP3 DUP6 ADD PUSH2 0x1253 JUMP JUMPDEST SWAP2 POP POP SWAP3 SWAP2 POP POP JUMP JUMPDEST PUSH0 PUSH1 0x20 DUP3 ADD SWAP1 POP PUSH2 0x12A5 PUSH0 DUP4 ADD DUP5 PUSH2 0xF89 JUMP JUMPDEST SWAP3 SWAP2 POP POP JUMP JUMPDEST PUSH32 0x4E487B7100000000000000000000000000000000000000000000000000000000 PUSH0 MSTORE PUSH1 0x32 PUSH1 0x4 MSTORE PUSH1 0x24 PUSH0 REVERT JUMPDEST PUSH0 PUSH0 REVERT JUMPDEST PUSH0 PUSH8 0xFFFFFFFFFFFFFFFF DUP3 GT ISZERO PUSH2 0x12F6 JUMPI PUSH2 0x12F5 PUSH2 0xAAD JUMP JUMPDEST JUMPDEST PUSH2 0x12FF DUP3 PUSH2 0xA9D JUMP JUMPDEST SWAP1 POP PUSH1 0x20 DUP2 ADD SWAP1 POP SWAP2 SWAP1 POP JUMP JUMPDEST PUSH0 PUSH2 0x131E PUSH2 0x1319 DUP5 PUSH2 0x12DC JUMP JUMPDEST PUSH2 0xB0B JUMP JUMPDEST SWAP1 POP DUP3 DUP2 MSTORE PUSH1 0x20 DUP2 ADD DUP5 DUP5 DUP5 ADD GT ISZERO PUSH2 0x133A JUMPI PUSH2 0x1339 PUSH2 0x12D8 JUMP JUMPDEST JUMPDEST PUSH2 0x1345 DUP5 DUP3 DUP6 PUSH2 0x1148 JUMP JUMPDEST POP SWAP4 SWAP3 POP POP POP JUMP JUMPDEST PUSH0 DUP3 PUSH1 0x1F DUP4 ADD SLT PUSH2 0x1361 JUMPI PUSH2 0x1360 PUSH2 0xA99 JUMP JUMPDEST JUMPDEST DUP2 CALLDATALOAD PUSH2 0x1371 DUP5 DUP3 PUSH1 0x20 DUP7 ADD PUSH2 0x130C JUMP JUMPDEST SWAP2 POP POP SWAP3 SWAP2 POP POP JUMP JUMPDEST PUSH0 PUSH0 PUSH1 0x40 DUP4 DUP6 SUB SLT ISZERO PUSH2 0x1390 JUMPI PUSH2 0x138F PUSH2 0xA91 JUMP JUMPDEST JUMPDEST PUSH0 DUP4 ADD CALLDATALOAD PUSH8 0xFFFFFFFFFFFFFFFF DUP2 GT ISZERO PUSH2 0x13AD JUMPI PUSH2 0x13AC PUSH2 0xA95 JUMP JUMPDEST JUMPDEST PUSH2 0x13B9 DUP6 DUP3 DUP7 ADD PUSH2 0x134D JUMP JUMPDEST SWAP3 POP POP PUSH1 0x20 DUP4 ADD CALLDATALOAD PUSH8 0xFFFFFFFFFFFFFFFF DUP2 GT ISZERO PUSH2 0x13DA JUMPI PUSH2 0x13D9 PUSH2 0xA95 JUMP JUMPDEST JUMPDEST PUSH2 0x13E6 DUP6 DUP3 DUP7 ADD PUSH2 0x134D JUMP JUMPDEST SWAP2 POP POP SWAP3 POP SWAP3 SWAP1 POP JUMP JUMPDEST PUSH0 PUSH2 0x13FE PUSH1 0x20 DUP5 ADD DUP5 PUSH2 0xB73 JUMP JUMPDEST SWAP1 POP SWAP3 SWAP2 POP POP JUMP JUMPDEST PUSH2 0x140F DUP2 PUSH2 0xB54 JUMP JUMPDEST DUP3 MSTORE POP POP JUMP JUMPDEST PUSH0 DUP3 SWAP1 POP SWAP3 SWAP2 POP POP JUMP JUMPDEST PUSH0 PUSH2 0x142D PUSH1 0x20 DUP5 ADD DUP5 PUSH2 0xC6A JUMP JUMPDEST SWAP1 POP SWAP3 SWAP2 POP POP JUMP JUMPDEST PUSH1 0x40 DUP3 ADD PUSH2 0x1445 PUSH0 DUP4 ADD DUP4 PUSH2 0x141F JUMP JUMPDEST PUSH2 0x1451 PUSH0 DUP6 ADD DUP3 PUSH2 0xE01 JUMP JUMPDEST POP PUSH2 0x145F PUSH1 0x20 DUP4 ADD DUP4 PUSH2 0x141F JUMP JUMPDEST PUSH2 0x146C PUSH1 0x20 DUP6 ADD DUP3 PUSH2 0xE01 JUMP JUMPDEST POP POP POP POP JUMP JUMPDEST PUSH2 0x100 DUP3 ADD PUSH2 0x1483 PUSH0 DUP4 ADD DUP4 PUSH2 0x13F0 JUMP JUMPDEST PUSH2 0x148F PUSH0 DUP6 ADD DUP3 PUSH2 0x1406 JUMP JUMPDEST POP PUSH2 0x149D PUSH1 0x20 DUP4 ADD DUP4 PUSH2 0x13F0 JUMP JUMPDEST PUSH2 0x14AA PUSH1 0x20 DUP6 ADD DUP3 PUSH2 0x1406 JUMP JUMPDEST POP PUSH2 0x14B8 PUSH1 0x40 DUP4 ADD DUP4 PUSH2 0x1415 JUMP JUMPDEST PUSH2 0x14C5 PUSH1 0x40 DUP6 ADD DUP3 PUSH2 0x1435 JUMP JUMPDEST POP PUSH2 0x14D3 PUSH1 0x80 DUP4 ADD DUP4 PUSH2 0x13F0 JUMP JUMPDEST PUSH2 0x14E0 PUSH1 0x80 DUP6 ADD DUP3 PUSH2 0x1406 JUMP JUMPDEST POP PUSH2 0x14EE PUSH1 0xA0 DUP4 ADD DUP4 PUSH2 0x1415 JUMP JUMPDEST PUSH2 0x14FB PUSH1 0xA0 DUP6 ADD DUP3 PUSH2 0x1435 JUMP JUMPDEST POP PUSH2 0x1509 PUSH1 0xE0 DUP4 ADD DUP4 PUSH2 0x141F JUMP JUMPDEST PUSH2 0x1516 PUSH1 0xE0 DUP6 ADD DUP3 PUSH2 0xE01 JUMP JUMPDEST POP POP POP POP JUMP JUMPDEST PUSH0 PUSH2 0x100 DUP3 ADD SWAP1 POP PUSH2 0x1530 PUSH0 DUP4 ADD DUP5 PUSH2 0x1472 JUMP JUMPDEST SWAP3 SWAP2 POP POP JUMP JUMPDEST PUSH32 0x706F6E6700000000000000000000000000000000000000000000000000000000 PUSH0 DUP3 ADD MSTORE POP JUMP JUMPDEST PUSH0 PUSH2 0x156A PUSH1 0x4 DUP4 PUSH2 0x10EE JUMP JUMPDEST SWAP2 POP PUSH2 0x1575 DUP3 PUSH2 0x1536 JUMP JUMPDEST PUSH1 0x20 DUP3 ADD SWAP1 POP SWAP2 SWAP1 POP JUMP JUMPDEST PUSH0 DUP2 MLOAD SWAP1 POP SWAP2 SWAP1 POP JUMP JUMPDEST PUSH0 PUSH2 0x1594 DUP3 PUSH2 0x1580 JUMP JUMPDEST PUSH2 0x159E DUP2 DUP6 PUSH2 0x10EE JUMP JUMPDEST SWAP4 POP PUSH2 0x15AE DUP2 DUP6 PUSH1 0x20 DUP7 ADD PUSH2 0x11D1 JUMP JUMPDEST PUSH2 0x15B7 DUP2 PUSH2 0xA9D JUMP JUMPDEST DUP5 ADD SWAP2 POP POP SWAP3 SWAP2 POP POP JUMP JUMPDEST PUSH0 PUSH1 0x40 DUP3 ADD SWAP1 POP DUP2 DUP2 SUB PUSH0 DUP4 ADD MSTORE PUSH2 0x15D9 DUP2 PUSH2 0x155E JUMP JUMPDEST SWAP1 POP DUP2 DUP2 SUB PUSH1 0x20 DUP4 ADD MSTORE PUSH2 0x15ED DUP2 DUP5 PUSH2 0x158A JUMP JUMPDEST SWAP1 POP SWAP3 SWAP2 POP POP JUMP INVALID LOG2 PUSH5 0x6970667358 0x22 SLT KECCAK256 0xC4 0xE9 DUP5 0xCC 0xF7 SAR RETURN 0x28 0xB8 0xBB 0xB5 BLOBHASH DUP6 0xE SIGNEXTEND BASEFEE TLOAD DELEGATECALL XOR TIMESTAMP 0xE4 PUSH6 0xD342112C58D4 0xAF DUP2 BALANCE 0xE3 PUSH5 0x736F6C6343 STOP ADDMOD SHL STOP CALLER "
				},
				"gasEstimates": {
					"creation": {
						"codeDepositCost": "1135000",
						"executionCost": "infinite",
						"totalCost": "infinite"
					},
					"external": {
						"getPeer(uint256)": "infinite",
						"owner()": "2514",
						"peers(uint256)": "infinite",
						"receiveMessage((uint256,uint256,(bytes32,bytes32),uint256,(bytes32,bytes32),bytes32),bytes)": "infinite",
						"renounceOwnership()": "infinite",
						"sendPing(uint256,string)": "infinite",
						"setPeers(uint256[],(bytes32,bytes32)[])": "infinite",
						"transferOwnership(address)": "infinite"
					},
					"internal": {
						"_receiveMessageFromPeer(struct EquitoMessage calldata,bytes calldata)": "infinite"
					}
				},
				"methodIdentifiers": {
					"getPeer(uint256)": "67ebb6b2",
					"owner()": "8da5cb5b",
					"peers(uint256)": "be4f3e8f",
					"receiveMessage((uint256,uint256,(bytes32,bytes32),uint256,(bytes32,bytes32),bytes32),bytes)": "879d182d",
					"renounceOwnership()": "715018a6",
					"sendPing(uint256,string)": "cf0af879",
					"setPeers(uint256[],(bytes32,bytes32)[])": "59a1aae1",
					"transferOwnership(address)": "f2fde38b"
				}
			},
			"storageLayout": {
				"storage": [
					{
						"astId": 8,
						"contract": "src/examples/PingPong.sol:PingPong",
						"label": "_owner",
						"offset": 0,
						"slot": "0",
						"type": "t_address"
					},
					{
						"astId": 204,
						"contract": "src/examples/PingPong.sol:PingPong",
						"label": "peers",
						"offset": 0,
						"slot": "1",
						"type": "t_mapping(t_uint256,t_struct(bytes64)761_storage)"
					}
				],
				"types": {
					"t_address": {
						"encoding": "inplace",
						"label": "address",
						"numberOfBytes": "20"
					},
					"t_bytes32": {
						"encoding": "inplace",
						"label": "bytes32",
						"numberOfBytes": "32"
					},
					"t_mapping(t_uint256,t_struct(bytes64)761_storage)": {
						"encoding": "mapping",
						"key": "t_uint256",
						"label": "mapping(uint256 => struct bytes64)",
						"numberOfBytes": "32",
						"value": "t_struct(bytes64)761_storage"
					},
					"t_struct(bytes64)761_storage": {
						"encoding": "inplace",
						"label": "struct bytes64",
						"members": [
							{
								"astId": 758,
								"contract": "src/examples/PingPong.sol:PingPong",
								"label": "lower",
								"offset": 0,
								"slot": "0",
								"type": "t_bytes32"
							},
							{
								"astId": 760,
								"contract": "src/examples/PingPong.sol:PingPong",
								"label": "upper",
								"offset": 0,
								"slot": "1",
								"type": "t_bytes32"
							}
						],
						"numberOfBytes": "64"
					},
					"t_uint256": {
						"encoding": "inplace",
						"label": "uint256",
						"numberOfBytes": "32"
					}
				}
			},
			"userdoc": {
				"errors": {
					"InvalidLength()": [
						{
							"notice": "Thrown when the lengths of arrays are invalid."
						}
					],
					"InvalidMessageSender()": [
						{
							"notice": "Thrown when the sender of a message is invalid."
						}
					],
					"InvalidMessageType()": [
						{
							"notice": "Thrown when an invalid message type is encountered."
						}
					],
					"InvalidPeer(uint256)": [
						{
							"notice": "Thrown when a Peer address is not found in the mapping, given a chain selector."
						}
					],
					"InvalidRouter(address)": [
						{
							"notice": "Thrown when the router address is invalid."
						}
					],
					"RouterAddressCannotBeZero()": [
						{
							"notice": "Thrown when the router address is zero."
						}
					],
					"RouterAlreadySet()": [
						{
							"notice": "Thrown when attempting to set the router, but the router is already set."
						}
					]
				},
				"events": {
					"PingReceived(uint256,bytes32)": {
						"notice": "Event emitted when a ping message is received."
					},
					"PingSent(uint256,bytes32)": {
						"notice": "Event emitted when a ping message is sent."
					},
					"PongReceived(uint256,bytes32)": {
						"notice": "Event emitted when a pong message is received."
					},
					"PongSent(uint256,bytes32)": {
						"notice": "Event emitted when a pong message is sent."
					}
				},
				"kind": "user",
				"methods": {
					"constructor": {
						"notice": "Initializes the PingPong contract and sets the router address."
					},
					"getPeer(uint256)": {
						"notice": "Returns the peer address for a given chain selector."
					},
					"receiveMessage((uint256,uint256,(bytes32,bytes32),uint256,(bytes32,bytes32),bytes32),bytes)": {
						"notice": "Receives a cross-chain message from the Router Contract.         It is a wrapper function for the `_receiveMessage` functions, that need to be overridden.         Only the Router Contract is allowed to call this function."
					},
					"sendPing(uint256,string)": {
						"notice": "Sends a ping message to the specified address on another chain."
					},
					"setPeers(uint256[],(bytes32,bytes32)[])": {
						"notice": "Allows the owner to set the peer addresses for different chain selectors."
					}
				},
				"notice": "This contract implements a simple ping-pong message exchange using the Equito cross-chain messaging protocol.",
				"version": 1
			}
		}
	}
}